:100000000C946C030C94B3030C94B3030C94B303DF
:100010000C94B3030C94B3030C94B3030C94B30388
:100020000C94B3030C94B3030C945B250C942D2611
:100030000C94001F0C94B3030C94B3030C94B303FF
:100040000C94B3030C94B3030C94B3030C94B30358
:100050000C94B3030C94591F0C94B3030C94B30386
:100060000C94B3030C94B3030C94B3030C94B30338
:100070000C94B3030C94B3030C94B3030C94B30328
:100080000C94B3030C94B3030C94B3030C94B30318
:100090000C94B3030C94B3030C94B3030C94B30308
:1000A0000C94B3030C94B3030C94B303E60EE90E63
:1000B000F10EF60EFB0E000F050F0A0F0F0F140FB7
:1000C000190F1E0F200F230F260F290F2C0F2F0F94
:1000D000310F360F78147814AA14AA14F7142B16BB
:1000E0002B162B161515AA15BB15BB151B162B1693
:1000F0002B162416C716C716D916D916D016D91618
:10010000D916D916C716C716D516D916D916D516A3
:100110009A26C126B927C126B9270D273027B92726
:1001200087279627290014001A00080015001700D9
:100130001C0018000C00120013002D002A002B00D8
:1001400004001600070009000A000B000D000E0055
:100150000F00330000002800E1001D001B00060016
:100160001900050011431100100036003700380057
:100170005200E000E2000000E3002A4100002C42AF
:1001800000000451000000000553510029001E0228
:100190001F0220022102220223022402250226023B
:1001A00027022D004C002B00000000000000000082
:1001B000000000002D002E002F003000000028005D
:1001C000E10000000000000000000000000000004E
:1001D000000000004B004E000000E000E2000000C4
:1001E000E3000000000004510000000000000000D7
:1001F0000000000035001E001F002000210022002A
:10020000230024002500260027002D002E002B00AF
:10021000000000000000000000000000500051003D
:1002200052004F0000002800E10000000000000024
:1002300000000000000000000000000000000000BE
:10024000E500E000E2000000E300045100000000CF
:100250000000E30000000000E600E4003A003B007C
:100260003C003D003E003F00400041004200430092
:10027000440045004C002900000000000000000080
:1002800000000000000052000000000000002800F4
:10029000E10000000000000000000000000000007D
:1002A000500051004F000000E500E000E2000000B7
:1002B000E300010000000100000001000000000058
:1002C000E600E400C35CC45CC65CC85CCA5CCC5C91
:1002D0000000000052000000A800AA00A9002900A8
:1002E000C55CC75CC95CCB5CCD5C000050005100B4
:1002F0004F00330000002800E10000000000000073
:1003000000000000000000000000000000000000ED
:100310000000E000E2000000E30001000000010036
:100320000000010000000000000000002B0014008D
:100330001A000800150017001C0018000C0012001D
:1003400013002D002A0029000400160007000900F0
:100350000A000B000D000E000F0033000000280003
:10036000E1001D001B00060019000500110011002E
:1003700010003700500052004F00E000E200000083
:10038000E3002C0000002C00000000000000000032
:10039000055351001E0F0500047F3F1F6432146493
:1003A0003214783C1E1E140A052223252628292AE9
:1003B0002C2D2F3032333536383A3B3D3E404243C8
:1003C0004547494A4C4E5051535557595A5C5E6007
:1003D00062646668696B6D6F71737577797B7D7F19
:1003E00081838587898A8C8E90929496989A9C9E18
:1003F0009FA1A3A5A7A8AAACAEAFB1B3B4B6B8B934
:10040000BBBCBEBFC1C2C3C5C6C7C9CACBCCCDCE9B
:10041000D0D1D2D2D3D4D5D6D7D7D8D9D9DADADB7E
:10042000DBDBDCDCDCDCDCDDDDDDDDDCDCDCDCDC0A
:10043000DBDBDBDADAD9D9D8D7D7D6D5D4D3D2D249
:10044000D1D0CECDCCCBCAC9C7C6C5C3C2C1BFBE31
:10045000BCBBB9B8B6B4B3B1AFAEACAAA8A7A5A39C
:10046000A19F9E9C9A98969492908E8C8A8987855B
:1004700083817F7D7B79777573716F6D6B6968663A
:100480006462605E5C5A5957555351504E4C4A490C
:1004900047454342403E3D3B3A3836353332302FB4
:1004A0002D2C2A292826252322FFAA7F554000012A
:1004B0000101010101010101020202020202020224
:1004C00002030303030303030304040404040404F6
:1004D00005050505050606060606070707070708BA
:1004E000080808090909090A0A0A0B0B0B0C0C0C6D
:1004F0000D0D0D0E0E0E0F0F0F1010111111121207
:1005000013131414151516161717181819191A1A83
:100510001B1B1C1D1D1E1E1F2020212222232424E4
:10052000252626272829292A2B2C2D2D2E2F303120
:100530003232333435363738393A3B3C3D3E3F4032
:100540004142434445464748494A4C4D4E4F50511D
:100550005354555658595A5B5D5E5F6162646566D7
:1005600068696B6C6D6F7072737577787A7B7D7E5E
:100570008082838587888A8C8E8F91939596989AAE
:100580009C9EA0A2A3A5A7A9ABADAFB1B3B5B7BAC6
:10059000BCBEC0C2C4C6C9CBCDCFD1D4D6D8DBDD9A
:1005A000DFE2E4E7E9EBEEF0F3F5F8FAFDFF18031C
:1005B0005000720069006D0065005F00450020007A
:1005C0005200470042000000100350007200690012
:1005D0006D0065004B00420000000403090409029D
:1005E0003B00020100A0FA09040000010301010020
:1005F0000921110100012240000705810308000ABA
:100600000904010001030000000921110100012279
:100610006D000705820320000A120110010000008E
:10062000085250520001000102000105010980A199
:1006300001850319012AB700150126B70095017538
:10064000108100C0050C0901A101850419012AA02F
:1006500002150126A002950175108100C00501094F
:1006600006A1018505050719E029E7150025019573
:1006700008750181020507190029EF15002501956C
:10068000F07501810205081901290595057501918B
:1006900002950175039101C005010906A101050735
:1006A00019E029E7150025019508750181029501DA
:1006B000750881010507190029FF150026FF00951F
:1006C0000675088100050819012905950575019130
:1006D00002950175039101C011241FBECFEFDAE02E
:1006E000DEBFCDBF04B603FE27C080910303909107
:1006F0000403A0910503B09106038730904BA740F7
:10070000B04BD1F41092030310920403109205032E
:100710001092060314BE84B7877F84BF0FB6F89487
:10072000A8958091600088618093600010926000BD
:100730000FBEE0E0F8E3099511E0A0E0B1E0E8E9E0
:10074000F2E502C005900D92A23CB107D9F723E073
:10075000A2ECB1E001C01D92A330B207E1F70E9404
:1007600093220C944A290C9400000C94640481E0B8
:10077000089581E008950C94B90308950C94BD0385
:100780001F93CF93DF9300D000D01F92CDB7DEB779
:1007900049835A836B833091160289819A81311182
:1007A00014C0662359F0222349F00E94001C182F20
:1007B000682F89819A810E94A91B03C00E94D41BC3
:1007C000182F69817A81812F04C00E94001C6981E1
:1007D0007A810F900F900F900F900F90DF91CF9133
:1007E0001F910C947604FC01262F40815181628177
:1007F000738184810C94C003CF93DF93EC0160E09C
:100800000E94F303BE01DF91CF910C94BE030E94BE
:10081000341D811102C00E94E51D0C9493060C94B6
:100820008F0608950E94B5160E9411042FEF84E3ED
:100830009CE0215080409040E1F700C000000C9403
:100840007F1F0F931F93CF93DF93EC0161E00E9412
:10085000F3038C01BE010E94BB03882379F1BE0122
:10086000C8010E94DE0F882349F1BE01C8010E9421
:100870003010882319F1BE01C8010E945B11882342
:10088000E9F0BE01C8010E94CF0E8823B9F08A8129
:10089000882369F001158CE5180731F00F3D1C45E0
:1008A00031F40E94E51D0AC00E94120407C0CE0167
:1008B000DF91CF911F910F910C94B70380E0DF91EE
:1008C000CF911F910F910895089581E008950C94A0
:1008D0006504CF93C82F0E94B5038C2F0E94670434
:1008E000CF91089580E090E00895089524E3829FD9
:1008F000C0011124FC012DE0729FE00DF11D1124B7
:10090000E60FF11DEE0FFF1FEC5DFE4F85919491F8
:100910000895880F991FFC01EC56FC4F8591949126
:100920000895CF93DF930E9476040E94A305EC0103
:100930008115904508F043C0C11580E4D80708F040
:10094000CBC0C03ED10528F5C03CD10508F0B3C0EE
:10095000C83AD10578F4C53AD10508F0A4C0C13031
:10096000D10509F4ECC008F4E8C0C430D10508F0A2
:10097000E6C0E3C0CF3BD10508F0DFC0C85AD0E0E5
:10098000CC0FDD1FCC5DDE4F0990D881C02DD46423
:10099000D6C0C11590E2D90750F4C11521E0D207A5
:1009A00008F0CDC0C83ED10508F4C9C0C6C0C11505
:1009B00080E3D80708F086C0CE019F707FC0C115C4
:1009C00095E5D90708F043C0C11524E5D20708F022
:1009D0009AC0C11582E5D80708F5C11591E5D90778
:1009E00008F07DC0CE0174E0969587957A95E1F781
:1009F00083709C2F937021E030E002C0220F331FE0
:100A00009A95E2F73C68382BCF70C695C69580E280
:100A1000C89FE0011124C22BD32B91C09E012370EB
:100A200033278C2F86958695C115D34508F05CC079
:100A3000C1E0D0E002C0CC0FDD1F2A95E2F720E232
:100A4000829FC0011124C82BD92BDC6878C0C11546
:100A500029E5D207A0F4C11588E5D80708F058C0E9
:100A6000C11596E5D90708F068C08C2F0E9437069B
:100A70008F71C82FD0E0DC2FCC27D06260C0C115A9
:100A80002AE5D20708F449C0CE019056811590425C
:100A900008F053C08D2F8F710E943706DD27D0627A
:100AA0008F71D82B4CC0C55AD0E0CE5ADE4FC881CA
:100AB000D0E0D06444C0CE01805C91090E948904DA
:100AC000EC013DC0CE019927D3FF03C0EC01D86CE7
:100AD00036C0EC01D06C33C0DF70D06A30C0DC2F80
:100AE000CC27C16FD06A2BC0C1E0D0E002C0CC0FD0
:100AF000DD1F2A95E2F720E2829FC0011124C82B56
:100B0000D92BDA681CC0DC2FCC27C46FD06A17C081
:100B1000DC2FCC27C06FD06A12C08C2F8F700E9440
:100B2000370694E0D695C7959A95E1F7CF70D0E057
:100B3000DC2FCC27D069C82B02C0C0E0D0E0CE01AA
:100B4000DF91CF9108958238910569F1B0F4813336
:100B5000910509F46DC048F48932910509F463C028
:100B60008A32910509F469C008958533910509F425
:100B700055C089339105B9F00895833E910569F117
:100B800038F4803E9105B1F0823E910509F1089557
:100B9000863E9105A9F1873E9105B9F1843E910504
:100BA00009F064C023C02091F40220FD4FC021FD54
:100BB0004DC008958091F40280FD44C08091F502FB
:100BC00080FF44C08091F40284FD42C083EE4DC09A
:100BD0008091F40282FF38C0F5CF8091F40282FD4B
:100BE00033C08091F50280FD31C0ECCF8091F502D9
:100BF00081FF32C08091F40284FD2AC087EE35C0A7
:100C00008091F40283FF26C0F5CF8091F40283FD2A
:100C100021C08091F50281FD1FC0ECCF8091F402CC
:100C200085FD1CC01DC08091F40285FD19C016C051
:100C30008091F40286FD16C017C08091F40286FDF3
:100C400013C010C089E311C082EE0FC080EE0DC04A
:100C500080E00BC086EE09C084EE07C089E205C0C3
:100C600085E303C08AE201C081E390E0089590919A
:100C7000F40292FF0DC0282F2871283019F4877FC5
:100C8000846006C0282F2471243011F48B7F886083
:100C900093FF0DC0282F2871283119F4877E8461B5
:100CA00006C0282F2471243111F48B7E8861209195
:100CB000F50220FF0DC0382F3871383019F4877FC6
:100CC000816006C0382F3171313011F48E7F886019
:100CD00021FF0DC0282F2871283119F4877E8161EA
:100CE00006C0282F2171213111F48E7E886194FD78
:100CF000877E0895E82FF0E0EE0FFF1FE553FD4FCC
:100D0000808191810895089580EA8A95F1F7089588
:100D100000C008950C94840608950C948C060C94DD
:100D20008D060C948C060C949106F894E82FE295AD
:100D3000EF70F0E031A1282F2F7081E090E001C02A
:100D4000880F2A95EAF7982F9095932391A392A163
:100D5000892B82A3789408950F931F93CF93DF93E9
:100D600086EC0E94950687E60E94950685E30E9420
:100D7000950684E30E949506C5E5D1E002E611E000
:100D800089910E9495060C171D07D1F71092C40295
:100D90001092C3021092CC021092CB021092C602A3
:100DA0001092C5021092CE021092CD021092C8028B
:100DB0001092C7021092D0021092CF021092CA0273
:100DC0001092C9021092D2021092D10284E00E94C5
:100DD0008207DF91CF911F910F910C9407047F92AE
:100DE0008F929F92AF92BF92CF92DF92EF92FF923B
:100DF0000F931F93CF93DF9303EC12E082E6E82E6C
:100E000081E0F82EC0E0D0E0712CAA24A394B12C8C
:100E10004701F7018081F894E82FE295EF70F0E048
:100E200021A18F70A50102C0440F551F8A95E2F7DA
:100E3000CA01922F982B91A392A18095892382A316
:100E400078940E948806E5E5F1E020E030E0C12CCE
:100E5000D12C4191A42FA295AF70B0E090968C91C7
:100E600090E04F7002C0959587954A95E2F780FD16
:100E700008C0C501022E02C0880F991F0A94E2F72C
:100E800002C080E090E0C82AD92A2F5F3F4F2D3062
:100E90003105F9F65FEFE51AF50AF40180810E9449
:100EA0009506C330D10511F00E948A06F8018081B1
:100EB0009181C816D90621F0D182C08281E001C09B
:100EC00080E0782A21960E5F1F4FC430D10509F0CB
:100ED0009FCF272D44E06BEC72E083EC92E00E9400
:100EE00083070E940F04872DDF91CF911F910F91EF
:100EF000FF90EF90DF90CF90BF90AF909F908F903A
:100F00007F9008950895FF920F931F93CF93DF93DF
:100F1000F82E092F162FD72FC42F222349F081E056
:100F20008093C6010E94321F9093C5018093C40133
:100F30008091C6018823D9F08091C4019091C501A8
:100F40000E944A1F069798F0EF2DF02FA12FBD2F7A
:100F500080E090E04C2F50E08417950734F4219105
:100F600031912D933D930196F7CF1092C601DF91F9
:100F7000CF911F910F91FF900895EF92FF920F93E1
:100F80001F93CF93DF938B01682F11110AC0442365
:100F900029F0E82FF0E0E255FB4F6491762F862F81
:100FA00075C0212F30E0E82FF0E0442321F0E25516
:100FB000FB4FE491F0E046E0049FC0011124CFEF25
:100FC000D0E0BE010E94F9274BEA4603C001479FCB
:100FD000900D1124800F911D800F911D982F990F56
:100FE000890FAE01421B530B4E9FD0014F9FB00D96
:100FF0005E9FB00D11249B2F189FA0011124452F37
:1010000055278E01041B150B0E9FA0010F9F500D3D
:101010001E9F500D11247E01E81AF108E29E800106
:10102000E39E100DF29E100D1124212F3327C21BB9
:10103000D30BCE9F9001CF9F300DDE9F300D11243A
:1010400062307105A9F048F46115710569F06130ED
:101050007105C9F48B2F752F0DC06430710581F0B7
:1010600058F06630710579F47E2F8B2F932F0DC0C9
:10107000832F7B2F9E2F09C08E2F7B2F952F05C08E
:101080008E2F732F02C07E2F852F692FDF91CF9176
:101090001F910F91FF90EF90089541E00E94BD07CE
:1010A000089508950E944D080895CF93DF93762FF9
:1010B000E901682F842F0E945208798368838A830C
:1010C000DF91CF9108958091D302282F269530E0AB
:1010D0002115310519F48170826005C02B3231056C
:1010E00024F0817084658093D302089588E090E0B5
:1010F0000C94EB28CF92DF92EF92FF926B017C0170
:101100000E946308B701A60188E090E0FF90EF908D
:10111000DF90CF900C940929E3EDF2E083E0808327
:1011200011828FEF82838383148260817181828137
:1011300093810C947A088091D30280FF02C0869537
:10114000089580E008959091D702933018F49F5F3E
:101150009093D702882351F06091D3027091D4020A
:101160008091D5029091D6020C947A08089581E07E
:101170000C94A3089091D702992319F09150909361
:10118000D702882351F06091D3027091D4028091EC
:10119000D5029091D6020C947A08089581E00C94BF
:1011A000BA0870E00C94400F609108018091D3025E
:1011B00080FF0AC08091070123E0829FC0011124B3
:1011C00088529D4F0C94D1088091090190910A0199
:1011D000891780F7E82FF0E09F01220F331FE20FFD
:1011E000F31FE852FD4F1182108212828F5FF0CF01
:1011F0009091D30290FF16C09091090120910A01AD
:10120000921770F4E92FF0E0DF01AA0FBB1FEA0F7D
:10121000FB1FE852FD4F8183608342839F5FF0CFC5
:101220000C94D4080895CF93DF9300D01F92CDB7CC
:10123000DEB79091D30290FF0AC09E012F5F3F4F0F
:101240000E9455084B8169818A810E94F8080F909D
:101250000F900F90DF91CF910895CF93DF93EC0122
:10126000EC81F0E0E755FC4F4491E3EDF2E0628160
:1012700081810E9413098C818F5F8C83DF91CF91D4
:101280000895CF93DF93EC01E3EDF2E043816281B7
:101290008C810E9413098C818F5F8C83DF91CF91A9
:1012A00008950F931F93CF93DF9300D01F92CDB774
:1012B000DEB78C018091C70181110AC09E012F5FAA
:1012C0003F4F4FEF6FEF0E9455088A818093C7010F
:1012D000F8018481813051F028F0823061F440912E
:1012E000C7010AC08091C70140E007C06091C701F3
:1012F00040E080E003C040E080E060E00E94F80849
:10130000F801848190E0019663E070E00E940D286E
:1013100084830F900F900F90DF91CF911F910F91C9
:101320000895AF92BF92CF92DF92EF92FF920F9308
:101330001F93CF93DF9300D01F92CDB7DEB7182F46
:10134000F62E042FE22E9091D30290FF6DC0E92F6C
:10135000E695AE2FB0E0AA59BE4F8C918093F9016B
:101360009E7F923061F49E012F5F3F4F812F0E943C
:1013700055084B8169818A810E94F80843C08230F8
:1013800019F40091D6023EC0863019F41091D402AF
:1013900039C08930D9F38931A9F5E9518E2F81708F
:1013A000D82EE695F0E0E755FB4FA590B490C12C00
:1013B000BB2460910B01C61618F52C2D30E0A29EBF
:1013C000C001A39E900DB29E900D112470E00E946A
:1013D000F927812FD11002C0860F01C0861B909182
:1013E0000901290F311DA901440F551F240F351F75
:1013F00028523D4F402F6F2D0E945508C394D9CFDE
:101400000E94D4081093D402F092D5020093D60221
:10141000EE2051F06091D3027091D4028091D502F8
:101420009091D6020E947A080F900F900F90DF9152
:10143000CF911F910F91FF90EF90DF90CF90BF90D1
:10144000AF900895E3EDF2E09181282F438162810E
:1014500088E0890F0C94910981E00C94220AE3ED55
:10146000F2E09181282F4381628188EF890F0C94EB
:10147000910981E00C942F0AE3EDF2E0628121E111
:10148000620F08F46FEF282F438181810C9491093A
:1014900081E00C943C0AE3EDF2E0628121E1621B01
:1014A00008F460E0282F438181810C94910981E048
:1014B0000C944B0AE3EDF2E0438121E1420F08F482
:1014C0004FEF282F628181810C94910981E00C9467
:1014D0005A0AE3EDF2E0438121E1421B08F440E0C7
:1014E000282F628181810C94910981E00C94690A12
:1014F00020E00C949109FF920F931F93CF93DF93F9
:10150000EC01F12C0FEF10E060910B01F616F0F4F6
:10151000809109012F2D30E0280F311DC901880F5E
:10152000991F280F391F28523D4F70E0C8010E94B3
:101530000D28962F8C814091D6026091D502F99E9C
:10154000800D11240E945508F394DECF0E94D40828
:101550009A818C8190FF02C08F5F01C081508C8383
:10156000DF91CF911F910F91FF900895BF92CF927D
:10157000DF92EF92FF920F931F93CF93DF93FC01C3
:10158000828180FF02C00FEF01C001E010E0809176
:101590000B01181708F040C080910901C12ED12C11
:1015A000E601C80FD11DCE01880F991FC80FD91FA2
:1015B000C852DD4F198218821A8234E0E32EF12CD2
:1015C000B12C8091C9018B0D893014F0877005C052
:1015D00087FF03C090910B01890F082E000C990B17
:1015E000C816D90691F48091D6028E9DA0018F9DD8
:1015F000500D112455954795559547959E0160913D
:10160000D5028091D4020E945508B00EF1E0EF1A85
:10161000F108B9F61F5FBBCF0E94D4088091C901C1
:10162000013031F4811102C080910B01815007C05B
:1016300090E0019660910B0170E00E940D2880936C
:10164000C901DF91CF911F910F91FF90EF90DF9033
:10165000CF90BF900895CF938091090190910A0196
:10166000891770F4E82FF0E09F01220F331FE20F7B
:10167000F31FE852FD4F1182108212828F5FF0CF6C
:10168000C0E060910B01C617C0F5EC2FF0E070E0F0
:10169000CF010E940D2820910901820F2091C801DD
:1016A000022E000C330B90E0E217F307CCF02091F0
:1016B0000601022E000C330B2E173F078CF09C0105
:1016C000220F331F820F931F9C0128523D4F4091E0
:1016D000D6026091D5028091D4020E9455080BC0B9
:1016E000FC01EE0FFF1F8E0F9F1FFC01E852FD4F04
:1016F000118210821282CF5FC4CF0E94D408209141
:1017000005018091C801820F8093C8019091060164
:10171000920F9093060119165CF4082E000C990B99
:1017200040910B0150E041505109841795071CF07E
:10173000219520930501CF9108958F929F92AF92AA
:10174000BF92CF92DF92EF92FF920F931F93CF93AE
:10175000DF938C01FC014481C42FD0E09E01DE01A7
:101760000E9451289B01AC010E9467286B017C01FB
:10177000E0E2F0E0EC1BFD0BA5E5B0E09B01AC0165
:101780000E9467284B015C019F01DF010E944928EC
:101790009B01AC010E9472289B01AC012C0D3D1DE8
:1017A0004E1D5F1DC501B4010E942128C22FD22FFA
:1017B0002A3228F4F3E02F9F900111240DC025E573
:1017C00030E02C1B3109C901880F991F280F391FE0
:1017D00037FF02C02F5F3F4F35952795C22FC09529
:1017E000F12C85E5E82EED1A80910B01F816C8F46E
:1017F000F1FC02C08E2D01C08D2F909109012F2D7B
:1018000030E0290F311DA901440F551F240F351F4A
:1018100028523D4F4C2F6091D5020E945508F394F9
:10182000E3CF0E94D408F8018481811102C091E0C5
:1018300003C0803219F49FEF90930401909104014A
:10184000890FF8018483DF91CF911F910F91FF9051
:10185000EF90DF90CF90BF90AF909F908F900895C2
:101860000F931F93CF93DF93EC0100E010E0809182
:101870000B01282F30E00217130724F5909109017E
:101880009801290F311DA901440F551F240F351F41
:1018900028523D4F869590E04C81081719071CF49B
:1018A000442331F002C0411103C04091D60201C06F
:1018B00040E06091D5028091D4020E9455080F5FEC
:1018C0001F4FD5CF0E94D4088C8190E00196817083
:1018D00099278C83DF91CF911F910F9108957F926B
:1018E0008F929F92AF92BF92CF92DF92EF92FF9230
:1018F0000F931F93CF93DF93FC018280748081E06C
:101900008483E9EAF3E09490E8E2F4E0E491A12C26
:10191000F5E0BF2ECC24CA94D12CE9190E2F10E08B
:1019200080910B01A81608F0A2C0EA2CF12C22E04D
:10193000281568F0BE9CF001BF9CF00D1124E65301
:10194000FE4F8091D40280838091D50281837110F3
:101950000AC0BE9CF001BF9CF00D1124E653FE4F5F
:10196000138212826AC0BE9CE001BF9CD00D11247C
:10197000C653DE4F8B818823F9F081508B832FEF84
:10198000829FC00111246C8170E00E94F927FB0145
:10199000FF27E755FC4F8491E82FE9192FEFE29FCD
:1019A000C0011124B8010E94F9278091D602689FD6
:1019B000B00111247A8341C00E94C6282091D6022A
:1019C0002695215830E0A901440F551F322F2227B8
:1019D000240F351F232F33278217930774F582E0D6
:1019E000881588F40E94C628B6010E940D288883B5
:1019F0000E94C6282091D5022695622F70E00E9491
:101A00000D28280F2983BE9CF001BF9CF00D1124E6
:101A1000E653FE4F12828091D602843120F0893C39
:101A200018F088EC01C084E1BE9CF001BF9CF00D71
:101A30001124E653FE4F848383838091090197012B
:101A4000280F311DC901880F991F280F391F2852EF
:101A50003D4FBE9CF001BF9CF00D1124E653FE4F9C
:101A60004281618180810E945508A39459CFDF9102
:101A7000CF911F910F91FF90EF90DF90CF90BF908B
:101A8000AF909F908F907F900C94D408E3EDF2E09C
:101A900080818E7F808360817181828193810E94A9
:101AA0007A081092FA012FEF80E792E021508040EF
:101AB0009040E1F700C000000C94D4086091D3027C
:101AC000669570E04BE050E08CE091E00E94D628F3
:101AD000892B19F481E08093FA010E94321F9093C0
:101AE000F3018093F20108959091D30290FF35C0E5
:101AF0009170811102C0926006C08B3210F0946523
:101B000002C0880F982B9093D302662351F0609106
:101B1000D3027091D4028091D5029091D6020E9496
:101B20007A086091D302669570E04BE050E08CE05B
:101B300091E00E94D628892B19F01092FA0102C078
:101B40000E945E0D81E08093F5014091D602609184
:101B5000D5028091D4020C94780A0895682F909150
:101B6000D302969581E0890F8B3208F081E00C94C6
:101B7000740D81E00C94AE0D682F9091D302969570
:101B80008FEF890F09F48AE20C94740D81E00C94B4
:101B9000BC0D61E00C94740DE3EDF2E08081816096
:101BA000808386950C94C90D8091D30280FD0C949E
:101BB000460D0C94CC0D60E00C94740D8091F801EE
:101BC00081112EC00E94341D811104C00E94E51DA8
:101BD0000E948C080E9476086093D3027093D4020E
:101BE0008093D5029093D6026E7F61F40E948C0898
:101BF0000E9476086093D3027093D4028093D5023A
:101C00009093D6020E9463081092FA018091D30249
:101C100080FF03C086950E94DB0D81E08093F80170
:101C200008950F931F93CF93DF938091FA01882338
:101C300009F495C08091F901E091D302E695E81B83
:101C4000E093F401823049F4F0E0EB55FC4FE4916D
:101C5000CE2FD0E00DE219E059C0863049F4F0E013
:101C6000EE55FC4FE491CE2FD0E001E419E04EC0D8
:101C7000893051F4E695F0E0E156FC4FE491CE2F27
:101C8000D0E00BE71AE042C08F3051F4E695F0E067
:101C9000E456FC4FE491CE2FD0E006EB1AE036C0BC
:101CA000853149F4F0E0E756FC4FE491CE2FD0E0C7
:101CB0000BE21BE02BC08831D9F0833239F4E7E91D
:101CC000F3E0C591D49101E519E020C08432A9F078
:101CD0008532C1F48E2F63E00E94ED27E92FF0E0FA
:101CE000EC56FC4FE491CE2FD0E00FE61CE00EC086
:101CF000C8E2D0E00DE91BE009C0C4EFD1E000E389
:101D00001CE004C0C0EDD7E001E518E08091F501CA
:101D1000882361F01092F5010E94321F9093F30125
:101D20008093F2011092F7011092F6010E94321F87
:101D3000E091F201F091F3018E1B9F0B8F3F9F47C3
:101D400070F4EC0FFD1FF093F301E093F20182EFCA
:101D500091E0F801DF91CF911F910F910994DF91EC
:101D6000CF911F910F910895882311F0FA0101C0BE
:101D7000FB010994CF93DF93C82FD62F0E949B08B5
:101D80008C1740F00E949B088D1720F4DF91CF91B3
:101D90000C94B90D8C2FDF91CF910C94C90D0F933A
:101DA0001F93CF93FB01C281CC2309F463C08C0144
:101DB0000E94811C8272F801E35CFC45E431F1056C
:101DC00008F059C0EA5AFF4F0C9443280E94D40DE2
:101DD00006C046EC5DE069EB7DE00E94B40EC0E019
:101DE0004AC049EB5DE066EC7DE0F7CF49E35AE09D
:101DF0006CE27AE0F2CF4CE25AE069E37AE0EDCFB0
:101E000047E55AE068E47AE0E8CF48E45AE067E55D
:101E10007AE0E3CF45E75AE066E67AE0DECF46E6D1
:101E20005AE065E77AE0D9CF4EEC58E067EB78E00E
:101E3000D4CF47EB58E06EEC78E0CFCF81E017C00D
:101E400065E082E010C068E086E00DC06EE089E0E9
:101E50000AC064E18FE007C067E185E104C088E162
:101E600006C062E289E10E94BA0EB9CF83E20E9405
:101E7000C90DB5CFC1E08C2FCF911F910F9108955F
:101E8000279A25B12F7735B130684FB7F894FC0108
:101E9000CB01880F991F680F791F6E0F7F1FE61700
:101EA000F70789F0819198E035B9000000C087FFFD
:101EB00025B9880F000000C000C000C025B900C0CF
:101EC0009A9591F7ECCF4FBF8FE594E00197F1F72A
:101ED00000C0000008950F931F93CF93DF93C42F8A
:101EE000D22FFC0182818823C9F04093FD010E941A
:101EF000321F9093FC018093FB0180E28C0F8830AD
:101F000008F057C0C77081E001C0880FCA95EAF792
:101F1000DF91CF911F910F910C9437148091FD01A7
:101F2000481330C08091FB019091FC010E944A1F30
:101F3000883C910538F510E21D0FCD17B9F080E20D
:101F40008C0F883040F4C77081E001C0880FCA95BB
:101F5000EAF70E943E14183028F581E09D2F977013
:101F600001C0880F9A95EAF70E943714802F0E94CB
:101F70002E141830F0F4D77081E001C0880FDA9584
:101F8000EAF70AC080E28C0F883098F4C77081E0CD
:101F900001C0880FCA95EAF7DF91CF911F910F9189
:101FA0000C943E14802FDF91CF911F910F910C94D0
:101FB0002E14DF91CF911F910F9108950F939C01E3
:101FC000CB01243F4CE5340731F188F4293DFCE591
:101FD0003F07D9F02A3D4CE5340779F1283D3C45CF
:101FE000A9F506E221EE41EE68ED7CE52BC0263F27
:101FF000FCE53F07E1F0A8F0273F3C4539F507E253
:1020000025EE46EE67EF7CE51DC007E225EE45EEC6
:1020100069ED7CE517C006E221EE40EE64EF7CE559
:1020200011C007E225EE44EE65EF7CE50BC006E249
:1020300021EE42EE66EF7CE505C008E221E045EEC8
:102040006AED7CE50E946B0F80E008C0FC01828194
:10205000882319F01092FD0101C081E00F910895CD
:10206000CF93DF93EC01FB018281882309F41FC128
:10207000C230FCE5DF0708F41BC1C6319CE5D90777
:1020800038F09E012B5F3C452930310508F010C126
:102090000E94511D9093F5028093F402C031ECE54B
:1020A000DE0709F4C3C008F041C0C8308CE5D8078A
:1020B00009F49AC0F0F4C430ECE5DE0709F487C0F7
:1020C00068F4C2308CE5D80709F477C0C330DC452A
:1020D00009F0E3C08091F402826076C0C630ECE57E
:1020E000DE0709F46EC008F07BC08091F4028860BE
:1020F0006BC0CC308CE5D80709F485C068F4CA30D1
:10210000ECE5DE0709F474C008F079C00E94B5164A
:102110008091F402806858C0CE308CE5D80709F46D
:1021200076C008F07FC08091F4028BC0CC3FECE514
:10213000DE0709F44FC018F5C3318CE5D80709F460
:102140007DC078F4C131ECE5DE0709F473C0C2311B
:10215000DC4509F0A2C00E94B5168091F4028F7789
:1021600033C0C5318CE5D80709F472C008F486C0C5
:10217000CB3FDC4509F091C08091F5023EC0C1150E
:10218000FDE5DF0709F45FC058F4CE3F9CE5D907B1
:1021900009F444C008F43FC08091F50282602DC06C
:1021A000C230FDE5DF0709F475C008F45DC0C33037
:1021B000DD4509F072C080E06EC08091F40281605C
:1021C00003C08091F40280618093F40266C0809124
:1021D000F40211C08091F50282608093F5025DC027
:1021E0008091F4028062F0CF8091F4028064ECCFA1
:1021F0008091F40288608460E7CF8160EECF8091A7
:10220000F4028E7FE1CF8091F4028D7FDDCF80914B
:10221000F402877FD9CF8091F50218C08091F50232
:102220008D7FDBCF8091F4028F7ECECF8091F40240
:102230008F7DCACF8091F4028F7BC6CF8091F4024C
:10224000877F8B7FC1CF8091F5028D7F8E7FC5CF39
:102250008091F40282FB222720F991E0922790FBE3
:1022600082F990FB83F9B0CF8091F502982F909579
:1022700091708E7F892B90FB81F9AFCF0E94B516AC
:102280008091F40287FB222720F991E0922790FBAE
:1022900087F99ACF81E00E94E71D8091F402909126
:1022A000F5020E94621D0E94B51680E001C081E027
:1022B000DF91CF910895CF93DF9386319C4541F50F
:1022C000EB010E94811C982F8A8120911701309187
:1022D0001801882379F09A7A81E009F480E08093EC
:1022E000FE01911102C069E201C065E3C9010E94CB
:1022F000821E0AC08091FE01811102C069E201C004
:1023000065E3C9010E948D1E0E94CF1C80E001C0C0
:1023100081E0DF91CF9108959093040280930302AE
:102320000895E0910302F0910402309721F00190AA
:10233000F081E02D099480E00895E0910302F0918E
:102340000402309799F020912301222359F0209123
:10235000F40227FF07C0DC012C9111962C931197F2
:1023600025E02C930280F381E02D099408952091BB
:102370000102309102022817390771F0909302028E
:1023800080930102E0910302F0910402309721F062
:102390000680F781E02D099408952091FF01309186
:1023A00000022817390771F0909300028093FF0113
:1023B000E0910302F0910402309721F00084F1854E
:1023C000E02D099408950E943E1F609312027093BD
:1023D0001302809314029093150260930E0270937F
:1023E0000F028093100290931102089585B78068C0
:1023F00085BF85B7806885BF089581E008950C94F6
:10240000FD1108950C9401120C9401120C94041205
:102410000C9401120C9408120C9401120E94F611F3
:1024200082E39DE10E94A31F0E940C120C940A12E9
:102430000E94291F0E94AC060E94F41F0E94DE0D1C
:102440000C9406126F927F928F929F92AF92BF92DE
:10245000CF92DF92EF92FF920F931F93CF93DF9370
:10246000CDB7DEB72A970FB6F894DEBF0FBECDBF4B
:102470000E9402120E9401120E94EF0681110E9426
:10248000E31136E0832E32E0932E00E010E0C02E00
:10249000802F0E947A065C01F401619071904F01D7
:1024A0006826792661147104B1F40F5F1F4F043060
:1024B000110569F78FEF89838A831B820E94321F7F
:1024C0008160782F9D838C8349815A816B818D81B6
:1024D0000E94DC123AC080919F0281FD0E94830617
:1024E000D12CEE24E394F12CC3018E219F21892B62
:1024F00029F10E94FF118823A9F0DE82CF82AE204D
:10250000BF2081E0AB2809F480E088870E94321F59
:102510008160782F9A8789874E815F8168858A8557
:102520000E94DC12000F111FF801EA5FFD4F80814D
:102530009181E826F926F182E08207C0D394EE0C5F
:10254000FF1CFDE0DF12D0CFB0CF0E94110E0E9421
:102550009111909105028917D1F00E9491118093F9
:1025600005022A960FB6F894DEBF0FBECDBFDF91ED
:10257000CF911F910F91FF90EF90DF90CF90BF9080
:10258000AF909F908F907F906F900C9469042A96E3
:102590000FB6F894DEBF0FBECDBFDF91CF911F9174
:1025A0000F91FF90EF90DF90CF90BF90AF909F90F2
:1025B0008F907F906F900895DF92EF92FF920F932C
:1025C0001F93CF93DF93CDB7DEB72B970FB6F89459
:1025D000DEBF0FBECDBFF42E052F162FE72ED82E4F
:1025E00061110E94A11CFE01319686E0DF011D925F
:1025F0008A95E9F77E2D4F2D502F612F8D2D9E81CD
:102600000E946E192B960FB6F894DEBF0FBECDBF99
:10261000DF91CF911F910F91FF90EF90DF90089580
:10262000FC01808191810E94421C0895CF938823F0
:1026300009F49CC0C82F8238C1F40E94911181FD19
:1026400095C069E380911701909118010E94821E44
:102650000E94CF1C2FEF81EE94E0215080409040EB
:10266000E1F700C0000069E319C0833801F50E945A
:10267000911180FD7BC063E5809117019091180155
:102680000E94821E0E94CF1C2FEF81EE94E0215009
:1026900080409040E1F700C0000063E580911701A1
:1026A000909118010E948D1ECF910C94CF1C8438FC
:1026B000C1F40E94911182FD59C067E48091170115
:1026C000909118010E94821E0E94CF1C2FEF81EE74
:1026D00094E0215080409040E1F700C0000067E4A2
:1026E000DDCF8CEF8C0F813AD0F46C2F80911701E5
:1026F000909118010E94021E882349F06C2F80914E
:102700001701909118010E948D1E0E94CF1C6C2F02
:1027100080911701909118010E94821EC5CF80E21E
:102720008C0F883048F4C77081E001C0880FCA95CB
:10273000EAF70E94841CB8CFEBE5EC0FE33040F4DD
:10274000F0E0E154FE4F808190E0CF910C94B711FE
:10275000C85AC73158F4EC2FF0E0EE0FFF1FEF56C8
:10276000FE4F80819181CF910C94CD11CF9108952E
:10277000882309F45BC0682F823879F40E94911194
:1027800081FF54C069E380911701909118010E9464
:10279000821E0E94CF1C69E310C08338B1F40E94EE
:1027A000911180FF43C063E580911701909118015A
:1027B0000E94821E0E94CF1C63E5809117019091B8
:1027C00018010E948D1E0C94CF1C843879F40E944D
:1027D000911182FF2BC067E480911701909118013D
:1027E0000E94821E0E94CF1C67E4E7CF8CEF860F09
:1027F000813A18F380E2860F883048F4677081E0F0
:1028000001C0880F6A95EAF70E948A1CDCCF8BE52D
:10281000860F833020F480E090E00C94B711685A62
:10282000673120F480E090E00C94CD1108951F935F
:10283000CF93DF93182FEB010E941613209741F0DE
:102840008FE99FE00197F1F700C000002197F6CFD4
:10285000812FDF91CF911F910C94B813893319F018
:1028600060E070E002C060E570E00C94171488230B
:1028700021F00E94841C0C94CF1C0895882321F021
:102880000E948A1C0C94CF1C0895CF92DF92EF9285
:10289000FF920F931F93CF93DF937C01062FC72FD7
:1028A000FC01D281158112951F700E947A1C882329
:1028B00099F0DD2389F08C2F807F803421F080E235
:1028C000800F883048F082E00E94191D0E947A1C17
:1028D00091E0D82ED92601C0D12CCC2EC2948FE005
:1028E000C8228C2D90E0FC01E659FF4F0C94432840
:1028F0008C2F807FCF70882311F0C295C07FDD239D
:1029000099F0CC2309F482C180E2800F883010F066
:10291000011104C08C2F0E94841C03C08C2F0E94C4
:10292000941C0E94CF1C72C1802F0E94B813CC232C
:1029300009F491C180E2800F883010F0011104C0C9
:102940008C2F0E948A1C03C08C2F0E949A1C0E940C
:10295000CF1C81C18C2F807FCF70803211F0C29547
:10296000C07F002319F00130C9F022C0DD2371F0CF
:10297000112341F0113031F40E94B41C8C2B0E94C1
:10298000BC1C69C10E94B41C8C2B1DC0112319F002
:10299000113009F460C10E94C51C25C0DD2321F05F
:1029A000163008F058C10EC0153008F054C11BC0D5
:1029B000DD2361F0112331F0F701858180FF26C10D
:1029C0008F7085838C2F0E94371445C1112359F0D5
:1029D000093309F02CC1FFEF27EE83E0F1502040CE
:1029E0008040E1F722C18C2F0E943E1434C18C2F0D
:1029F00086958695837019F0813061F02CC1DD23B6
:102A000021F0802F9C2F937002C080E090E00E9404
:102A1000B71129C1DD2321F0802F9C2F937002C0B4
:102A200080E090E00E94CD111EC18C2F837009F0D0
:102A300045C0D11114C1402F429546954770440FAF
:102A4000440F602F6F70862F90E0A0E0B0E0042E5E
:102A500004C0880F991FAA1FBB1F0A94D2F704FF56
:102A600010C00FE010E020E030E004C0000F111FA4
:102A7000221F331F4A95D2F7009510952095309567
:102A800003C000E010E09801C695C695C370BC0174
:102A9000CD01602B712B822B932BC23049F058F45F
:102AA000C13019F00E94BF1ADAC00E94AD1AD7C017
:102AB0000E94D11AD4C00E94AB1AD1C0DD2319F0F4
:102AC0008C2F817001C08695882309F4C8C0402FDF
:102AD000429546954770440F440F602F6F70862FC4
:102AE00090E0A0E0B0E0042E04C0880F991FAA1F58
:102AF000BB1F0A94D2F704FF10C00FE010E020E0E3
:102B000030E004C0000F111F221F331F4A95D2F777
:102B1000009510952095309503C000E010E09801D5
:102B2000C695C695C370BC01CD01602B712B822B5D
:102B3000932BC23049F058F4C13019F00E94841B25
:102B40008EC00E94721B8BC00E94961B88C00E9480
:102B5000E51A85C0CF70DD2339F08C2F0E940B1B46
:102B6000802F0E9437147BC0802F0E943E148C2F30
:102B70000E942C1B74C0023F01F128F4003F41F079
:102B8000013FA1F03FC0033FF9F0043F39F13AC0E3
:102B9000DD2341F0153008F05EC08C2F8F710E944C
:102BA000511B59C0163008F056C0F7CFDD2339F05D
:102BB0008C2F8F710E940B1B4EC0DD23C9F38C2F0D
:102BC0008F710E942C1B47C0DD2329F08C2F8F7141
:102BD0000E94F61A40C00E94F11A3DC0DD2349F060
:102BE000CF718C2F0E940B1B63E08C2F0E94041D61
:102BF00032C081E00E94191D123068F182E00E940B
:102C0000191D29C0DD2331F0112391F2802F0E947C
:102C1000161321C0112399F2093349F49FEFE7EE0F
:102C2000F3E09150E040F040E1F700C00000802F59
:102C30000E94B81310C04C2F4F70602FC7010E9424
:102C400072040E941C1A0FC04C2F4F70602FC701D6
:102C50000E94750408C088EF8C0D843020F40E9417
:102C600091110E946904DD20C9F00E94761C80FD4C
:102C700015C0F70112820E94701C0E940B1BC70135
:102C80000E946F160E94701CDF91CF911F910F91CF
:102C9000FF90EF90DF90CF900C942C1BDF91CF91A1
:102CA0001F910F91FF90EF90DF90CF9008950F93B9
:102CB0001F93CF93DF93EC01688179818A810E9411
:102CC0004D1C8C010E94A81B0E94991AB801CE01CC
:102CD0000E944514DF91CF911F910F910895CF93DA
:102CE000DF93EC01988189812B813C81232B31F08A
:102CF0008F3F31F481E09F3F19F403C081E001C0B0
:102D000080E080FD19C0CE010E94210481110CC019
:102D10000E947A1C882381F08A81882369F082E0EE
:102D2000DF91CF910C94191DCE010E945716CE0150
:102D3000DF91CF910C94FC03DF91CF91089580E057
:102D400090E00E94B71180E090E00E94CD110E94B7
:102D5000A11C0E94B11C0C94CF1C80911701909172
:102D600018010E94981E0C949F160E94911C0C94AE
:102D7000AD16E92FE295EF704E2F50E0FA01329731
:102D8000EE30F105B0F4E658FF4F0C944328803F35
:102D900091F018F4883E68F40EC0843F51F40BC0E3
:102DA000883E48F0813F29F406C093FB882780F9CC
:102DB000089580E0089581E008950E94421C0E94D9
:102DC000B9160895CF93DF9300D000D01F92CDB7EE
:102DD000DEB70F900F900F900F900F90DF91CF9173
:102DE0000895CF93DF9300D000D000D0CDB7DEB7E9
:102DF00026960FB6F894DEBF0FBECDBFDF91CF9100
:102E000008951F93CF93DF93C091170216E080912E
:102E10001802C81799F0D0E01C9FF0011D9FF00D1B
:102E20001124E75EFD4F408151816281738184816D
:102E300095810E94F1162196C770E9CFDF91CF915D
:102E40001F9108954091490250914A0260914B02AE
:102E500070914C0280914D0290914E020C94F116AB
:102E60000F931F93CF93DF9380914E0282958F70C3
:102E700009F05DC080914B02882309F458C080910D
:102E80001702109118026091490270914A02C09194
:102E90004C02D0914D0291E06F3F09F090E0292F54
:102EA00006E0811709F443C0209721F07F3F21F00D
:102EB00030E003C031E001C0322F90E030FD34C07B
:102EC000089FF001099FF00D1124DF01A75EBD4F9F
:102ED00011963C911197371327C03C91361324C0AB
:102EE00012963C91129731111FC013964D915C912F
:102EF00014974C1B5D0B483C5105B0F480914E0279
:102F00008F70806180934E02E25EFD4F80818F70F2
:102F10008061808389E492E00E946F16DF91CF91F7
:102F20001F910F910C94011701968770BACFDF9112
:102F3000CF911F910F9108959F92AF92BF92CF9220
:102F4000DF92EF92FF920F931F93CF93DF93CDB752
:102F5000DEB761970FB6F894DEBF0FBECDBF8C0110
:102F600085E0F801DE011D9601900D928A95E1F74A
:102F7000F80140815181E2809091490260914A02BA
:102F800020914C0230914D022115310531F06F3FF7
:102F900031F481E09F3F19F403C081E001C080E07B
:102FA000F82FF1709F2E80FD46C1F801A380B480F8
:102FB00089E4C82E82E0D82EF0904B02F501E21B86
:102FC000F30BFF2009F4DFC080914E02E83CF105CD
:102FD00008F09BC0282F207F09F052C0561313C061
:102FE000491311C0FE2CE1100EC08F7080618093D8
:102FF0004E020E942217C6010E946F1680914E0257
:10300000F801858358C1AB2831F05F3F31F481E08E
:103010004F3F19F403C081E001C080E080FD03C090
:1030200081E08E2502C080E090E0F82FF170FF2E45
:1030300080FF1CC0809117022091180236E0821791
:1030400009F417C190E0389FF001399FF00D112469
:10305000E75EFD4F6181561306C06081461303C0D1
:103060006281E61203C001968770E9CFFE2CEE2044
:1030700009F421C180914E02816080934E025AC0B2
:10308000561306C0491304C0E11002C0F8019FC0E6
:103090004D875E878D859E850E94DD16882379F198
:1030A000EE2069F120914E02822F82958F7090E080
:1030B000029774F08091490290914A0298878F8319
:1030C0001986BB86AA862C87CE0107960E946F16AA
:1030D00086E0F801A9E4B2E001900D928A95E1F74B
:1030E0000E9430170E9422170DC0561729F14D87F4
:1030F0005E878D859E850E94DD1681112CC0C801DA
:103100000E946F16FF24F394D6C0282F207F69F702
:103110007A2DB98AA88A6E2D89890E94E21689E4DF
:1031200092E00E946F1686E0F60111928A95E9F707
:103130000E942217F12CBFC04913D9CFE110D7CF7D
:10314000F8018583C8010E946F1686E0F60111928E
:103150008A95E9F7B0C0EE2091F220914E02822FBD
:1031600082958F7090E002970CF4B2CF8091490263
:1031700090914A029A8389831B82BD82AC822E83FE
:10318000CE010196A3CFE83CF10508F047C0FE2C24
:10319000EE2009F4B4CF561330C049132EC020914D
:1031A0004E0220FD21C0822F82958F70482F50E063
:1031B00041155105C9F0F80125834F30510541F003
:1031C0008F5F982F9295907F822F8F70892B8583A8
:1031D000C8010E946F1686E0F801A9E4B2E00190F0
:1031E0000D928A95E1F742C086E0F801A9E4B2E0C9
:1031F00001900D928A95E1F75EC04D875E878D85BF
:103200009E850E94DD16811163CF80914E02816000
:1032100080934E02C8010E946F164DC07A2DB98A64
:10322000A88A6E2D89890E94E21686E0F601119225
:103230008A95E9F71BC0EE2009F461CF4D875E87C0
:103240008D859E850E94DD16F82E882309F457CFC0
:1032500086E0F801A9E4B2E001900D928A95E1F7C9
:1032600089E492E00E9410130E9430170E942217F6
:1032700022C04D875E878D859E850E94421C292F26
:1032800022952F70223028F49F7039F0811105C0EB
:103290000BC0243028F49F7049F4805E883020F001
:1032A000C8010E946F169F2CF92C05C0F80195816A
:1032B000907F99F7F9CF8F2D61960FB6F894DEBF06
:1032C0000FBECDBFDF91CF911F910F91FF90EF9077
:1032D000DF90CF90BF90AF909F9008951F93CF93B2
:1032E000DF93CDB7DEB72C970FB6F894DEBF0FBED5
:1032F000CDBF4F83588769877A878B879C87CE019C
:1033000007960E949C178823D1F09F8188852A8583
:103310003B85232B31F08F3F31F481E09F3F19F43F
:1033200003C081E001C080E080FD47C04F81588527
:1033300069857A858B859C850E94F1163EC086E062
:10334000FE013796DE01119601900D928A95E1F704
:10335000FF81E8856A857B856115710531F0EF3F56
:1033600031F481E0FF3F19F403C081E001C080E047
:1033700080FD23C02091180230E0C90101968770BA
:1033800099274091170250E084179507F1F1F983CE
:10339000EA837D836C8396E0929FD001939FB00D6A
:1033A0001124A75EBD4FFE01319601900D929A95B2
:1033B000E1F7809318020E94011716E0809117022E
:1033C00090911802891771F1189FC0011124875E2E
:1033D0009D4F0E949C17882329F1E09117021E9FA0
:1033E000F0011124E75EFD4F4081518162817381BC
:1033F000848195810E94F1168091170290E00196D8
:103400008770992780931702D9CF0E94B516109222
:10341000180210921702E9E4F2E086E0DF011D9243
:103420008A95E9F72C960FB6F894DEBF0FBECDBF94
:10343000DF91CF911F910895EF92FF920F931F9309
:10344000CF93DF938C01892B09F46CC0F12CEE240F
:10345000E394E8012196F8018491843740F48430A4
:1034600008F051C0813081F0823019F15BC085379E
:1034700009F444C0A8F19CE7980F903708F052C0B7
:103480008F770E94B81341C00E5F1F4FFE018491D9
:1034900090E2980F983050F48770FE2D01C0FF0F16
:1034A0008A95EAF78F2F0E94A41C14C00E9416135D
:1034B0002DC00E5F1F4FFE01849190E2980F98304F
:1034C00060F48770FE2D01C0FF0F8A95EAF78F2FF9
:1034D0000E94AA1C0E94CF1C19C00E94B81316C0DB
:1034E0000E5F1F4FFE01C491CC2381F08FE99FE056
:1034F0000197F1F700C00000C150F6CF0E5F1F4FDB
:10350000FE01F49003C00E9416138E018F2D8823B4
:1035100009F49FCFEFE9FFE03197F1F700C0000019
:103520008150F5CFDF91CF911F910F91FF90EF90D8
:103530000895089508950C949A1A0C949B1A0E9469
:103540009D1A60937602709377028093780290932D
:1035500079020C949F160C949F1A0F931F9300915D
:103560007602109177022091780230917902602BD7
:10357000712B822B932B1F910F910C949F1A0F93F9
:103580001F9300917602109177022091780230917A
:10359000790260237123822393231F910F910C944E
:1035A0009F1A0F931F93009176021091770220913A
:1035B00078023091790260277127822793271F9123
:1035C0000F910C949F1A0C949A1A0E94E31A60931C
:1035D00072027093730280937402909375020C943C
:1035E0009F1660E070E0CB010C94E51A0F931F93D7
:1035F00041E050E060E070E08A019B0104C0000FF0
:10360000111F221F331F8A95D2F7C901B8011F91DC
:103610000F910C94E51A0F931F9341E050E060E086
:1036200070E004C0440F551F661F771F8A95D2F7BC
:103630008091720290917302A0917402B091750210
:103640008A019B01082B192B2A2B3B2BC901B8019E
:103650001F910F910C94E51A0F931F9341E050E0D6
:1036600060E070E004C0440F551F661F771F8A9505
:10367000D2F7409550956095709580917202909127
:103680007302A0917402B09175028A019B01082314
:1036900019232A233B23C901B8011F910F910C94D0
:1036A000E51A0F931F9341E050E060E070E004C022
:1036B000440F551F661F771F8A95D2F780917202BB
:1036C00090917302A0917402B09175028A019B01DE
:1036D000082719272A273B27C901B8011F910F91F5
:1036E0000C94E51A0F931F930091720210917302CC
:1036F0002091740230917502602B712B822B932BD9
:103700001F910F910C94E51A0F931F930091720271
:10371000109173022091740230917502602371231D
:10372000822393231F910F910C94E51A0F931F93FB
:10373000009172021091730220917402309175020F
:1037400060277127822793271F910F910C94E51A08
:1037500008952DE0929F800D1124E82FE695E695BF
:10376000E695877051E001C0550F8A95EAF785E02C
:10377000E89FF0011124E15BFD4F20E030E070E0B4
:103780004081CB01022E02C0969587950A94E2F7FC
:103790008170819584278523842781932F5F3F4FF4
:1037A0002530310569F708952DE0929F800D112491
:1037B000682F669566956695982F977085E0689F47
:1037C000B001112440E050E080E0FB01E40FF51F60
:1037D000E15BFD4F208130E0092E02C03695279530
:1037E0000A94E2F721703327042E01C0220F0A94B5
:1037F000EAF7822B4F5F5F4F4530510531F708954F
:10380000BF92CF92DF92EF92FF920F931F93CF93CD
:10381000DF938C01C0907202D0907302E09074022A
:10382000F09075028091760290917702A0917802D3
:10383000B0917902C82AD92AEA2AFB2ACFE1D0E03E
:10384000D701C6010C2E04C0B695A795979587950C
:103850000A94D2F780FD04C0219790F7B12C07C0DD
:10386000BC2EB8018C2F0E9491040197A9F38B2DD7
:10387000DF91CF911F910F91FF90EF90DF90CF904C
:10388000BF900895CF93DF93EC010E94001CBE010E
:103890000E949104DF91CF9108951F93CF93DF93FE
:1038A000EB0190911602992321F0CB010E94421C5A
:1038B00013C0882349F0CB010E94001C182F682FE9
:1038C000CE010E94A91B04C0CB010E94D41B182F5B
:1038D000BE01812F0E949104DF91CF911F91089525
:1038E00080917A02859585958595089580917A02D3
:1038F0008770089590917A02977081E009F480E0D2
:10390000089580919E02089590919E02892B809344
:103910009E020895809590919E02892380939E0235
:10392000089510929E02089590919D02892B809394
:103930009D020895809590919D02892380939D0218
:10394000089510929D02089590919C02892B809376
:103950009C020895809590919C02892380939C02FB
:10396000089510929C02089580917B020895089515
:103970000C94B71C0C94B81C90917B02981721F002
:1039800080937B020C94BA1C089580917B0288235B
:1039900029F010927B0280E00C94BA1C0895E0910B
:1039A0001701F091180180919E028083E091170128
:1039B000F0911801908180919D02892B8083E09184
:1039C0001701F0911801908180919C02892B8083CE
:1039D00080917B02882381F0E0911701F09118011A
:1039E0009081892B808380911701909118010E940A
:1039F000EC1D81110E94C51C809117019091180146
:103A00000C949D110C94B71C98E0899F900111248F
:103A1000262B20937A020E940B1B80917A028595B7
:103A2000859585950C94021D10927A0280E00C9485
:103A3000021D20917A028095822380937A02982F2A
:103A4000977079F430E0482F082E000C550B24179E
:103A5000350739F08595859585950E942C1B0C942A
:103A6000141D089580E0089580E090E00E94F12800
:103A700021E08B3E9E4F09F020E0822F089582E0E6
:103A800090E00C94E328682F82E090E00C94F728F3
:103A900083E090E00C94E328682F83E090E00C949E
:103AA000F728CF9384E090E00E94E328C82F81E2BA
:103AB00090E00E94E3282C2F30E0A901582BCA0186
:103AC000CF910895CF93C92F682F84E090E00E9492
:103AD000F7286C2F81E290E0CF910C94F728AB018E
:103AE000BC018FE090E00C940929AB01BC0183E19B
:103AF00090E00C94092960E070E0CB010C94751DF6
:103B000060E070E0CB010E946F1D0C947B1D6BEE9A
:103B10007EEF80E090E00E94152960E082E090E076
:103B20000E94F72860E083E090E00E94F72810925E
:103B3000760210927702109278021092790260E079
:103B400084E090E00E94F72860E081E290E00E942B
:103B5000F72860E085E090E00E94F72860E086E0CA
:103B600090E00E94F7286FEF87E090E00E94F7282E
:103B700040E050E0BA0188E090E00E94092960E04E
:103B80008DE090E00E94F72840E050E0BA0188E123
:103B900090E00E94092960E087E190E00E94F72808
:103BA00040E050E0BA018CE190E00E94092960E019
:103BB00080E290E00E94F72840E050E0BA0188E1FE
:103BC00090E00E9409290C94801D0C94871D682F99
:103BD0008EE090E00C94F728FC013296809123014E
:103BE000882331F08091F40287FF02C09EE101C07A
:103BF00096E080E0915028F021912223D9F38F5F45
:103C0000F9CF0895662351F1209123012223E9F091
:103C10002091F40227FF19C0462F469546954695F8
:103C20004E31E0F4677021E030E002C0220F331F14
:103C30006A95E2F7FC01E40FF11D828190E02823F0
:103C4000392381E0232B69F409C0FC0132960896E0
:103C50002191621729F0E817F907D1F780E008955C
:103C600081E008959C01FC0132969FEF80E0419134
:103C7000461789F09F3F19F4411101C0982F8F5FBB
:103C80008630A9F79F3F39F0F901E90FF11D97FD43
:103C9000FA956283089508959C012A5F3F4FFC01C5
:103CA0004281461301C01282019682179307B9F729
:103CB0000895262F2695269526952E3168F4FC0129
:103CC000E20FF11D677021E030E001C0220F6A951C
:103CD000EAF78281282B22830895262F26952695A0
:103CE00026952E3170F4FC01E20FF11D677021E082
:103CF00030E001C0220F6A95EAF7209582812823DF
:103D00002283089520912301222329F02091F40297
:103D100027FD0C94591E0C94321E2091230122235E
:103D200029F02091F40227FD0C946D1E0C944C1E7A
:103D300020912301FC013296222331F08091F4027C
:103D400087FF02C08EE101C086E0DF011D928A95E7
:103D5000E9F7089508950C94AA1E0C94AA1ECF9317
:103D60000E94AD1E0E94EF060E94AB1EC0E08C2F89
:103D70000E947A06892B29F4CF5FC430C1F780E016
:103D800001C081E0CF9108950C94AA1E0C94C41E2A
:103D90008091FA02843049F10E94C61E80E00E94A0
:103DA00069041092A00220E488E190E00FB6F89434
:103DB000A895809360000FBE2093600083B7817F39
:103DC000846083BF83B7816083BF7894889583B70D
:103DD0008E7F83BF0FB6F894A895809160008861AC
:103DE00080936000109260000FBE08950C94AA1E8C
:103DF0000E94B5160E9491110E9469040C94F61E4F
:103E00001F920F920FB60F9211248F939F93AF932F
:103E1000BF938091A002811113C08091F002909114
:103E2000F102A091F202B091F3024196A11DB11DE1
:103E30008093F0029093F102A093F202B093F30208
:103E4000BF91AF919F918F910F900FBE0F901F90D8
:103E5000189582E084BD93E095BD9AEF97BD80935D
:103E60006E0008952FB7F8948091F0029091F102BE
:103E7000A091F202B091F3022FBF08952FB7F894EA
:103E80006091F0027091F1028091F2029091F30240
:103E90002FBF08959C014FB7F8948091F002909144
:103EA000F102A091F202B091F3024FBF821B930B7B
:103EB000089578941F920F920FB60F9211248F934A
:103EC0009F93AF93BF938091F0029091F102A091E4
:103ED000F202B091F3020196A11DB11D8093F00290
:103EE0009093F102A093F202B093F302BF91AF91CD
:103EF0009F918F910F900FBE0F901F90189581E0AA
:103F00008093E00080E28093D8001092C9008FE196
:103F10009EE40197F1F700C0000087E090EBDC0120
:103F20008093030390930403A0930503B0930603C7
:103F30009CE088E10FB6F894A895809360000FBECE
:103F400090936000FFCF9093C3018093C2010895C6
:103F5000AF92BF92CF92DF92EF92FF920F931F9397
:103F6000CF93C0E0CC24C394D12CE82EF12C8C2F1D
:103F70000E947A065C0100E010E0C601002E02C03B
:103F8000880F991F0A94E2F78A219B21892B31F42B
:103F90000F5F1F4F0D30110581F70AC0602F7C2F76
:103FA00080E00E947604E816F90691F781E004C0EB
:103FB000CF5FC430E1F680E0CF911F910F91FF9069
:103FC000EF90DF90CF90BF90AF900895CF93C82F20
:103FD0008CE20E94A81F882321F08C2FCF910C9493
:103FE000A81F80E0CF910895CF930E94341D8111C6
:103FF00002C00E94E51DC5E6C15049F00E94EF06CF
:104000008FE39CE90197F1F700C00000F5CF89E24A
:104010000E94E61F81112AC18AE20E94E61F8111D7
:104020000E94E51D85E00E94E61F81110E947F1F0E
:104030000E943F1D80939F0287E00E94E61F882315
:10404000A9F18BE10E94E61F882351F080919F0225
:1040500081FB222720F991E0922790FB81F90EC085
:104060008EE00E94E61F882361F080919F0282FB10
:10407000222720F991E0922790FB82F980939F02FA
:1040800015C080E10E94E61F90919F02882341F0B5
:1040900093FB222720F981E0822780FB93F904C05B
:1040A000892F809580FB90F990939F0280919F02C9
:1040B0000E94431D0E94511D9093F5028093F402CB
:1040C00080EE0E94E61F882341F08091F402982F31
:1040D000909590FB80F98093F40289E30E94E61F9B
:1040E000882359F08091F40281FB222720F991E086
:1040F000922790FB81F98093F40282EE0E94E61FE2
:10410000882359F08091F40282FB222720F991E064
:10411000922790FB82F98093F40286EE0E94E61FBC
:10412000882359F08091F40283FB222720F991E043
:10413000922790FB83F98093F40283EE0E94E61F9E
:10414000882359F08091F40284FB222720F991E022
:10415000922790FB84F98093F40285E30E94E61F86
:10416000882359F08091F40285FB222720F991E001
:10417000922790FB85F98093F40281E30E94E61F69
:10418000882359F08091F40286FB222720F991E0E0
:10419000922790FB86F98093F40281E10E94E61F4A
:1041A000882359F08091F40287FB222720F991E0BF
:1041B000922790FB87F98093F4028091F40290910A
:1041C000F5020E94621D87E20E94E61FC82F8EE161
:1041D0000E94E61F8111C2608FE10E94E61F8111DB
:1041E000C46080E20E94E61F8111C86081E20E94E3
:1041F000E61F8111C06182E20E94E61F8111C06248
:1042000083E20E94E61F8111C06484E20E94E61FDF
:10421000882311F0C06802C0CC2329F08C2F0E94A3
:104220004C1D6C2F03C00E94481D682F70E080E079
:1042300090E00E94AB1A60917202709173028091BB
:104240007402909175020E94E31A8FE00E94E61FAB
:10425000882319F081E00E94E71D85E10E94E61F96
:10426000882321F080E0CF910C94E71DCF91089531
:104270008091C10208950895CF93DF9300D01F92DB
:10428000CDB7DEB79091FA02943019F589837B831C
:104290006A8382E08093E9008FEF9091E80081507B
:1042A00095FD06C095ED9A95F1F700008111F5CFC7
:1042B0008091E80085FF0DC040E050E063E070E0D1
:1042C000CE0101960E944F238091E8008E77809363
:1042D000E8000F900F900F90DF91CF910895BC01EF
:1042E00084E00C943C21BC0183E00C943C21CF93EE
:1042F000DF9320912301222339F02091F40227FF3C
:1043000003C060E222E002C068E021E02093E900FF
:104310002FEF3091E800215035FD06C035ED3A957C
:10432000F1F700002111F5CF2091E80025FF1DC015
:10433000EC0180912301811105C040E050E068E06C
:1043400070E003C070E040E050E0CE010E944F23D7
:104350008091E8008E778093E80080E2FE01A1EA78
:10436000B2E001900D928A95E1F7DF91CF91089527
:104370008091F902811109C00E94E0240E943D252C
:104380008091E20084608093E20008951092F90227
:10439000089508950895089542E061EC81E00E9437
:1043A000592442E261EC82E00C9459248091FC0291
:1043B000833009F460C030F4813071F0823009F448
:1043C00099C008958A3009F485C08B3009F46BC018
:1043D000893009F0A7C020C08091FB02813A09F022
:1043E000A1C08091E800877F8093E8008091FF0260
:1043F00090910003892B21F460E281EA92E003C0EE
:1044000060E080E090E070E00E949A238091E800F4
:104410008B778093E80008958091FB02813209F048
:1044200081C08091FF0290910003029708F07AC04A
:104430008091E800877F8093E8008091E80082FD0A
:1044400005C08091FA028111F8CF6CC02091F30071
:104450008091F20090E0922B029729F48091F10074
:104460008B7F813021F48091F1008093C102809193
:10447000E8008B7753C08091FB02813A09F052C06B
:104480008091FF0290910003892B09F04BC080912D
:10449000E800877F8093E8008091E80080FFFCCFF0
:1044A0008091230136C08091FB028132D9F5809141
:1044B000FF0290910003892BA9F58091E800877F86
:1044C0008093E8000E948E248091FD028093230156
:1044D0000C94B5168091FB02813221F58091E800A1
:1044E000877F8093E8000E948E248091FE02809353
:1044F000C20208958091FB02813AA1F48091E80004
:10450000877F8093E8008091E80080FFFCCF809156
:10451000C2028093F1008091E8008E778093E800DA
:104520000C948E24089584B7877F84BF0FB6F894C7
:10453000A89580916000886180936000109260006F
:104540000FBE90E080E80FB6F894809361009093DE
:1045500061000FBE0E940E120E94E0240E943D25C1
:104560008091E20084608093E20078940E94D227D8
:104570000E94181289E191E00E948C118091FA0248
:104580008530A9F48091FA02853079F40E94C81E22
:104590008091F8028823B1F30E94AF1E882391F323
:1045A0000E9439230E94B516EDCF0E94F81E0E948A
:1045B00022120E9402120E940112E0CF0C94E0220B
:1045C000292F332723303105C9F060F4213031051C
:1045D00081F02230310509F044C08BE390E02EEDEC
:1045E00035E043C021323105E1F02232310549F195
:1045F00038C082E190E029E136E037C09927813068
:10460000910549F028F0029761F5EEEAF5E005C062
:10461000EAEDF5E002C0E8ECF5E0849190E09F015E
:1046200024C06115710541F061307105D1F489E054
:1046300090E029E036E019C089E090E020EF35E015
:1046400014C06115710541F06130710551F48DE6BA
:1046500090E02BE236E009C080E490E028E936E003
:1046600004C080E090E020E030E0FA013183208354
:10467000089580E189BD82E189BD09B400FEFDCFC6
:104680008091D8008F7D8093D8008091E000826077
:104690008093E0008091E00081FDFCCF0895CF92EF
:1046A000DF92EF92FF920F931F93CF93DF93EC0172
:1046B0008B017A010E94AD24811133C0E114F10411
:1046C00039F0F70180819181081B190BC80FD91FA0
:1046D000C12CD12C0115110519F18091E80085FD3F
:1046E00016C08091E8008E778093E800E114F10411
:1046F00049F0F70180819181C80ED91ED182C08214
:1047000085E00FC00E94AD24882321F30AC089915F
:104710008093F10001501109FFEFCF1ADF0ADACFC1
:1047200080E0DF91CF911F910F91FF90EF90DF908C
:10473000CF90089520910103309102032617370787
:1047400048F06115710539F42091E8002E77209327
:10475000E80001C0B901FC0120E06115710579F1A3
:104760008091FA028823F1F18530F1F18091E8001F
:1047700083FD3CC08091E80082FD2EC08091E8005E
:1047800080FFEBCF2091F3008091F20090E0922B1C
:104790006115710551F08830910538F4219120930D
:1047A000F100615071090196F3CF21E0089709F0FB
:1047B00020E08091E8008E778093E800CECF211131
:1047C000CFCF0AC08091FA02882361F0853061F072
:1047D0008091E80083FD0AC08091E80082FFF2CF5B
:1047E00080E0089582E0089583E0089581E00895CF
:1047F00020910103309102032617370748F0611515
:10480000710539F42091E8002E772093E80001C06B
:10481000B901FC0120E06115710591F18091FA0266
:10482000882309F440C0853009F43FC08091E80036
:1048300083FD3DC08091E80082FD2FC08091E8009B
:1048400080FFE9CF2091F3008091F20090E0922B5D
:104850006115710559F08830910540F42491209339
:10486000F1003196615071090196F2CF21E008976D
:1048700009F020E08091E8008E778093E800CBCFAC
:104880002111CCCF0AC08091FA02882361F08530D3
:1048900061F08091E80083FD0AC08091E80082FF0A
:1048A000F2CF80E0089582E0089583E0089581E0EA
:1048B0000895982F973068F59093E900981739F08C
:1048C0007091EC002091ED005091F00003C0242F76
:1048D000762F50E021FD02C09F5FECCF3091EB00BE
:1048E0003E7F3093EB003091ED003D7F3093ED0043
:1048F0003091EB0031603093EB007093EC0020932B
:10490000ED005093F0002091EE0027FDE5CF80E010
:1049100008958F708093E90081E008958091FB02F3
:1049200087FF11C08091E80082FD05C08091FA02E6
:104930008111F8CF11C08091E8008B770BC0809176
:10494000FA02882349F08091E80080FFF8CF809137
:10495000E8008E778093E80008952091E40030917C
:10496000E50095E64091EC00842F817040FF23C064
:104970008091E80080FD1DC08091FA02882399F0A3
:10498000853099F08091EB0085FD11C04091E400E5
:104990005091E5002417350729F3915011F09A0141
:1049A000E1CF84E0089582E0089583E0089581E0F6
:1049B000089580E008954091E80042FFDDCF08951A
:1049C0000E944E250E945625E0EEF0E08081816035
:1049D0008083E8EDF0E080818F77808319BCA7EDBC
:1049E000B0E08C918E7F8C9380818F7E808310923B
:1049F000F90208950F931F93CF93DF930E944E25E2
:104A00000E945625C8EDD0E088818F778883888101
:104A10008068888388818F7D888319BC1092FA0210
:104A20001092F6021092F8021092F70200EE10E0D7
:104A3000F80180818B7F808388818160888342E058
:104A400060E080E00E945924E1EEF0E080818E7FFA
:104A50008083E2EEF0E080818160808380818860E5
:104A60008083F80180818E7F808388818061888344
:104A7000DF91CF911F910F910895E8EDF0E08081D3
:104A80008F7E8083E7EDF0E080818160808384E029
:104A900082BF81E08093F9020C94FA24E8EDF0E003
:104AA00080818E7F80831092E20008951092DA0058
:104AB0001092E10008951F920F920FB60F921124E9
:104AC0002F933F934F935F936F937F938F939F9316
:104AD000AF93BF93EF93FF938091E10082FF0BC0F0
:104AE0008091E20082FF07C08091E1008B7F80937C
:104AF000E1000E94D1278091DA0080FF1FC08091E1
:104B0000D80080FF1BC08091DA008E7F8093DA008E
:104B10008091D90080FF0DC080E189BD82E189BD0F
:104B200009B400FEFDCF81E08093FA020E94B82113
:104B300005C019BC1092FA020E94C6218091E100C2
:104B400080FF19C08091E20080FF15C08091E200D3
:104B50008E7F8093E2008091E20080618093E2008A
:104B60008091D80080628093D80019BC85E0809342
:104B7000FA020E94CA218091E10084FF30C0809136
:104B8000E20084FF2CC080E189BD82E189BD09B4C7
:104B900000FEFDCF8091D8008F7D8093D80080915A
:104BA000E1008F7E8093E1008091E2008F7E809310
:104BB000E2008091E20081608093E2008091F60241
:104BC000882311F084E007C08091E30087FD02C0D4
:104BD00081E001C083E08093FA020E94CB218091A2
:104BE000E10083FF29C08091E20083FF25C080910E
:104BF000E100877F8093E10082E08093FA021092C7
:104C0000F6028091E1008E7F8093E1008091E200C6
:104C10008E7F8093E2008091E20080618093E200C9
:104C200042E060E080E00E9459248091F0008860BA
:104C30008093F0000E94C921FF91EF91BF91AF9145
:104C40009F918F917F916F915F914F913F912F91A4
:104C50000F900FBE0F901F9018951F920F920FB6D6
:104C60000F9211242F933F934F935F936F937F93F2
:104C70008F939F93AF93BF93CF93DF93EF93FF9364
:104C8000C091E900CF708091EC00D82FD17080FDE9
:104C9000D0E81092E9008091F000877F8093F000C7
:104CA00078940E9471261092E9008091F00088604B
:104CB0008093F000CD2BCF70C093E900FF91EF916E
:104CC000DF91CF91BF91AF919F918F917F916F9124
:104CD0005F914F913F912F910F900FBE0F901F90BA
:104CE00018951F93CF93DF93CDB7DEB7AA970FB672
:104CF000F894DEBF0FBECDBFEBEFF2E08091F10084
:104D0000819323E0E330F207C9F70E94D621809116
:104D1000E80083FF2EC18091FB029091FC02492F95
:104D200050E04A30510508F024C1FA01E857FF4F1E
:104D30000C944328803821F0823809F01AC108C049
:104D40008091F7029091F802992389F082600FC058
:104D50008091FF028F70873008F00BC18093E900CB
:104D60008091EB0085FB882780F91092E9009091F3
:104D7000E800977F9093E8008093F1001092F10093
:104D8000D1C0282F2D7F09F0F4C0882319F082307C
:104D900061F0EFC08091FD02813009F0EAC09330EC
:104DA00009F080E08093F8022EC08091FD0281110D
:104DB0002AC08091FF028F702FEF280F263008F055
:104DC000D8C08093E9002091EB0020FF1CC09330F5
:104DD00021F48091EB00806214C09091EB0090610F
:104DE0009093EB0021E030E0A90102C0440F551F71
:104DF0008A95E2F74093EA001092EA008091EB0076
:104E000088608093EB001092E9008091E800877F32
:104E10008093E8000E948E24ACC08111AAC010913A
:104E2000FD021F778091E3008078812B8093E3005F
:104E30008091E800877F8093E8000E948E24809113
:104E4000E80080FFFCCF8091E30080688093E3005E
:104E5000111102C082E001C083E08093FA0289C090
:104E60008058823008F085C08091FD029091FE024A
:104E70008C3D53E0950779F583E08A838AE2898344
:104E80004FB7F894DE01139620E03EE051E2E32FA5
:104E9000F0E050935700E49120FF03C0E295EF70DB
:104EA0003F5FEF708E2F90E0EA3010F0C79601C0A0
:104EB000C0968D939D932F5F243149F74FBF80910A
:104EC000E800877F8093E8006AE270E0CE010196F7
:104ED0000E949A2316C06091FF0270910003AE01F8
:104EE0004F5F5F4F0E94DE22BC01892B09F441C055
:104EF0009091E800977F9093E80089819A810E94C1
:104F0000F8238091E8008B778093E80032C08038E6
:104F100081F58091E800877F8093E8008091F60218
:104F20008093F1008091E8008E7772CF811121C0CB
:104F30008091FD029091FE0299270297D4F480910E
:104F4000E800877F8093E8008091FD028093F6025D
:104F50000E948E248091F602811106C08091E300A8
:104F600087FD02C081E001C084E08093FA020E94C4
:104F7000CC218091E80083FF0AC08091E800877F00
:104F80008093E8008091EB0080628093EB00AA960A
:104F90000FB6F894DEBF0FBECDBFDF91CF911F914A
:104FA00008950895CF938091FA028823A1F0C091CB
:104FB000E900CF709091EC00892F817090FD80E81E
:104FC000C82B1092E9008091E80083FD0E947126B1
:104FD000CF70C093E900CF910895991B79E004C088
:104FE000991F961708F0961B881F7A95C9F7809528
:104FF0000895AA1BBB1B51E107C0AA1FBB1FA61720
:10500000B70710F0A61BB70B881F991F5A95A9F771
:1050100080959095BC01CD01089597FB072E16F45D
:10502000009407D077FD09D00E94F92707FC05D02E
:105030003EF4909581959F4F0895709561957F4FAF
:105040000895A1E21A2EAA1BBB1BFD010DC0AA1FC9
:10505000BB1FEE1FFF1FA217B307E407F50720F0E1
:10506000A21BB30BE40BF50B661F771F881F991F5C
:105070001A9469F760957095809590959B01AC01A5
:10508000BD01CF010895EE0FFF1F0590F491E02DB3
:1050900009940E945128332312F48A1B9B0B0C9411
:1050A0006228A29FB001B39FC001A39F700D811D14
:1050B0001124911DB29F700D811D1124911D089521
:1050C0000E945128B7FF0895821B930B08950E94F8
:1050D0005128A59F900DB49F900DA49F800D911D08
:1050E00011240895B7FF0C9467280E946728821B3B
:1050F000930B08958F929F92AF92BF92CF92DF92BF
:10510000EF92FF92CF93DF93EC01688179818A81DE
:105110009B81611571058105910521F464E279EDAA
:105120008BE597E02DE133EF41E050E00E942B2921
:1051300049015A019B01AC01A7EAB1E40E9467282A
:105140006B017C01ACEEB4EFA50194010E947528BF
:10515000DC01CB018C0D9D1DAE1DBF1DB7FF03C033
:105160000197A109B04888839983AA83BB839F775D
:10517000DF91CF91FF90EF90DF90CF90BF90AF90F5
:105180009F908F9008950E947A28089580E091E082
:105190000E947A280895A0E0B0E0809300019093E7
:1051A0000101A0930201B09303010895FC01415055
:1051B000504030F001900616D1F73197CF01089595
:1051C000882799270895F999FECF92BD81BDF89A55
:1051D000992780B50895A6E1B0E044E050E00C9432
:1051E0001D29A8E1B0E042E050E00C941D29262FD3
:1051F000F999FECF92BD81BDF89A019700B40216CD
:1052000039F01FBA20BD0FB6F894FA9AF99A0FBE7A
:1052100008950396272F0E94F8280E94F728252F2B
:105220000E94F828242F0C94F8280196272F0E941A
:10523000F8280C94F728DC01CB01FC01F999FECF8A
:1052400006C0F2BDE1BDF89A319600B40D9241500E
:105250005040B8F70895052E97FB1EF400940E9465
:10526000422957FD07D00E94212807FC03D04EF4A5
:105270000C94422950954095309521953F4F4F4FC2
:105280005F4F089590958095709561957F4F8F4FF2
:085290009F4F0895F894FFCF31
:1052980001000000010102000800080801191A1B9A
:1052A8001C1D1E1F2021227C02382177213B2173DF
:1052B800216F2101E200E900EA00B500B600B7005D
:1052C800CD008301CC008A019201940121022302BE
:1052D80024022502260227022A02B300B4006F0026
:1052E8007000818283F0F1F4F5F6F7969495939225
:1052F8009190C667353400010202020206060609CB
:1053080009090909090F0F0F0F0F0F15151518199E
:1053180019191919191919191923242525252525A4
:1053280025E200E900EA00B500B600B700CD008329
:1053380001CC008A01920194012102230224022552
:1053480002260227022A02B300B4006F007000810F
:0253580082834E
:00000001FF
