:100000000C9404030C944B030C944B030C944B037F
:100010000C944B030C944B030C944B030C944B0328
:100020000C944B030C944B030C9492240C94642575
:100030000C944F1E0C944B030C944B030C944B03E9
:100040000C944B030C944B030C944B030C944B03F8
:100050000C944B030C949C1E0C944B030C944B037C
:100060000C944B030C944B030C944B030C944B03D8
:100070000C944B030C944B030C944B030C944B03C8
:100080000C944B030C944B030C944B030C944B03B8
:100090000C944B030C944B030C944B030C944B03A8
:1000A0000C944B030C944B030C944B03620E650EA3
:1000B0006D0E720E770E7C0E810E860E8B0E900EDC
:1000C000950E9A0E9C0E9F0EA20EA50EA80EAB0EBC
:1000D000AD0EB20EC713C713F913F91346147A15F0
:1000E0007A157A156414F9140A150A156A157A1521
:1000F0007A15731516161616281628161F162816A2
:10010000281628161616161624162816281624162B
:10011000D125F825F026F825F02644266726F02676
:10012000BE26CD26290014001A000800150017006D
:100130001C0018000C00120013002D002A002B00D8
:1001400004001600070009000A000B000D000E0055
:100150000F00330000002800E1001D001B00060016
:100160001900050028431100100036003700380040
:10017000E500E000E2000000E3002C4100002C421A
:100180000000E30000000000E600E40029001E0279
:100190001F0220022102220223022402250226023B
:1001A000270235004C002B0000000000000000007A
:1001B000000000002D002E002F003000000028005D
:1001C000E10000000000000000000000000000004E
:1001D000000000004B004E000000E000E2000000C4
:1001E000E3000000000003510000000000000000D8
:1001F0000000000035001E001F002000210022002A
:100200002300240025002600270031004C002B008D
:10021000000000000000000000000000500051003D
:1002200052004F0000002800E10000000000000024
:1002300000000000000000000000A800AA00A900C3
:10024000E500E000E2000000E300035100000000D0
:100250000000E30000000000E600E4003A003B007C
:100260003C003D003E003F00400041004200430092
:10027000440045004C00C35CC45CC65CC85CCA5CFE
:10028000CC5CF400F200F100F000F3000000280064
:10029000E100C55CC75CC95CCB5CCD5C00000000C4
:1002A0000000000000000000E500E000E2000000A7
:1002B000E3000100000001000000E3000000000076
:1002C000E600E40032190A00047F3F1F6432146420
:1002D0003214783C1E1E140A052223252628292ABA
:1002E0002C2D2F3032333536383A3B3D3E40424399
:1002F0004547494A4C4E5051535557595A5C5E60D8
:1003000062646668696B6D6F71737577797B7D7FE9
:1003100081838587898A8C8E90929496989A9C9EE8
:100320009FA1A3A5A7A8AAACAEAFB1B3B4B6B8B904
:10033000BBBCBEBFC1C2C3C5C6C7C9CACBCCCDCE6C
:10034000D0D1D2D2D3D4D5D6D7D7D8D9D9DADADB4F
:10035000DBDBDCDCDCDCDCDDDDDDDDDCDCDCDCDCDB
:10036000DBDBDBDADAD9D9D8D7D7D6D5D4D3D2D21A
:10037000D1D0CECDCCCBCAC9C7C6C5C3C2C1BFBE02
:10038000BCBBB9B8B6B4B3B1AFAEACAAA8A7A5A36D
:10039000A19F9E9C9A98969492908E8C8A8987852C
:1003A00083817F7D7B79777573716F6D6B6968660B
:1003B0006462605E5C5A5957555351504E4C4A49DD
:1003C00047454342403E3D3B3A3836353332302F85
:1003D0002D2C2A292826252322FFAA7F55400001FB
:1003E00001010101010101010202020202020202F5
:1003F00002030303030303030304040404040404C7
:10040000050505050506060606060707070707088A
:10041000080808090909090A0A0A0B0B0B0C0C0C3D
:100420000D0D0D0E0E0E0F0F0F10101111111212D7
:1004300013131414151516161717181819191A1A54
:100440001B1B1C1D1D1E1E1F2020212222232424B5
:10045000252626272829292A2B2C2D2D2E2F3031F1
:100460003232333435363738393A3B3C3D3E3F4003
:100470004142434445464748494A4C4D4E4F5051EE
:100480005354555658595A5B5D5E5F6162646566A8
:1004900068696B6C6D6F7072737577787A7B7D7E2F
:1004A0008082838587888A8C8E8F91939596989A7F
:1004B0009C9EA0A2A3A5A7A9ABADAFB1B3B5B7BA97
:1004C000BCBEC0C2C4C6C9CBCDCFD1D4D6D8DBDD6B
:1004D000DFE2E4E7E9EBEEF0F3F5F8FAFDFF1803ED
:1004E0005000720069006D0065005F00450020004B
:1004F00052004700420000001003500072006900E3
:100500006D0065004B00420000000403090409026D
:100510003B00020100A0FA090400000103010100F0
:100520000921110100012240000705810308000A8A
:10053000090401000103000000092111010001224A
:100540006D000705820320000A120110010000005F
:10055000085250520001000102000105010980A16A
:1005600001850319012AB700150126B70095017509
:10057000108100C0050C0901A101850419012AA000
:1005800002150126A002950175108100C005010920
:1005900006A1018505050719E029E7150025019544
:1005A00008750181020507190029EF15002501953D
:1005B000F07501810205081901290595057501915C
:1005C00002950175039101C005010906A101050706
:1005D00019E029E7150025019508750181029501AB
:1005E000750881010507190029FF150026FF0095F0
:1005F0000675088100050819012905950575019101
:1006000002950175039101C011241FBECFEFDAE0FE
:10061000DEBFCDBF04B603FE27C08091F9029091E2
:10062000FA02A091FB02B091FC028730904BA740E8
:10063000B04BD1F41092F9021092FA021092FB0220
:100640001092FC0214BE84B7877F84BF0FB6F89463
:10065000A89580916000886180936000109260008E
:100660000FBEE0E0F8E3099511E0A0E0B1E0E6E0BC
:10067000F1E502C005900D92A23CB107D9F722E046
:10068000A2ECB1E001C01D92A93FB207E1F70E94C0
:10069000D2210C9481280C9400000C94FC0381E07E
:1006A000089581E008950C94510308950C94550326
:1006B0001F93CF93DF9300D000D01F92CDB7DEB74A
:1006C00049835A836B8330910C0289819A8131115D
:1006D00014C0662359F0222349F00E944F1B182FA3
:1006E000682F89819A810E94F81A03C00E94231BF7
:1006F000182F69817A81812F04C00E944F1B698164
:100700007A810F900F900F900F900F90DF91CF9103
:100710001F910C940E04FC01262F408151816281AF
:10072000738184810C945803CF93DF93EC0160E0D4
:100730000E948B03BE01DF91CF910C9456030E945F
:10074000811C811102C00E94321D0C9427060C945A
:10075000230608950E9404160E94A9032FEF84E344
:100760009CE0215080409040E1F700C000000C94D4
:10077000C21E0F931F93CF93DF93EC0161E00E94A1
:100780008B038C01BE010E945303882379F1BE01C3
:10079000C8010E945A0F882349F1BE01C8010E9476
:1007A000AC0F882319F1BE01C8010E94D71088231D
:1007B000E9F0BE01C8010E944B0E8823B9F08A817E
:1007C000882369F001158CE5180731F00F3D1C45B1
:1007D00031F40E94321D0AC00E94AA0307C0CE0154
:1007E000DF91CF911F910F910C944F0380E0DF9127
:1007F000CF911F910F910895089581E008950C9471
:10080000FD03CF93C82F0E944D038C2F0E94FF033E
:10081000CF91089580E090E00895089524E3829FA9
:10082000C0011124FC012DE0729FE00DF11D112487
:10083000E60FF11DEE0FFF1FEC5DFE4F85919491C9
:100840000895880F991FFC01EC53FD4F85919491F9
:100850000895CF93DF930E940E040E943B05EC01A4
:100860008115904508F043C0C11580E4D80708F011
:10087000CBC0C03ED10528F5C03CD10508F0B3C0BF
:10088000C83AD10578F4C53AD10508F0A4C0C13002
:10089000D10509F4ECC008F4E8C0C430D10508F073
:1008A000E6C0E3C0CF3BD10508F0DFC0C85AD0E0B6
:1008B000CC0FDD1FCC5DDE4F0990D881C02DD464F4
:1008C000D6C0C11590E2D90750F4C11521E0D20776
:1008D00008F0CDC0C83ED10508F4C9C0C6C0C115D6
:1008E00080E3D80708F086C0CE019F707FC0C11595
:1008F00095E5D90708F043C0C11524E5D20708F0F3
:100900009AC0C11582E5D80708F5C11591E5D90748
:1009100008F07DC0CE0174E0969587957A95E1F751
:1009200083709C2F937021E030E002C0220F331FB0
:100930009A95E2F73C68382BCF70C695C69580E251
:10094000C89FE0011124C22BD32B91C09E012370BC
:1009500033278C2F86958695C115D34508F05CC04A
:10096000C1E0D0E002C0CC0FDD1F2A95E2F720E203
:10097000829FC0011124C82BD92BDC6878C0C11517
:1009800029E5D207A0F4C11588E5D80708F058C0BA
:10099000C11596E5D90708F068C08C2F0E94CF05D5
:1009A0008F71C82FD0E0DC2FCC27D06260C0C1157A
:1009B0002AE5D20708F449C0CE019056811590422D
:1009C00008F053C08D2F8F710E94CF05DD27D062B4
:1009D0008F71D82B4CC0C55AD0E0CE5ADE4FC8819B
:1009E000D0E0D06444C0CE01805C91090E94210413
:1009F000EC013DC0CE019927D3FF03C0EC01D86CB8
:100A000036C0EC01D06C33C0DF70D06A30C0DC2F50
:100A1000CC27C16FD06A2BC0C1E0D0E002C0CC0FA0
:100A2000DD1F2A95E2F720E2829FC0011124C82B26
:100A3000D92BDA681CC0DC2FCC27C46FD06A17C052
:100A4000DC2FCC27C06FD06A12C08C2F8F700E9411
:100A5000CF0594E0D695C7959A95E1F7CF70D0E091
:100A6000DC2FCC27D069C82B02C0C0E0D0E0CE017B
:100A7000DF91CF9108958238910569F1B0F4813307
:100A8000910509F46DC048F48932910509F463C0F9
:100A90008A32910509F469C008958533910509F4F6
:100AA00055C089339105B9F00895833E910569F1E8
:100AB00038F4803E9105B1F0823E910509F1089528
:100AC000863E9105A9F1873E9105B9F1843E9105D5
:100AD00009F064C023C02091EA0220FD4FC021FD2F
:100AE0004DC008958091EA0280FD44C08091EB02E0
:100AF00080FF44C08091EA0284FD42C083EE4DC075
:100B00008091EA0282FF38C0F5CF8091EA0282FD2F
:100B100033C08091EB0280FD31C0ECCF8091EB02BD
:100B200081FF32C08091EA0284FD2AC087EE35C081
:100B30008091EA0283FF26C0F5CF8091EA0283FD0F
:100B400021C08091EB0281FD1FC0ECCF8091EA02B1
:100B500085FD1CC01DC08091EA0285FD19C016C02C
:100B60008091EA0286FD16C017C08091EA0286FDD8
:100B700013C010C089E311C082EE0FC080EE0DC01B
:100B800080E00BC086EE09C084EE07C089E205C094
:100B900085E303C08AE201C081E390E0089590916B
:100BA000EA0292FF0DC0282F2871283019F4877FA0
:100BB000846006C0282F2471243011F48B7F886054
:100BC00093FF0DC0282F2871283119F4877E846186
:100BD00006C0282F2471243111F48B7E8861209166
:100BE000EB0220FF0DC0382F3871383019F4877FA1
:100BF000816006C0382F3171313011F48E7F8860EA
:100C000021FF0DC0282F2871283119F4877E8161BA
:100C100006C0282F2171213111F48E7E886194FD48
:100C2000877E0895E82FF0E0EE0FFF1FEF53FD4F92
:100C3000808191810895089580EA8A95F1F7089559
:100C400008950C9420060C9421060C9420060C9414
:100C50002506F894E82FE295EF70F0E031A1282FF7
:100C60002F7081E090E001C0880F2A95EAF7982F55
:100C70009095932391A392A1892B82A378940895B0
:100C80000F931F93CF93DF9386EC0E94290687E68C
:100C90000E94290685E30E94290684E30E94290612
:100CA000C5E5D1E002E611E089910E9429060C1702
:100CB0001D07D1F71092BA021092B9021092C20227
:100CC0001092C1021092BC021092BB021092C40298
:100CD0001092C3021092BE021092BD021092C60280
:100CE0001092C5021092C0021092BF021092C80268
:100CF0001092C70284E00E940F07DF91CF911F91ED
:100D00000F910C949F037F928F929F92AF92BF920C
:100D1000CF92DF92EF92FF920F931F93CF93DF93C7
:100D2000C2E6D1E089EBA82E82E0B82E91ECE92E44
:100D300092E0F92E712C01E010E06E018881F894A8
:100D4000E82FE295EF70F0E021A18F70A80102C0BA
:100D5000440F551F8A95E2F7CA01922F982B91A351
:100D600092A18095892382A378940E941C06E5E5D0
:100D7000F1E020E030E0812C912C4191A42FA2954C
:100D8000AF70B0E090968C9190E04F7002C0959556
:100D900087954A95E2F780FD08C0C801022E02C07F
:100DA000880F991F0A94E2F702C080E090E0882A39
:100DB000992A2F5F3F4F2D303105F9F62196F60124
:100DC00080810E942906F50180819181881699060B
:100DD00021F09182808281E001C080E0782AF2E0F7
:100DE000AF0EB11CEA14FB0409F0A7CF272D44E095
:100DF00061EC72E089EB92E00E9410070E94A70369
:100E0000872DDF91CF911F910F91FF90EF90DF9091
:100E1000CF90BF90AF909F908F907F90089508954E
:100E2000FF920F931F93CF93DF93F82E092F162F66
:100E3000D72FC42F222349F081E08093C4010E9460
:100E4000811E9093C3018093C2018091C4018823C5
:100E5000D9F08091C2019091C3010E948D1E069726
:100E600098F0EF2DF02FA12FBD2F80E090E04C2FB8
:100E700050E08417950734F4219131912D933D93DF
:100E80000196F7CF1092C401DF91CF911F910F917E
:100E9000FF900895EF92FF920F931F93CF93DF93EC
:100EA0008B01682F11110AC0442329F0E82FF0E0CC
:100EB000E252FC4F6491762F862F75C0212F30E0CF
:100EC000E82FF0E0442321F0E252FC4FE491F0E0FF
:100ED00046E0049FC0011124CFEFD0E0BE010E9484
:100EE00030274BEA4603C001479F900D1124800F25
:100EF000911D800F911D982F990F890FAE01421BF4
:100F0000530B4E9FD0014F9FB00D5E9FB00D11242B
:100F10009B2F189FA0011124452F55278E01041BDC
:100F2000150B0E9FA0010F9F500D1E9F500D1124F9
:100F30007E01E81AF108E29E8001E39E100DF29E08
:100F4000100D1124212F3327C21BD30BCE9F9001EC
:100F5000CF9F300DDE9F300D112462307105A9F056
:100F600048F46115710569F061307105C9F48B2F82
:100F7000752F0DC06430710581F058F06630710531
:100F800079F47E2F8B2F932F0DC0832F7B2F9E2FD5
:100F900009C08E2F7B2F952F05C08E2F732F02C077
:100FA0007E2F852F692FDF91CF911F910F91FF9099
:100FB000EF90089541E00E944A07089508950E9425
:100FC000DA070895CF93DF93762FE901682F842FF6
:100FD0000E94DF07798368838A83DF91CF91089528
:100FE0008091C902282F269530E02115310519F48A
:100FF0008170826005C02B32310524F081708465D8
:101000008093C902089588E090E00C942228CF9242
:10101000DF92EF92FF926B017C010E94F007B70113
:10102000A60188E090E0FF90EF90DF90CF900C94C5
:101030004028E9ECF2E083E0808311828FEF828325
:101040008383148260817181828193810C9407086B
:101050008091C90280FF02C08695089580E00895BE
:101060009091CD02933018F49F5F9093CD02882326
:1010700051F06091C9027091CA028091CB029091A7
:10108000CC020C940708089581E00C9430089091EC
:10109000CD02992319F091509093CD02882351F0FD
:1010A0006091C9027091CA028091CB029091CC02EA
:1010B0000C940708089581E00C94470870E00C94A4
:1010C000BC0E609108018091C90280FF0AC0809126
:1010D000070123E0829FC001112482539D4F0C948D
:1010E0005E088091090190910A01891780F7E82F25
:1010F000F0E09F01220F331FE20FF31FE253FD4F79
:101100001182108212828F5FF0CF9091C90290FFFE
:1011100016C09091090120910A01921770F4E92FED
:10112000F0E0DF01AA0FBB1FEA0FFB1FE253FD4FE8
:101130008183608342839F5FF0CF0C9461080895A0
:10114000CF93DF9300D01F92CDB7DEB79091C90245
:1011500090FF0AC09E012F5F3F4F0E94E2074B8124
:1011600069818A810E9485080F900F900F90DF910E
:10117000CF910895CF93DF93EC01EC81F0E0E7523B
:10118000FD4F4491E9ECF2E0628181810E94A00868
:101190008C818F5F8C83DF91CF910895CF93DF9304
:1011A000EC01E9ECF2E0438162818C810E94A008AD
:1011B0008C818F5F8C83DF91CF9108950F931F9364
:1011C000CF93DF9300D01F92CDB7DEB78C01809113
:1011D000C50181110AC09E012F5F3F4F4FEF6FEF96
:1011E0000E94E2078A818093C501F80184818130E1
:1011F00051F028F0823061F44091C5010AC080911D
:10120000C50140E007C06091C50140E080E003C037
:1012100040E080E060E00E948508F801848190E071
:10122000019663E070E00E94442784830F900F9042
:101230000F90DF91CF911F910F910895AF92BF92C0
:10124000CF92DF92EF92FF920F931F93CF93DF9392
:1012500000D01F92CDB7DEB7182FF62E042FE22E46
:101260009091C90290FF6DC0E92FE695AE2FB0E0D6
:10127000AA59BE4F8C918093F7019E7F923061F402
:101280009E012F5F3F4F812F0E94E2074B816981B2
:101290008A810E94850843C0823019F40091CC02F3
:1012A0003EC0863019F41091CA0239C08930D9F392
:1012B0008931A9F5E9518E2F8170D82EE695F0E09D
:1012C000E752FC4FA590B490C12CBB2460910B0158
:1012D000C61618F52C2D30E0A29EC001A39E900DDD
:1012E000B29E900D112470E00E943027812FD11002
:1012F00002C0860F01C0861B90910901290F311D84
:10130000A901440F551F240F351F22533D4F402F75
:101310006F2D0E94E207C394D9CF0E9461081093F9
:10132000CA02F092CB020093CC02EE2051F0609101
:10133000C9027091CA028091CB029091CC020E94A6
:1013400007080F900F900F90DF91CF911F910F9191
:10135000FF90EF90DF90CF90BF90AF900895E9ECB1
:10136000F2E09181282F4381628188E0890F0C94FB
:101370001E0981E00C94AF09E9ECF2E09181282F7D
:101380004381628188EF890F0C941E0981E00C94DF
:10139000BC09E9ECF2E0628121E1620F08F46FEF31
:1013A000282F438181810C941E0981E00C94C90986
:1013B000E9ECF2E0628121E1621B08F460E0282F91
:1013C000438181810C941E0981E00C94D809E9ECD9
:1013D000F2E0438121E1420F08F44FEF282F6281B0
:1013E00081810C941E0981E00C94E709E9ECF2E09C
:1013F000438121E1421B08F440E0282F6281818172
:101400000C941E0981E00C94F60920E00C941E094E
:10141000FF920F931F93CF93DF93EC01F12C0FEF0B
:1014200010E060910B01F616F0F4809109012F2D68
:1014300030E0280F311DC901880F991F280F391F6F
:1014400022533D4F70E0C8010E944427962F8C81A3
:101450004091CC026091CB02F99E800D11240E9434
:10146000E207F394DECF0E9461089A818C8190FF9D
:1014700002C08F5F01C081508C83DF91CF911F919B
:101480000F91FF900895BF92CF92DF92EF92FF925B
:101490000F931F93CF93DF93FC01828180FF02C0E3
:1014A0000FEF01C001E010E080910B01181708F068
:1014B00040C080910901C12ED12CE601C80FD11D79
:1014C000CE01880F991FC80FD91FC253DD4F198253
:1014D00018821A8234E0E32EF12CB12C8091C701DE
:1014E0008B0D893014F0877005C087FF03C0909181
:1014F0000B01890F082E000C990BC816D90691F420
:101500008091CC028E9DA0018F9D500D1124559588
:101510004795559547959E016091CB028091CA02EF
:101520000E94E207B00EF1E0EF1AF108B9F61F5F72
:10153000BBCF0E9461088091C701013031F4811155
:1015400002C080910B01815007C090E0019660912C
:101550000B0170E00E9444278093C701DF91CF9177
:101560001F910F91FF90EF90DF90CF90BF90089563
:10157000CF938091090190910A01891770F4E82FA7
:10158000F0E09F01220F331FE20FF31FE253FD4FE4
:101590001182108212828F5FF0CFC0E060910B0148
:1015A000C617C0F5EC2FF0E070E0CF010E94442791
:1015B00020910901820F2091C601022E000C330BED
:1015C00090E0E217F307CCF020910601022E000C08
:1015D000330B2E173F078CF09C01220F331F820F15
:1015E000931F9C0122533D4F4091CC026091CB024E
:1015F0008091CA020E94E2070BC0FC01EE0FFF1FA0
:101600008E0F9F1FFC01E253FD4F11821082128248
:10161000CF5FC4CF0E946108209105018091C6016F
:10162000820F8093C60190910601920F909306015C
:1016300019165CF4082E000C990B40910B0150E038
:1016400041505109841795071CF0219520930501FD
:10165000CF9108958F929F92AF92BF92CF92DF92D7
:10166000EF92FF920F931F93CF93DF938C01FC01B6
:101670004481C42FD0E09E01DE010E9488279B0197
:10168000AC010E949E276B017C01E0E2F0E0EC1BC4
:10169000FD0BA5E5B0E09B01AC010E949E274B012C
:1016A0005C019F01DF010E9480279B01AC010E9429
:1016B000A9279B01AC012C0D3D1D4E1D5F1DC501D1
:1016C000B4010E945827C22FD22F2A3228F4F3E007
:1016D0002F9F900111240DC025E530E02C1B31090E
:1016E000C901880F991F280F391F37FF02C02F5FCC
:1016F0003F4F35952795C22FC095F12C85E5E82EF3
:10170000ED1A80910B01F816C8F4F1FC02C08E2D81
:1017100001C08D2F909109012F2D30E0290F311D2F
:10172000A901440F551F240F351F22533D4F4C2F45
:101730006091CB020E94E207F394E3CF0E9461081C
:10174000F8018481811102C091E003C0803219F454
:101750009FEF9093040190910401890FF801848315
:10176000DF91CF911F910F91FF90EF90DF90CF907D
:10177000BF90AF909F908F9008950F931F93CF933A
:10178000DF93EC0100E010E080910B01282F30E0A6
:101790000217130724F5909109019801290F311DB3
:1017A000A901440F551F240F351F22533D4F869525
:1017B00090E04C81081719071CF4442331F002C053
:1017C000411103C04091CC0201C040E06091CB02C6
:1017D0008091CA020E94E2070F5F1F4FD5CF0E947F
:1017E00061088C8190E00196817099278C83DF914C
:1017F000CF911F910F9108958F929F92AF92BF92B8
:10180000CF92DF92EF92FF920F931F93CF93DF93CC
:10181000FC01B280948081E0848300E015E05BE409
:10182000A52E88248394EE24EA94F12C7BE4C72E21
:10183000D12C80910B01081708F08FC0C02FD0E089
:101840001C9FF0011D9FF00D1124E853FE4F9110D5
:1018500003C01382128267C02381222389F12150A1
:1018600023833481332319F09A2D921B01C0922FC8
:101870008091CC021C9FF0011D9FF00D1124E853B4
:10188000FE4F899FC0011124B6010E943027628358
:10189000211104C0332311F01482A38222E02B15FE
:1018A00008F441C01C9FF0011D9FF00D1124E85366
:1018B000FE4F8091CA0280838091CB02818333C026
:1018C0000E94FD278230914074F582E08B1530F440
:1018D0000E94FD27B7010E94442702C08091CA02DE
:1018E0001C9FF0011D9FF00D1124E853FE4F8083D3
:1018F00022E02B1558F40E94FD272091CB0226955B
:10190000622F70E00E944427820F02C08091CB02B8
:101910001C9FF0011D9FF00D1124E853FE4F8183A1
:101920001282A3828482809109019E01280F311DB9
:10193000C901880F991F280F391F22533D4F1C9F43
:10194000F0011D9FF00D1124E853FE4F428161818B
:1019500080810E94E2070F5F6CCFDF91CF911F91D2
:101960000F91FF90EF90DF90CF90BF90AF909F903E
:101970008F900C946108E9ECF2E080818E7F808387
:1019800060817181828193810E9407081092F80121
:101990002FEF80E792E0215080409040E1F700C0B7
:1019A00000000C9461086091C902669570E04BE0FC
:1019B00050E08CE091E00E940D28892B19F481E021
:1019C0008093F8010E94811E9093F1018093F001B1
:1019D00008959091C90290FF35C09170811102C0A5
:1019E000926006C08B3210F0946502C0880F982B6D
:1019F0009093C902662351F06091C9027091CA02A6
:101A00008091CB029091CC020E9407086091C9029C
:101A1000669570E04BE050E08CE091E00E940D286C
:101A2000892B19F01092F80102C00E94D30C81E0BA
:101A30008093F3014091CC026091CB028091CA0265
:101A40000C94050A0895682F9091C902969581E03B
:101A5000890F8B3208F081E00C94E90C81E00C9442
:101A6000230D682F9091C90296958FEF890F09F485
:101A70008AE20C94E90C81E00C94310D61E00C9445
:101A8000E90CE9ECF2E080818160808386950C941A
:101A90003E0D8091C90280FD0C94BB0C0C94410D4D
:101AA00060E00C94E90C8091F60181112EC00E9437
:101AB000811C811104C00E94321D0E9419080E94DD
:101AC00003086093C9027093CA028093CB0290937B
:101AD000CC026E7F61F40E9419080E940308609393
:101AE000C9027093CA028093CB029093CC020E94E9
:101AF000F0071092F8018091C90280FF03C086951B
:101B00000E94500D81E08093F60108950F931F937A
:101B1000CF93DF938091F801882309F49CC08091D2
:101B2000F701E091C902E695E81BE093F2018230EB
:101B300049F4F0E0EB52FD4FE491CE2FD0E00AEBF8
:101B400018E059C0863049F4F0E0EE52FD4FE491C0
:101B5000CE2FD0E00EEC18E04EC0893051F4E6955F
:101B6000F0E0E153FD4FE491CE2FD0E008E01AE021
:101B700042C08F3051F4E695F0E0E453FD4FE4911C
:101B8000CE2FD0E003E41AE036C0853149F4F0E00E
:101B9000E753FD4FE491CE2FD0E008EB1AE02BC0C5
:101BA0008831D9F0833239F4E7ECF2E0C591D49171
:101BB0000EED18E020C08432A9F08532C1F48E2FDA
:101BC00063E00E942427E92FF0E0EC53FD4FE491FD
:101BD000CE2FD0E00CEF1BE00EC0C8E2D0E00AE24E
:101BE0001BE009C0C4EFD1E00DEB1BE004C0C0ED69
:101BF000D7E00EED17E08091F301882389F0109271
:101C0000F3010E94811E9E0120953095820F931F43
:101C10009093F1018093F0011092F5011092F4017C
:101C20008091F0019091F1010E948D1E8C179D070B
:101C300090F0E091F001F091F101CE0FDF1FD09311
:101C4000F101C093F00180EF91E0F801DF91CF91B5
:101C50001F910F910994DF91CF911F910F910895DA
:101C6000882311F0FA0101C0FB010994CF93DF939F
:101C7000C82FD62F0E9428088C1740F00E942808F1
:101C80008D1720F4DF91CF910C942E0D8C2FDF91C6
:101C9000CF910C943E0D0F931F93CF93FB01C28104
:101CA000CC2309F463C08C010E94D01B8272F8011E
:101CB000E35CFC45E431F10508F059C0EA5AFF4FF6
:101CC0000C947A270E94490D06C04BE35DE06EE25A
:101CD0007DE00E94300EC0E04AC04EE25DE06BE362
:101CE0007DE0F7CF46EC59E069EB79E0F2CF49EBC4
:101CF00059E066EC79E0EDCF44EE59E065ED79E02E
:101D0000E8CF45ED59E064EE79E0E3CF42E05AE0F8
:101D100063EF79E0DECF43EF59E062E07AE0D9CFBC
:101D20004BE558E064E478E0D4CF44E458E06BE558
:101D300078E0CFCF81E017C065E082E010C068E0B6
:101D400086E00DC06EE089E00AC064E18FE007C064
:101D500067E185E104C088E106C062E289E10E9492
:101D6000360EB9CF83E20E943E0DB5CFC1E08C2F75
:101D7000CF911F910F910895279A25B12F7735B1F3
:101D800030684FB7F894FC01CB01880F991F680F9A
:101D9000791F6E0F7F1FE617F70789F0819198E092
:101DA00035B9000000C087FF25B9880F000000C0CA
:101DB00000C000C025B900C09A9591F7ECCF4FBF85
:101DC0008FE594E00197F1F700C0000008950F93AC
:101DD0001F93CF93DF93C42FD22FFC0182818823DE
:101DE000C9F04093FB010E94811E9093FA018093F9
:101DF000F90180E28C0F883008F057C0C77081E08D
:101E000001C0880FCA95EAF7DF91CF911F910F911A
:101E10000C9483138091FB01481330C08091F90129
:101E20009091FA010E948D1E883C910538F510E2D0
:101E30001D0FCD17B9F080E28C0F883040F4C770C9
:101E400081E001C0880FCA95EAF70E948A13183012
:101E500028F581E09D2F977001C0880F9A95EAF7C9
:101E60000E948313802F0E9470131830F0F4D770F3
:101E700081E001C0880FDA95EAF70AC080E28C0F92
:101E8000883098F4C77081E001C0880FCA95EAF7DE
:101E9000DF91CF911F910F910C948A13802FDF91C6
:101EA000CF911F910F910C947013DF91CF911F91DF
:101EB0000F9108950F939C01CB01243F4CE534070B
:101EC00031F188F4293DFCE53F07D9F02A3D4CE586
:101ED000340779F1283D3C45A9F506E221EE41EEB3
:101EE00068ED7CE52BC0263FFCE53F07E1F0A8F05C
:101EF000273F3C4539F507E225EE46EE67EF7CE5E6
:101F00001DC007E225EE45EE69ED7CE517C006E24F
:101F100021EE40EE64EF7CE511C007E225EE44EED1
:101F200065EF7CE50BC006E221EE42EE66EF7CE554
:101F300005C008E221E045EE6AED7CE50E94E70E6F
:101F400080E008C0FC018281882319F01092FB0117
:101F500001C081E00F910895CF93DF93EC01FB0165
:101F60008281882309F41FC1C230FCE5DF0708F431
:101F70001BC1C6319CE5D90738F09E012B5F3C455B
:101F80002930310508F010C10E949E1C9093EB028D
:101F90008093EA02C031ECE5DE0709F4C3C008F023
:101FA00041C0C8308CE5D80709F49AC0F0F4C430B9
:101FB000ECE5DE0709F487C068F4C2308CE5D80789
:101FC00009F477C0C330DC4509F0E3C08091EA0230
:101FD000826076C0C630ECE5DE0709F46EC008F01A
:101FE0007BC08091EA0288606BC0CC308CE5D8075A
:101FF00009F485C068F4CA30ECE5DE0709F474C062
:1020000008F079C00E9404168091EA02806858C0E6
:10201000CE308CE5D80709F476C008F07FC08091F7
:10202000EA028BC0CC3FECE5DE0709F44FC018F59F
:10203000C3318CE5D80709F47DC078F4C131ECE5F3
:10204000DE0709F473C0C231DC4509F0A2C00E946A
:1020500004168091EA028F7733C0C5318CE5D8072A
:1020600009F472C008F486C0CB3FDC4509F091C08A
:102070008091EB023EC0C115FDE5DF0709F45FC0AA
:1020800058F4CE3F9CE5D90709F444C008F43FC09A
:102090008091EB0282602DC0C230FDE5DF0709F4BC
:1020A00075C008F45DC0C330DD4509F072C080E042
:1020B0006EC08091EA02816003C08091EA02806173
:1020C0008093EA0266C08091EA0211C08091EB021F
:1020D00082608093EB025DC08091EA028062F0CF63
:1020E0008091EA028064ECCF8091EA02886084608B
:1020F000E7CF8160EECF8091EA028E7FE1CF8091C1
:10210000EA028D7FDDCF8091EA02877FD9CF80916F
:10211000EB0218C08091EB028D7FDBCF8091EA0249
:102120008F7ECECF8091EA028F7DCACF8091EA0266
:102130008F7BC6CF8091EA02877F8B7FC1CF809152
:10214000EB028D7F8E7FC5CF8091EA0282FB222732
:1021500020F991E0922790FB82F990FB83F9B0CFB0
:102160008091EB02982F909591708E7F892B90FB38
:1021700081F9AFCF0E9404168091EA0287FB2227E3
:1021800020F991E0922790FB87F99ACF81E00E9495
:10219000341D8091EA029091EB020E94AF1C0E94D4
:1021A000041680E001C081E0DF91CF910895CF93C4
:1021B000DF9386319C4541F5EB010E94D01B982F9F
:1021C0008A812091170130911801882379F09A7A39
:1021D00081E009F480E08093FC01911102C069E282
:1021E00001C065E3C9010E94CF1D0AC08091FC01B6
:1021F000811102C069E201C065E3C9010E94DA1DD4
:102200000E941E1C80E001C081E0DF91CF91089503
:1022100090930202809301020895E0910102F091EF
:102220000202309721F00190F081E02D099480E0C6
:102230000895E0910102F0910202309799F0209107
:102240002301222359F02091EA0227FF07C0DC0175
:102250002C9111962C93119725E02C930280F381F9
:10226000E02D099408952091FF0130910002281774
:10227000390771F0909300028093FF01E091010211
:10228000F0910202309721F00680F781E02D099449
:1022900008952091FD013091FE012817390771F052
:1022A0009093FE018093FD01E0910102F091020202
:1022B000309721F00084F185E02D0994089585B7C9
:1022C000806885BF85B7806885BF089581E00895DF
:1022D0000C94661108950C946A110C946A110C9474
:1022E0006D110C946A110C9471110C946A110E9476
:1022F0005F110E9475110C9473110E94781E0E9448
:1023000040060E94321F0E94530D0C946F117F9261
:102310008F929F92AF92BF92CF92DF92EF92FF92F5
:102320000F931F93CF93DF93CDB7DEB72A970FB6E6
:10233000F894DEBF0FBECDBF0E946B110E946A11E0
:102340000E9483060E946811811111C08FEF89835A
:102350008A831B820E94811E8160782F9D838C83DB
:1023600049815A816B818D810E943B124FC044E0AC
:10237000A42E42E0B42E00E010E0702E802F0E94C8
:1023800012066C01F501819091905F0188269926D3
:102390008114910431F40F5F1F4F0430110569F768
:1023A000D5CF8091950281FD0E941B0680E0EE242E
:1023B000E394F12C94012E213F21232B09F18E83EC
:1023C0007F82CE20DF2081E0CD2809F480E088875D
:1023D0000E94811E8160782F9A8789874E815F8154
:1023E00068858A850E943B12000F111FF801EC5F7F
:1023F000FD4F80819181E826F926F182E08206C0B6
:102400008F5FEE0CFF1C8D30A9F6C5CF0E94860DA4
:102410000E940D11909103028917C9F00E940D11BD
:10242000809303022A960FB6F894DEBF0FBECDBF8D
:10243000DF91CF911F910F91FF90EF90DF90CF90A0
:10244000BF90AF909F908F907F900C9401042A963C
:102450000FB6F894DEBF0FBECDBFDF91CF911F91B5
:102460000F91FF90EF90DF90CF90BF90AF909F9033
:102470008F907F900895CF93DF93CDB7DEB72B97E2
:102480000FB6F894DEBF0FBECDBF4F835887698764
:102490007A878B87DE01119686E0FD0111928A957D
:1024A000E9F785E0FE01379601900D928A95E1F7F4
:1024B00049815A816B817C818D819E810E94BD18EA
:1024C0002B960FB6F894DEBF0FBECDBFDF91CF9134
:1024D0000895FC01808191810E94911B0895CF9302
:1024E000882309F49CC0C82F8238C1F40E940D11C2
:1024F00081FD95C069E380911701909118010E94B8
:10250000CF1D0E941E1C2FEF81EE94E021508040D1
:102510009040E1F700C0000069E319C0833801F57D
:102520000E940D1180FD7BC063E5809117019091A1
:1025300018010E94CF1D0E941E1C2FEF81EE94E017
:10254000215080409040E1F700C0000063E5809199
:102550001701909118010E94DA1DCF910C941E1C56
:102560008438C1F40E940D1182FD59C067E4809146
:102570001701909118010E94CF1D0E941E1C2FEF81
:1025800081EE94E0215080409040E1F700C00000CF
:1025900067E4DDCF8CEF8C0F813AD0F46C2F809103
:1025A0001701909118010E944F1D882349F06C2F4C
:1025B00080911701909118010E94DA1D0E941E1C43
:1025C0006C2F80911701909118010E94CF1DC5CFEB
:1025D00080E28C0F883048F4C77081E001C0880F1A
:1025E000CA95EAF70E94D31BB8CFEBE5EC0FE330B6
:1025F00040F4F0E0E154FE4F808190E0CF910C94E4
:102600003311C85AC73158F4EC2FF0E0EE0FFF1F1A
:10261000EF56FE4F80819181CF910C944911CF915B
:102620000895882309F45BC0682F823879F40E94EA
:102630000D1181FF54C069E3809117019091180139
:102640000E94CF1D0E941E1C69E310C08338B1F4A4
:102650000E940D1180FF43C063E5809117019091A6
:1026600018010E94CF1D0E941E1C63E58091170176
:10267000909118010E94DA1D0C941E1C843879F484
:102680000E940D1182FF2BC067E480911701909189
:1026900018010E94CF1D0E941E1C67E4E7CF8CEF3B
:1026A000860F813A18F380E2860F883048F467700D
:1026B00081E001C0880F6A95EAF70E94D91BDCCF40
:1026C0008BE5860F833020F480E090E00C9433118A
:1026D000685A673120F480E090E00C944911089525
:1026E000CF93C82F0E946F12C93349F42FEF87EEA2
:1026F00093E0215080409040E1F700C000008C2F13
:10270000CF910C941113882321F00E94D31B0C94B9
:102710001E1C0895882321F00E94D91B0C941E1CB6
:102720000895CF92DF92EF92FF920F931F93CF9372
:10273000DF937C01062FC72FFC01158112951F70B6
:10274000D281D1110E94F01B0E94C91B882399F0ED
:10275000DD2389F08C2F807F803421F080E2800F90
:10276000883048F082E00E94681C0E94C91B91E0FA
:10277000D82ED92601C0D12CCC2EC2948FE0C822ED
:102780008C2D90E0FC01E659FF4F0C947A278C2F9A
:10279000807FCF70882311F0C295C07FDD2399F030
:1027A000CC2309F482C180E2800F883010F001113F
:1027B00004C08C2F0E94D31B03C08C2F0E94E31BEC
:1027C0000E941E1C72C1802F0E941113CC2309F499
:1027D00091C180E2800F883010F0011104C08C2F6D
:1027E0000E94D91B03C08C2F0E94E91B0E941E1C53
:1027F00081C18C2F807FCF70803211F0C295C07F55
:10280000002319F00130C9F022C0DD2371F011233B
:1028100041F0113031F40E94031C8C2B0E940B1CE0
:1028200069C10E94031C8C2B1DC0112319F01130AB
:1028300009F460C10E94141C25C0DD2321F016306C
:1028400008F058C10EC0153008F054C11BC0DD237C
:1028500061F0112331F0F701858180FF26C18F706F
:1028600085838C2F0E94831345C1112359F00933AE
:1028700009F02CC1FFEF27EE83E0F15020408040AB
:10288000E1F722C18C2F0E948A1334C18C2F8695C8
:102890008695837019F0813061F02CC1DD2321F021
:1028A000802F9C2F937002C080E090E00E94331133
:1028B00029C1DD2321F0802F9C2F937002C080E07E
:1028C00090E00E9449111EC18C2F837009F045C011
:1028D000D11114C1402F429546954770440F440FC3
:1028E000602F6F70862F90E0A0E0B0E0042E04C04F
:1028F000880F991FAA1FBB1F0A94D2F704FF10C0AC
:102900000FE010E020E030E004C0000F111F221F94
:10291000331F4A95D2F7009510952095309503C046
:1029200000E010E09801C695C695C370BC01CD01CA
:10293000602B712B822B932BC23049F058F4C1309D
:1029400019F00E940E1ADAC00E94FC19D7C00E942A
:10295000201AD4C00E94FA19D1C0DD2319F08C2F9F
:10296000817001C08695882309F4C8C0402F429524
:1029700046954770440F440F602F6F70862F90E08C
:10298000A0E0B0E0042E04C0880F991FAA1FBB1F4F
:102990000A94D2F704FF10C00FE010E020E030E00E
:1029A00004C0000F111F221F331F4A95D2F7009554
:1029B00010952095309503C000E010E09801C69571
:1029C000C695C370BC01CD01602B712B822B932B5C
:1029D000C23049F058F4C13019F00E94D31A8EC0A9
:1029E0000E94C11A8BC00E94E51A88C00E94341A46
:1029F00085C0CF70DD2339F08C2F0E945A1A802FAA
:102A00000E9483137BC0802F0E948A138C2F0E9408
:102A10007B1A74C0023F01F128F4003F41F0013FEE
:102A2000A1F03FC0033FF9F0043F39F13AC0DD2384
:102A300041F0153008F05EC08C2F8F710E94A01AF3
:102A400059C0163008F056C0F7CFDD2339F08C2F6F
:102A50008F710E945A1A4EC0DD23C9F38C2F8F71DB
:102A60000E947B1A47C0DD2329F08C2F8F710E94B2
:102A7000451A40C00E94401A3DC0DD2349F0CF7185
:102A80008C2F0E945A1A63E08C2F0E94531C32C074
:102A900081E00E94681C123068F182E00E94681C8C
:102AA00029C0DD2331F0112391F2802F0E946F1293
:102AB00021C0112399F2093349F49FEFE7EEF3E0C7
:102AC0009150E040F040E1F700C00000802F0E94EC
:102AD000111310C04C2F4F70602FC7010E940A04C1
:102AE0000E946B190FC04C2F4F70602FC7010E94BE
:102AF0000D0408C088EF8C0D843020F40E940D1165
:102B00000E940104DD20C9F00E94C51B80FD15C094
:102B1000F70112820E94BF1B0E945A1AC7010E942D
:102B2000BE150E94BF1BDF91CF911F910F91FF90A7
:102B3000EF90DF90CF900C947B1ADF91CF911F9193
:102B40000F91FF90EF90DF90CF9008950F931F9318
:102B5000CF93DF93EC01688179818A810E949C1B6D
:102B60008C010E94F71A0E94E819B801CE010E9458
:102B70009113DF91CF911F910F910895CF93DF9320
:102B8000EC01988189812B813C81232B31F08F3F8F
:102B900031F481E09F3F19F403C081E001C080E07F
:102BA00080FD19C0CE010E94B90381110CC00E94A2
:102BB000C91B882381F08A81882369F082E0DF9134
:102BC000CF910C94681CCE010E94A615CE01DF9116
:102BD000CF910C949403DF91CF9108950E94F01B44
:102BE0000E94001C0E941E1C80E090E00E94331195
:102BF00080E090E00C9449118091170190911801A8
:102C00000E94E51D0C94EE150E94E01B0C94FC152F
:102C1000E92FE295EF704E2F50E0FA013297EE3037
:102C2000F105B0F4E658FF4F0C947A27803F91F0FD
:102C300018F4883E68F40EC0843F51F40BC0883EFF
:102C400048F0813F29F406C093FB882780F9089556
:102C500080E0089581E008950E94911B0E9408166B
:102C60000895CF93DF9300D000D01F92CDB7DEB789
:102C70000F900F900F900F900F90DF91CF910895CC
:102C8000CF93DF9300D000D000D0CDB7DEB726962B
:102C90000FB6F894DEBF0FBECDBFDF91CF91089580
:102CA0001F93CF93DF93C0910D0216E080910E0227
:102CB000C81799F0D0E01C9FF0011D9FF00D112462
:102CC000E15FFD4F408151816281738184819581F3
:102CD0000E9440162196C770E9CFDF91CF911F91D6
:102CE000089540913F0250914002609141027091DD
:102CF000420280914302909144020C9440160F933B
:102D00001F93CF93DF938091440282958F7009F0D7
:102D10005DC080914102882309F458C080910D0262
:102D200010910E0260913F0270914002C0914202E8
:102D3000D091430291E06F3F09F090E0292F06E027
:102D4000811709F443C0209721F07F3F21F030E044
:102D500003C031E001C0322F90E030FD34C0089F45
:102D6000F001099FF00D1124DF01A15FBD4F119605
:102D70003C911197371327C03C91361324C012960B
:102D80003C91129731111FC013964D915C9114978D
:102D90004C1B5D0B483C5105B0F4809144028F7090
:102DA000806180934402EC5EFD4F80818F70806172
:102DB00080838FE392E00E94BE15DF91CF911F9137
:102DC0000F910C94501601968770BACFDF91CF9176
:102DD0001F910F9108959F92AF92BF92CF92DF9271
:102DE000EF92FF920F931F93CF93DF93CDB7DEB790
:102DF00061970FB6F894DEBF0FBECDBF8C0185E0A2
:102E0000F801DE011D9601900D928A95E1F7F80117
:102E100040815181E28090913F0260914002209177
:102E20004202309143022115310531F06F3F31F4F8
:102E300081E09F3F19F403C081E001C080E0F82FDA
:102E4000F1709F2E80FD46C1F801A380B4808FE30E
:102E5000C82E82E0D82EF0904102F501E21BF30B60
:102E6000FF2009F4DFC080914402E83CF10508F03E
:102E70009BC0282F207F09F052C0561313C049135E
:102E800011C0FE2CE1100EC08F708061809344024F
:102E90000E947116C6010E94BE1580914402F8017D
:102EA000858358C1AB2831F05F3F31F481E04F3F5B
:102EB00019F403C081E001C080E080FD03C081E01F
:102EC0008E2502C080E090E0F82FF170FF2E80FF89
:102ED0001CC080910D0220910E0236E0821709F489
:102EE00017C190E0389FF001399FF00D1124E15F88
:102EF000FD4F6181561306C06081461303C0628195
:102F0000E61203C001968770E9CFFE2CEE2009F48B
:102F100021C1809144028160809344025AC05613BB
:102F200006C0491304C0E11002C0F8019FC04D87DC
:102F30005E878D859E850E942C16882379F1EE2070
:102F400069F120914402822F82958F7090E0029760
:102F500074F080913F029091400298878F83198688
:102F6000BB86AA862C87CE0107960E94BE1586E0F6
:102F7000F801AFE3B2E001900D928A95E1F70E946B
:102F80007F160E9471160DC0561729F14D875E8776
:102F90008D859E850E942C1681112CC0C8010E942F
:102FA000BE15FF24F394D6C0282F207F69F77A2D11
:102FB000B98AA88A6E2D89890E9431168FE392E022
:102FC0000E94BE1586E0F60111928A95E9F70E94EB
:102FD0007116F12CBFC04913D9CFE110D7CFF8013A
:102FE0008583C8010E94BE1586E0F60111928A957C
:102FF000E9F7B0C0EE2091F220914402822F829531
:103000008F7090E002970CF4B2CF80913F029091C4
:1030100040029A8389831B82BD82AC822E83CE01BB
:103020000196A3CFE83CF10508F047C0FE2CEE2046
:1030300009F4B4CF561330C049132EC02091440276
:1030400020FD21C0822F82958F70482F50E04115BE
:103050005105C9F0F80125834F30510541F08F5FCC
:10306000982F9295907F822F8F70892B8583C8012E
:103070000E94BE1586E0F801AFE3B2E001900D9228
:103080008A95E1F742C086E0F801AFE3B2E0019033
:103090000D928A95E1F75EC04D875E878D859E858E
:1030A0000E942C16811163CF80914402816080932D
:1030B0004402C8010E94BE154DC07A2DB98AA88A63
:1030C0006E2D89890E94311686E0F60111928A954B
:1030D000E9F71BC0EE2009F461CF4D875E878D852F
:1030E0009E850E942C16F82E882309F457CF86E07F
:1030F000F801AFE3B2E001900D928A95E1F78FE31A
:1031000092E00E9469120E947F160E94711622C0EE
:103110004D875E878D859E850E94911B292F229564
:103120002F70223028F49F7039F0811105C00BC038
:10313000243028F49F7049F4805E883020F0C80164
:103140000E94BE159F2CF92C05C0F8019581907F37
:1031500099F7F9CF8F2D61960FB6F894DEBF0FBEA9
:10316000CDBFDF91CF911F910F91FF90EF90DF9036
:10317000CF90BF90AF909F9008951F93CF93DF9310
:10318000CDB7DEB72C970FB6F894DEBF0FBECDBF1C
:103190004F83588769877A878B879C87CE010796EC
:1031A0000E94EB168823D1F09F8188852A853B8574
:1031B000232B31F08F3F31F481E09F3F19F403C09E
:1031C00081E001C080E080FD47C04F81588569855E
:1031D0007A858B859C850E9440163EC086E0FE0164
:1031E0003796DE01119601900D928A95E1F7FF81E5
:1031F000E8856A857B856115710531F0EF3F31F413
:1032000081E0FF3F19F403C081E001C080E080FD50
:1032100023C020910E0230E0C901019687709927E2
:1032200040910D0250E084179507F1F1F983EA838C
:103230007D836C8396E0929FD001939FB00D112403
:10324000A15FBD4FFE01319601900D929A95E1F775
:1032500080930E020E94501616E080910D0290910C
:103260000E02891771F1189FC0011124815F9D4FD3
:103270000E94EB16882329F1E0910D021E9FF001B8
:103280001124E15FFD4F408151816281738184810E
:1032900095810E94401680910D0290E00196877002
:1032A000992780930D02D9CF0E94041610920E0226
:1032B00010920D02EFE3F2E086E0DF011D928A95A5
:1032C000E9F72C960FB6F894DEBF0FBECDBFDF91A5
:1032D000CF911F910895EF92FF920F931F93CF9379
:1032E000DF938C01892B09F46CC0F12CEE24E3945C
:1032F000E8012196F8018491843740F4843008F085
:1033000051C0813081F0823019F15BC0853709F4FA
:1033100044C0A8F19CE7980F903708F052C08F770F
:103320000E94111341C00E5F1F4FFE01849190E275
:10333000980F983050F48770FE2D01C0FF0F8A95CA
:10334000EAF78F2F0E94F31B14C00E946F122DC04A
:103350000E5F1F4FFE01849190E2980F983060F449
:103360008770FE2D01C0FF0F8A95EAF78F2F0E940C
:10337000F91B0E941E1C19C00E94111316C00E5F7B
:103380001F4FFE01C491CC2381F08FE99FE001978C
:10339000F1F700C00000C150F6CF0E5F1F4FFE01D5
:1033A000F49003C00E946F128E018F2D882309F4C0
:1033B0009FCFEFE9FFE03197F1F700C000008150A7
:1033C000F5CFDF91CF911F910F91FF90EF9008956E
:1033D000089508950C94E9190C94EA190E94EC19C7
:1033E00060936C0270936D0280936E0290936F02F3
:1033F0000C94EE150C94EE190F931F9300916C0230
:1034000010916D0220916E0230916F02602B712B32
:10341000822B932B1F910F910C94EE190F931F93F6
:1034200000916C0210916D0220916E0230916F023A
:1034300060237123822393231F910F910C94EE1923
:103440000F931F9300916C0210916D0220916E02F8
:1034500030916F0260277127822793271F910F9168
:103460000C94EE190C94E9190E94321A60936802C8
:103470007093690280936A0290936B020C94EE152C
:1034800060E070E0CB010C94341A0F931F9341E07D
:1034900050E060E070E08A019B0104C0000F111F42
:1034A000221F331F8A95D2F7C901B8011F910F91CE
:1034B0000C94341A0F931F9341E050E060E070E0E9
:1034C00004C0440F551F661F771F8A95D2F780915D
:1034D000680290916902A0916A02B0916B028A0120
:1034E0009B01082B192B2A2B3B2BC901B8011F91DB
:1034F0000F910C94341A0F931F9341E050E060E059
:1035000070E004C0440F551F661F771F8A95D2F7DD
:1035100040955095609570958091680290916902F0
:10352000A0916A02B0916B028A019B0108231923C2
:103530002A233B23C901B8011F910F910C94341A1F
:103540000F931F9341E050E060E070E004C0440F2F
:10355000551F661F771F8A95D2F780916802909158
:103560006902A0916A02B0916B028A019B0108274F
:1035700019272A273B27C901B8011F910F910C94E5
:10358000341A0F931F9300916802109169022091E1
:103590006A0230916B02602B712B822B932B1F914F
:1035A0000F910C94341A0F931F930091680210919D
:1035B000690220916A0230916B0260237123822399
:1035C00093231F910F910C94341A0F931F93009122
:1035D00068021091690220916A0230916B026027A3
:1035E0007127822793271F910F910C94341A089505
:1035F0002DE0929F800D1124E82FE695E695E69543
:10360000877051E001C0550F8A95EAF785E0E89F81
:10361000F0011124EB5BFD4F20E030E070E04081D1
:10362000CB01022E02C0969587950A94E2F781702D
:10363000819584278523842781932F5F3F4F2530F1
:10364000310569F708952DE0929F800D1124682FB0
:10365000669566956695982F977085E0689FB0018E
:10366000112440E050E080E0FB01E40FF51FEB5B2C
:10367000FD4F208130E0092E02C0369527950A942F
:10368000E2F721703327042E01C0220F0A94EAF7D3
:10369000822B4F5F5F4F4530510531F70895BF9240
:1036A000CF92DF92EF92FF920F931F93CF93DF930E
:1036B0008C01C0906802D0906902E0906A02F0909C
:1036C0006B0280916C0290916D02A0916E02B0919C
:1036D0006F02C82AD92AEA2AFB2ACFE1D0E0D70113
:1036E000C6010C2E04C0B695A795979587950A94A8
:1036F000D2F780FD04C0219790F7B12C07C0BC2EF3
:10370000B8018C2F0E9429040197A9F38B2DDF911A
:10371000CF911F910F91FF90EF90DF90CF90BF90CE
:103720000895CF93DF93EC010E944F1BBE010E94CE
:103730002904DF91CF9108951F93CF93DF93EB017D
:1037400090910C02992321F0CB010E94911B13C090
:10375000882349F0CB010E944F1B182F682FCE0100
:103760000E94F81A04C0CB010E94231B182FBE012F
:10377000812F0E942904DF91CF911F91089580919C
:103780007002859585958595089580917002877062
:10379000089590917002977081E009F480E0089597
:1037A00080919402089590919402892B80939402C1
:1037B00008958095909194028923809394020895AE
:1037C00010929402089590919302892B8093930212
:1037D0000895809590919302892380939302089590
:1037E00010929302089590919202892B80939202F5
:1037F0000895809590919202892380939202089572
:1038000010929202089580917102089508950C9487
:10381000061C0C94071C90917102981721F080935C
:1038200071020C94091C089580917102882329F07B
:103830001092710280E00C94091C0895E091170128
:10384000F0911801809194028083E0911701F0912A
:103850001801908180919302892B8083E091170158
:10386000F0911801908180919202892B8083809140
:103870007102882381F0E0911701F0911801908185
:10388000892B808380911701909118010E94391D26
:1038900081110E94141C80911701909118010C94C1
:1038A00019110C94061C98E0899F90011124262B75
:1038B000209370020E945A1A809170028595859516
:1038C00085950C94511C1092700280E00C94511C50
:1038D000209170028095822380937002982F9770B8
:1038E00079F430E0482F082E000C550B24173507CB
:1038F00039F08595859585950E947B1A0C94631CFB
:10390000089580E090E00E94282821E08C3E9E4FA0
:1039100009F020E0822F089582E090E00C941A28AC
:10392000682F82E090E00C942E2883E090E00C94C5
:103930001A28682F83E090E00C942E28CF9384E01F
:1039400090E00E941A28C82F81E290E00E941A2875
:103950002C2F30E0A901582BCA01CF910895CF93A5
:10396000C92F682F84E090E00E942E286C2F81E2FE
:1039700090E0CF910C942E28AB01BC018FE090E039
:103980000C944028AB01BC0183E190E00C944028EA
:1039900060E070E0CB010C94C21C60E070E0CB01F1
:1039A0000E94BC1C0C94C81C6CEE7EEF80E090E082
:1039B0000E944C2860E082E090E00E942E2860E0A7
:1039C00083E090E00E942E2810926C0210926D020B
:1039D00010926E0210926F0260E084E090E00E940C
:1039E0002E2860E081E290E00E942E2860E085E0D1
:1039F00090E00E942E2860E086E090E00E942E2851
:103A00006FEF87E090E00E942E2840E050E0BA017E
:103A100088E090E00E94402860E08DE090E00E9405
:103A20002E2840E050E0BA0188E190E00E94402852
:103A300060E087E190E00E942E2840E050E0BA016B
:103A40008CE190E00E94402860E080E290E00E94DB
:103A50002E2840E050E0BA0188E190E00E94402822
:103A60000C94CD1C0C94D41C682F8EE090E00C9428
:103A70002E28FC01329680912301882331F0809119
:103A8000EA0287FF02C09EE101C096E080E091500B
:103A900028F021912223D9F38F5FF9CF089566236F
:103AA00051F1209123012223E9F02091EA0227FF1E
:103AB00019C0462F4695469546954E31E0F46770FD
:103AC00021E030E002C0220F331F6A95E2F7FC01CB
:103AD000E40FF11D828190E02823392381E0232B1C
:103AE00069F409C0FC01329608962191621729F009
:103AF000E817F907D1F780E0089581E008959C0167
:103B0000FC0132969FEF80E04191461789F09F3F7C
:103B100019F4411101C0982F8F5F8630A9F79F3F9C
:103B200039F0F901E90FF11D97FDFA9562830895C7
:103B300008959C012A5F3F4FFC014281461301C05A
:103B40001282019682179307B9F70895262F2695BA
:103B5000269526952E3168F4FC01E20FF11D677061
:103B600021E030E001C0220F6A95EAF78281282B1C
:103B700022830895262F2695269526952E3170F4BA
:103B8000FC01E20FF11D677021E030E001C0220F5F
:103B90006A95EAF72095828128232283089520914F
:103BA0002301222329F02091EA0227FD0C94A61D6F
:103BB0000C947F1D20912301222329F02091EA02F9
:103BC00027FD0C94BA1D0C94991D20912301FC0132
:103BD0003296222331F08091EA0287FF02C08EE103
:103BE00001C086E0DF011D928A95E9F708950895E6
:103BF0000C94F71D0C94F71DCF930E94FA1D0E94A0
:103C000083060E94F81DC0E08C2F0E941206892BAB
:103C100029F4CF5FC430C1F780E001C081E0CF91CB
:103C200008950C94F71D0C94111E0E94131E809190
:103C3000F002843049F11092960220E488E190E08D
:103C40000FB6F894A895809360000FBE2093600093
:103C500080E00E9401040E94131E83B7817F84606C
:103C600083BF83B7816083BF7894889583B78E7F45
:103C700083BF0FB6F894A895809160008861809307
:103C80006000109260000FBE08950C94F71D0E9412
:103C900004160E940D110E9401040C94451E1F92EF
:103CA0000F920FB60F9211248F939F93AF93BF93F0
:103CB00080919602811113C08091E6029091E702F3
:103CC000A091E802B091E9024196A11DB11D809337
:103CD000E6029093E702A093E802B093E902BF9155
:103CE000AF919F918F910F900FBE0F901F901895DD
:103CF00082E084BD93E095BD9AEF97BD80936E00FE
:103D000008952FB7F8948091E6029091E702A09170
:103D1000E802B091E9022FBF08959C014FB7F894D3
:103D20008091E6029091E702A091E802B091E90249
:103D30004FBF821B930B089578941F920F920FB67A
:103D40000F9211248F939F93AF93BF938091E602BC
:103D50009091E702A091E802B091E9020196A11DBD
:103D6000B11D8093E6029093E702A093E802B0931E
:103D7000E902BF91AF919F918F910F900FBE0F906D
:103D80001F90189581E08093E00080E28093D80036
:103D90001092C9008FE19EE40197F1F700C0000086
:103DA00087E090EBDC018093F9029093FA02A093F4
:103DB000FB02B093FC029CE088E10FB6F894A89552
:103DC000809360000FBE90936000FFCFAF92BF92D0
:103DD000CF92DF92EF92FF920F931F93CF93C0E0A9
:103DE000CC24C394D12CE82EF12C8C2F0E941206E7
:103DF0005C0100E010E0C601002E02C0880F991F90
:103E00000A94E2F78A219B21892B31F40F5F1F4F1F
:103E10000D30110581F70AC0602F7C2F80E00E94D1
:103E20000E04E816F90691F781E004C0CF5FC430B4
:103E3000E1F680E0CF911F910F91FF90EF90DF901E
:103E4000CF90BF90AF900895CF93C82F8CE20E947F
:103E5000E61E882321F08C2FCF910C94E61E80E083
:103E6000CF910895CF930E94811C811102C00E94BE
:103E7000321DC5E6C15049F00E9483068FE39CE9DC
:103E80000197F1F700C00000F5CF89E20E94241FDE
:103E900081112AC18AE20E94241F81110E94321DD1
:103EA00085E00E94241F81110E94C21E0E948C1C6A
:103EB0008093950287E00E94241F8823A9F18BE15B
:103EC0000E94241F882351F08091950281FB2227B4
:103ED00020F991E0922790FB81F90EC08EE00E94BC
:103EE000241F882361F08091950282FB222720F90C
:103EF00091E0922790FB82F98093950215C080E1B2
:103F00000E94241F90919502882341F093FB222761
:103F100020F981E0822780FB93F904C0892F8095E6
:103F200080FB90F990939502809195020E94901CDD
:103F30000E949E1C9093EB028093EA0280EE0E9406
:103F4000241F882341F08091EA02982F909590FBDE
:103F500080F98093EA0289E30E94241F882359F0A4
:103F60008091EA0281FB222720F991E0922790FBC1
:103F700081F98093EA0282EE0E94241F882359F07F
:103F80008091EA0282FB222720F991E0922790FBA0
:103F900082F98093EA0286EE0E94241F882359F05A
:103FA0008091EA0283FB222720F991E0922790FB7F
:103FB00083F98093EA0283EE0E94241F882359F03C
:103FC0008091EA0284FB222720F991E0922790FB5E
:103FD00084F98093EA0285E30E94241F882359F024
:103FE0008091EA0285FB222720F991E0922790FB3D
:103FF00085F98093EA0281E30E94241F882359F007
:104000008091EA0286FB222720F991E0922790FB1B
:1040100086F98093EA0281E10E94241F882359F0E7
:104020008091EA0287FB222720F991E0922790FBFA
:1040300087F98093EA028091EA029091EB020E9454
:10404000AF1C87E20E94241FC82F8EE10E94241F0C
:104050008111C2608FE10E94241F8111C46080E23F
:104060000E94241F8111C86081E20E94241F8111D7
:10407000C06182E20E94241F8111C06283E20E941B
:10408000241F8111C06484E20E94241F882311F040
:10409000C06802C0CC2329F08C2F0E94991C6C2F81
:1040A00003C00E94951C682F70E080E090E00E94A1
:1040B000FA19609168027091690280916A02909188
:1040C0006B020E94321A8FE00E94241F882319F08D
:1040D00081E00E94341D85E10E94241F882321F085
:1040E00080E0CF910C94341DCF9108958091B70258
:1040F00008950895CF93DF9300D01F92CDB7DEB718
:104100009091F002943019F589837B836A8382E071
:104110008093E9008FEF9091E800815095FD06C0F3
:1041200095ED9A95F1F700008111F5CF8091E800A7
:1041300085FF0DC040E050E063E070E0CE010196E5
:104140000E9486228091E8008E778093E8000F908D
:104150000F900F90DF91CF910895BC0184E00C94F3
:104160007A20BC0183E00C947A20CF93DF932091D6
:104170002301222339F02091EA0227FF03C060E2E5
:1041800022E002C068E021E02093E9002FEF3091A7
:10419000E800215035FD06C035ED3A95F1F70000F5
:1041A0002111F5CF2091E80025FF1DC0EC01809181
:1041B0002301811105C040E050E068E070E003C0D9
:1041C00070E040E050E0CE010E9486228091E8003D
:1041D0008E778093E80080E2FE01A7E9B2E00190CB
:1041E0000D928A95E1F7DF91CF9108958091EF02CA
:1041F000811109C00E9417240E9474248091E2005A
:1042000084608093E20008951092EF02089508956B
:1042100008950C94471E42E061EC81E00E949023D7
:1042200042E261EC82E00C9490238091F2028330B0
:1042300009F460C030F4813071F0823009F499C023
:1042400008958A3009F485C08B3009F46BC0893039
:1042500009F0A7C020C08091F102813A09F0A1C005
:104260008091E800877F8093E8008091F50290912B
:10427000F602892B21F460E287E992E003C060E056
:1042800080E090E070E00E94D1228091E8008B777E
:104290008093E80008958091F102813209F081C095
:1042A0008091F5029091F602029708F07AC0809111
:1042B000E800877F8093E8008091E80082FD05C0D8
:1042C0008091F0028111F8CF6CC02091F3008091B1
:1042D000F20090E0922B029729F48091F1008B7FFD
:1042E000813021F48091F1008093B7028091E80041
:1042F0008B7753C08091F102813A09F052C08091CE
:10430000F5029091F602892B09F04BC08091E800EC
:10431000877F8093E8008091E80080FFFCCF809148
:10432000230136C08091F1028132D9F58091F502E6
:104330009091F602892BA9F58091E800877F809300
:10434000E8000E94C5238091F302809323010C941E
:1043500004168091F102813221F58091E800877F77
:104360008093E8000E94C5238091F4028093B802F4
:1043700008958091F102813AA1F48091E800877F4D
:104380008093E8008091E80080FFFCCF8091B80224
:104390008093F1008091E8008E778093E8000C9480
:1043A000C523089584B7877F84BF0FB6F894A89576
:1043B00080916000886180936000109260000FBE61
:1043C00090E080E80FB6F8948093610090936100CC
:1043D0000FBE0E9477110E9417240E9474248091BE
:1043E000E20084608093E20078940E9409270E9492
:1043F0007D1189E191E00E9408118091F0028530E1
:1044000069F40E94151E8091EE028823B1F30E9488
:10441000FC1D882391F30E947022EFCF0E94871128
:104420000E946B110E946A11E8CF0C941722292F69
:10443000332723303105C9F060F42130310581F094
:104440002230310509F044C08BE390E02EE035E0E6
:1044500043C021323105E1F02232310549F138C043
:1044600082E190E029E435E037C099278130910559
:1044700049F028F0029761F5EEEDF4E005C0EAE0BE
:10448000F5E002C0E8EFF4E0849190E09F0124C0E1
:104490006115710541F061307105D1F489E090E05A
:1044A00029E335E019C089E090E020E235E014C04E
:1044B0006115710541F06130710551F48DE690E0B0
:1044C0002BE535E009C080E490E028EC35E004C03D
:1044D00080E090E020E030E0FA013183208308950D
:1044E00080E189BD82E189BD09B400FEFDCF8091E4
:1044F000D8008F7D8093D8008091E0008260809307
:10450000E0008091E00081FDFCCF0895CF92DF9222
:10451000EF92FF920F931F93CF93DF93EC018B01E8
:104520007A010E94E423811133C0E114F10439F0CF
:10453000F70180819181081B190BC80FD91FC12C6D
:10454000D12C0115110519F18091E80085FD16C0E7
:104550008091E8008E778093E800E114F10449F03F
:10456000F70180819181C80ED91ED182C08285E079
:104570000FC00E94E423882321F30AC0899180930D
:10458000F10001501109FFEFCF1ADF0ADACF80E006
:10459000DF91CF911F910F91FF90EF90DF90CF901F
:1045A00008952091F7023091F8022617370748F056
:1045B0006115710539F42091E8002E772093E80009
:1045C00001C0B901FC0120E06115710579F180910C
:1045D000F0028823F1F18530F1F18091E80083FD4C
:1045E0003CC08091E80082FD2EC08091E80080FFF1
:1045F000EBCF2091F3008091F20090E0922B6115B7
:10460000710551F08830910538F421912093F10023
:10461000615071090196F3CF21E0089709F020E07D
:104620008091E8008E778093E800CECF2111CFCF24
:104630000AC08091F002882361F0853061F080919A
:10464000E80083FD0AC08091E80082FFF2CF80E09D
:10465000089582E0089583E0089581E0089520910F
:10466000F7023091F8022617370748F061157105F7
:1046700039F42091E8002E772093E80001C0B901B9
:10468000FC0120E06115710591F18091F002882311
:1046900009F440C0853009F43FC08091E80083FDF3
:1046A0003DC08091E80082FD2FC08091E80080FF2E
:1046B000E9CF2091F3008091F20090E0922B6115F8
:1046C000710559F08830910540F424912093F10050
:1046D0003196615071090196F2CF21E0089709F0F7
:1046E00020E08091E8008E778093E800CBCF211105
:1046F000CCCF0AC08091F002882361F0853061F050
:104700008091E80083FD0AC08091E80082FFF2CF2B
:1047100080E0089582E0089583E0089581E008959F
:10472000982F973068F59093E900981739F07091B9
:10473000EC002091ED005091F00003C0242F762F63
:1047400050E021FD02C09F5FECCF3091EB003E7F37
:104750003093EB003091ED003D7F3093ED003091D0
:10476000EB0031603093EB007093EC002093ED0090
:104770005093F0002091EE0027FDE5CF80E00895F2
:104780008F708093E90081E008958091F10287FFA6
:1047900011C08091E80082FD05C08091F002811176
:1047A000F8CF11C08091E8008B770BC08091F002A8
:1047B000882349F08091E80080FFF8CF8091E800DD
:1047C0008E778093E80008952091E4003091E50011
:1047D00095E64091EC00842F817040FF23C08091CA
:1047E000E80080FD1DC08091F002882399F085309B
:1047F00099F08091EB0085FD11C04091E40050914B
:10480000E5002417350729F3915011F09A01E1CF03
:1048100084E0089582E0089583E0089581E008959A
:1048200080E008954091E80042FFDDCF08950E94A6
:1048300085240E948D24E0EEF0E0808181608083F9
:10484000E8EDF0E080818F77808319BCA7EDB0E0C0
:104850008C918E7F8C9380818F7E80831092EF026B
:1048600008950F931F93CF93DF930E9485240E9496
:104870008D24C8EDD0E088818F7788838881806817
:10488000888388818F7D888319BC1092F0021092F2
:10489000EC021092EE021092ED0200EE10E0F80130
:1048A00080818B7F808388818160888342E060E0A3
:1048B00080E00E949023E1EEF0E080818E7F808393
:1048C000E2EEF0E080818160808380818860808377
:1048D000F80180818E7F8083888180618883DF9169
:1048E000CF911F910F910895E8EDF0E080818F7EC8
:1048F0008083E7EDF0E080818160808384E082BF87
:1049000081E08093EF020C943124E8EDF0E08081A7
:104910008E7F80831092E20008951092DA00109248
:10492000E10008951F920F920FB60F9211242F935A
:104930003F934F935F936F937F938F939F93AF9327
:10494000BF93EF93FF938091E10082FF0BC08091B2
:10495000E20082FF07C08091E1008B7F8093E1003D
:104960000E9408278091DA0080FF1FC08091D80044
:1049700080FF1BC08091DA008E7F8093DA008091E7
:10498000D90080FF0DC080E189BD82E189BD09B4F5
:1049900000FEFDCF81E08093F0020E94F62005C06A
:1049A00019BC1092F0020E9404218091E10080FF66
:1049B00019C08091E20080FF15C08091E2008E7FD7
:1049C0008093E2008091E20080618093E200809118
:1049D000D80080628093D80019BC85E08093F002F3
:1049E0000E9408218091E10084FF30C08091E200A4
:1049F00084FF2CC080E189BD82E189BD09B400FE3D
:104A0000FDCF8091D8008F7D8093D8008091E10008
:104A10008F7E8093E1008091E2008F7E8093E200A0
:104A20008091E20081608093E2008091EC02882313
:104A300011F084E007C08091E30087FD02C081E0AF
:104A400001C083E08093F0020E9409218091E1007F
:104A500083FF29C08091E20083FF25C08091E1009F
:104A6000877F8093E10082E08093F0021092EC0255
:104A70008091E1008E7F8093E1008091E2008E7F43
:104A80008093E2008091E20080618093E20042E046
:104A900060E080E00E9490238091F0008860809325
:104AA000F0000E940721FF91EF91BF91AF919F917C
:104AB0008F917F916F915F914F913F912F910F90C7
:104AC0000FBE0F901F9018951F920F920FB60F9266
:104AD00011242F933F934F935F936F937F938F9303
:104AE0009F93AF93BF93CF93DF93EF93FF93C091C7
:104AF000E900CF708091EC00D82FD17080FDD0E814
:104B00001092E9008091F000877F8093F000789404
:104B10000E94A8251092E9008091F000886080939F
:104B2000F000CD2BCF70C093E900FF91EF91DF91A2
:104B3000CF91BF91AF919F918F917F916F915F9135
:104B40004F913F912F910F900FBE0F901F9018958E
:104B50001F93CF93DF93CDB7DEB7AA970FB6F89424
:104B6000DEBF0FBECDBFE1EFF2E08091F100819397
:104B700022E0E93FF207C9F70E9415218091E80081
:104B800083FF2EC18091F1029091F202492F50E0F3
:104B90004A30510508F024C1FA01E857FF4F0C9440
:104BA0007A27803821F0823809F01AC108C0809134
:104BB000ED029091EE02992389F082600FC08091FE
:104BC000F5028F70873008F00BC18093E900809167
:104BD000EB0085FB882780F91092E9009091E800AE
:104BE000977F9093E8008093F1001092F100D1C07C
:104BF000282F2D7F09F0F4C0882319F0823061F04E
:104C0000EFC08091F302813009F0EAC0933009F0DF
:104C100080E08093EE022EC08091F30281112AC0C1
:104C20008091F5028F702FEF280F263008F0D8C042
:104C30008093E9002091EB0020FF1CC0933021F409
:104C40008091EB00806214C09091EB009061909392
:104C5000EB0021E030E0A90102C0440F551F8A9506
:104C6000E2F74093EA001092EA008091EB0088603E
:104C70008093EB001092E9008091E800877F809399
:104C8000E8000E94C523ACC08111AAC01091F302B4
:104C90001F778091E3008078812B8093E3008091DF
:104CA000E800877F8093E8000E94C5238091E80098
:104CB00080FFFCCF8091E30080688093E3001111B6
:104CC00002C082E001C083E08093F00289C0805876
:104CD000823008F085C08091F3029091F4028C3DFF
:104CE00053E0950779F583E08A838AE289834FB799
:104CF000F894DE01139620E03EE051E2E32FF0E06D
:104D000050935700E49120FF03C0E295EF703F5F9E
:104D1000EF708E2F90E0EA3010F0C79601C0C09679
:104D20008D939D932F5F243149F74FBF8091E80009
:104D3000877F8093E8006AE270E0CE0101960E94CE
:104D4000D12216C06091F5027091F602AE014F5F5C
:104D50005F4F0E941522BC01892B09F441C090913C
:104D6000E800977F9093E80089819A810E942F2321
:104D70008091E8008B778093E80032C0803881F51D
:104D80008091E800877F8093E8008091EC02809317
:104D9000F1008091E8008E7772CF811121C080915F
:104DA000F3029091F40299270297D4F48091E800DD
:104DB000877F8093E8008091F3028093EC020E9449
:104DC000C5238091EC02811106C08091E30087FD2C
:104DD00002C081E001C084E08093F0020E940B21B8
:104DE0008091E80083FF0AC08091E800877F80936C
:104DF000E8008091EB0080628093EB00AA960FB6EA
:104E0000F894DEBF0FBECDBFDF91CF911F91089503
:104E10000895CF938091F0028823A1F0C091E9001A
:104E2000CF709091EC00892F817090FD80E8C82BA5
:104E30001092E9008091E80083FD0E94A825CF70C0
:104E4000C093E900CF910895991B79E004C0991FA0
:104E5000961708F0961B881F7A95C9F780950895D4
:104E6000AA1BBB1B51E107C0AA1FBB1FA617B70790
:104E700010F0A61BB70B881F991F5A95A9F78095AC
:104E80009095BC01CD01089597FB072E16F4009470
:104E900007D077FD09D00E94302707FC05D03EF4EB
:104EA000909581959F4F0895709561957F4F0895D6
:104EB000A1E21A2EAA1BBB1BFD010DC0AA1FBB1F1E
:104EC000EE1FFF1FA217B307E407F50720F0A21B90
:104ED000B30BE40BF50B661F771F881F991F1A94FD
:104EE00069F760957095809590959B01AC01BD0127
:104EF000CF010895EE0FFF1F0590F491E02D099466
:104F00000E948827332312F48A1B9B0B0C94992749
:104F1000A29FB001B39FC001A39F700D811D1124FA
:104F2000911DB29F700D811D1124911D08950E9445
:104F30008827B7FF0895821B930B08950E94882746
:104F4000A59F900DB49F900DA49F800D911D1124DD
:104F50000895B7FF0C949E270E949E27821B930BF7
:104F600008958F929F92AF92BF92CF92DF92EF926D
:104F7000FF92CF93DF93EC01688179818A819B81D5
:104F8000611571058105910521F464E279ED8BE5E8
:104F900097E02DE133EF41E050E00E9462284901A3
:104FA0005A019B01AC01A7EAB1E40E949E276B0164
:104FB0007C01ACEEB4EFA50194010E94AC27DC01AA
:104FC000CB018C0D9D1DAE1DBF1DB7FF03C001970A
:104FD000A109B04888839983AA83BB839F77DF9117
:104FE000CF91FF90EF90DF90CF90BF90AF909F90C8
:104FF0008F9008950E94B127089580E091E00E946B
:10500000B1270895A0E0B0E08093000190930101E2
:10501000A0930201B09303010895FC014150504058
:1050200030F001900616D1F73197CF010895882707
:1050300099270895F999FECF92BD81BDF89A9927D5
:1050400080B50895A6E1B0E044E050E00C94542807
:10505000A8E1B0E042E050E00C945428262FF999E2
:10506000FECF92BD81BDF89A019700B4021639F0C7
:105070001FBA20BD0FB6F894FA9AF99A0FBE089598
:105080000396272F0E942F280E942E28252F0E944A
:105090002F28242F0C942F280196272F0E942F2889
:1050A0000C942E28DC01CB01FC01F999FECF06C03F
:1050B000F2BDE1BDF89A319600B40D9241505040D6
:1050C000B8F70895052E97FB1EF400940E947928E6
:1050D00057FD07D00E94582707FC03D04EF40C94CC
:1050E000792850954095309521953F4F4F4F5F4F10
:1050F000089590958095709561957F4F8F4F9F4F44
:065100000895F894FFCFB2
:1051060001000000010102000800080801191A1B2D
:105116001C1D1E1F20212272027620B5207920B187
:1051260020AD2001E200E900EA00B500B600B700B4
:10513600CD008301CC008A01920194012102230251
:1051460024022502260227022A02B300B4006F00B9
:105156007000818283F0F1F4F5F6F79694959392B8
:105166009190C6673534000102020202060606095E
:1051760009090909090F0F0F0F0F0F151515181932
:105186001919191919191919192324252525252538
:1051960025E200E900EA00B500B600B700CD0083BD
:1051A60001CC008A019201940121022302240225E6
:1051B60002260227022A02B300B4006F00700081A3
:0251C6008283E2
:00000001FF
