:100000000C9475030C94D6150C94BC030C94BC038F
:100010000C94BC030C94BC030C94BC030C94BC0364
:100020000C94BC030C94BC030C945D2D0C942F2EEB
:100030000C94C1230C94BC030C94BC030C94BC031F
:100040000C94BC030C94BC030C94BC030C94BC0334
:100050000C94BC030C940E240C94BC030C94BC03B1
:100060000C94BC030C94BC030C94BC030C94BC0314
:100070000C94BC030C94BC030C94BC030C94BC0304
:100080000C94BC030C94BC030C94BC030C94BC03F4
:100090000C94BC030C94BC030C94BC030C94BC03E4
:1000A0000C94BC030C94BC030C94BC03D110D4106E
:1000B000D910E010E510EA10EF10F410F910FE105E
:1000C000031108110A110D11101113111611191134
:1000D0001B112011A119A119D319D319201A3E1AE5
:1000E0005F1B5F1B491ADE1AEF1AEF1A4F1B5F1BCB
:1000F0005F1B581BFF1BFF1B111C111C081C111C34
:10010000111C111CFF1BFF1B0D1C111C111C0D1CB5
:100110009C2EC32EBB2FC32EBB2F0F2F322FBB2FD6
:10012000892F982F2B0014001A00080015001700C3
:10013000290004001600070009000A00E1001D0064
:100140001B00060019000500E0000451E200E30076
:1001500002512C0000000000000000000000000020
:100160001C0018000C00120013002A000B000D00E8
:100170000E000F003300340011001000360037006D
:10018000520028002C0001513800500051004F004F
:1001900000000000000000000000000035001E000C
:1001A0001F002000210022004C003A003B003C00D0
:1001B0003D003E00E1004000410042004300440099
:1001C000E000E000E200E30003512C00000000002A
:1001D000000000000000000023002400250026008D
:1001E00027004C003F002D002E002F003000310072
:1001F0004500310031004B004E0028002C0000006B
:1002000000000000000000000000000000000000EE
:100210000000000035021E021F02200221022202FD
:100220004C003A003B003C003D003E00E100400035
:100230004100420043004400E000E000E200E3002F
:1002400000002C0000000000000000000000000082
:10025000230224022502260227022A003F002D0243
:100260002E022F02300231024500310031004A00D7
:100270004D0028002C000351000000000000000089
:10028000000000000000000000000000C25CC35C31
:10029000C55CC75CC95CCB5CCD5CC45CC65CC85C3F
:1002A000CA5CCC5C00000000000000000000000000
:1002B000000000000000000001000000000000003D
:1002C00000000000000000000000F400F500FF0046
:1002D0000000A9000000F200F100F000F300AA0005
:1002E0000000FB00FA00F900FC00A800000001007B
:1002F00000000000000046000000000000000000B8
:1003000000000000000000000000000000000000ED
:100310000000000000000000000000007B007C00E6
:100320007D0000000000000000000100000000004F
:1003300000000000000000000000000000000000BD
:100340000000F400F500FE00FF00A9000000F2002C
:10035000F100F000F300AA000000FB00FA00F90031
:10036000FC00000000000000000000000000000091
:1003700000000000000000000000000032190A0028
:10038000047F3F1F643214643214783C1E1E140A2A
:10039000052223252628292A2C2D2F3032333536C5
:1003A000383A3B3D3E4042434547494A4C4E505106
:1003B000535557595A5C5E6062646668696B6D6F2D
:1003C00071737577797B7D7F81838587898A8C8E30
:1003D00090929496989A9C9E9FA1A3A5A7A8AAAC38
:1003E000AEAFB1B3B4B6B8B9BBBCBEBFC1C2C3C572
:1003F000C6C7C9CACBCCCDCED0D1D2D2D3D4D5D614
:10040000D7D7D8D9D9DADADBDBDBDCDCDCDCDCDD46
:10041000DDDDDDDCDCDCDCDCDBDBDBDADAD9D9D82A
:10042000D7D7D6D5D4D3D2D2D1D0CECDCCCBCAC9C2
:10043000C7C6C5C3C2C1BFBEBCBBB9B8B6B4B3B1F1
:10044000AFAEACAAA8A7A5A3A19F9E9C9A9896948C
:1004500092908E8C8A89878583817F7D7B79777561
:1004600073716F6D6B6968666462605E5C5A595740
:10047000555351504E4C4A4947454342403E3D3BFF
:100480003A3836353332302F2D2C2A292826252389
:1004900022FFAA7F55400001010101010101010174
:1004A0000202020202020202020303030303030325
:1004B00003040404040404040505050505060606F2
:1004C0000606070707070708080808090909090AAF
:1004D0000A0A0B0B0B0C0C0C0D0D0D0E0E0E0F0F54
:1004E0000F101011111112121313141415151616E2
:1004F0001717181819191A1A1B1B1C1D1D1E1E1F51
:100500002020212222232424252626272829292A9F
:100510002B2C2D2D2E2F30313232333435363738C7
:10052000393A3B3C3D3E3F404142434445464748C3
:10053000494A4C4D4E4F50515354555658595A5B99
:100540005D5E5F616264656668696B6C6D6F707239
:10055000737577787A7B7D7E8082838587888A8CA5
:100560008E8F91939596989A9C9EA0A2A3A5A7A9D9
:10057000ABADAFB1B3B5B7BABCBEC0C2C4C6C9CBD0
:10058000CDCFD1D4D6D8DBDDDFE2E4E7E9EBEEF086
:10059000F3F5F8FAFDFF0403300000002A035400CD
:1005A0006800650020004E00790071007500690048
:1005B0007300740020004B006500790062006F003A
:1005C00061007200640000000E034B0065006500CE
:1005D000620069006F0000000403090409023B0087
:1005E000020100A0FA090400000103010100092131
:1005F000110100012240000705810308000A0904D7
:100600000100010300000009211101000122810005
:100610000705820320000A120110010000000810E3
:10062000CB561100030102030105010902A1018556
:10063000020901A1000509190129051500250195E7
:1006400005750181029501750381010501093009D4
:10065000311581257F950275088106093815812598
:100660007F950175088106050C0A38021581257FE2
:10067000950175088106C0C005010980A1018503A7
:1006800019012AB700150126B700950175108100E0
:10069000C0050C0901A101850419012AA002150158
:1006A00026A002950175108100C005010906A1016F
:1006B000050719E029E71500250195087501810254
:1006C0009501750881010507190029FF150026FF0E
:1006D000009506750881000508190129059505751D
:1006E000019102950175039101C011241FBECFEF46
:1006F000DAE0DEBFCDBF04B603FE27C08091410320
:1007000090914203A0914303B09144038730904BF2
:10071000A740B04BD1F410924103109242031092C3
:1007200043031092440314BE84B7877F84BF0FB67F
:10073000F894A89580916000886180936000109281
:1007400060000FBEE0E0F8E3099511E0A0E0B1E041
:10075000E8EDF2E602C005900D92A43EB107D9F78C
:1007600023E0A4EEB1E001C01D92A134B207E1F78D
:100770000E949B2A0C946A310C9400000E949A11EA
:1007800085E00E9408120E941A0F4FEF6FEF80E081
:100790000E948D0B8BE00E94170F60E070E0CB0190
:1007A0000E94A9220C94B52281E0089581E0089569
:1007B0000C94D60308950C94DA031F93CF93DF9320
:1007C00000D000D01F92CDB7DEB749835A836B8328
:1007D00030915D0289819A81311114C0662359F0EC
:1007E000222349F00E943D21182F682F89819A8188
:1007F0000E94E42003C00E941021182F69817A8191
:10080000812F04C00E943D2169817A810F900F9051
:100810000F900F900F90DF91CF911F910C949D043A
:10082000FC01262F408151816281738184810C9467
:10083000DD03CF93DF93EC0160E00E941004BE0162
:10084000DF91CF910C94DB030E946F22811102C0D3
:100850000E9411230E94A5120C94B9060C94B506AF
:1008600008950C94300481E008950C943304CF93E0
:10087000C82F0E9431048C2F0E943504CF91089517
:1008800008950E94ED1B0E9440042FEF84E39CE03A
:10089000215080409040E1F700C000000C943424C7
:1008A0000F931F93CF93DF93EC0161E00E9410043C
:1008B0008C01BE010E94D8038823A9F1BE01C801A2
:1008C0000E940E12882379F1BE01C8010E9478139C
:1008D000882349F1BE01C8010E94CA13882319F177
:1008E000BE01C8010E94F5148823E9F0BE01C801C9
:1008F0000E94BB108823B9F08A81882369F0011512
:100900008CE5180731F00E3D1C4531F40E9411238F
:100910000AC00E94410407C0CE01DF91CF911F9110
:100920000F910C94D40380E0DF91CF911F910F9130
:10093000089580E090E0089508952CE3829FC0011F
:100940001124FC0126E0729FE00DF11D1124E60F39
:10095000F11DEE0FFF1FEC5DFE4F85919491089500
:10096000880F991FFC01E458FC4F859194910895DC
:10097000CF93DF930E949D040E94D005EC01811566
:10098000904508F041C0C11580E4D80708F0D1C0F7
:10099000C83ED10510F5C03ED10508F0FDC0C83AEB
:1009A000D10578F4C53AD10508F0A2C0C130D1050F
:1009B00009F4F2C008F4EEC0C430D10508F0ECC070
:1009C000E9C0CF3BD10508F49BC0C03CD10508F479
:1009D000E1C0CE01805C91099EC0C11590E2D907AB
:1009E00058F4C11521E0D20708F0D6C0C03FD105A8
:1009F00008F4D0C0D065D0C0C11580E3D80708F096
:100A00008EC0CE019F7087C0C11595E5D90708F04B
:100A100043C0C11524E5D20708F0A2C0C11582E584
:100A2000D80708F5C11591E5D90708F085C0CE01B2
:100A300074E0969587957A95E1F783709C2F937073
:100A400021E030E002C0220F331F9A95E2F73C68A4
:100A5000382BCF70C695C69580E2C89FE00111245F
:100A6000C22BD32B99C09E01237033278C2F8695E0
:100A70008695C115D34508F064C0C1E0D0E002C03E
:100A8000CC0FDD1F2A95E2F720E2829FC0011124DE
:100A9000C82BD92BDC6880C0C11529E5D207A0F48A
:100AA000C11588E5D80708F060C0C11596E5D907DB
:100AB00008F070C08C2F0E9464068F71C82FD0E0A0
:100AC000DC2FCC27D06268C0C1152AE5D20708F414
:100AD00051C0CE0190568115904208F05BC08D2F19
:100AE0008F710E946406DD27D0628F71D82B54C0AD
:100AF000C55AD0E0C559DE4FC881D0E0D0644CC0A3
:100B0000C85AD0E0CC0FDD1FC35CDE4F0990D881FE
:100B1000C02DD46441C00E94B004EC013DC0CE01A0
:100B20009927D3FF03C0EC01D86C36C0EC01D06C20
:100B300033C0DF70D06A30C0DC2FCC27C16FD06AE1
:100B40002BC0C1E0D0E002C0CC0FDD1F2A95E2F738
:100B500020E2829FC0011124C82BD92BDA681CC067
:100B6000DC2FCC27C46FD06A17C0DC2FCC27C06F16
:100B7000D06A12C08C2F8F700E94640694E0D695C4
:100B8000C7959A95E1F7CF70D0E0DC2FCC27D069DC
:100B9000C82B02C0C0E0D0E0CE01DF91CF91089514
:100BA0008238910569F1B0F48133910509F46DC083
:100BB00048F48932910509F463C08A32910509F439
:100BC00069C008958533910509F455C089339105AD
:100BD000B9F00895833E910569F138F4803E91059E
:100BE000B1F0823E910509F10895863E9105A9F183
:100BF000873E9105B9F1843E910509F064C023C098
:100C00002091320320FD4FC021FD4DC008958091F9
:100C1000320380FD44C08091330380FF44C0809143
:100C2000320384FD42C083EE4DC08091320382FFC7
:100C300038C0F5CF8091320382FD33C080913303F9
:100C400080FD31C0ECCF8091330381FF32C08091B1
:100C5000320384FD2AC087EE35C08091320383FFC2
:100C600026C0F5CF8091320383FD21C080913303EC
:100C700081FD1FC0ECCF8091320385FD1CC01DC0DB
:100C80008091320385FD19C016C08091320386FD24
:100C900016C017C08091320386FD13C010C089E3CF
:100CA00011C082EE0FC080EE0DC080E00BC086EE5A
:100CB00009C084EE07C089E205C085E303C08AE26B
:100CC00001C081E390E008959091320392FF0DC03E
:100CD000282F2871283019F4877F846006C0282FB8
:100CE0002471243011F48B7F886093FF0DC0282F6E
:100CF0002871283119F4877E846106C0282F247159
:100D0000243111F48B7E88612091330320FF0DC0C4
:100D1000382F3871383019F4877F816006C0382F3A
:100D20003171313011F48E7F886021FF0DC0282F82
:100D30002871283119F4877E816106C0282F21711E
:100D4000213111F48E7E886194FD877E0895E82F0D
:100D5000F0E0E850FD4F80810895089580EA8A957B
:100D6000F1F7089508950C94B2060C94B3060C9410
:100D7000B2060C94B7060895CF93DF930E94310812
:100D80008091040180910401811102C095E001C0AD
:100D900090E09093030385E0891B80930203A4E70E
:100DA000B1E049E751E061E070E08D91E82FE29514
:100DB000EF70F0E021A18F70EB0102C0CC0FDD1FBE
:100DC0008A95E2F7CE019C2F9095922391A392A150
:100DD000892B82A34A175B0741F7AEE6B1E044E7EF
:100DE00051E061E070E08D91E82FE295EF70F0E066
:100DF00021A18F70EB0102C0CC0FDD1F8A95E2F7B5
:100E0000CE019C2F9095922391A392A1892B82A32E
:100E10004A175B0741F7EEEEF2E0A8EFB2E088EF89
:100E200092E011921D928E179F07D9F785E00E94DC
:100E3000D6070E942404DF91CF910C9445080E94AC
:100E40001408882309F18091020390E088509D4F97
:100E50000E947508811114C08091E4018F5F809316
:100E6000E401863078F0E0910203F0E0E850FD4FB5
:100E700080E090E01192019685309105D9F702C08B
:100E80001092E4010C942E048091030390E08850AA
:100E90009D4F0E949E080C94BB066F927F928F928A
:100EA0009F92AF92BF92CF92DF92EF92FF920F93F9
:100EB0001F93CF93DF9384E7882E81E0982E0EEE68
:100EC00012E093EFA92E92E0B92E712CCC24C3949A
:100ED000D12CF40181914F01C82FC295CF70D0E081
:100EE00099A18F70760101C0EE0C8A95EAF7892FDF
:100EF0008E2989A38AA16E2C609486218AA30E94E0
:100F0000AE06EEE6F1E040E050E020E03191A32FA4
:100F1000A295AF70B0E090968C9190E03F7002C0C7
:100F2000959587953A95E2F780FD07C08C2D042EA4
:100F300001C0880F0A94EAF701C080E0282B4F5FB8
:100F40005F4F4630510511F789A1682269A28AA135
:100F5000E82AEAA2F8018081281719F0208381E0AD
:100F600001C080E0782A0F5F1F4FA016B10609F07C
:100F7000B0CF6091030370E068507D4F272D45E0AE
:100F80008EEE92E00E94D7070E941F07872DDF9107
:100F9000CF911F910F91FF90EF90DF90CF90BF9076
:100FA000AF909F908F907F906F9008950895FF92DB
:100FB0000F931F93CF93DF938C01F62ED72FC42F5F
:100FC000222349F081E08093E7010E94F32390936C
:100FD000E6018093E5018091E7018823C1F08091CB
:100FE000E5019091E6010E94FF23069780F0EF2D26
:100FF000FD2FD8014C2F50E0CD01801B910B8417A1
:1010000095071CF48D918193F7CF1092E701DF9142
:10101000CF911F910F91FF90089555985D9889B1D8
:1010200085FB882780F908958091E801811112C01D
:101030008091D80080618093D8008AE18A95F1F789
:1010400000C08091D90080FD02C082E001C081E033
:101050008093E80181E09091E801913009F080E00F
:1010600008950E940D08809304018091040166E0B8
:10107000882311F080E001C086E00E944C090E94A4
:10108000140881110C944C0808950E9414088111D1
:1010900002C00C945208089562E070E085E091E08F
:1010A0000C94841562E070E085E091E00C948D155D
:1010B0000E94820E882361F081EF91E00E94880EE9
:1010C00081E090E00E946616892B11F40C94850E45
:1010D00008958091F001883039F460E081EF91E06B
:1010E0000E94600F1092F0010895CF93DF93D82FE4
:1010F000C92F0E94580880E090E00E946616892B54
:10110000C9F4ED2FFC2F80E090E0DC01A551BE4F2B
:101110002C912193019685309105B9F70E942A11EF
:10112000882319F00E942E1101C080E08093EA010B
:1011300081E001C080E0DF91CF910895CF93DF93EC
:10114000D82FC92F0E946908ED2FFC2F80E090E076
:101150002191DC01A551BE4F2C930196853091055C
:10116000B9F78091EA01DF91CF910C944312EF928D
:10117000FF920F931F93CF93DF938B01682F111171
:101180000AC0442329F0E82FF0E0EA56FB4F6491AF
:10119000762F862F75C0212F30E0E82FF0E0442312
:1011A00021F0EA56FB4FE491F0E046E0049FC001D5
:1011B0001124CFEFD0E0BE010E9419304BEA460364
:1011C000C001479F900D1124800F911D800F911D2C
:1011D000982F990F890FAE01421B530B4E9FD001E0
:1011E0004F9FB00D5E9FB00D11249B2F189FA00143
:1011F0001124452F55278E01041B150B0E9FA001AE
:101200000F9F500D1E9F500D11247E01E81AF1080A
:10121000E29E8001E39E100DF29E100D1124212FFD
:101220003327C21BD30BCE9F9001CF9F300DDE9F83
:10123000300D112462307105A9F048F46115710573
:1012400069F061307105C9F48B2F752F0DC06430C2
:10125000710581F058F06630710579F47E2F8B2F7F
:10126000932F0DC0832F7B2F9E2F09C08E2F7B2F96
:10127000952F05C08E2F732F02C07E2F852F692FCB
:10128000DF91CF911F910F91FF90EF90089541E072
:101290000E94B70808950895E8E1F1E08083618332
:1012A0000895CF93DF93762FE901682F842F0E9452
:1012B0004709798368838A83DF91CF91089580916C
:1012C0000403282F269530E02115310519F481708B
:1012D000826005C02B32310524F0817084658093D3
:1012E0000403089588E090E00C940B31CF92DF92D4
:1012F000EF92FF926B017C010E945F09B701A6018A
:1013000088E090E0FF90EF90DF90CF900C9429312F
:10131000E4E0F3E083E0808311828FEF82838383B4
:101320001482A2E4B2E012968C9112978360129616
:101330008C9360817181828193810C947609809174
:10134000040380FF02C08695089580E0089590917F
:101350000803933018F49F5F90930803882351F09B
:101360006091040370910503809106039091070337
:101370000C947609089581E00C94A70990910803D4
:10138000992319F0915090930803882351F06091AC
:1013900004037091050380910603909107030C9458
:1013A0007609089581E00C94BE0970E00C94B512A2
:1013B000609119018091040380FF0AC08091180197
:1013C00023E0829FC0011124875F9C4F0C94D509B4
:1013D00080911A0190911B01891780F7E82FF0E0A6
:1013E0009F01220F331FE20FF31FE75FFC4F1182B3
:1013F000108212828F5FF0CF9091040390FF16C08D
:1014000090911A0120911B01921770F4E92FF0E0DE
:10141000DF01AA0FBB1FEA0FFB1FE75FFC4F8183B1
:10142000608342839F5FF0CF0C94D8090895CF93D7
:10143000DF9300D01F92CDB7DEB79091040390FFE9
:101440000AC09E012F5F3F4F0E9451094B81698165
:101450008A810E94FC090F900F900F90DF91CF912D
:101460000895CF93DF93EC01EC81F0E0EF56FC4F51
:101470004491E4E0F3E0628181810E94170A8C814B
:101480008F5F8C83DF91CF910895CF93DF93EC0131
:10149000E4E0F3E0438162818C810E94170A8C8131
:1014A0008F5F8C83DF91CF9108950F931F93CF931C
:1014B000DF9300D01F92CDB7DEB78C018091F90188
:1014C00081110AC09E012F5F3F4F4FEF6FEF0E94C7
:1014D00051098A818093F901F8018481813051F0AA
:1014E00028F0823061F44091F9010AC08091F9013D
:1014F00040E007C06091F90140E080E003C040E0B7
:1015000080E060E00E94FC09F801848190E001968F
:1015100063E070E00E942D3084830F900F900F9055
:10152000DF91CF911F910F910895AF92BF92CF920B
:10153000DF92EF92FF920F931F93CF93DF9300D030
:101540001F92CDB7DEB7182FF62E042FE22E909102
:10155000040390FF7EC0E92FE695AE2FB0E0A258BD
:10156000BE4F8C91809342029E7F923061F49E0127
:101570002F5F3F4F812F0E9451094B8169818A81E2
:101580000E94FC0943C0823019F4009107033EC059
:10159000863019F41091050339C08930D9F38931A7
:1015A000A9F5E9518E2F8170D82EE695F0E0EF561F
:1015B000FB4FA590B490C12CBB2460911C01C616B2
:1015C00018F52C2D30E0A29EC001A39E900DB29E76
:1015D000900D112470E00E941930812FD11002C0AB
:1015E000860F01C0861B90911A01290F311DA90198
:1015F000440F551F240F351F275F3C4F402F6F2D81
:101600000E945109C394D9CF0E94D8098091050343
:10161000181308C080910603F81204C080910703D4
:10162000081729F08091440282608093440210934D
:101630000503F092060300930703EE2051F060913A
:1016400004037091050380910603909107030E94A3
:1016500076090F900F900F90DF91CF911F910F910E
:10166000FF90EF90DF90CF90BF90AF900895E4E0AF
:10167000F3E09181282F4381628188E0890F0C94E7
:10168000950A81E00C94370BE4E0F3E09181282F78
:101690004381628188EF890F0C94950A81E00C9454
:1016A000440BE4E0F3E0628121E1620F08F46FEFA4
:1016B000282F438181810C94950A81E00C94510B71
:1016C000E4E0F3E0628121E1621B08F460E0282F8E
:1016D000438181810C94950A81E00C94600BE4E0D5
:1016E000F3E0438121E1420F08F44FEF282F62819C
:1016F00081810C94950A81E00C946F0BE4E0F3E097
:10170000438121E1421B08F440E0282F628181815E
:101710000C94950A81E00C947E0B21E00C94950AC0
:1017200020E00C94950AFF920F931F93CF93DF93C1
:10173000EC01F12C0FEF10E060911C01F616F0F4B3
:1017400080911A012F2D30E0280F311DC901880F1B
:10175000991F280F391F275F3C4F70E0C8010E9476
:101760002D30962F8C814091070360910603F99EDE
:10177000800D11240E945109F394DECF0E94D809F4
:101780009A818C8190FF02C08F5F01C081508C8351
:10179000DF91CF911F910F91FF9008958F929F92AB
:1017A000AF92BF92CF92DF92EF92FF920F931F936F
:1017B000CF93DF93EC018A8180FF03C0BB24BA94EE
:1017C00002C0BB24B3948C8181110DC081E0B8129A
:1017D00006C080911C0181508093FB0102C01092D1
:1017E000FB0181E08C83A12C4CE0942E80911C01A4
:1017F000A81608F044C080911A01CA2CD12C860189
:10180000080F111DC801880F991F080F191F075FC6
:101810001C4FF80111821082128234E0E32EF12C69
:10182000812C8091FB01880D8D302CF0692D0E9458
:101830000B30892F05C087FF03C090911C01890FD1
:10184000082E000C990BC816D90691F48091070355
:101850008E9DA0018F9D500D11245595479555954E
:101860004795980160910603809105030E945109F4
:101870008B0CF1E0EF1AF108A1F6A394B7CF0E9408
:10188000D8098091FB0191E0B9120EC0811107C007
:1018900080911C0181508093FB011C820FC08150FC
:1018A0008093FB01BC820AC090E0019660911C010C
:1018B00070E00E942D308093FB018C83DF91CF91EB
:1018C0001F910F91FF90EF90DF90CF90BF90AF905E
:1018D0009F908F9008951F93CF93DF93EC018C819D
:1018E000811109C081E08C831092FA0192E09093FB
:1018F00017018093160180911A0190911B0189179D
:1019000070F4E82FF0E09F01220F331FE20FF31F66
:10191000E75FFC4F1182108212828F5FF0CF10E0E0
:1019200060911C011617C0F5E12FF0E070E0CF01C7
:101930000E942D3020911A01820F2091FA01022E6F
:10194000000C330B90E0E217F307CCF02091170165
:10195000022E000C330B2E173F078CF09C01220F38
:10196000331F820F931F9C01275F3C4F4091070359
:1019700060910603809105030E9451090BC0FC0190
:10198000EE0FFF1F8E0F9F1FFC01E75FFC4F1182C0
:10199000108212821F5FC4CF0E94D8098091160165
:1019A0002091FA01280F2093FA0190911701980FC6
:1019B0009093170119165CF4022E000C330B409122
:1019C0001C0150E0415051092417350734F081952E
:1019D00080931601813009F41C82DF91CF911F9111
:1019E00008958F929F92AF92BF92CF92DF92EF9223
:1019F000FF920F931F93CF93DF938C01FC014481DF
:101A0000C42FD0E09E01DE010E9471309B01AC0129
:101A10000E9487306B017C01E0E2F0E0EC1BFD0BE3
:101A2000A5E5B0E09B01AC010E9487304B015C0151
:101A30009F01DF010E9469309B01AC010E9492303E
:101A40009B01AC012C0D3D1D4E1D5F1DC501B40158
:101A50000E944130C22FD22F2A3228F4F3E02F9F68
:101A6000900111240DC025E530E02C1B3109C9017E
:101A7000880F991F280F391F37FF02C02F5F3F4F74
:101A800035952795C22FC095F12C85E5E82EED1AE6
:101A900080911C01F816C8F4F1FC02C08E2D01C023
:101AA0008D2F90911A012F2D30E0290F311DA901A2
:101AB000440F551F240F351F275F3C4F4C2F60915B
:101AC00006030E945109F394E3CF0E94D809F8015C
:101AD0008481811102C091E003C0803219F49FEF2C
:101AE0009093150190911501890FF8018483DF917E
:101AF000CF911F910F91FF90EF90DF90CF90BF900B
:101B0000AF909F908F9008950F931F93CF93DF9383
:101B1000EC0100E010E080911C01282F30E002175A
:101B2000130724F590911A019801290F311DA9017D
:101B3000440F551F240F351F275F3C4F869590E0BB
:101B40004C81081719071CF4442331F002C04111DD
:101B500003C04091070301C040E0609106038091FB
:101B600005030E9451090F5F1F4FD5CF0E94D8096E
:101B70008C8190E00196817099278C83DF91CF91C1
:101B80001F910F9108958F929F92AF92BF92CF9223
:101B9000DF92EF92FF920F931F93CF93DF93FC019D
:101BA000B280948081E0848300E015E05BE4A52EA0
:101BB00088248394EE24EA94F12C7BE4C72ED12C64
:101BC00080911C01081708F08FC0C02FD0E01C9F27
:101BD000F0011D9FF00D1124E150FE4F911003C044
:101BE0001382128267C02381222389F1215023832B
:101BF0003481332319F09A2D921B01C0922F8091CA
:101C000007031C9FF0011D9FF00D1124E150FE4FB2
:101C1000899FC0011124B6010E94193062832111ED
:101C200004C0332311F01482A38222E02B1508F4A0
:101C300041C01C9FF0011D9FF00D1124E150FE4F8B
:101C400080910503808380910603818333C00E94C5
:101C5000E6308230914074F582E08B1530F40E94BA
:101C6000E630B7010E942D3002C0809105031C9F11
:101C7000F0011D9FF00D1124E150FE4F808322E002
:101C80002B1558F40E94E630209106032695622F0A
:101C900070E00E942D30820F02C0809106031C9FCD
:101CA000F0011D9FF00D1124E150FE4F818312823F
:101CB000A382848280911A019E01280F311DC901DF
:101CC000880F991F280F391F275F3C4F1C9FF00179
:101CD0001D9FF00D1124E150FE4F428161818081F2
:101CE0000E9451090F5F6CCFDF91CF911F910F912F
:101CF000FF90EF90DF90CF90BF90AF909F908F902C
:101D00000C94D809809144020895109244020895D9
:101D100025E0E4E0F3E0DC0101900D922A95E1F783
:101D2000209142023091430240914402FC012583FC
:101D300036834783089560910403669570E04BE015
:101D400050E08DE191E00E94F630892B19F481E09A
:101D5000809343020E94F32390933C0280933B02C2
:101D6000809144028460809344020895E2E4F2E0AA
:101D7000118282818460828308959091040390FF90
:101D80003AC09170811102C0926006C08B3210F08F
:101D9000946502C0880F982B9093040380914402AD
:101DA000816080934402662351F060910403709136
:101DB000050380910603909107030E9476096091C4
:101DC0000403669570E04BE050E08DE191E00E94E5
:101DD000F630892B19F00E94B60E02C00E949B0EAD
:101DE00081E080933E024091070360910603809159
:101DF00005030C94900B0895682F90910403969519
:101E000081E0890F8B3208F081E00C94BD0E81E0F7
:101E10000C94FC0E682F9091040396958FEF890F18
:101E200009F48AE20C94BD0E81E00C940A0F61E083
:101E30000C94BD0EE4E0F3E08081816080838695A0
:101E40000C94170F60E00C94BD0EE4E0F3E0808189
:101E50008E7F808360817181828193810E94760967
:101E60000E94B60EE2E4F2E08281816082832FEF6D
:101E700080E792E0215080409040E1F700C00000F0
:101E80000C94D8098091040380FD0C94250F0C94C8
:101E90001A0FE4E0F3E080818E7F80830E94B60E0B
:101EA000E2E4F2E08281816082832FEF80E792E0BA
:101EB000215080409040E1F700C000000C94D80908
:101EC0001F93CF93DF93EC01162F8F8180FF0FC0FC
:101ED000888180FF0AC0809104038160809304039D
:101EE000888186950E94BD0E02C00E94490F8F8195
:101EF00081FF06C0212F4B816A8189810E94950A4A
:101F00008F8182FF08C08E81882319F00E949B0E6A
:101F100002C00E94B60E8F8183FF03C081E08093D0
:101F20003E02DF91CF911F9108958091410281116E
:101F300033C00E946F22811104C00E9411230E94AD
:101F400088090E94720960930403709305038093CB
:101F500006039093070380914402836080934402B8
:101F60006E7F61F40E9488090E94720960930403E5
:101F70007093050380930603909307030E945F0903
:101F80000E94B60E8091040380FF03C086950E94D4
:101F9000220F81E0809341020895EF92FF920F9308
:101FA0001F93CF93DF9380914302882309F4C1C02C
:101FB00080914202E0910403E695E81BE0933D0224
:101FC000823049F4F0E0E357FC4FE491CE2FD0E0AB
:101FD00001E31AE059C0863049F4F0E0E657FC4FBF
:101FE000E491CE2FD0E005E41AE04EC0893051F4E0
:101FF000E695F0E0E957FC4FE491CE2FD0E003E9FD
:102000001BE042C08F3051F4E695F0E0EC57FC4FF6
:10201000E491CE2FD0E00EEC1BE036C0853149F4C0
:10202000F0E0EF57FC4FE491CE2FD0E00BE61CE040
:102030002BC08831D9F0833239F4EFE7F3E0C59152
:10204000D49105E51AE020C08432A9F08532C1F4AC
:102050008E2F63E00E94FF2FE92FF0E0E458FC4F41
:10206000E491CE2FD0E003EC1DE00EC0C8E2D0E03A
:1020700001EF1CE009C0C4EFD1E004E81DE004C09A
:10208000C0EDD7E00BE419E080913E02882389F08F
:1020900010923E020E94F3239E0120953095820FFC
:1020A000931F90933C0280933B0210924002109247
:1020B0003F0280913B0290913C020E94FF238C17CB
:1020C0009D07B8F18091FE018823B1F01092FE01C6
:1020D0008091FC019091FD010E94FF238033954780
:1020E00058F00E94F3239093FD018093FC018091AE
:1020F0004402886080934402E0903F02F0904002E6
:10210000E0913B02F0913C02CE0FDF1FD0933C02E6
:10211000C0933B028BE392E0F801099580913F0266
:1021200090914002892B29F4EF2819F081E08093E7
:10213000FE01DF91CF911F910F91FF90EF900895D5
:10214000882311F0FA0101C0FB010994CF93DF93BA
:10215000C82FD62F0E949F098C1740F00E949F091C
:102160008D1720F4DF91CF910C94070F8C2FDF9106
:10217000CF910C94170F1F93CF93DF93FB01128124
:10218000111163C0EC010E94BE218272FE01E25C6B
:10219000FC45E431F10508F057C0EA5AFF4F0C94B2
:1021A00063300E94420F51C044E15FE067E07FE08E
:1021B00004C047E05FE064E17FE00E94A01045C0FA
:1021C0004EE45BE061E47BE0F8CF41E45BE06EE489
:1021D0007BE0F3CF4CE65BE06DE57BE0EECF4DE5D9
:1021E0005BE06CE67BE0E9CF4AE85BE06BE77BE035
:1021F000E4CF4BE75BE06AE87BE0DFCF42ED59E0FC
:102200006BEB79E0DACF4BEB59E062ED79E0D5CFBB
:1022100081E017C065E082E010C068E086E00DC094
:102220006EE089E00AC064E18FE007C067E185E104
:1022300004C088E106C062E289E10E94A61005C0E0
:1022400083E20E94170F01C011E0812FDF91CF912F
:102250001F91089580912D038170089580912D0321
:1022600086958695869508950E946F22811102C0F9
:102270000E9411230E94A02280932D03282F2695CF
:102280002695269530E02830310524F08770886344
:1022900080932D0380912D0380FF04C08695869541
:1022A000869501C080E00C94431220912D03822F6B
:1022B000869586958695482F50E04730510554F411
:1022C0008F5F982F990F990F990F822F8770892B05
:1022D00080932D0380912D03816080932D030E94B4
:1022E000A42280912D038695869586950C944312A1
:1022F00080912D03982F969596959695A1F0915ED5
:10230000990F990F990F8770892B80932D03887FE0
:1023100091E009F490E080912D0390FB80F9809387
:102320002D030E94A42280912D0386958695869583
:102330000C94431280912D0380FD13C08160809323
:102340002D03813019F489E080932D0380912D03B2
:102350000E94A42280912D038695869586950C94E3
:102360004312089580912D0380FF08C08E7F8093D3
:102370002D030E94A42280E00C94431208958091C2
:102380002D0380FD0C94B2110C949A1190912D03A1
:10239000892F8695869586958F5F8F719770883087
:1023A00038F4880F880F880F892B80932D0302C083
:1023B00090932D0380912D03887F91E009F490E0A4
:1023C00080912D0390FB80F980932D030E94A4221D
:1023D00080912D038695869586950C9443128830BE
:1023E00008F087E090912D039770282F220F220F7D
:1023F000220F922B90932D03987F21E009F420E087
:1024000090912D0320FB90F990932D030C9443128F
:102410000E94EF1180912D030C94A4229C01FB01DA
:102420008281882349F12D3BFCE53F07C9F040F448
:102430002B3BECE53E0769F02C3B3C4561F00895F1
:102440002F3B9CE5390791F070F0203C3C4589F02A
:10245000089587E001C080E00E94081280E008959E
:102460000E947811FBCF0E945511F8CF0E94BF1136
:10247000F5CF0E94C611F2CF81E00895259A2D98DC
:1024800008952D980895CF92DF92EF92FF92CF9307
:10249000C82F883050F4811109C0809180008F7757
:1024A000809380000E94411206C0C7E080918000A6
:1024B0008068809380002C2F30E0AFEFBFEF0E9448
:1024C000713027E030E040E050E00E944130C90127
:1024D0002C3764E1360728F469E070E00E94193077
:1024E00029C0DA01C9018A50974DAF4FBF4F662707
:1024F000782F892F9A2F25EF38E241E050E00E9493
:10250000413069017A01CA01B9010E94EF2F9B0194
:10251000AC01C701B6010E94EF2FBB27A92F982F4E
:10252000872F009721E0A207B10511F0BC0102C07E
:102530006FEF7FEF7093890060938800CF91FF90D9
:10254000EF90DF90CF90089508950E943E1282E8A8
:102550008093800089E1809381008FEF9FEF9093BB
:102560008700809386000C943411249A25B12F7E25
:1025700035B130614FB7F894FC01CB01880F991F3A
:10258000680F791F6E0F7F1FE617F70789F081919B
:1025900098E035B9000000C087FF25B9880F00001A
:1025A00000C000C000C025B900C09A9591F7ECCFDB
:1025B0004FBF8FE594E00197F1F700C00000089548
:1025C000AF92BF92CF92DF92EF92FF920F931F9341
:1025D000CF93DF937C015B01C42FD22FFC0182815A
:1025E0008823F9F0409347020E94F3239093460218
:1025F0008093450280E28C0F883008F06EC0C7706F
:1026000081E001C0880FCA95EAF7DF91CF911F9151
:102610000F91FF90EF90DF90CF90BF90AF900C9410
:102620005D1980914702481335C080914502909111
:1026300046020E94FF236C01B701C5010E94A61E3D
:10264000C816D90638F510E21D0FCD17B9F080E293
:102650008C0F883040F4C77081E001C0880FCA95A4
:10266000EAF70E946419183058F581E09D2F9770A1
:1026700001C0880F9A95EAF70E945D19802F0E9489
:102680004A19183050F5D77081E001C0880FDA95EB
:10269000EAF70AC080E28C0F8830F8F4C77081E056
:1026A00001C0880FCA95EAF7DF91CF911F910F9172
:1026B000FF90EF90DF90CF90BF90AF900C94641993
:1026C000802FDF91CF911F910F91FF90EF90DF90BE
:1026D000CF90BF90AF900C944A19DF91CF911F918A
:1026E0000F91FF90EF90DF90CF90BF90AF90089543
:1026F0000F939C01CB01233F4CE5340731F188F463
:10270000283DFCE53F07D9F0293D4CE5340779F138
:10271000273D3C45A9F506E221EE41EE67ED7CE55B
:102720002BC0253FFCE53F07E1F0A8F0263F3C45E4
:1027300039F507E225EE46EE66EF7CE51DC007E2BF
:1027400025EE45EE68ED7CE517C006E221EE40EE91
:1027500063EF7CE511C007E225EE44EE64EF7CE513
:102760000BC006E221EE42EE65EF7CE505C008E213
:1027700021E045EE69ED7CE50E94E01280E008C0B2
:10278000FC018281882319F01092470201C081E088
:102790000F910895CF93DF93EC01FB018281882391
:1027A00009F41FC1C230FCE5DF0708F41BC1C631C4
:1027B0009CE5D90738F09E012A5F3C452930310558
:1027C00008F010C10E948222909333038093320359
:1027D000C031ECE5DE0709F4C3C008F041C0C830E1
:1027E0008CE5D80709F49AC0F0F4C430ECE5DE07B4
:1027F00009F487C068F4C2308CE5D80709F477C0C3
:10280000C330DC4509F0E3C080913203826076C0BA
:10281000C630ECE5DE0709F46EC008F07BC080919D
:10282000320388606BC0CC308CE5D80709F485C0D2
:1028300068F4CA30ECE5DE0709F474C008F079C02A
:102840000E94ED1B80913203806858C0CE308CE529
:10285000D80709F476C008F07FC0809132038BC09E
:10286000CB3FECE5DE0709F44FC018F5C3318CE52A
:10287000D80709F47DC078F4C131ECE5DE0709F42E
:1028800073C0C231DC4509F0A2C00E94ED1B8091EB
:1028900032038F7733C0C5318CE5D80709F472C095
:1028A00008F486C0CA3FDC4509F091C0809133032B
:1028B0003EC0CF3FFCE5DF0709F45FC058F4CD3FD1
:1028C0009CE5D90709F444C008F43FC08091330364
:1028D00082602DC0C130FDE5DF0709F475C008F442
:1028E0005DC0C230DD4509F072C080E06EC08091ED
:1028F0003203816003C08091320380618093320390
:1029000066C08091320311C080913303826080934E
:1029100033035DC0809132038062F0CF8091320337
:102920008064ECCF8091320388608460E7CF81605F
:10293000EECF809132038E7FE1CF809132038D7F85
:10294000DDCF80913203877FD9CF8091330318C0C8
:10295000809133038D7FDBCF809132038F7ECECF8A
:10296000809132038F7DCACF809132038F7BC6CF97
:1029700080913203877F8B7FC1CF809133038D7F1E
:102980008E7FC5CF8091320382FB222720F991E010
:10299000922790FB82F990FB83F9B0CF80913303AB
:1029A000982F909591708E7F892B90FB81F9AFCFF6
:1029B0000E94ED1B8091320387FB222720F991E0D2
:1029C000922790FB87F99ACF81E00E941323809190
:1029D0003203909133030E9493220E94ED1B80E00A
:1029E00001C081E0DF91CF910895CF93DF938631CD
:1029F0009C4541F5EB010E94BE21982F8A812091D0
:102A0000280130912901882379F09A7A81E009F42C
:102A100080E080934802911102C069E201C065E341
:102A2000C9010E945A230AC080914802811102C044
:102A300069E201C065E3C9010E945C230E940C2287
:102A400080E001C081E0DF91CF9108958EE1489B45
:102A500002C08150E1F7489BFECF0895589880E26C
:102A60008A95F1F7589A0895FC012AE02A95F1F722
:102A700090E020E080E031E0261779F040E14A95CF
:102A8000F1F7880F489B02C08160932700C00000C7
:102A900040E14A95F1F72F5FEFCF20E12A95F1F75A
:102AA00029B100C0000030E13A95F1F7217092277A
:102AB0002081920F90830895EF92FF920F931F93BE
:102AC000CF93DF931F92CDB7DEB719828C017C01C3
:102AD000E60EF11C0E151F0559F00E94261568E040
:102AE000CE0101960E943415F80181938F01F2CF37
:102AF00081E09981911180E00F90DF91CF911F913A
:102B00000F91FF90EF90089590934B0280934A02AB
:102B100060934902509A589A089590934B0280937B
:102B20004A02609349025098589AE89AE9E6F0E020
:102B300080818C7F80830895615091E001C0990F5E
:102B40006A95EAF720E031E0992361F0492F4823A4
:102B500019F0589A232701C0589840E24A95F1F796
:102B60009695F2CF222311F0589A01C0589880E22E
:102B70008A95F1F758980895FF920F931F93CF937A
:102B8000DF93EC018C01060F111DC017D10741F036
:102B9000F9900E942E1568E08F2D0E949C15F5CFAC
:102BA000DF91CF911F910F91FF9008951F920F9287
:102BB0000FB60F9211240F931F932F933F934F93B0
:102BC0005F936F937F938F939F93AF93BF93EF9395
:102BD000FF93CF93DF931F92CDB7DEB719820E9488
:102BE000261567E0CE0101960E943415382F3695E0
:102BF00036953695932F96959570232F2570920FC5
:102C0000292F2370969596958770920F891348C047
:102C10008981811145C080914902831708F440C021
:102C200080E18A95F1F7589A509AA2E0AA95F1F7B7
:102C300000C000914A0210914B02B8E03B9F000D8A
:102C4000111D11245898F8016581662321F08681B1
:102C500097810E94BC150E942E15F0E1FA95F1F7BC
:102C600058985098589A80E18A95F1F7D8011296B1
:102C70006C911297662369F013968D919C9114972D
:102C80000E945C15D801ED91FC91811105C082E094
:102C900004C0D801ED91FC9188E080830E94261544
:102CA0000F90DF91CF91FF91EF91BF91AF919F91E5
:102CB0008F917F916F915F914F913F912F911F91D4
:102CC0000F910F900FBE0F901F9018950F931F93A9
:102CD000CF93DF932091490230E0281739070CF495
:102CE00071C09C0193E0220F331F9A95E1F7C091C8
:102CF0004A02D0914B02C20FD31FF894509A5898B1
:102D000045E04A95F1F70000982F969595708570EB
:102D1000890F982F937086958695890F8901082BC6
:102D20000E942E1584E08A95F1F700C067E0802F9D
:102D30000E949C1540E14A95F1F75098589A48999D
:102D400002C000C0FCCF87E090E0489B0EC0019716
:102D500051F4509A589AE881F98181E080837894FF
:102D600081E090E031C000C0F0CF6D81662381F03A
:102D70008E819F810E945C1581110AC0509A589AD9
:102D8000E881F98182E08083789482E090E01CC041
:102D90000E94261580E28A95F1F75898509A40E1F2
:102DA0004A95F1F76A81662321F08B819C810E940C
:102DB000BC150E942E15E881F9811082789480E07C
:102DC00090E002C084E090E0DF91CF911F910F91DD
:102DD000089590935102809350020895E09150021B
:102DE000F0915102309721F00190F081E02D09948B
:102DF00080E00895E0915002F0915102309721F067
:102E00000280F381E02D09940895E0915002F09141
:102E10005102309739F022E0DC012C930480F581D7
:102E2000E02D0994089520914E0230914F02281709
:102E3000390771F090934F0280934E02E091500257
:102E4000F0915102309721F00680F781E02D09942E
:102E5000089520914C0230914D022817390771F0E6
:102E600090934D0280934C02E0915002F0915102F8
:102E7000309721F00084F185E02D0994089585B7FD
:102E8000806885BF85B7806885BF089508950C94D4
:102E900046170C9447170C9446170C9446170E943B
:102EA0003F170E944B170C9449170C9414080E946A
:102EB000EA230E94BC060E9458240E9434110E94FA
:102EC000950F0C944D17AF92BF92CF92DF92EF9275
:102ED000FF920F931F93CF93DF93CDB7DEB72A975F
:102EE0000FB6F894DEBF0FBECDBF0E944D070E9403
:102EF0005517811111C08FEF89838A831B820E942D
:102F0000F3238160782F9D838C8349815A816B8163
:102F10008D810E94FF1740C083E5A82E82E0B82E65
:102F200000E010E0C02E802F0E94A706E82EF501D9
:102F3000D1905F01D82631F40F5F1F4F0A30110581
:102F400089F7D9CF8091D30281FD0E94AD0680E040
:102F5000FF24F3949D2D9F21D1F08E83CF82EF200B
:102F600081E009F480E088870E94F3238160782F54
:102F70009A8789874E815F8168858A850E94FF17BD
:102F8000F801ED5AFD4F8081F826F08205C08F5F71
:102F9000FF0C8630F9F6D0CF0E94CD0F0E94A4120C
:102FA0000E9407260E94EE16909152028917B1F0F6
:102FB0000E94EE16809352022A960FB6F894DEBF56
:102FC0000FBECDBFDF91CF911F910F91FF90EF907A
:102FD000DF90CF90BF90AF900C9437042A960FB635
:102FE000F894DEBF0FBECDBFDF91CF911F910F913F
:102FF000FF90EF90DF90CF90BF90AF900895CF9368
:10300000DF93CDB7DEB72B970FB6F894DEBF0FBEB8
:10301000CDBF4F83588769877A878B87DE011196EA
:1030200086E0FD0111928A95E9F785E0FE01379669
:1030300001900D928A95E1F749815A816B817C81DB
:103040008D819E810E94A91E2B960FB6F894DEBF3B
:103050000FBECDBFDF91CF910895FC01808191819A
:103060000E947F210895CF93882309F4A9C0C82F17
:103070008238C1F40E94EE1681FDA2C069E38091FE
:103080002801909129010E945A230E940C222FEFBF
:1030900081EE94E0215080409040E1F700C00000B4
:1030A00069E319C0833801F50E94EE1680FD88C0DF
:1030B00063E580912801909129010E945A230E9482
:1030C0000C222FEF81EE94E0215080409040E1F7F8
:1030D00000C0000063E580912801909129010E94C1
:1030E0005C23CF910C940C228438C1F40E94EE161C
:1030F00082FD66C067E480912801909129010E94B9
:103100005A230E940C222FEF81EE94E02150804040
:103110009040E1F700C0000067E4DDCF8CEF8C0F3A
:10312000813AF8F48C2F0E94A528811149C06C2F98
:1031300080912801909129010E942423882349F03D
:103140006C2F80912801909129010E945C230E949C
:103150000C226C2F80912801909129010E945A2302
:10316000C0CF80E28C0F883048F4C77081E001C086
:10317000880FCA95EAF70E94C121B3CFEBE5EC0FA7
:10318000E33040F4F0E0E952FE4F808190E0CF91CF
:103190000C941317E8E5EC0FE73150F4F0E0EE0F74
:1031A000FF1FE755FE4F80819181CF910C94291725
:1031B000C03F30F08C2F0E94FC24CF910C94E92565
:1031C000CF910895882309F464C0823879F40E946D
:1031D000EE1681FF5EC069E380912801909129017C
:1031E0000E945A230E940C2269E310C08338B1F474
:1031F0000E94EE1680FF4DC063E5809128019091FA
:1032000029010E945A230E940C2263E58091280123
:10321000909129010E945C230C940C22843879F44B
:103220000E94EE1682FF35C067E4809128019091DC
:1032300029010E945A230E940C2267E4E7CF9CEFE9
:10324000980F913A10F4682FE1CF90E2980F9830E0
:1032500050F4877091E001C0990F8A95EAF7892FA1
:103260000E94C721D9CF9BE5980F933020F480E0CE
:1032700090E00C94131798E5980F973120F480E0B4
:1032800090E00C942917803F20F00E9464250C9454
:10329000E9250895CF93C82F0E943318C93349F404
:1032A0002FEF87EE93E0215080409040E1F700C07F
:1032B00000008C2FCF910C94E218882321F00E94FB
:1032C000C1210C940C220895882321F00E94C7216B
:1032D0000C940C220895CF92DF92EF92FF920F93FD
:1032E0001F93CF93DF937C01062FC72FFC0115811D
:1032F00012951F70D281D1110E94DE210E94B72148
:10330000882399F0DD2389F08C2F807F803421F091
:1033100080E2800F883048F082E00E9456220E94AE
:10332000B72191E0D82ED92601C0D12CCC2EC29441
:103330008FE0C8228C2D90E0FC01E659FF4F0C94E1
:1033400063308C2F807FCF70882311F0C295C07FAF
:10335000DD2399F0CC2309F48DC180E2800F883001
:1033600010F0011104C08C2F0E94C12103C08C2FCA
:103370000E94D1210E940C227DC1802F0E94E21860
:10338000CC2309F49CC180E2800F883010F0011139
:1033900004C08C2F0E94C72103C08C2F0E94D7210C
:1033A0000E940C228CC18C2F807FCF70803211F054
:1033B000C295C07F002319F00130C9F022C0DD237F
:1033C00071F0112341F0113031F40E94F1218C2B66
:1033D0000E94F92174C10E94F1218C2B1DC0112380
:1033E00019F0113009F46BC10E94022225C0DD23BF
:1033F00021F0163008F063C10EC0153008F05FC12F
:103400001BC0DD2361F0112331F0F701858180FFBE
:1034100031C18F7085838C2F0E945D1950C111239B
:1034200059F0093309F037C1FFEF27EE83E0F1507F
:1034300020408040E1F72DC18C2F0E9464193FC1CC
:103440008C2F86958695837019F0813061F037C195
:10345000DD2321F0802F9C2F937002C080E090E04C
:103460000E94131734C1DD2321F0802F9C2F93700D
:1034700002C080E090E00E94291729C1802FDD233F
:1034800019F00E94FC2402C00E9464250E94E925D4
:103490001EC18C2F837009F045C0D11114C1402F7B
:1034A000429546954770440F440F602F6F70862FEA
:1034B00090E0A0E0B0E0042E04C0880F991FAA1F7E
:1034C000BB1F0A94D2F704FF10C00FE010E020E009
:1034D00030E004C0000F111F221F331F4A95D2F79E
:1034E000009510952095309503C000E010E09801FC
:1034F000C695C695C370BC01CD01602B712B822B84
:10350000932BC23049F058F4C13019F00E94FA1FD1
:10351000DAC00E94E81FD7C00E940C20D4C00E94CD
:10352000E61FD1C0DD2319F08C2F817001C0869574
:10353000882309F4C8C0402F429546954770440F30
:10354000440F602F6F70862F90E0A0E0B0E0042E53
:1035500004C0880F991FAA1FBB1F0A94D2F704FF4B
:1035600010C00FE010E020E030E004C0000F111F99
:10357000221F331F4A95D2F700951095209530955C
:1035800003C000E010E09801C695C695C370BC0169
:10359000CD01602B712B822B932BC23049F058F454
:1035A000C13019F00E94BF208EC00E94AD208BC098
:1035B0000E94D12088C00E94202085C0CF70DD23CA
:1035C00039F08C2F0E944620802F0E945D197BC00D
:1035D000802F0E9464198C2F0E94672074C0023FC4
:1035E00001F128F4003F41F0013FA1F03FC0033F4B
:1035F000F9F0043F39F13AC0DD2341F0153008F00D
:103600005EC08C2F8F710E948C2059C0163008F03C
:1036100056C0F7CFDD2339F08C2F8F710E944620E2
:103620004EC0DD23C9F38C2F8F710E94672047C0E5
:10363000DD2329F08C2F8F710E94312040C00E9421
:103640002C203DC0DD2349F0CF718C2F0E944620F5
:1036500063E08C2F0E94412232C081E00E945622FA
:10366000123068F182E00E94562229C0DD2331F039
:10367000112391F2802F0E94331821C0112399F257
:10368000093349F49FEFE7EEF3E09150E040F0405A
:10369000E1F700C00000802F0E94E21810C04C2FFC
:1036A0004F70602FC7010E9499040E94571F0FC0DE
:1036B0004C2F4F70602FC7010E949C0408C088EFF8
:1036C0008C0D843020F40E94EE160E943704DD2019
:1036D000C9F00E94B32180FD15C0F70112820E943B
:1036E000AD210E944620C7010E94A31B0E94AD216C
:1036F000DF91CF911F910F91FF90EF90DF90CF90CE
:103700000C946720DF91CF911F910F91FF90EF9064
:10371000DF90CF9008950F931F93CF93DF93EC0129
:10372000688179818A810E948A218C010E94E3202C
:103730000E94D41FB801CE010E946B19DF91CF9176
:103740001F910F910895CF93DF93EC0198818981A8
:103750002B813C81232B31F08F3F31F481E09F3F5F
:1037600019F403C081E001C080E080FD19C0CE01E2
:103770000E94500481110CC00E94B721882381F05F
:103780008A81882369F082E0DF91CF910C945622E0
:10379000CE010E948B1BCE01DF91CF910C941904B6
:1037A000DF91CF9108950E94DE210E94EE210E94B8
:1037B0000C220E941A270E94E92580E090E00E94D6
:1037C000131780E090E00C942917809128019091C4
:1037D00029010E945E230C94D31B0E94CE210C94DD
:1037E000E51BE92FE295EF704E2F50E0FA0132977A
:1037F000EE30F105B0F4E658FF4F0C946330803F93
:1038000091F018F4883E68F40EC0843F51F40BC068
:10381000883E48F0813F29F406C093FB882780F951
:10382000089580E0089581E008950E947F210E941C
:10383000F11B0895CF93DF9300D000D01F92CDB736
:10384000DEB70F900F900F900F900F90DF91CF91F8
:103850000895CF93DF9300D000D000D0CDB7DEB76E
:1038600026960FB6F894DEBF0FBECDBFDF91CF9185
:1038700008951F93CF93DF93C0915E0216E080916D
:103880005F02C81799F0D0E01C9FF0011D9FF00D5A
:103890001124E05AFD4F40815181628173818481FE
:1038A00095810E94291C2196C770E9CFDF91CF91A5
:1038B0001F9108954091900250919102609192025F
:1038C0007091930280919402909195020C94291C1E
:1038D0000F931F93CF93DF938091950282958F7002
:1038E00009F05DC080919202882309F458C080914C
:1038F0005E0210915F026091900270919102C091FE
:103900009302D091940291E06F3F09F090E0292F4B
:1039100006E0811709F443C0209721F07F3F21F092
:1039200030E003C031E001C0322F90E030FD34C000
:10393000089FF001099FF00D1124DF01A05ABD4F2F
:1039400011963C911197371327C03C91361324C030
:1039500012963C91129731111FC013964D915C91B4
:1039600014974C1B5D0B483C5105B0F480919502B7
:103970008F70806180939502EB59FD4F80818F702D
:103980008061808380E992E00E94A31BDF91CF9148
:103990001F910F910C94391C01968770BACFDF915B
:1039A000CF911F910F9108959F92AF92BF92CF92A6
:1039B000DF92EF92FF920F931F93CF93DF93CDB7D8
:1039C000DEB761970FB6F894DEBF0FBECDBF8C0196
:1039D00085E0F801DE011D9601900D928A95E1F7D0
:1039E000F80140815181E2809091900260919102B2
:1039F00020919302309194022115310531F06F3FEF
:103A000031F481E09F3F19F403C081E001C080E000
:103A1000F82FF1709F2E80FD46C1F801A380B4807D
:103A200080E9C82E82E0D82EF0909202F501E21BC8
:103A3000F30BFF2009F4DFC080919502E83CF1050B
:103A400008F09BC0282F207F09F052C0561313C0E6
:103A5000491311C0FE2CE1100EC08F70806180935D
:103A600095020E945A1CC6010E94A31B80919502D8
:103A7000F801858358C1AB2831F05F3F31F481E014
:103A80004F3F19F403C081E001C080E080FD03C016
:103A900081E08E2502C080E090E0F82FF170FF2ECB
:103AA00080FF1CC080915E0220915F0236E0821789
:103AB00009F417C190E0389FF001399FF00D1124EF
:103AC000E05AFD4F6181561306C06081461303C062
:103AD0006281E61203C001968770E9CFFE2CEE20CA
:103AE00009F421C1809195028160809395025AC0AA
:103AF000561306C0491304C0E11002C0F8019FC06C
:103B00004D875E878D859E850E94151C882379F1DF
:103B1000EE2069F120919502822F82958F7090E0BE
:103B2000029774F0809190029091910298878F8310
:103B30001986BB86AA862C87CE0107960E94A31BF6
:103B400086E0F801A0E9B2E001900D928A95E1F7D4
:103B50000E94681C0E945A1C0DC0561729F14D87FF
:103B60005E878D859E850E94151C81112CC0C80121
:103B70000E94A31BFF24F394D6C0282F207F69F74F
:103B80007A2DB98AA88A6E2D89890E941A1C80E92B
:103B900092E00E94A31B86E0F60111928A95E9F754
:103BA0000E945A1CF12CBFC04913D9CFE110D7CFC6
:103BB000F8018583C8010E94A31B86E0F6011192DB
:103BC0008A95E9F7B0C0EE2091F220919502822FFC
:103BD00082958F7090E002970CF4B2CF80919002A2
:103BE000909191029A8389831B82BD82AC822E833D
:103BF000CE010196A3CFE83CF10508F047C0FE2CAA
:103C0000EE2009F4B4CF561330C049132EC02091D2
:103C1000950220FD21C0822F82958F70482F50E0A1
:103C200041155105C9F0F80125834F30510541F088
:103C30008F5F982F9295907F822F8F70892B85832D
:103C4000C8010E94A31B86E0F801A0E9B2E0019040
:103C50000D928A95E1F742C086E0F801A0E9B2E052
:103C600001900D928A95E1F75EC04D875E878D8544
:103C70009E850E94151C811163CF80919502816001
:103C800080939502C8010E94A31B4DC07A2DB98A6A
:103C9000A88A6E2D89890E941A1C86E0F60111926D
:103CA0008A95E9F71BC0EE2009F461CF4D875E8746
:103CB0008D859E850E94151CF82E882309F457CF08
:103CC00086E0F801A0E9B2E001900D928A95E1F753
:103CD00080E992E00E942D180E94681C0E945A1CE4
:103CE00022C04D875E878D859E850E947F21292F6A
:103CF00022952F70223028F49F7039F0811105C071
:103D00000BC0243028F49F7049F4805E883020F086
:103D1000C8010E94A31B9F2CF92C05C0F8019581B6
:103D2000907F99F7F9CF8F2D61960FB6F894DEBF8B
:103D30000FBECDBFDF91CF911F910F91FF90EF90FC
:103D4000DF90CF90BF90AF909F90089588EC90E067
:103D500008951F93CF93DF93CDB7DEB72C970FB69F
:103D6000F894DEBF0FBECDBF4F83588769877A872F
:103D70008B879C87CE0107960E94D41C8823D1F0A4
:103D80009F8188852A853B85232B31F08F3F31F435
:103D900081E09F3F19F403C081E001C080E080FD15
:103DA00047C04F81588569857A858B859C850E949F
:103DB000291C3EC086E0FE013796DE011196019077
:103DC0000D928A95E1F7FF81E8856A857B8561150B
:103DD000710531F0EF3F31F481E0FF3F19F403C08A
:103DE00081E001C080E080FD23C020915F0230E0CF
:103DF000C90101968770992740915E0250E08417AF
:103E00009507F1F1F983EA837D836C8396E0929FB5
:103E1000D001939FB00D1124A05ABD4FFE013196E1
:103E200001900D929A95E1F780935F020E94391CF0
:103E300016E080915E0290915F02891771F1189FE0
:103E4000C0011124805A9D4F0E94D41C882329F15F
:103E5000E0915E021E9FF0011124E05AFD4F408167
:103E6000518162817381848195810E94291C809196
:103E70005E0290E001968770992780935E02D9CF09
:103E80000E94ED1B10925F0210925E02E0E9F2E0E8
:103E900086E0DF011D928A95E9F72C960FB6F8941B
:103EA000DEBF0FBECDBFDF91CF911F910895EF927E
:103EB000FF920F931F93CF93DF938C01892B09F40B
:103EC0006CC0F12CEE24E394E8012196F801849172
:103ED000843740F4843008F051C0813081F0823062
:103EE00019F15BC0853709F444C0A8F19CE7980F2D
:103EF000903708F052C08F770E94E21841C00E5FE1
:103F00001F4FFE01849190E2980F983050F4877013
:103F1000FE2D01C0FF0F8A95EAF78F2F0E94E12145
:103F200014C00E9433182DC00E5F1F4FFE018491F4
:103F300090E2980F983060F48770FE2D01C0FF0F5B
:103F40008A95EAF78F2F0E94E7210E940C2219C060
:103F50000E94E21816C00E5F1F4FFE01C491CC23D1
:103F600081F08FE99FE00197F1F700C00000C15098
:103F7000F6CF0E5F1F4FFE01F49003C00E9433186E
:103F80008E018F2D882309F49FCFEFE9FFE0319751
:103F9000F1F700C000008150F5CFDF91CF911F9164
:103FA0000F91FF90EF900895089508950C94D51FF8
:103FB0000C94D61F0E94D81F6093C2027093C30254
:103FC0008093C4029093C5020C94D31B0C94DA1F07
:103FD0000F931F930091C2021091C3022091C4025B
:103FE0003091C502602B712B822B932B1F910F9167
:103FF0000C94DA1F0F931F930091C2021091C30219
:104000002091C4023091C50260237123822393233F
:104010001F910F910C94DA1F0F931F930091C2020E
:104020001091C3022091C4023091C502602771270C
:10403000822793271F910F910C94DA1F0C94D51FA0
:104040000E941E206093BE027093BF028093C00244
:104050009093C1020C94D31B60E070E0CB010C94F0
:1040600020200F931F9341E050E060E070E08A0150
:104070009B0104C0000F111F221F331F8A95D2F726
:10408000C901B8011F910F910C9420200F931F9329
:1040900041E050E060E070E004C0440F551F661F2F
:1040A000771F8A95D2F78091BE029091BF02A091AE
:1040B000C002B091C1028A019B01082B192B2A2B47
:1040C0003B2BC901B8011F910F910C9420200F9335
:1040D0001F9341E050E060E070E004C0440F551FC2
:1040E000661F771F8A95D2F7409550956095709519
:1040F0008091BE029091BF02A091C002B091C10216
:104100008A019B01082319232A233B23C901B801F3
:104110001F910F910C9420200F931F9341E050E0CA
:1041200060E070E004C0440F551F661F771F8A953A
:10413000D2F78091BE029091BF02A091C002B091CF
:10414000C1028A019B01082719272A273B27C90199
:10415000B8011F910F910C9420200F931F93009191
:10416000BE021091BF022091C0023091C102602BAB
:10417000712B822B932B1F910F910C9420200F9366
:104180001F930091BE021091BF022091C002309196
:10419000C10260237123822393231F910F910C94FA
:1041A00020200F931F930091BE021091BF02209117
:1041B000C0023091C10260277127822793271F9187
:1041C0000F910C9420200895292F220F920F990F00
:1041D000890FE82FE695E695E695877051E001C0D6
:1041E000550F8A95EAF785E0E89FF0011124EA5619
:1041F000FD4F20E030E070E04081CB01022E02C094
:10420000969587950A94E2F7817081958427852396
:10421000842781932F5F3F4F2530310569F708953B
:10422000292F220F920F990F890F682F6695669597
:104230006695982F977085E0689FB001112440E043
:1042400050E080E0FB01E40FF51FEA56FD4F2081AE
:1042500030E0092E02C0369527950A94E2F72170C6
:104260003327042E01C0220F0A94EAF7822B4F5FF6
:104270005F4F4530510531F70895BF92CF92DF92DD
:10428000EF92FF920F931F93CF93DF938C01C09017
:10429000BE02D090BF02E090C002F090C1028091B7
:1042A000C2029091C302A091C402B091C502C82A73
:1042B000D92AEA2AFB2ACFE1D0E0D701C6010C2E89
:1042C00004C0B695A795979587950A94D2F780FD77
:1042D00004C0219790F7B12C07C0BC2EB8018C2FD9
:1042E0000E94B8040197A9F38B2DDF91CF911F9104
:1042F0000F91FF90EF90DF90CF90BF900895CF93F4
:10430000DF93EC010E943D21BE010E94B804DF91C1
:10431000CF9108951F93CF93DF93EB0190915D02AE
:10432000992321F0CB010E947F2113C0882349F0FB
:10433000CB010E943D21182F682FCE010E94E4205E
:1043400004C0CB010E941021182FBE01812F0E94B2
:10435000B804DF91CF911F9108958091C602859591
:104360008595859508958091C602877008959091EE
:10437000C602977081E009F480E008958091D2022E
:1043800008959091D202892B8093D202089580954E
:104390009091D20289238093D20208951092D20282
:1043A00008959091D102892B8093D1020895809530
:1043B0009091D10289238093D10208951092D10265
:1043C00008959091D002892B8093D0020895809512
:1043D0009091D00289238093D00208951092D00248
:1043E00008958091C702089508950C94F4210C94C7
:1043F000F5219091C702981721F08093C7020C9481
:10440000F72108958091C702882329F01092C702EE
:1044100080E00C94F7210895E0912801F0912901A2
:104420008091D2028083E0912801F091290190814E
:104430008091D102892B8083E0912801F09129019C
:1044400090818091D002892B80838091C70288233C
:1044500081F0E0912801F09129019081892B8083DE
:1044600080912801909129010E94182381110E94B6
:10447000022280912801909129010C94FA160C9443
:10448000F42198E0899F90011124262B2093C602E5
:104490000E9446208091C6028595859585950C944D
:1044A0003F221092C60280E00C943F222091C60267
:1044B000809582238093C602982F977079F430E01C
:1044C000482F082E000C550B2417350739F0859519
:1044D000859585950E9467200C945122089580E06F
:1044E00090E00E94113121E08C3E9E4F09F020E0C7
:1044F000822F089582E090E00C94033183E090E0F5
:104500000C940331CF9384E090E00E940331C82FD4
:1045100081E290E00E9403312C2F30E0A901582B5A
:10452000CA01CF910895CF93C92F682F84E090E0FE
:104530000E9417316C2F81E290E0CF910C941731DB
:1045400086E090E00C940331682F86E090E00C94B4
:104550001731AB01BC018FE090E00C942931AB0125
:10456000BC0183E190E00C94293160E070E0CB0164
:104570000C94AF226CEE7EEF80E090E00E9435312B
:1045800060E082E090E00E94173160E083E090E01C
:104590000E9417311092C2021092C3021092C402FC
:1045A0001092C50260E084E090E00E94173160E064
:1045B00081E290E00E94173160E085E090E00E9487
:1045C000173160E086E090E00E9417316FEF87E0DE
:1045D00090E00E94173140E050E0BA0188E090E09E
:1045E0000E94293160E08DE090E00E94173140E0A8
:1045F00050E0BA0188E190E00E94293160E087E153
:1046000090E00E94173140E050E0BA018CE190E068
:104610000E94293160E080E290E00E9417310C9402
:10462000BE030C94BA22682F8EE090E00C941731F0
:10463000FC01329697E080E0915029F021912223ED
:10464000D9F38F5FF9CF0895662349F0FC013296C4
:1046500008962191621729F0E817F907D1F780E051
:10466000089581E008959C01FC0132969FEF80E05F
:104670004191461789F09F3F19F4411101C0982FCD
:104680008F5F8630A9F79F3F39F0F901E90FF11DDF
:1046900097FDFA956283089508959C012A5F3F4F24
:1046A000FC014281461301C01282019682179307D2
:1046B000B9F708950C9433230C944D23029626E009
:1046C000FC0111922A95E9F7089508950C94652349
:1046D0000C946523CF930E9468230E944D070E948B
:1046E0006623C0E08C2F0E94A706811104C0CF5F13
:1046F000CA30C1F701C081E0CF9108950C946523C1
:104700000C947E230E94802380913803843061F1D1
:104710001092D40220E488E190E00FB6F894A895B6
:10472000809360000FBE2093600080E00E944312DF
:1047300080E00E9437040E94802383B7817F8460D9
:1047400083BF83B7816083BF7894889583B78E7F5A
:1047500083BF0FB6F894A89580916000886180931C
:104760006000109260000FBE08950C9465230E94B3
:10477000ED1B0E9434110E94EE160E9437040C9427
:10478000B5231F920F920FB60F9211248F939F9310
:10479000AF93BF938091D402811113C080912E03F7
:1047A00090912F03A0913003B09131034196A11D48
:1047B000B11D80932E0390932F03A0933003B093E9
:1047C0003103BF91AF919F918F910F900FBE0F90CA
:1047D0001F90189582E084BD93E095BD9AEF97BD38
:1047E00080936E0008952FB7F89480912E039091D6
:1047F0002F03A0913003B09131032FBF08959C0186
:104800004FB7F89480912E0390912F03A09130031D
:10481000B09131034FBF821B930B089578941F9280
:104820000F920FB60F9211248F939F93AF93BF9364
:1048300080912E0390912F03A0913003B09131030A
:104840000196A11DB11D80932E0390932F03A09379
:104850003003B0933103BF91AF919F918F910F902F
:104860000FBE0F901F90189581E08093E00080E2CA
:104870008093D8001092C9008FE19EE40197F1F770
:1048800000C0000087E090EBDC018093410390932F
:104890004203A0934303B09344039CE088E10FB626
:1048A000F894A895809360000FBE90936000FFCFAE
:1048B0000E946F22811102C00E9411230E947A225D
:1048C0008093D3020E948222909333038093320319
:1048D0000E947E22682F70E080E090E00E94E61F38
:1048E0006091BE027091BF028091C0029091C1029E
:1048F0000C941E208091DB0280FF0BC060912F0181
:1049000085E0689FB0011124759567957595679549
:104910002BC081FF09C060912F0185E0689FB00125
:1049200011247595679520C082FF07C060912F0103
:1049300085E0689FB001112417C09091DA02992395
:10494000D1F060912E01961788F720912F0185E014
:10495000289F90011124929FA001939F500D112434
:1049600070E0CA010E942D306038710540F4611575
:10497000710519F406C065E070E0862F08958FE791
:10498000089581E008958091DB0280FF08C0609166
:104990002B0170E0759567957595679521C081FF2E
:1049A00006C060912B0170E07595679519C082FF74
:1049B00004C060912B0170E010C09091D90299233E
:1049C00099F060912A019617A0F780912B01899F99
:1049D000C001112470E00E942D306038710540F450
:1049E0006115710519F406C061E070E0862F089525
:1049F0008FE7089581E00895803F21F40E947A2492
:104A0000819504C0813F29F40E947A248093DF02BB
:104A10000895823F21F40E947A24819504C0833F47
:104A200029F40E947A248093DE020895893F19F4C4
:104A30000E94C32405C08A3F31F40E94C32481959B
:104A40008093E00208958B3F21F40E94C324819556
:104A500004C08C3F29F40E94C3248093E10208958E
:104A6000843F21F48091DD02816017C0853F21F4ED
:104A70008091DD02826011C0863F21F48091DD02C9
:104A800084600BC0873F21F48091DD02886005C0FF
:104A9000883F31F48091DD0280618093DD020895CA
:104AA0008D3F21F48091DB0281600BC08E3F21F4A9
:104AB0008091DB02826005C08F3F29F48091DB0288
:104AC00084608093DB020895803F39F48091DF0297
:104AD00087FF6AC01092DF0267C0813F29F480918E
:104AE000DF021816BCF360C09091DE02823F29F409
:104AF00097FF5AC01092DE0257C0833F19F419166F
:104B0000CCF352C09091E002893F31F419160CF0B9
:104B10004BC01092E00248C08A3F19F497FF44C08E
:104B2000F8CF8B3F39F48091E10287FF3DC01092AE
:104B3000E1023AC08C3F29F48091E1021816BCF3DF
:104B400033C0843F21F48091DD028E7F17C0853F02
:104B500021F48091DD028D7F11C0863F21F4809188
:104B6000DD028B7F0BC0873F21F48091DD02877FC0
:104B700005C0883F31F48091DD028F7E8093DD0295
:104B800013C08D3F21F48091DB028E7F0BC08E3FDE
:104B900021F48091DB028D7F05C08F3F29F4809145
:104BA000DB028B7F8093DB028091DE02811106C0E5
:104BB0008091DF02811102C01092DA028091E0023E
:104BC000811106C08091E102811102C01092D902C8
:104BD00008950E94F3232091DE02211104C0209148
:104BE000DF02222321F09093D8028093D7022091F4
:104BF000E002211104C02091E102222321F09093D0
:104C0000D6028093D5028CED92E00C940517EF92BA
:104C1000FF920F931F93CF93DF9300D000D000D06B
:104C2000CDB7DEB786E0ECEDF2E0DE011196019043
:104C30000D928A95E1F7E090DE02F090DF0200919C
:104C4000E0021091E1021092DE021092DF02109257
:104C5000E0021092E102E11003C0FF2009F45DC000
:104C60008091D7029091D8020E94FF23AC019091CD
:104C7000DA02992339F02091300130E0241735070A
:104C800058F04BC0209131018AE0289F90011124F7
:104C90002417350718F041C09F3F19F09F5F90938C
:104CA000DA02EE2061F00E947A241E1414F09FEFC5
:104CB00001C091E0989F902D11249093DE02FF2077
:104CC00061F00E947A241F1414F09FEF01C091E05C
:104CD000989F902D11249093DF023091DE023323B0
:104CE000E1F02091DF022223C1F045EB3403C00143
:104CF0001124992319F09093DE0203C081E0809380
:104D0000DE0235EB2303C0011124992319F090939F
:104D1000DF0203C081E08093DF02011103C0112391
:104D200009F45DC08091D5029091D6020E94FF23C4
:104D3000AC019091D902992339F020912C0130E0F7
:104D40002417350758F04BC020912D018AE0289F89
:104D5000900111242417350718F041C09F3F19F026
:104D60009F5F9093D902002361F00E94C324101624
:104D700014F09FEF01C091E0989F902D1124909323
:104D8000E002112361F00E94C324111614F09FEF7A
:104D900001C091E0989F902D11249093E1023091F1
:104DA000E0023323E1F02091E1022223C1F045EB40
:104DB0003403C0011124992319F09093E00203C039
:104DC00081E08093E00235EB2303C0011124992395
:104DD00019F09093E10203C081E08093E102809199
:104DE000DE0281110BC08091DF02811107C080912A
:104DF000E002811103C08091E10281110E94E92546
:104E0000EB82FC820D831E8386E0FE013196ACEDC1
:104E1000B2E001900D928A95E1F726960FB6F894CC
:104E2000DEBF0FBECDBFDF91CF911F910F91FF90DD
:104E3000EF900895ECEDF2E086E0DF011D928A9597
:104E4000E9F71092DA021092D9021092DB0208956B
:104E5000833081F128F4813059F08230D1F0089507
:104E6000853009F449C0B8F1863009F456C0089578
:104E700080913101262F30E0280F311D2F3F310561
:104E800024F4680F6093310108958FEF809331010E
:104E9000089580913001262F30E0280F311D2F3FDB
:104EA000310524F4680F6093300108958FEF8093EB
:104EB0003001089580912F01262F30E0280F311DF9
:104EC0002F3F310524F4680F60932F0108958FEF71
:104ED00080932F01089580912E01262F30E0280F16
:104EE000311D2F3F310524F4680F60932E01089582
:104EF0008FEF80932E01089580912B01262F30E0B3
:104F0000280F311D2F3F310524F4680F60932B01CA
:104F100008958FEF80932B01089580912A01262F09
:104F200030E0280F311D2F3F310524F4680F6093C6
:104F30002A0108958FEF80932A010895833011F19B
:104F400028F4813049F0823091F00895853081F164
:104F500020F18630C1F1089580913101681720F465
:104F6000861B80933101089510923101089580913C
:104F70003001681720F4861B809330010895109249
:104F80003001089580912F01681720F4861B8093CB
:104F90002F01089510922F01089580912E01681716
:104FA00020F4861B80932E01089510922E010895FF
:104FB00080912B01681720F4861B80932B010895A4
:104FC00010922B01089580912A01681720F4861B06
:104FD00080932A01089510922A0108950F931F9338
:104FE00041E050E060E070E08A019B0104C0000FE6
:104FF000111F221F331F8A95D2F7C901B8010E94E1
:10500000E61F1F910F910C94ED1B8B3109F468C0C2
:1050100058F58B3009F486C078F4863009F445C021
:1050200020F4853009F44BC07FC0873009F44AC0B2
:10503000883009F477C078C0803109F464C068F41E
:105040008E3009F071C08091D30282FB222720F9B3
:1050500091E0922790FB82F94CC0863109F462C03E
:10506000893109F45FC060C08A32E1F060F48732B0
:1050700009F455C028F48E3108F456C08D5150C043
:105080008932E9F051C0833450F48A3308F045C0C6
:10509000853309F444C0883309F444C045C08334DF
:1050A000F1F142C00E9411233DC08091D302817F63
:1050B0008E7F8093D30281E08093E30208950E9463
:1050C000410430C08091D302982F9095917090FB4D
:1050D00080F98093D302911125C0897F877F10C00A
:1050E0008091D30281FB222720F991E0922790FB47
:1050F00081F98093D3029923A9F08091D302816032
:105100008093D3020FC08091D30283FB222720F922
:1051100091E0922790FB83F9ECCF895301C080E0A6
:105120000E94EE2781E0089580E0089580E00895D0
:105130000C9496288E518A3030F4E82FF0E0E65235
:10514000FE4F8081089580E00895CF93C82F80910D
:10515000E302813051F018F0823099F17DC00E9455
:10516000BE21823209F07AC004C00E94BE21823280
:1051700061F48C2F0E949828811104C08C2F0E940A
:1051800005281DC081E090E01AC08C2F0E9496284F
:10519000811114C0C43179F048F4CB3079F0C031BA
:1051A00009F060C082E08093E30208C0C93219F0C0
:1051B000C83321F057C01092E30254C081E08170DF
:1051C00053C0C93289F118F5C43171F1B0F4C73058
:1051D00009F046C08EE18093310182E38093300173
:1051E0008AE080932F0184E180932E0188E08093F0
:1051F0002B0188E280932A0133C082EE8C0F863027
:1052000078F58C2F0E949A288093E20229C0CE3430
:10521000E9F020F4CB3421F56AE013C0C13579F010
:10522000C235F1F461E00DC08091E202882319F0EB
:105230001092E20215C081E08093E30215C061E0A4
:1052400006C08091E2020E9428270AC06AE080918D
:10525000E2020E949E2704C01092E30280E004C094
:1052600081E002C080E0ABCFCF9108958091EC0245
:105270000895CF93DF9300D01F92CDB7DEB7909102
:105280003803943019F589837B836A8382E08093A5
:10529000E9008FEF9091E800815095FD06C095EDF3
:1052A0009A95F1F700008111F5CF8091E80085FF14
:1052B0000DC040E050E063E070E0CE0101960E9436
:1052C000512B8091E8008E778093E8000F900F902B
:1052D0000F90DF91CF910895BC0184E00C9439299F
:1052E000BC0183E00C94392922E02093E9002FEFE0
:1052F0003091E800215035FD06C035ED3A95F1F7C3
:1053000000002111F5CF2091E80025FF0BC040E0FF
:1053100050E066E070E00E94512B8091E8008E77AB
:105320008093E8000895CF93DF9321E02093E90074
:105330002FEF3091E800215035FD06C035ED3A954C
:10534000F1F700002111F5CF2091E80025FF14C0EE
:10535000EC0140E050E068E070E00E94512B809149
:10536000E8008E778093E80088E0FE01A4EEB2E0CA
:1053700001900D928A95E1F7DF91CF910895809188
:105380003703811109C00E94E22C0E943F2D8091B9
:10539000E20084608093E20008951092370308953C
:1053A000089508950C94B72342E061EC81E00E94D7
:1053B0005B2C42E261EC82E00C945B2C80913A031E
:1053C000833009F460C030F4813071F0823009F428
:1053D00099C008958A3009F485C08B3009F46BC0F8
:1053E000893009F0A7C020C080913903813A09F0C3
:1053F000A1C08091E800877F8093E80080913D0301
:1054000090913E03892B21F468E084EE92E003C082
:1054100060E080E090E070E00E949C2B8091E800CA
:105420008B778093E800089580913903813209F0E9
:1054300081C080913D0390913E03029708F07AC0AD
:105440008091E800877F8093E8008091E80082FDEA
:1054500005C0809138038111F8CF6CC02091F30012
:105460008091F20090E0922B029729F48091F10054
:105470008B7F813021F48091F1008093EC02809148
:10548000E8008B7753C080913903813A09F052C00C
:1054900080913D0390913E03892B09F04BC0809190
:1054A000E800877F8093E8008091E80080FFFCCFD0
:1054B00080913C0136C0809139038132D9F58091C9
:1054C0003D0390913E03892BA9F58091E800877FE9
:1054D0008093E8000E94902C80913B0380933C01D4
:1054E0000C94ED1B80913903813221F58091E80005
:1054F000877F8093E8000E94902C80913C038093EA
:10550000ED02089580913903813AA1F48091E80079
:10551000877F8093E8008091E80080FFFCCF809136
:10552000ED028093F1008091E8008E778093E8008F
:105530000C94902C089584B7877F84BF0FB6F8949D
:10554000A89580916000886180936000109260004F
:105550000FBE90E080E80FB6F894809361009093BE
:1055600061000FBE0E944F170E94E22C0E943F2D47
:105570008091E20084608093E20078940E94D42FAE
:105580000E94571782E391E00E94E9168091380348
:10559000853069F40E948223809136038823B1F319
:1055A0000E946A23882391F30E943B2BEFCF0E9435
:1055B0006317ECCF0C94DC2A292F332723303105D5
:1055C000C9F060F42130310581F02230310509F055
:1055D0004AC08BE390E02CED35E049C02132310523
:1055E00011F12232310579F13EC082E190E027E1EC
:1055F00036E03DC099278130910561F040F082305E
:10560000910559F0039779F5E6E9F5E008C0E8ED72
:10561000F5E005C0E8ECF5E002C0ECE9F5E08491C6
:1056200090E09F0124C06115710541F06130710562
:10563000D1F489E090E027E036E019C089E090E0FD
:105640002EEE35E014C06115710541F06130710531
:1056500051F481E890E029E236E009C080E490E06E
:105660002AEA36E004C080E090E020E030E0FA0171
:1056700031832083089580E189BD82E189BD09B429
:1056800000FEFDCF8091D8008F7D8093D80080915F
:10569000E00082608093E0008091E00081FDFCCF1B
:1056A0000895CF92DF92EF92FF920F931F93CF93C3
:1056B000DF93EC018B017A010E94AF2C811133C082
:1056C000E114F10439F0F70180819181081B190B75
:1056D000C80FD91FC12CD12C0115110519F18091CA
:1056E000E80085FD16C08091E8008E778093E80081
:1056F000E114F10449F0F70180819181C80ED91EAF
:10570000D182C08285E00FC00E94AF2C882321F394
:105710000AC089918093F10001501109FFEFCF1A5F
:10572000DF0ADACF80E0DF91CF911F910F91FF90D8
:10573000EF90DF90CF90089520913F033091400388
:105740002617370748F06115710539F42091E800F4
:105750002E772093E80001C0B901FC0120E061151B
:10576000710579F1809138038823F1F18530F1F1E9
:105770008091E80083FD3CC08091E80082FD2EC04E
:105780008091E80080FFEBCF2091F3008091F20040
:1057900090E0922B6115710551F08830910538F435
:1057A00021912093F100615071090196F3CF21E01E
:1057B000089709F020E08091E8008E778093E80058
:1057C000CECF2111CFCF0AC080913803882361F05A
:1057D000853061F08091E80083FD0AC08091E80087
:1057E00082FFF2CF80E0089582E0089583E008957B
:1057F00081E0089520913F03309140032617370739
:1058000048F06115710539F42091E8002E77209356
:10581000E80001C0B901FC0120E06115710591F1BA
:1058200080913803882309F440C0853009F43FC0D3
:105830008091E80083FD3DC08091E80082FD2FC08B
:105840008091E80080FFE9CF2091F3008091F20081
:1058500090E0922B6115710559F08830910540F464
:1058600024912093F1003196615071090196F2CF95
:1058700021E0089709F020E08091E8008E7780937E
:10588000E800CBCF2111CCCF0AC080913803882308
:1058900061F0853061F08091E80083FD0AC080915D
:1058A000E80082FFF2CF80E0089582E0089583E06F
:1058B000089581E00895982F973068F59093E90056
:1058C000981739F07091EC002091ED005091F000A4
:1058D00003C0242F762F50E021FD02C09F5FECCF44
:1058E0003091EB003E7F3093EB003091ED003D7F37
:1058F0003093ED003091EB0031603093EB0070930A
:10590000EC002093ED005093F0002091EE0027FD75
:10591000E5CF80E008958F708093E90081E00895DD
:105920008091390387FF11C08091E80082FD05C096
:10593000809138038111F8CF11C08091E8008B77F6
:105940000BC080913803882349F08091E80080FFE4
:10595000F8CF8091E8008E778093E8000895209139
:10596000E4003091E50095E64091EC00842F8170D1
:1059700040FF23C08091E80080FD1DC08091380366
:10598000882399F0853099F08091EB0085FD11C056
:105990004091E4005091E5002417350729F3915018
:1059A00011F09A01E1CF84E0089582E0089583E048
:1059B000089581E0089580E008954091E80042FF55
:1059C000DDCF08950E94502D0E94582DE0EEF0E0AA
:1059D000808181608083E8EDF0E080818F77808333
:1059E00019BCA7EDB0E08C918E7F8C9380818F7E67
:1059F00080831092370308950F931F93CF93DF9303
:105A00000E94502D0E94582DC8EDD0E088818F77DC
:105A1000888388818068888388818F7D888319BC8A
:105A2000109238031092340310923603109235030B
:105A300000EE10E0F80180818B7F80838881816097
:105A4000888342E060E080E00E945B2CE1EEF0E0C1
:105A500080818E7F8083E2EEF0E0808181608083B0
:105A6000808188608083F80180818E7F8083888137
:105A700080618883DF91CF911F910F910895E8EDA8
:105A8000F0E080818F7E8083E7EDF0E080818160AF
:105A9000808384E082BF81E0809337030C94FC2CE8
:105AA000E8EDF0E080818E7F80831092E20008951F
:105AB0001092DA001092E10008951F920F920FB633
:105AC0000F9211242F933F934F935F936F937F9384
:105AD0008F939F93AF93BF93EF93FF938091E100D8
