:100000000C945E020C94A5020C94A5020C94A5021B
:100010000C94A5020C94A5020C94A5020C94A502C4
:100020000C94A5020C94A5020C941D1F0C94EF1FB8
:100030000C94251A0C94A5020C94A5020C94A5020C
:100040000C94A5020C94A5020C94A5020C94A50294
:100050000C94A5020C947E1A0C94A5020C94A50293
:100060000C94A5020C94A5020C94A5020C94A50274
:100070000C94A5020C94A5020C94A5020C94A50264
:100080000C94A5020C94A5020C94A5020C94A50254
:100090000C94A5020C94A5020C94A5020C94A50244
:1000A0000C94A5020C94A5020C94A502870F870F4F
:1000B000B90FB90F06102410451145112F10C410A7
:1000C000D510D5103511451145113E11F311F3111D
:1000D00005120512FC11051205120512F311F31198
:1000E00001120512051201125C2083207B2183205E
:1000F0007B21CF20F2207B214921582114001A00B6
:100100000800150017001C0018000C001200130056
:1001100004001600070009000A000B000D000E0085
:100120000F0034441D021B000600190005001100D9
:100130001000360037002843E000E200E3000151E0
:100140002A002C0002513800510052001E021F02EA
:100150002002210222022302240225022602270273
:100160002900EF00EE00ED00F000F100500051001A
:1001700052004F003500FB00FA00F900FC00F200CD
:1001800000004B004E002800E000E200E300010008
:100190002C002C0001000100010001001E001F00C6
:1001A0002000210022002300240025002600270033
:1001B000290000000000000000002D002E002F008C
:1001C000300034000000000000000000000031009A
:1001D00000004B004E002800E000E200E3000100B8
:1001E0002C002C00010038000000000029003A001B
:1001F0003B003C003D0049004B0052004E004C00CB
:100200002B003E003F00400041004A0050005100DA
:100210004F003400E10000000000000000004D002D
:100220000000000000002800E000E200E300000001
:100230002A002C000000000001000000290000003E
:100240000000000000000000F100ED00F2004C0092
:100250002B000000000000000000F900EF00EE009D
:10026000F000000000000000000000000000FA00A4
:10027000000000000000000001000100010001007A
:100280002A00000000000000000000000000000044
:10029000000000002A2B28000000000000000000E1
:1002A0000000000000000029000000002C1E342087
:1002B000212224342627252E362D3738271E1F20AD
:1002C0002122232425263333362E37381F040506F2
:1002D0000708090A0B0C0D0E0F1011121314151636
:1002E0001718191A1B1C1D2F3130232D3504050634
:1002F0000708090A0B0C0D0E0F1011121314151616
:100300001718191A1B1C1D2F3130354C0000000026
:1003100000000000000000000000000000000000DD
:1003200000000000000000000000000000000000CD
:100330007E0F00D4FFFFFFC70000007826035000A7
:100340003400300020004F007200740068006F001D
:1003500020004B006500790062006F0061007200B0
:10036000640000000E0350006100620069006C0030
:10037000650000000403090409023B00020100A01B
:10038000FA09040000010301010009211101000123
:100390002240000705810308000A09040100010347
:1003A00000000009211101000122B60007058203A7
:1003B00020000A120110010000000866666966014B
:1003C000000102000105010902A10185020901A144
:1003D00000050919012908150025019508750181F5
:1003E000020501093009311581257F9502750881C3
:1003F0000609381581257F950175088106050C0AC7
:1004000038021581257F950175088106C0C0050158
:100410000980A101850319012AB700150126B7003B
:10042000950175108100C0050C0901A10185041911
:10043000012AA002150126A002950175108100C0B5
:1004400005010906A1018505050719E029E7150041
:1004500025019508750181020507190029EF15008E
:10046000250195F0750181020508190129059505F9
:1004700075019102950175039101C005010906A15D
:1004800001050719E029E715002501950875018187
:10049000029501750881010507190029FF1500263D
:1004A000FF009506750881000508190129059505C5
:1004B00075019102950175039101C00011241FBEC1
:1004C000CFEFDAE0DEBFCDBF04B603FE27C08091D8
:1004D0007F0290918002A0918102B09182028730C8
:1004E000904BA740B04BD1F410927F021092800243
:1004F000109281021092820214BE84B7877F84BF5B
:100500000FB6F894A8958091600088618093600090
:10051000109260000FBEE0E0F8E3099511E0A0E062
:10052000B1E0E2E4F4E402C005900D92A638B10710
:10053000D9F722E0A6E8B1E001C01D92AF37B207BB
:10054000E1F70E94551C0C941F220C9400009C01A2
:100550003A9521153F4138F5DC01AA27B270AC016C
:10056000442754709C012227387094FF0FC090FFDD
:1005700002C080E101C080E0AB2B09F08062452B16
:1005800009F08064232B69F080680BC0892F81708B
:10059000AB2B09F08260452B09F08460232B09F016
:1005A0008860FB0109940895CF93DF93EC01805E8E
:1005B0009109089710F0209719F466E47FE002C0D3
:1005C00069EB71E1CE010E94A7028C2FDF91CF91E0
:1005D0000C949C0ECF93DF93EC010E94F20ECE019F
:1005E000805E9109089710F0209719F46DE47FE080
:1005F00002C060EC71E1CE01DF91CF910C94A702B3
:10060000CF93DF93EC010E94D402CE01DF91CF9112
:100610000C94EA0281E0089581E008950C940C03A3
:1006200008950C9410031F93CF93DF9300D000D054
:100630001F92CDB7DEB749835A836B833091B301E4
:1006400089819A81311114C0662359F0222349F01F
:100650000E942C17182F682F89819A810E94D51625
:1006600003C00E940017182F69817A81812F04C06E
:100670000E942C1769817A810F900F900F900F9034
:100680000F90DF91CF911F910C943D04FC01262F18
:10069000408151816281738184810C941303CF93D3
:1006A000DF93EC0160E00E944603BE01DF91CF9131
:1006B0000C9411030E946318811102C00E940A1950
:1006C0000E94320A0C9460060C945C0608950E9405
:1006D000E1110E9466032FEF84E39CE021508040EB
:1006E0009040E1F700C000000C94A41A0F931F93F0
:1006F000CF93DF93EC0161E00E9446038C01BE01C1
:100700000E940E03882379F1BE01C8010E94BA0A33
:10071000882349F1BE01C8010E944B0B882319F1BF
:10072000BE01C8010E949D0B8823E9F0BE01C801EB
:100730000E94C80C8823B9F08A81882369F00115CA
:100740008CE5180731F00F3D1C4531F40E940A1961
:100750000AC00E94670307C0CE01DF91CF911F91AD
:100760000F910C940A0380E0DF91CF911F910F91BC
:100770000895DF92EF92FF920F931F93CF93DF9331
:10078000E82FF0E0E457FD4FD490282F26952695CA
:10079000269530E0F901E45DFC4F0491877010E08C
:1007A000082E02C0159507950A94E2F701701127EB
:1007B000F901E45EFC4FE490F12C082E02C0F594A0
:1007C000E7940A94E2F791E0E922FF24F901E45F5B
:1007D000FC4FC491D0E002C0D595C7958A95E2F749
:1007E000C170DD270115110519F081EE0E949C0EE4
:1007F000E114F10419F086EE0E949C0E8D2D0E94EA
:100800003D0FEF2819F086EE0E94F20E012B19F031
:1008100081EE0E94F20ECD2B51F08CE2DF91CF9150
:100820001F910F91FF90EF90DF900C943D0FDF919F
:10083000CF911F910F91FF90EF90DF900895982F27
:100840009F709A50963010F0805D01C0895A0C94C8
:10085000B90308950C94290481E008950C942C04A4
:10086000CF93C82F0E942A048C2F0E942E04CF9170
:10087000089580E090E00895089528E2829FC001E5
:100880001124FC012AE0729FE00DF11D1124E60FF6
:10089000F11DEE0FFF1FE450FF4F859194910895D5
:1008A000880F991FFC01E45CFC4F85919491089599
:1008B000CF93DF930E943D040E947005EC018115E7
:1008C000904508F041C0C11580E4D80708F0D1C0B8
:1008D000C83ED10510F5C03ED10508F0FDC0C83AAC
:1008E000D10578F4C53AD10508F0A2C0C130D105D0
:1008F00009F4F2C008F4EEC0C430D10508F0ECC031
:10090000E9C0CF3BD10508F49BC0C03CD10508F439
:10091000E1C0CE01805C91099EC0C11590E2D9076B
:1009200058F4C11521E0D20708F0D6C0CD3ED1055C
:1009300008F4D0C0D065D0C0C11580E3D80708F056
:100940008EC0CE019F7087C0C11595E5D90708F00C
:1009500043C0C11524E5D20708F0A2C0C11582E545
:10096000D80708F5C11591E5D90708F085C0CE0173
:1009700074E0969587957A95E1F783709C2F937034
:1009800021E030E002C0220F331F9A95E2F73C6865
:10099000382BCF70C695C69580E2C89FE001112420
:1009A000C22BD32B99C09E01237033278C2F8695A1
:1009B0008695C115D34508F064C0C1E0D0E002C0FF
:1009C000CC0FDD1F2A95E2F720E2829FC00111249F
:1009D000C82BD92BDC6880C0C11529E5D207A0F44B
:1009E000C11588E5D80708F060C0C11596E5D9079C
:1009F00008F070C08C2F0E9404068F71C82FD0E0C1
:100A0000DC2FCC27D06268C0C1152AE5D20708F4D4
:100A100051C0CE0190568115904208F05BC08D2FD9
:100A20008F710E940406DD27D0628F71D82B54C0CD
:100A3000C55AD0E0CD5BDE4FC881D0E0D0644CC059
:100A4000C85AD0E0CC0FDD1FCB5EDE4F0990D881B5
:100A5000C02DD46441C00E945004EC013DC0CE01C1
:100A60009927D3FF03C0EC01D86C36C0EC01D06CE1
:100A700033C0DF70D06A30C0DC2FCC27C16FD06AA2
:100A80002BC0C1E0D0E002C0CC0FDD1F2A95E2F7F9
:100A900020E2829FC0011124C82BD92BDA681CC028
:100AA000DC2FCC27C46FD06A17C0DC2FCC27C06FD7
:100AB000D06A12C08C2F8F700E94040694E0D695E5
:100AC000C7959A95E1F7CF70D0E0DC2FCC27D0699D
:100AD000C82B02C0C0E0D0E0CE01DF91CF910895D5
:100AE0008238910569F1B0F48133910509F46DC044
:100AF00048F48932910509F463C08A32910509F4FA
:100B000069C008958533910509F455C0893391056D
:100B1000B9F00895833E910569F138F4803E91055E
:100B2000B1F0823E910509F10895863E9105A9F143
:100B3000873E9105B9F1843E910509F064C023C058
:100B40002091700220FD4FC021FD4DC0089580917D
:100B5000700280FD44C08091710280FF44C080918A
:100B6000700284FD42C083EE4DC08091700282FF0E
:100B700038C0F5CF8091700282FD33C08091710240
:100B800080FD31C0ECCF8091710281FF32C0809135
:100B9000700284FD2AC087EE35C08091700283FF09
:100BA00026C0F5CF8091700283FD21C08091710233
:100BB00081FD1FC0ECCF8091700285FD1CC01DC05F
:100BC0008091700285FD19C016C08091700286FD6B
:100BD00016C017C08091700286FD13C010C089E353
:100BE00011C082EE0FC080EE0DC080E00BC086EE1B
:100BF00009C084EE07C089E205C085E303C08AE22C
:100C000001C081E390E008959091700292FF0DC0C1
:100C1000282F2871283019F4877F846006C0282F78
:100C20002471243011F48B7F886093FF0DC0282F2E
:100C30002871283119F4877E846106C0282F247119
:100C4000243111F48B7E88612091710220FF0DC048
:100C5000382F3871383019F4877F816006C0382FFB
:100C60003171313011F48E7F886021FF0DC0282F43
:100C70002871283119F4877E816106C0282F2171DF
:100C8000213111F48E7E886194FD877E0895E82FCE
:100C9000F0E0EE0FFF1FE25AFD4F80819181089531
:100CA000089580EA8A95F1F7089500C008950C949C
:100CB000510608950C9459060C945A060C94590642
:100CC0000C945E06F894E82FE295EF70F0E031A105
:100CD000282F2F7081E090E001C0880F2A95EAF755
:100CE000982F9095932391A392A1892B82A3789416
:100CF00008950F931F93CF93DF9381E90E946206BB
:100D000080E90E94620684EF0E94620685EF0E94DD
:100D10006206C6E4D1E000E511E089910E94620616
:100D20000C171D07D1F7109257021092560210921D
:100D30005F0210925E0210925902109258021092B5
:100D400061021092600210925B0210925A0210929D
:100D500063021092620210925D0210925C02109285
:100D600065021092640284E00E944F07DF91CF91E8
:100D70001F910F910C945A037F928F929F92AF9282
:100D8000BF92CF92DF92EF92FF920F931F93CF9378
:100D9000DF9306E512E080E5E82E81E0F82EC0E062
:100DA000D0E0712CAA24A394B12C4701F7018081D3
:100DB000F894E82FE295EF70F0E021A18F70A50183
:100DC00002C0440F551F8A95E2F7CA01922F982B53
:100DD00091A392A18095892382A378940E945506BD
:100DE000E6E4F1E020E030E0C12CD12C4191A42FC9
:100DF000A295AF70B0E090968C9190E04F7002C0D9
:100E0000959587954A95E2F780FD08C0C501022EA9
:100E100002C0880F991F0A94E2F702C080E090E0B8
:100E2000C82AD92A2F5F3F4F2A303105F9F65FEFE4
:100E3000E51AF50AF40180810E946206C330D105EB
:100E400011F00E945706F80180819181C816D906D9
:100E500021F0D182C08281E001C080E0782A219611
:100E60000E5F1F4FC430D10509F09FCF272D44E0FE
:100E70006EE572E086E592E00E9450070E946403EE
:100E8000872DDF91CF911F910F91FF90EF90DF9011
:100E9000CF90BF90AF909F908F907F9008950895CE
:100EA000FF920F931F93CF93DF93F82E092F162FE6
:100EB000D72FC42F222349F081E080938A010E941A
:100EC000571A909389018093880180918A01882321
:100ED000D9F080918801909189010E946F1A06973C
:100EE00098F0EF2DF02FA12FBD2F80E090E04C2F38
:100EF00050E08417950734F4219131912D933D935F
:100F00000196F7CF10928A01DF91CF911F910F9137
:100F1000FF9008958091910180FF0BC060910501C1
:100F200085E0689FB0011124759567957595679563
:100F30002BC081FF09C06091050185E0689FB00169
:100F400011247595679520C082FF07C06091050147
:100F500085E0689FB001112417C0909190019923FA
:100F6000D1F060910401961788F72091050185E082
:100F7000289F90011124929FA001939F500D11244E
:100F800070E0CA010E94AF216038710540F461151C
:100F9000710519F406C065E070E0862F08958FE7AB
:100FA000089581E008958091910180FF08C06091CB
:100FB000010170E0759567957595679521C081FF72
:100FC00006C06091010170E07595679519C082FFB8
:100FD00004C06091010170E010C090918F019923CD
:100FE00099F0609100019617A0F780910101899F07
:100FF000C001112470E00E94AF216038710540F4F7
:101000006115710519F406C061E070E0862F08953E
:101010008FE7089581E008958D3E21F40E948A07AC
:10102000819504C08E3E29F40E948A078093950121
:1010300008958F3E21F40E948A07819504C0803F65
:1010400029F40E948A07809394010895893F19F436
:101050000E94D30705C08A3F31F40E94D3078195CF
:101060008093960108958B3F21F40E94D3078195C8
:1010700004C08C3F29F40E94D30780939701089500
:101080009FE0980F983078F421E030E0A90102C089
:10109000440F551F9A95E2F7CA0190919301892B4D
:1010A0008093930108958D3F21F480919101816097
:1010B0000BC08E3F21F480919101826005C08F3F6B
:1010C00029F48091910184608093910108958D3E6F
:1010D00039F49091950197FF35C01092950159C050
:1010E0008E3E29F4909195011916BCF32BC0909176
:1010F00094018F3E29F497FF25C01092940149C0B6
:10110000803F19F41916CCF31DC090919601893FC8
:1011100029F41916BCF4109296013BC08A3F19F4C9
:1011200097FF10C0F8CF8B3F39F49091970197FF4C
:1011300009C0109297012DC08C3F21F49091970126
:101140001916BCF39FE0980F983080F421E030E04E
:10115000A90102C0440F551F9A95E2F7CA01809574
:101160009091930189238093930113C08D3F21F4C3
:10117000809191018E7F0BC08E3F21F4809191016F
:101180008D7F05C08F3F29F4809191018B7F8093E3
:10119000910180919401811106C080919501811186
:1011A00002C01092900180919601811106C0809139
:1011B0009701811102C010928F0108950E94571A61
:1011C00020919401211104C020919501222321F046
:1011D00090938E0180938D0120919601211104C07E
:1011E00020919701222321F090938C0180938B0111
:1011F00082E991E00C94310DEF92FF920F931F93CF
:10120000CF93DF9300D000D000D0CDB7DEB786E01B
:10121000E2E9F1E0DE01119601900D928A95E1F785
:10122000E0909401F0909501009196011091970142
:1012300010929401109295011092960110929701CC
:10124000E11003C0FF2009F45DC080918D019091F1
:101250008E010E946F1AAC0190919001992339F090
:101260002091060130E02417350758F04BC020913B
:1012700007018AE0289F900111242417350718F0F0
:1012800041C09F3F19F09F5F90939001EE2061F065
:101290000E948A071E1414F09FEF01C091E0989FEE
:1012A000902D112490939401FF2061F00E948A07F1
:1012B0001F1414F09FEF01C091E0989F902D11240E
:1012C00090939501309194013323E1F020919501A1
:1012D0002223C1F045EB3403C0011124992319F0F6
:1012E0009093940103C081E08093940135EB230334
:1012F000C0011124992319F09093950103C081E056
:1013000080939501011103C0112309F45DC0809100
:101310008B0190918C010E946F1AAC0190918F010A
:10132000992339F02091020130E02417350758F055
:101330004BC0209103018AE0289F900111242417BB
:10134000350718F041C09F3F19F09F5F90938F01C0
:10135000002361F00E94D307101614F09FEF01C024
:1013600091E0989F902D112490939601112361F0A4
:101370000E94D307111614F09FEF01C091E0989FCF
:10138000902D112490939701309196013323E1F031
:10139000209197012223C1F045EB3403C0011124B1
:1013A000992319F09093960103C081E080939601F0
:1013B00035EB2303C0011124992319F09093970171
:1013C00003C081E0809397018091940181110BC04B
:1013D00080919501811107C080919601811103C010
:1013E0008091970181110E94DE08EB82FC820D83BF
:1013F0001E8386E0FE013196A2E9B1E001900D92D4
:101400008A95E1F726960FB6F894DEBF0FBECDBFE2
:10141000DF91CF911F910F91FF90EF900895E2E936
:10142000F1E086E0DF011D928A95E9F710929001C4
:1014300010928F01109291010895CF93DF9397FF3F
:101440000DC0FB012281222349F0EC010E94480AD1
:10145000CE019F770E949F0A0E94810A81E0DF915E
:10146000CF9108958CE090E00E94DD2190E0A0E013
:10147000B0E08093660290936702A0936802B093F5
:1014800069020895609166028CE090E00C94EB2173
:101490000E940A0D8695817080936B02909166027E
:1014A000913029F4882319F089E30E943D0F0E94AE
:1014B000AD1780936A020E94C01780916602813046
:1014C00071F048F0823081F08430A1F486EE0E9401
:1014D0003D0F88E10DC082EE0E949C0E0BC088E19A
:1014E00093E00E94000306C082EE0E949C0E87E5F6
:1014F0000E943D0F8FE39CE90197F1F700C00000C7
:10150000089580916602813039F078F0823069F078
:10151000843089F488E20DC08CE20E943D0F8091F6
:101520006B02882341F089E304C082EE0E94F20E30
:1015300002C00E943D0F80916A020C94BD170F9368
:101540001F93CF93DF938C01CCE0D0E0C8010C2E29
:1015500002C0969587950A94E2F78F700E941F0447
:101560002497CC3F8FEFD80789F7DF91CF911F9158
:101570000F9108950F931F93CF93DF93EC018B018D
:10158000FB018281882361F00E94AD17CE01825E4B
:101590009C458530910520F4809366020E94420AA2
:1015A000B801CE01DF91CF911F910F910C941D0ACC
:1015B0000F931F93CF93DF93C42FD22FFC0182810F
:1015C0008823C9F040939A010E94571A9093990179
:1015D0008093980180E28C0F883008F057C0C77064
:1015E00081E001C0880FCA95EAF7DF91CF911F9182
:1015F0000F910C94460F80919A01481330C080914E
:101600009801909199010E946F1A883C910538F5D4
:1016100010E21D0FCD17B9F080E28C0F883040F436
:10162000C77081E001C0880FCA95EAF70E944D0F8C
:10163000183028F581E09D2F977001C0880F9A958A
:10164000EAF70E94460F802F0E943D0F1830F0F4F9
:10165000D77081E001C0880FDA95EAF70AC080E20E
:101660008C0F883098F4C77081E001C0880FCA954C
:10167000EAF7DF91CF911F910F910C944D0F802FBE
:10168000DF91CF911F910F910C943D0FDF91CF917E
:101690001F910F9108950F939C01CB01243F4CE5BE
:1016A000340731F188F4293DFCE53F07D9F02A3DA4
:1016B0004CE5340779F1283D3C45A9F506E221EED9
:1016C00041EE68ED7CE52BC0263FFCE53F07E1F0ED
:1016D000A8F0273F3C4539F507E225EE46EE67EFD7
:1016E0007CE51DC007E225EE45EE69ED7CE517C0FF
:1016F00006E221EE40EE64EF7CE511C007E225EE44
:1017000044EE65EF7CE50BC006E221EE42EE66EFAB
:101710007CE505C008E221E045EE6AED7CE50E942B
:10172000D80A80E008C0FC018281882319F0109259
:101730009A0101C081E00F910895CF93DF93EC01EE
:10174000FB018281882309F41FC1C230FCE5DF0759
:1017500008F41BC1C6319CE5D90738F09E012B5F08
:101760003C452930310508F010C10E94761890934D
:10177000710280937002C031ECE5DE0709F4C3C04A
:1017800008F041C0C8308CE5D80709F49AC0F0F4DD
:10179000C430ECE5DE0709F487C068F4C2308CE59C
:1017A000D80709F477C0C330DC4509F0E3C0809165
:1017B0007002826076C0C630ECE5DE0709F46EC0C8
:1017C00008F07BC08091700288606BC0CC308CE5E3
:1017D000D80709F485C068F4CA30ECE5DE0709F4DF
:1017E00074C008F079C00E94E11180917002806895
:1017F00058C0CE308CE5D80709F476C008F07FC019
:10180000809170028BC0CC3FECE5DE0709F44FC03D
:1018100018F5C3318CE5D80709F47DC078F4C131DF
:10182000ECE5DE0709F473C0C231DC4509F0A2C063
:101830000E94E111809170028F7733C0C5318CE531
:10184000D80709F472C008F486C0CB3FDC4509F024
:1018500091C0809171023EC0C115FDE5DF0709F41A
:101860005FC058F4CE3F9CE5D90709F444C008F4A2
:101870003FC08091710282602DC0C230FDE5DF075C
:1018800009F475C008F45DC0C330DD4509F072C0CD
:1018900080E06EC080917002816003C08091700210
:1018A00080618093700266C08091700211C0809147
:1018B00071028260809371025DC0809170028062CB
:1018C000F0CF809170028064ECCF809170028860CC
:1018D0008460E7CF8160EECF809170028E7FE1CF90
:1018E000809170028D7FDDCF80917002877FD9CF8C
:1018F0008091710218C0809171028D7FDBCF809141
:1019000070028F7ECECF809170028F7DCACF809182
:1019100070028F7BC6CF80917002877F8B7FC1CF93
:10192000809171028D7F8E7FC5CF8091700282FB86
:10193000222720F991E0922790FB82F990FB83F90E
:10194000B0CF80917102982F909591708E7F892BE6
:1019500090FB81F9AFCF0E94E1118091700287FB6B
:10196000222720F991E0922790FB87F99ACF81E016
:101970000E940C1980917002909171020E94871848
:101980000E94E11180E001C081E0DF91CF910895D4
:10199000CF93DF9386319C4541F5EB010E94AD1753
:1019A000982F8A812091080130910901882379F0CC
:1019B0009A7A81E009F480E080939B01911102C042
:1019C00069E201C065E3C9010E94A7190AC08091BC
:1019D0009B01811102C069E201C065E3C9010E9457
:1019E000B2190E94FE1780E001C081E0DF91CF9123
:1019F00008959093A1018093A0010895E091A00122
:101A0000F091A101309721F00190F081E02D09942F
:101A100080E00895E091A001F091A101309711F4C8
:101A200080E008950190F081E02D09950895E091FE
:101A3000A001F091A101309799F020911401222387
:101A400059F02091700227FF07C0DC012C911196FC
:101A50002C93119725E02C930280F381E02D0994BB
:101A60000895E091A001F091A101309739F022E0B2
:101A7000DC012C930480F581E02D099408952091D8
:101A80009E0130919F012817390771F090939F01B3
:101A900080939E01E091A001F091A101309721F087
:101AA0000680F781E02D0994089520919C013091E2
:101AB0009D012817390771F090939D0180939C0137
:101AC000E091A001F091A101309721F00084F1850F
:101AD000E02D099408950E94631A6093AF017093FA
:101AE000B0018093B1019093B2016093AB01709308
:101AF000AC018093AD019093AE01089585B78068E5
:101B000085BF85B7806885BF089581E008950C94EE
:101B1000850D08950C94890D0C94890D0C948C0DF1
:101B20000C94890D0C94900D0C94890D0E947E0DDF
:101B300081E698E10E94B51A0E94940D0C94920DD2
:101B40000E944E1A0E9479060E94BA1A0C948E0DB9
:101B50006F927F928F929F92AF92BF92CF92DF92BD
:101B6000EF92FF920F931F93CF93DF93CDB7DEB722
:101B70002A970FB6F894DEBF0FBECDBF0E948A0D24
:101B80000E94890D0E94BC0681110E946B0D33EAF0
:101B9000832E31E0932E00E010E0C02E802F0E94B3
:101BA00047065C01F401619071904F016826792627
:101BB00061147104B1F40F5F1F4F0430110569F710
:101BC0008FEF89838A831B820E94571A8160782F46
:101BD0009D838C8349815A816B818D810E94620E25
:101BE0003AC08091320281FD0E945006D12CEE2431
:101BF000E394F12CC3018E219F21892B29F10E94AE
:101C0000870D8823A9F0DE82CF82AE20BF2081E03D
:101C1000AB2809F480E088870E94571A8160782FEA
:101C20009A8789874E815F8168858A850E94620EC6
:101C3000000F111FF801ED55FE4F80819181E826BC
:101C4000F926F182E08207C0D394EE0CFF1CFAE083
:101C5000DF12D0CFB0CF0E94FC080E94FE0C909102
:101C6000A2018917D1F00E94FE0C8093A2012A964E
:101C70000FB6F894DEBF0FBECDBFDF91CF911F919D
:101C80000F91FF90EF90DF90CF90BF90AF909F901B
:101C90008F907F906F900C9430042A960FB6F89432
:101CA000DEBF0FBECDBFDF91CF911F910F91FF908F
:101CB000EF90DF90CF90BF90AF909F908F907F90EC
:101CC0006F900895DF92EF92FF920F931F93CF933F
:101CD000DF93CDB7DEB72B970FB6F894DEBF0FBEFC
:101CE000CDBFF42E052F162FE72ED82E61110E949E
:101CF000D017FE01319686E0DF011D928A95E9F743
:101D00007E2D4F2D502F612F8D2D9E810E949A1474
:101D10002B960FB6F894DEBF0FBECDBFDF91CF91EB
:101D20001F910F91FF90EF90DF900895FC0180814B
:101D300091810E946E170895CF93882309F450C0B3
:101D4000C82F8CEF8C0F813AD0F46C2F8091080152
:101D5000909109010E942719882349F06C2F8091E6
:101D60000801909109010E94B2190E94FE176C2F80
:101D700080910801909109010E94A7190CC080E28E
:101D80008C0F883058F4C77081E001C0880FCA9565
:101D9000EAF70E94B017CF910C94FE17EBE5EC0F19
:101DA000E33040F4F0E0EE57FE4F808190E0CF91B9
:101DB0000C943F0DE8E5EC0FE73150F4F0E0EE0F46
:101DC000FF1FEC5AFE4F80819181CF910C94550DED
:101DD000CD3E30F08C2F0E940C08CF910C94DE0881
:101DE000CF910895882389F19CEF980F913A40F4A0
:101DF000682F80910801909109010E94B2190DC0CD
:101E000090E2980F983058F4877091E001C0990FD4
:101E10008A95EAF7892F0E94B6170C94FE179BE566
:101E2000980F933020F480E090E00C943F0D98E5FB
:101E3000980F973120F480E090E00C94550D8D3E82
:101E400020F00E9467080C94DE0808951F93CF933A
:101E5000DF93182FEB010E949C0E209741F08FE931
:101E60009FE00197F1F700C000002197F6CF812F86
:101E7000DF91CF911F910C94F20E893319F060E03D
:101E800070E002C060E570E00C94260F882321F01A
:101E90000E94B0170C94FE170895882321F00E9429
:101EA000B6170C94FE170895CF92DF92EF92FF922F
:101EB0000F931F93CF93DF937C01062FC72FFC0155
:101EC000D281158112951F700E94A617882399F060
:101ED000DD2389F08C2F807F803421F080E2800F19
:101EE000883048F082E00E9448180E94A61791E0CE
:101EF000D82ED92601C0D12CCC2EC2948FE0C82276
:101F00008C2D90E0FC01EA5AFF4F0C94C3218C2FDA
:101F1000807FCF70882311F0C295C07FDD2399F0B8
:101F2000CC2309F48DC180E2800F883010F00111BC
:101F300004C08C2F0E94B01703C08C2F0E94C317BF
:101F40000E94FE177DC1802F0E94F20ECC2309F45F
:101F50009CC180E2800F883010F0011104C08C2FEA
:101F60000E94B61703C08C2F0E94C9170E94FE174B
:101F70008CC18C2F807FCF70803211F0C295C07FD2
:101F8000002319F00130C9F022C0DD2371F01123C4
:101F900041F0113031F40E94E3178C2B0E94EB17B3
:101FA00074C10E94E3178C2B1DC0112319F011304E
:101FB00009F46BC10E94F41725C0DD2321F016300F
:101FC00008F063C10EC0153008F05FC11BC0DD23EF
:101FD00061F0112331F0F701858180FF31C18F70ED
:101FE00085838C2F0E94460F50C1112359F009336D
:101FF00009F037C1FFEF27EE83E0F1502040804029
:10200000E1F72DC18C2F0E944D0F3FC18C2F86957B
:102010008695837019F0813061F037C1DD2321F09E
:10202000802F9C2F937002C080E090E00E943F0DB3
:1020300034C1DD2321F0802F9C2F937002C080E0FB
:1020400090E00E94550D29C1802FDD2319F00E94D8
:102050000C0802C00E9467080E94DE081EC18C2F77
:10206000837009F045C0D11114C1402F42954695A7
:102070004770440F440F602F6F70862F90E0A0E0F0
:10208000B0E0042E04C0880F991FAA1FBB1F0A943A
:10209000D2F704FF10C00FE010E020E030E004C0F1
:1020A000000F111F221F331F4A95D2F7009510957C
:1020B0002095309503C000E010E09801C695C695C4
:1020C000C370BC01CD01602B712B822B932BC230CE
:1020D00049F058F4C13019F00E94EB15DAC00E94A3
:1020E000D915D7C00E94FD15D4C00E94D715D1C004
:1020F000DD2319F08C2F817001C08695882309F4A7
:10210000C8C0402F429546954770440F440F602F3A
:102110006F70862F90E0A0E0B0E0042E04C0880F1E
:10212000991FAA1FBB1F0A94D2F704FF10C00FE02B
:1021300010E020E030E004C0000F111F221F331F09
:102140004A95D2F7009510952095309503C000E090
:1021500010E09801C695C695C370BC01CD01602BF7
:10216000712B822B932BC23049F058F4C13019F0F7
:102170000E94B0168EC00E949E168BC00E94C2168E
:1021800088C00E94111685C0CF70DD2339F08C2FD6
:102190000E943716802F0E94460F7BC0802F0E941E
:1021A0004D0F8C2F0E94581674C0023F01F128F485
:1021B000003F41F0013FA1F03FC0033FF9F0043F71
:1021C00039F13AC0DD2341F0153008F05EC08C2FA4
:1021D0008F710E947D1659C0163008F056C0F7CF97
:1021E000DD2339F08C2F8F710E9437164EC0DD230E
:1021F000C9F38C2F8F710E94581647C0DD2329F038
:102200008C2F8F710E94221640C00E941D163DC067
:10221000DD2349F0CF718C2F0E94371663E08C2F9D
:102220000E94331832C081E00E944818123068F1D1
:1022300082E00E94481829C0DD2331F0112391F279
:10224000802F0E949C0E21C0112399F2093349F47A
:102250009FEFE7EEF3E09150E040F040E1F700C07F
:102260000000802F0E94F20E10C04C2F4F70602F84
:10227000C7010E9439040E9448150FC04C2F4F70AF
:10228000602FC7010E943C0408C088EF8C0D843089
:1022900020F40E94FE0C0E943004DD20C9F00E9450
:1022A000A21780FD15C0F70112820E949C170E94A0
:1022B0003716C7010E9489110E949C17DF91CF91A8
:1022C0001F910F91FF90EF90DF90CF900C945816D4
:1022D000DF91CF911F910F91FF90EF90DF90CF9002
:1022E00008950F931F93CF93DF93EC016881798159
:1022F0008A810E9479178C010E94D4160E94C5150C
:10230000B801CE010E94540FDF91CF911F910F9120
:102310000895CF93DF93EC01988189812B813C81D3
:10232000232B31F08F3F31F481E09F3F19F403C03C
:1023300081E001C080E080FD19C0CE010E947603DB
:1023400081110CC00E94A617882381F08A818823FE
:1023500069F082E0DF91CF910C944818CE010E9481
:102360007111CE01DF91CF910C944F03DF91CF918A
:102370000895882321F00E94C3170C94FE17089536
:10238000882321F00E94C9170C94FE17089580E05D
:1023900090E00E943F0D80E090E00E94550D0E9469
:1023A000D0170E94E0170E94FE170E940F0A0C949B
:1023B000DE0880910801909109010E94BD190C94DA
:1023C000C7110E94C0170C94D911E92FE295EF7044
:1023D0004E2F50E0FA013297EE30F105B0F4EA5991
:1023E000FF4F0C94C321803F91F018F4883E68F4AD
:1023F0000EC0843F51F40BC0883E48F0813F29F461
:1024000006C093FB882780F9089580E0089581E055
:1024100008950E946E170E94E5110895CF93DF93EF
:1024200000D000D01F92CDB7DEB70F900F900F9065
:102430000F900F90DF91CF910895CF93DF9300D04D
:1024400000D000D0CDB7DEB726960FB6F894DEBF29
:102450000FBECDBFDF91CF9108951F93CF93DF9330
:10246000C091B40116E08091B501C81799F0D0E091
:102470001C9FF0011D9FF00D1124EA54FE4F408176
:10248000518162817381848195810E941D12219600
:10249000C770E9CFDF91CF911F9108954091E60178
:1024A0005091E7016091E8017091E9018091EA01A2
:1024B0009091EB010C941D120F931F93CF93DF9318
:1024C0008091EB0182958F7009F05DC08091E801E9
:1024D000882309F458C08091B4011091B50160912E
:1024E000E6017091E701C091E901D091EA0191E024
:1024F0006F3F09F090E0292F06E0811709F443C0EF
:10250000209721F07F3F21F030E003C031E001C08F
:10251000322F90E030FD34C0089FF001099FF00D8C
:102520001124DF01AA54BE4F11963C911197371325
:1025300027C03C91361324C012963C91129731115A
:102540001FC013964D915C9114974C1B5D0B483C3A
:102550005105B0F48091EB018F7080618093EB01A5
:10256000E554FE4F80818F708061808386EE91E01C
:102570000E948911DF91CF911F910F910C942D1220
:1025800001968770BACFDF91CF911F910F91089577
:102590009F92AF92BF92CF92DF92EF92FF920F93F2
:1025A0001F93CF93DF93CDB7DEB761970FB6F89443
:1025B000DEBF0FBECDBF8C0185E0F801DE011D96A8
:1025C00001900D928A95E1F7F80140815181E280F6
:1025D0009091E6016091E7012091E9013091EA01D3
:1025E0002115310531F06F3F31F481E09F3F19F43F
:1025F00003C081E001C080E0F82FF1709F2E80FDC4
:1026000046C1F801A380B48086EEC82E81E0D82EA2
:10261000F090E801F501E21BF30BFF2009F4DFC0A5
:102620008091EB01E83CF10508F09BC0282F207F4A
:1026300009F052C0561313C0491311C0FE2CE1100B
:102640000EC08F7080618093EB010E944E12C60114
:102650000E9489118091EB01F801858358C1AB2854
:1026600031F05F3F31F481E04F3F19F403C081E066
:1026700001C080E080FD03C081E08E2502C080E0C3
:1026800090E0F82FF170FF2E80FF1CC08091B40104
:102690002091B50136E0821709F417C190E0389F08
:1026A000F001399FF00D1124EA54FE4F6181561359
:1026B00006C06081461303C06281E61203C0019622
:1026C0008770E9CFFE2CEE2009F421C18091EB0147
:1026D00081608093EB015AC0561306C0491304C0B1
:1026E000E11002C0F8019FC04D875E878D859E85F1
:1026F0000E940912882379F1EE2069F12091EB0103
:10270000822F82958F7090E0029774F08091E6019D
:102710009091E70198878F831986BB86AA862C87BC
:10272000CE0107960E94891186E0F801A6EEB1E07D
:1027300001900D928A95E1F70E945C120E944E1260
:102740000DC0561729F14D875E878D859E850E94A5
:10275000091281112CC0C8010E948911FF24F39431
:10276000D6C0282F207F69F77A2DB98AA88A6E2DC6
:1027700089890E940E1286EE91E00E94891186E0FE
:10278000F60111928A95E9F70E944E12F12CBFC012
:102790004913D9CFE110D7CFF8018583C8010E9432
:1027A000891186E0F60111928A95E9F7B0C0EE2012
:1027B00091F22091EB01822F82958F7090E0029729
:1027C0000CF4B2CF8091E6019091E7019A8389835E
:1027D0001B82BD82AC822E83CE010196A3CFE83C42
:1027E000F10508F047C0FE2CEE2009F4B4CF5613D3
:1027F00030C049132EC02091EB0120FD21C0822F53
:1028000082958F70482F50E041155105C9F0F801AD
:1028100025834F30510541F08F5F982F9295907F1F
:10282000822F8F70892B8583C8010E94891186E0D1
:10283000F801A6EEB1E001900D928A95E1F742C051
:1028400086E0F801A6EEB1E001900D928A95E1F7DD
:102850005EC04D875E878D859E850E94091281111D
:1028600063CF8091EB0181608093EB01C8010E94EE
:1028700089114DC07A2DB98AA88A6E2D89890E9446
:102880000E1286E0F60111928A95E9F71BC0EE2040
:1028900009F461CF4D875E878D859E850E94091260
:1028A000F82E882309F457CF86E0F801A6EEB1E0B0
:1028B00001900D928A95E1F786EE91E00E94960EC6
:1028C0000E945C120E944E1222C04D875E878D8549
:1028D0009E850E946E17292F22952F70223028F492
:1028E0009F7039F0811105C00BC0243028F49F700F
:1028F00049F4805E883020F0C8010E9489119F2C25
:10290000F92C05C0F8019581907F99F7F9CF8F2DAB
:1029100061960FB6F894DEBF0FBECDBFDF91CF91A9
:102920001F910F91FF90EF90DF90CF90BF90AF90ED
:102930009F9008951F93CF93DF93CDB7DEB72C9769
:102940000FB6F894DEBF0FBECDBF4F83588769879F
:102950007A878B879C87CE0107960E94C8128823AE
:10296000D1F09F8188852A853B85232B31F08F3FCD
:1029700031F481E09F3F19F403C081E001C080E0A1
:1029800080FD47C04F81588569857A858B859C85F8
:102990000E941D123EC086E0FE013796DE011196B0
:1029A00001900D928A95E1F7FF81E8856A857B8524
:1029B0006115710531F0EF3F31F481E0FF3F19F40B
:1029C00003C081E001C080E080FD23C02091B501FB
:1029D00030E0C9010196877099274091B40150E019
:1029E00084179507F1F1F983EA837D836C8396E080
:1029F000929FD001939FB00D1124AA54BE4FFE01A7
:102A0000319601900D929A95E1F78093B5010E945D
:102A10002D1216E08091B4019091B501891771F1E2
:102A2000189FC00111248A549E4F0E94C812882307
:102A300029F1E091B4011E9FF0011124EA54FE4FE8
:102A40004081518162817381848195810E941D1230
:102A50008091B40190E00196877099278093B4012A
:102A6000D9CF0E94E1111092B5011092B401E6EEA7
:102A7000F1E086E0DF011D928A95E9F72C960FB60A
:102A8000F894DEBF0FBECDBFDF91CF911F910895A7
:102A9000EF92FF920F931F93CF93DF938C01892BBB
:102AA00009F46CC0F12CEE24E394E8012196F801BE
:102AB0008491843740F4843008F051C0813081F033
:102AC000823019F15BC0853709F444C0A8F19CE756
:102AD000980F903708F052C08F770E94F20E41C0D5
:102AE0000E5F1F4FFE01849190E2980F983050F4D2
:102AF0008770FE2D01C0FF0F8A95EAF78F2F0E9485
:102B0000D31714C00E949C0E2DC00E5F1F4FFE01F4
:102B1000849190E2980F983060F48770FE2D01C088
:102B2000FF0F8A95EAF78F2F0E94D9170E94FE1790
:102B300019C00E94F20E16C00E5F1F4FFE01C49115
:102B4000CC2381F08FE99FE00197F1F700C00000EE
:102B5000C150F6CF0E5F1F4FFE01F49003C00E94DC
:102B60009C0E8E018F2D882309F49FCFEFE9FFE0A3
:102B70003197F1F700C000008150F5CFDF91CF9180
:102B80001F910F91FF90EF900895089508950C9470
:102B9000C6150C94C7150E94C9156093090270935D
:102BA0000A0280930B0290930C020C94C7110C94B0
:102BB000CB150F931F930091090210910A022091E7
:102BC0000B0230910C02602B712B822B932B1F91E7
:102BD0000F910C94CB150F931F9300910902109144
:102BE0000A0220910B0230910C0260237123822390
:102BF00093231F910F910C94CB150F931F9300916A
:102C0000090210910A0220910B0230910C026027F8
:102C10007127822793271F910F910C94CB150C9449
:102C2000C6150E940F1660930502709306028093EA
:102C30000702909308020C94C71160E070E0CB018A
:102C40000C9411160F931F9341E050E060E070E088
:102C50008A019B0104C0000F111F221F331F8A9598
:102C6000D2F7C901B8011F910F910C9411160F935F
:102C70001F9341E050E060E070E004C0440F551F36
:102C8000661F771F8A95D2F7809105029091060200
:102C9000A0910702B09108028A019B01082B192B11
:102CA0002A2B3B2BC901B8011F910F910C941116CF
:102CB0000F931F9341E050E060E070E004C0440FC8
:102CC000551F661F771F8A95D2F7409550956095DE
:102CD00070958091050290910602A0910702B09133
:102CE00008028A019B01082319232A233B23C901D7
:102CF000B8011F910F910C9411160F931F9341E08F
:102D000050E060E070E004C0440F551F661F771F5D
:102D10008A95D2F78091050290910602A091070250
:102D2000B09108028A019B01082719272A273B270F
:102D3000C901B8011F910F910C9411160F931F93A5
:102D400000910502109106022091070230910802BD
:102D5000602B712B822B932B1F910F910C941116CA
:102D60000F931F9300910502109106022091070214
:102D70003091080260237123822393231F910F91C6
:102D80000C9411160F931F930091050210910602E7
:102D9000209107023091080260277127822793272C
:102DA0001F910F910C94111608952AE0929F800DA7
:102DB0001124E82FE695E695E695877051E001C06D
:102DC000550F8A95EAF785E0E89FF0011124E45158
:102DD000FE4F20E030E070E04081CB01022E02C0C7
:102DE000969587950A94E2F78170819584278523CB
:102DF000842781932F5F3F4F2530310569F7089570
:102E00002AE0929F800D1124682F6695669566953D
:102E1000982F977085E0689FB001112440E050E042
:102E200080E0FB01E40FF51FE451FE4F208130E00C
:102E3000092E02C0369527950A94E2F721703327B0
:102E4000042E01C0220F0A94EAF7822B4F5F5F4FD6
:102E50004530510531F70895BF92CF92DF92EF923E
:102E6000FF920F931F93CF93DF938C01C0900502C5
:102E7000D0900602E0900702F090080280910902CB
:102E800090910A02A0910B02B0910C02C82AD92A93
:102E9000EA2AFB2ACFE1D0E0D701C6010C2E04C0FC
:102EA000B695A795979587950A94D2F780FD04C0AB
:102EB000219790F7B12C07C0BC2EB8018C2F0E942F
:102EC00058040197A9F38B2DDF91CF911F910F919A
:102ED000FF90EF90DF90CF90BF900895CF93DF9356
:102EE000EC010E942C17BE010E945804DF91CF9183
:102EF00008951F93CF93DF93EB019091B301992332
:102F000021F0CB010E946E1713C0882349F0CB013A
:102F10000E942C17182F682FCE010E94D51604C0CE
:102F2000CB010E940017182FBE01812F0E94580468
:102F3000DF91CF911F91089580910D028595859520
:102F40008595089580910D028770089590910D02E6
:102F5000977081E009F480E008958091310208952E
:102F600090913102892B8093310208958095909140
:102F700031028923809331020895809331020895AC
:102F800010923102089590913002892B8093300283
:102F9000089580959091300289238093300208959E
:102FA00010923002089590912F02892B80932F0266
:102FB0000895809590912F02892380932F02089580
:102FC00010922F02089580910E02089508950C9496
:102FD000E6170C94E71790910E02981721F0809352
:102FE0000E020C94E917089580910E02882329F0AF
:102FF00010920E0280E00C94E9170895E091080108
:10300000F0910901809131028083E0910801F091F3
:103010000901908180913002892B8083E091080121
:10302000F0910901908180912F02892B80838091FA
:103030000E02882381F0E0910801F091090190814E
:10304000892B808380910801909109010E941119B8
:1030500081110E94F41780910801909109010C944C
:10306000170D0C94E61798E0899F90011124262BE8
:1030700020930D020E94371680910D02859585954B
:1030800085950C94311810920D0280E00C94311843
:1030900020910D028095822380930D02982F9770C6
:1030A00079F430E0482F082E000C550B2417350713
:1030B00039F08595859585950E9458160C9443188E
:1030C000089580E0089580E090E00E94E52121E0ED
:1030D0008B3E9E4F09F020E0822F089582E090E021
:1030E0000C94DD2183E090E00C94DD21CF9384E00B
:1030F00090E00E94DD21C82F81E290E00E94DD2156
:103100002C2F30E0A901582BCA01CF910895CF93FD
:10311000C92F682F84E090E00E94EB216C2F81E2A0
:1031200090E0CF910C94EB21AB01BC018FE090E0DB
:103130000C94FD21AB01BC0183E190E00C94FD21D6
:1031400060E070E0CB010C949A1860E070E0CB0175
:103150000E9494180C94A0186BEE7EEF80E090E033
:103160000E94092260E082E090E00E94EB2160E092
:1031700083E090E00E94EB211092090210920A0273
:1031800010920B0210920C0260E084E090E00E942A
:10319000EB2160E081E290E00E94EB2160E085E0BD
:1031A00090E00E94EB2160E086E090E00E94EB213D
:1031B0006FEF87E090E00E94EB2140E050E0BA0121
:1031C00088E090E00E94FD2160E08DE090E00E94A8
:1031D000EB2140E050E0BA0188E190E00E94FD213F
:1031E00060E087E190E00E94EB2140E050E0BA010E
:1031F0008CE190E00E94FD2160E080E290E00E947E
:10320000EB2140E050E0BA0188E190E00E94FD210E
:103210000C94A5180C94AC18682F8EE090E00C94D8
:10322000EB21FC01329680911401882331F08091CA
:10323000700287FF02C09EE101C096E080E09150DD
:1032400028F021912223D9F38F5FF9CF08956623C7
:1032500051F1209114012223E9F02091700227FFFF
:1032600019C0462F4695469546954E31E0F4677055
:1032700021E030E002C0220F331F6A95E2F7FC0123
:10328000E40FF11D828190E02823392381E0232B74
:1032900069F409C0FC01329608962191621729F061
:1032A000E817F907D1F780E0089581E008959C01BF
:1032B000FC0132969FEF80E04191461789F09F3FD5
:1032C00019F4411101C0982F8F5F8630A9F79F3FF5
:1032D00039F0F901E90FF11D97FDFA956283089520
:1032E00008959C012A5F3F4FFC014281461301C0B3
:1032F0001282019682179307B9F70895262F269513
:10330000269526952E3168F4FC01E20FF11D6770B9
:1033100021E030E001C0220F6A95EAF78281282B74
:1033200022830895262F2695269526952E3170F412
:10333000FC01E20FF11D677021E030E001C0220FB7
:103340006A95EAF7209582812823228308952091A7
:103350001401222329F02091700227FD0C947E197C
:103360000C94571920911401222329F02091700206
:1033700027FD0C9492190C94711920911401FC01F1
:103380003296222331F08091700287FF02C08EE1D5
:1033900001C086E0DF011D928A95E9F7089508953E
:1033A0000C94CF190C94CF19CF930E94D2190E947C
:1033B000BC060E94D019C0E08C2F0E944706892BC2
:1033C00029F4CF5FC430C1F780E001C081E0CF9124
:1033D00008950C94CF190C94E919809176028430E9
:1033E00049F10E94EB1980E00E94300410923302F0
:1033F00020E488E190E00FB6F894A89580936000EF
:103400000FBE2093600083B7817F846083BF83B742
:10341000816083BF7894889583B78E7F83BF0FB612
:10342000F894A89580916000886180936000109264
:1034300060000FBE08950C94CF190E94E1110E9404
:10344000FE0C0E9430040C941B1A1F920F920FB6B0
:103450000F9211248F939F93AF93BF938091330268
:10346000811113C080916C0290916D02A0916E0247
:10347000B0916F024196A11DB11D80936C02909393
:103480006D02A0936E02B0936F02BF91AF919F91B6
:103490008F910F900FBE0F901F90189582E084BD02
:1034A00093E095BD9AEF97BD80936E0008952FB776
:1034B000F89480916C0290916D02A0916E02B0918F
:1034C0006F022FBF08952FB7F89460916C0270912E
:1034D0006D0280916E0290916F022FBF08959C0142
:1034E0004FB7F89480916C0290916D02A0916E029A
:1034F000B0916F024FBF821B930B089578941F9277
:103500000F920FB60F9211248F939F93AF93BF9397
:1035100080916C0290916D02A0916E02B0916F0249
:103520000196A11DB11D80936C0290936D02A09332
:103530006E02B0936F02BF91AF919F918F910F90E8
:103540000FBE0F901F90189587E797E7909301089B
:10355000809300089AE088E10FB6F894A8958093CC
:1035600060000FBE90936000FFCF9093870180931F
:10357000860108950E946318811102C00E940A19F1
:103580000E946E18809332020E9476189093710206
:10359000809370020E947218682F70E080E090E0C3
:1035A0000E94D71560910502709106028091070272
:1035B000909108020C940F16809154020895CF93B5
:1035C000DF9300D01F92CDB7DEB790917602943092
:1035D00019F589837B836A8382E08093E9008FEF0A
:1035E0009091E800815095FD06C095ED9A95F1F710
:1035F00000008111F5CF8091E80085FF0DC040E00B
:1036000050E063E070E0CE0101960E94111D8091B0
:10361000E8008E778093E8000F900F900F90DF9175
:10362000CF910895BC0184E00C94DF1ABC0183E0C3
:103630000C94DF1A22E02093E9002FEF3091E8008C
:10364000215035FD06C035ED3A95F1F70000211106
:10365000F5CF2091E80025FF0BC040E050E066E088
:1036600070E00E94111D8091E8008E778093E80041
:103670000895CF93DF9320911401222339F02091F4
:10368000700227FF03C060E222E002C068E021E090
:103690002093E9002FEF3091E800215035FD06C05E
:1036A00035ED3A95F1F700002111F5CF2091E800B2
:1036B00025FF1DC0EC0180911401811105C040E07F
:1036C00050E068E070E003C070E040E050E0CE0100
:1036D0000E94111D8091E8008E778093E80080E2BF
:1036E000FE01A4E3B2E001900D928A95E1F7DF912B
:1036F000CF91089580917502811109C00E94A21E88
:103700000E94FF1E8091E20084608093E200089591
:1037100010927502089508950895089542E061ECAD
:1037200081E00E941B1E42E261EC82E00C941B1EB1
:1037300080917802833009F460C030F4813071F0F8
:10374000823009F499C008958A3009F485C08B301D
:1037500009F46BC0893009F0A7C020C080917702BE
:10376000813A09F0A1C08091E800877F8093E8004A
:1037700080917B0290917C02892B21F460E284E3AA
:1037800092E003C060E080E090E070E00E945C1D89
:103790008091E8008B778093E8000895809177020C
:1037A000813209F081C080917B0290917C02029766
:1037B00008F07AC08091E800877F8093E8008091CC
:1037C000E80082FD05C0809176028111F8CF6CC0BF
:1037D0002091F3008091F20090E0922B029729F45F
:1037E0008091F1008B7F813021F48091F1008093F2
:1037F00054028091E8008B7753C080917702813A20
:1038000009F052C080917B0290917C02892B09F0D3
:103810004BC08091E800877F8093E8008091E800AA
:1038200080FFFCCF8091140136C0809177028132F5
:10383000D9F580917B0290917C02892BA9F580912A
:10384000E800877F8093E8000E94501E80917902F3
:10385000809314010C94E11180917702813221F55B
:103860008091E800877F8093E8000E94501E80913D
:103870007A0280935502089580917702813AA1F4EB
:103880008091E800877F8093E8008091E80080FFC6
:10389000FCCF809155028093F1008091E8008E77F3
:1038A0008093E8000C94501E089584B7877F84BFEE
:1038B0000FB6F894A89580916000886180936000AD
:1038C000109260000FBE90E080E80FB6F8948093ED
:1038D0006100909361000FBE0E94960D0E94A21E8F
:1038E0000E94FF1E8091E20084608093E200789441
:1038F0000E9494210E94A00D8AE091E00E94F90CA0
:10390000809176028530A9F480917602853079F431
:103910000E94ED19809174028823B1F30E94D4199A
:10392000882391F30E94FB1C0E94E111EDCF0E94BD
:103930001D1A0E94A80D0E948A0D0E94890DE0CFD9
:103940000C94A21C292F332723303105C9F060F4D1
:103950002130310581F02230310509F044C08BE37C
:1039600090E028E733E043C021323105E1F0223214
:10397000310549F138C082E190E023EB33E037C0F4
:1039800099278130910549F028F0029761F5ECE321
:10399000F3E005C0E4E7F3E002C0E4E6F3E084917D
:1039A00090E09F0124C06115710541F061307105FF
:1039B000D1F489E090E023EA33E019C089E090E097
:1039C0002AE833E014C06115710541F061307105DA
:1039D00051F486EB90E025EC33E009C080E490E000
:1039E0002BE734E004C080E090E020E030E0FA0112
:1039F00031832083089580E189BD82E189BD09B4C6
:103A000000FEFDCF8091D8008F7D8093D8008091FB
:103A1000E00082608093E0008091E00081FDFCCFB7
:103A20000895CF92DF92EF92FF920F931F93CF935F
:103A3000DF93EC018B017A010E946F1E811133C06C
:103A4000E114F10439F0F70180819181081B190B11
:103A5000C80FD91FC12CD12C0115110519F1809166
:103A6000E80085FD16C08091E8008E778093E8001D
:103A7000E114F10449F0F70180819181C80ED91E4B
:103A8000D182C08285E00FC00E946F1E882321F37F
:103A90000AC089918093F10001501109FFEFCF1AFC
:103AA000DF0ADACF80E0DF91CF911F910F91FF9075
:103AB000EF90DF90CF90089520917D0230917E02AB
:103AC0002617370748F06115710539F42091E80091
:103AD0002E772093E80001C0B901FC0120E06115B8
:103AE000710579F1809176028823F1F18530F1F149
:103AF0008091E80083FD3CC08091E80082FD2EC0EB
:103B00008091E80080FFEBCF2091F3008091F200DC
:103B100090E0922B6115710551F08830910538F4D1
:103B200021912093F100615071090196F3CF21E0BA
:103B3000089709F020E08091E8008E778093E800F4
:103B4000CECF2111CFCF0AC080917602882361F0B9
:103B5000853061F08091E80083FD0AC08091E80023
:103B600082FFF2CF80E0089582E0089583E0089517
:103B700081E0089520917D0230917E02261737075B
:103B800048F06115710539F42091E8002E772093F3
:103B9000E80001C0B901FC0120E06115710591F157
:103BA00080917602882309F440C0853009F43FC033
:103BB0008091E80083FD3DC08091E80082FD2FC028
:103BC0008091E80080FFE9CF2091F3008091F2001E
:103BD00090E0922B6115710559F08830910540F401
:103BE00024912093F1003196615071090196F2CF32
:103BF00021E0089709F020E08091E8008E7780931B
:103C0000E800CBCF2111CCCF0AC080917602882367
:103C100061F0853061F08091E80083FD0AC08091F9
:103C2000E80082FFF2CF80E0089582E0089583E00B
:103C3000089581E00895982F973068F59093E900F2
:103C4000981739F07091EC002091ED005091F00040
:103C500003C0242F762F50E021FD02C09F5FECCFE0
:103C60003091EB003E7F3093EB003091ED003D7FD3
:103C70003093ED003091EB0031603093EB007093A6
:103C8000EC002093ED005093F0002091EE0027FD12
:103C9000E5CF80E008958F708093E90081E008957A
:103CA0008091770287FF11C08091E80082FD05C0F6
:103CB000809176028111F8CF11C08091E8008B7756
:103CC0000BC080917602882349F08091E80080FF44
:103CD000F8CF8091E8008E778093E80008952091D6
:103CE000E4003091E50095E64091EC00842F81706E
:103CF00040FF23C08091E80080FD1DC080917602C6
:103D0000882399F0853099F08091EB0085FD11C0F2
:103D10004091E4005091E5002417350729F39150B4
:103D200011F09A01E1CF84E0089582E0089583E0E4
:103D3000089581E0089580E008954091E80042FFF1
:103D4000DDCF08950E94101F0E94181FE0EEF0E0E2
:103D5000808181608083E8EDF0E080818F778083CF
:103D600019BCA7EDB0E08C918E7F8C9380818F7E03
:103D700080831092750208950F931F93CF93DF9362
:103D80000E94101F0E94181FC8EDD0E088818F7715
:103D9000888388818068888388818F7D888319BC27
:103DA00010927602109272021092740210927302B4
:103DB00000EE10E0F80180818B7F80838881816034
:103DC000888342E060E080E00E941B1EE1EEF0E0AC
:103DD00080818E7F8083E2EEF0E08081816080834D
:103DE000808188608083F80180818E7F80838881D4
:103DF00080618883DF91CF911F910F910895E8ED45
:103E0000F0E080818F7E8083E7EDF0E0808181604B
:103E1000808384E082BF81E0809375020C94BC1E95
:103E2000E8EDF0E080818E7F80831092E2000895BB
:103E30001092DA001092E10008951F920F920FB6CF
:103E40000F9211242F933F934F935F936F937F9320
:103E50008F939F93AF93BF93EF93FF938091E10074
:103E600082FF0BC08091E20082FF07C08091E100D9
:103E70008B7F8093E1000E9493218091DA0080FF84
:103E80001FC08091D80080FF1BC08091DA008E7F18
:103E90008093DA008091D90080FF0DC080E189BD58
:103EA00082E189BD09B400FEFDCF81E080937602F6
:103EB0000E947A1B05C019BC109276020E94881BD2
:103EC0008091E10080FF19C08091E20080FF15C061
:103ED0008091E2008E7F8093E2008091E200806119
:103EE0008093E2008091D80080628093D80019BC52
:103EF00085E0809376020E948C1B8091E10084FF14
:103F000030C08091E20084FF2CC080E189BD82E155
:103F100089BD09B400FEFDCF8091D8008F7D8093CC
:103F2000D8008091E1008F7E8093E1008091E200D3
:103F30008F7E8093E2008091E20081608093E200B6
:103F400080917202882311F084E007C08091E30021
:103F500087FD02C081E001C083E0809376020E9469
:103F60008D1B8091E10083FF29C08091E20083FFD7
:103F700025C08091E100877F8093E10082E08093FB
:103F80007602109272028091E1008E7F8093E100B0
:103F90008091E2008E7F8093E2008091E200806158
:103FA0008093E20042E060E080E00E941B1E80916E
:103FB000F00088608093F0000E948B1BFF91EF91CE
:103FC000BF91AF919F918F917F916F915F914F9131
:103FD0003F912F910F900FBE0F901F9018951F9239
:103FE0000F920FB60F9211242F933F934F935F932D
:103FF0006F937F938F939F93AF93BF93CF93DF93F1
:10400000EF93FF93C091E900CF708091EC00D82F1F
:10401000D17080FDD0E81092E9008091F000877F98
:104020008093F00078940E9433201092E9008091F0
:10403000F00088608093F000CD2BCF70C093E90032
:10404000FF91EF91DF91CF91BF91AF919F918F91B0
:104050007F916F915F914F913F912F910F900FBE84
:104060000F901F9018951F93CF93DF93CDB7DEB7B6
:10407000AA970FB6F894DEBF0FBECDBFE7E7F2E018
:104080008091F100819322E0EF37F207C9F70E9497
:10409000981B8091E80083FF2EC180917702909158
:1040A0007802492F50E04A30510508F024C1FA0146
:1040B000EC58FF4F0C94C321803821F0823809F06E
:1040C0001AC108C08091730290917402992389F0FB
:1040D00082600FC080917B028F70873008F00BC127
:1040E0008093E9008091EB0085FB882780F910928E
:1040F000E9009091E800977F9093E8008093F100A9
:104100001092F100D1C0282F2D7F09F0F4C0882330
:1041100019F0823061F0EFC080917902813009F0AE
:10412000EAC0933009F080E0809374022EC0809141
:10413000790281112AC080917B028F702FEF280FA6
:10414000263008F0D8C08093E9002091EB0020FFD2
:104150001CC0933021F48091EB00806214C09091D8
:10416000EB0090619093EB0021E030E0A90102C0E8
:10417000440F551F8A95E2F74093EA001092EA0037
:104180008091EB0088608093EB001092E9008091B1
:10419000E800877F8093E8000E94501EACC0811128
:1041A000AAC0109179021F778091E3008078812B5B
:1041B0008093E3008091E800877F8093E8000E946D
:1041C000501E8091E80080FFFCCF8091E300806862
:1041D0008093E300111102C082E001C083E080936C
:1041E000760289C08058823008F085C080917902BB
:1041F00090917A028C3D53E0950779F583E08A83AC
:104200008AE289834FB7F894DE01139620E03EE0FE
:1042100051E2E32FF0E050935700E49120FF03C0F8
:10422000E295EF703F5FEF708E2F90E0EA3010F074
:10423000C79601C0C0968D939D932F5F243149F797
:104240004FBF8091E800877F8093E8006AE270E0CA
:10425000CE0101960E945C1D16C060917B02709198
:104260007C02AE014F5F5F4F0E94A01CBC01892BF6
:1042700009F441C09091E800977F9093E80089810C
:104280009A810E94BA1D8091E8008B778093E800A4
:1042900032C0803881F58091E800877F8093E80004
:1042A000809172028093F1008091E8008E7772CF46
:1042B000811121C08091790290917A029927029709
:1042C000D4F48091E800877F8093E80080917902A0
:1042D000809372020E94501E80917202811106C06A
:1042E0008091E30087FD02C081E001C084E08093FB
:1042F00076020E948E1B8091E80083FF0AC08091A5
:10430000E800877F8093E8008091EB0080628093D3
:10431000EB00AA960FB6F894DEBF0FBECDBFDF91BB
:10432000CF911F9108950895CF93809176028823AD
:10433000A1F0C091E900CF709091EC00892F8170BD
:1043400090FD80E8C82B1092E9008091E80083FD81
:104350000E943320CF70C093E900CF91089597FB5E
:10436000072E16F4009407D077FD09D00E94C921CA
:1043700007FC05D03EF4909581959F4F0895709568
:1043800061957F4F0895EE0FFF1F0590F491E02D8A
:104390000994AA1BBB1B51E107C0AA1FBB1FA6178C
:1043A000B70710F0A61BB70B881F991F5A95A9F7DE
:1043B00080959095BC01CD010895F999FECF92BDED
:1043C00081BDF89A992780B50895A8E1B0E042E050
:1043D00050E00C941122262FF999FECF92BD81BD99
:1043E000F89A019700B4021639F01FBA20BD0FB633
:1043F000F894FA9AF99A0FBE08950396272F0E940F
:10440000EC210E94EB21252F0E94EC21242F0C94FB
:10441000EC210196272F0E94EC210C94EB21DC016A
:10442000CB01FC01F999FECF06C0F2BDE1BDF89ABF
:10443000319600B40D9241505040B8F70895F89469
:02444000FFCFAC
:104442002808641E140A321E0F02DC1A391B1A1BBA
:10445200161B121B01E200E900EA00B500B600B724
:1044620000CD008301CC008A019201940121022334
:104472000224022502260227022A02B300B4006F98
:10448200007000818283946697C634323331F7F626
:104492009190F4F5E200E900EA00B500B600B70039
:1044A200CD008301CC008A019201940121022302F2
:1044B20024022502260227022A02B300B4006F005A
:0644C200700081828300FE
:00000001FF
