:100000000C9477040C94BE040C94BE040C94BE04AF
:100010000C94BE040C94BE040C94BE040C94BE0458
:100020000C94BE040C94BE040C9499210C946B2285
:100030000C941C1C0C94BE040C94BE040C94BE04C2
:100040000C94BE040C94BE040C94BE040C94BE0428
:100050000C94BE040C94751C0C94BE040C94BE0449
:100060000C94BE040C94BE040C94BE040C94BE0408
:100070000C94BE040C94BE040C94BE040C94BE04F8
:100080000C94BE040C94BE040C94BE040C94BE04E8
:100090000C94BE040C94BE040C94BE040C94BE04D8
:1000A0000C94BE040C94BE040C94BE040A120A12F2
:1000B0003C123C128912BD13BD13BD13A7123C1391
:1000C0004D134D13AD13BD13BD13B613591459146D
:1000D0006B146B1462146B146B146B145914591455
:1000E00067146B146B146714D822FF22F723FF22C6
:1000F000F7234B236E23F723C523D42314611A005F
:100100000800150017001C0018000C001200040065
:100110001600070009000A000B000D000E000F007A
:100120001D621B6406001900050011001000360056
:10013000370000000000E30001512A0013003400E2
:1001400028002C421E021F0220022102220223024A
:10015000240225022602F200F100F000F300F40070
:100160005000510052004F00000029000000E20042
:100170003400FB00FA00F900FC0000000000E3007E
:100180000100010027023300000001001E001F00D3
:100190002000210022002300240025002600290041
:1001A000F200F100F000F3002D002E002F003000CF
:1001B000E100000000000000F400000000004B001F
:1001C0004E0000000000E70003512A002700340021
:1001D0004C0001003A003B003C003D003E000000A6
:1001E0000000000000003F004000410042004300CA
:1001F000000000000000000044004500390000003D
:100200000000005C00000000000000000000010091
:100210000100010046000000000001004445425575
:10022000473A2064697361626C65642E0A00444534
:100230004255473A20656E61626C65642E0A000A79
:10024000002530313662003A200025303258000A4D
:10025000722F6320303132333435363738394142EA
:10026000434445460A003F00433E20004C25640AB3
:100270000074696D65725F72656164333228293A72
:10028000202530346C580A006B6579626F617264A6
:100290005F69646C653A2025580A006B6579626F66
:1002A0006172645F70726F746F636F6C3A2025586F
:1002B0000A00686F73745F6B6579626F6172645F67
:1002C0006C65647328293A2025580A000A092D20F4
:1002D000537461747573202D0A004743433A2035E7
:1002E0002E342E30204156522D4C4942433A203272
:1002F0002E302E30204156525F415243483A206101
:100300007672350A004F5054494F4E533A204C559F
:1003100046412045585452414B455920434F4E5376
:100320004F4C4520434F4D4D414E442034303936DB
:100330000A004255494C443A202028466562203143
:10034000372032303231290A005649443A20307879
:100350004645454428677469707329205049443ADA
:10036000203078344530332872657669756E67338E
:100370003429205645523A203078303030310A0046
:100380000A092D2056657273696F6E202D0A000AC6
:10039000092D20436F6E736F6C65202D0A45534302
:1003A0002F713A09717569740A000A092D204D618F
:1003B000676963202D0A443A094465627567204DD8
:1003C00065737361676520546F67676C650A583A97
:1003D000094D6174726978204465627567204D6FBC
:1003E000646520546F67676C65202D2053686F77B4
:1003F000206B65797072657373657320696E206D0B
:10040000617472697820677269640A4B3A094B65B6
:1004100079626F61726420446562756720546F670A
:10042000676C65202D2053686F77206B657970723B
:10043000657373207265706F72740A4D3A09446572
:10044000627567204D6F75736520546F67676C65C3
:100450000A563A0956657273696F6E0A533A095320
:1004600074617475730A433A0941637469766174FF
:100470006520436F6E736F6C65204D6F64650A462F
:10048000312D4631303A0953776974636820746FAF
:10049000204C6179657220302D392028463130207A
:1004A0003D204C30290A302D393A0953776974635D
:1004B0006820746F204C6179657220302D390A47AD
:1004C000524156453A0953776974636820746F2026
:1004D0004C6179657220302028616C7465726E61A0
:1004E0007465290A423A094A756D7020746F20427A
:1004F0006F6F746C6F616465720A4553433A094AC1
:10050000756D7020746F20426F6F746C6F616465DD
:10051000722028616C7465726E617465290A453AAF
:10052000095072696E7420454550524F4D205365F5
:100530007474696E67730A4253504143453A0943E4
:100540006C65617220454550524F4D0A000A0025E6
:1005500075002E6E6B726F3A20000A002575002E12
:10056000737761705F6261636B736C6173685F6204
:1005700061636B73706163653A20000A0025750042
:100580002E737761705F67726176655F6573633A3A
:1005900020000A002575002E6E6F5F6775693A208E
:1005A000000A002575002E737761705F72616C74AC
:1005B0005F726775693A20000A002575002E73770F
:1005C00061705F6C616C745F6C6775693A20000ADA
:1005D000002575002E737761705F7263746C5F72B3
:1005E0006775693A20000A002575002E73776170DF
:1005F0005F6C63746C5F6C6775693A20000A002554
:1006000075002E636170736C6F636B5F746F5F63F3
:100610006F6E74726F6C3A20000A002575002E739D
:100620007761705F636F6E74726F6C5F636170731C
:100630006C6F636B3A20000A0025303258006B65FE
:10064000796D61705F636F6E6669672E7261773A6C
:1006500020000A002575002E6D6F7573653A200025
:100660000A002575002E6B6579626F6172643A200D
:10067000000A002575002E6D61747269783A2000B9
:100680000A002575002E656E61626C653A20000ACD
:1006900000253032580064656275675F636F6E666F
:1006A00069672E7261773A20000A0025750064653B
:1006B0006661756C745F6C617965723A20003F0009
:1006C0000A6D6F7573653A206F66660A000A6D6F72
:1006D0007573653A206F6E0A000A6B6579626F6107
:1006E00072643A206F66660A000A6B6579626F6110
:1006F00072643A206F6E0A000A6D61747269783A0A
:10070000206F66660A000A6D61747269783A206F1C
:100710006E0A000A64656275673A206F66660A00B1
:100720000A64656275673A206F6E0A000A0A4A75A4
:100730006D70696E6720746F20626F6F746C6F618B
:100740006465722E2E2E2000433E2000436C6561AE
:1007500072696E6720454550524F4D0A00656563CA
:100760006F6E6669673A0A000A0025303258200029
:100770006B6579626F6172645F7265706F72743AF3
:1007800020000A0025303258006B6579626F617273
:10079000645F7365745F6C65643A20005B735D0031
:1007A0004B6579626F6172642073746172742E0A92
:1007B000005B575D005B535D005B525D005B445D19
:1007C000005B435D001403720065007600690075EC
:1007D000006E0067003300340000000C03670074F3
:1007E0000069007000730000000403090409025B43
:1007F00000030100A0FA090400000103010100093F
:1008000021110100012240000705810308000A09A7
:10081000040100010300000009211101000122323E
:10082000000705820320000A0904020002030000F9
:100830000009211101000122220007058303200085
:100840000107050303200001120110010000000848
:10085000EDFE034E0100010200010631FF0974A103
:10086000010975150026FF0095207508810209769B
:10087000150026FF00952075089102C0050109802A
:10088000A101850319012AB700150126B7009501BA
:1008900075108100C0050C0901A101850419012A08
:1008A000A002150126A002950175108100C0050166
:1008B0000906A101050719E029E71500250195089A
:1008C000750181029501750881010507190029FF4D
:1008D000150026FF009506750881000508190129F5
:1008E00005950575019102950175039101C01124CB
:1008F0001FBECFEFDAE0DEBFCDBF04B603FE27C0D8
:1009000080913E0290913F02A0914002B09141023D
:100910008730904BA740B04BD1F410923E0210921A
:100920003F02109240021092410214BE84B7877FAA
:1009300084BF0FB6F894A895809160008861809379
:100940006000109260000FBEE0E0F8E3099511E04E
:10095000A0E0B1E0E0E0F9E402C005900D92AC380F
:10096000B107D9F722E0ACE8B1E001C01D92AE3387
:10097000B207E1F70E94D01E0C947E240C94000074
:10098000FF93EF93E0918C01F0918D01309709F086
:100990000995EF91FF910895FC018591803011F048
:1009A000EFDFFBCF0895FF27E0E230E247FF0CC006
:1009B000419597FF09C0EDE26095709580959095FF
:1009C000611D711D811D911D27FF02C0219530E31E
:1009D00050E2AA27660F771F881F991FAA1FA41726
:1009E00010F0A41B63955A95A9F7AA3008F0A95FE7
:1009F000A05DAF93F395611571058105910541F7F0
:100A0000ED3211F4EF93F395F21718F43F93F39549
:100A1000FBCF8F91B5DFFA95E1F70895E991F99150
:100A20008591803021F0853219F0AADFF9CF089541
:100A300020E0E89455915532C1F3503311F4689495
:100A400055915A3348F4505390F3220F022E220F3F
:100A5000220F200D250FF4CF0EF421958991999145
:100A6000533619F3533729F1533559F1BC0188270F
:100A70009927E8945C3621F489919991689455916D
:100A8000543639F446EF7EF077FF0DC08FEF9FEFBD
:100A90000AC055374AE039F0583540E121F0523666
:100AA00042E009F00895FF93EF937DDFEF91FF910E
:100AB000B7CFFF93EF93FC0181918030B9F360DFF2
:100AC000FBCFFF93EF9368DFF1CFDF93CF93CDB7E9
:100AD000DEB72596A3DFCF91DF91089581E00895D9
:100AE00081E008950C94700508950C9474051F938B
:100AF000CF93DF9300D000D01F92CDB7DEB74983EC
:100B00005A836B833091A50189819A81311114C078
:100B1000662359F0222349F00E949219182F682F5A
:100B200089819A810E943B1903C00E946619182F7F
:100B300069817A81812F04C00E94921969817A812A
:100B40000F900F900F900F900F90DF91CF911F910A
:100B50000C946906FC01262F4081518162817381CA
:100B600084810C947705CF93DF93EC0160E00E94C1
:100B7000AA05BE01DF91CF910C9475050E94C91A98
:100B8000811102C00E94701B0C94C8080C94C40808
:100B900008950E9447140E94C8052FEF84E39CE04B
:100BA000215080409040E1F700C000000C949B1C55
:100BB0000F931F93CF93DF93EC0161E00E94AA058E
:100BC0008C01BE010E947205882309F442C0BE0157
:100BD000C8010E94450D8823E1F1BE01C8010E94B1
:100BE000970D8823B1F1BE01C8010E94C20E88236F
:100BF00081F18A81882331F101308CE5180751F0A9
:100C00000F3D8CE51807D9F001151C45D9F40E9459
:100C1000C9051FC080910C02C82FC095C170C0FBD0
:100C200080F980930C02CC2329F08EE292E00E949E
:100C3000CC040FC08CE192E00E94CC040BC00E9457
:100C4000701B07C0CE01DF91CF911F910F910C94C3
:100C50006E05C0E08C2FDF91CF911F910F91089509
:100C60008295982F937344E0949F900111248C7C7B
:100C700086958695282B822F8575880F2A7A26954A
:100C8000822B0895CF93DF93D92F0E943006C82F6F
:100C90008D2F0E9430062C2F30E0322F2227A90101
:100CA000482BCA01DF91CF91089508950C94550601
:100CB00081E008950C945806CF93C82F0E945606E1
:100CC0008C2F0E945A06CF91089580E090E00895FD
:100CD000089524E2829FC0011124FC0129E0729F43
:100CE000E00DF11D1124E60FF11DEE0FFF1FE45082
:100CF000FF4F859194910895880F991FFC01E15C45
:100D0000FD4F859194910895CF93DF930E946906DA
:100D10000E949607EC018115904508F043C0C1156B
:100D200080E4D80708F0CBC0C03ED10528F5C03C10
:100D3000D10508F0B3C0C83AD10578F4C53AD10559
:100D400008F0A4C0C130D10509F4ECC008F4E8C033
:100D5000C430D10508F0E6C0E3C0CF3BD10508F0B0
:100D6000DFC0C85AD0E0CC0FDD1FC35FDE4F099053
:100D7000D881C02DD464D6C0C11590E2D90750F4F3
:100D8000C11521E0D20708F0CDC0C83ED10508F456
:100D9000C9C0C6C0C11580E3D80708F086C0CE011F
:100DA0009F707FC0C11595E5D90708F043C0C115F4
:100DB00024E5D20708F09AC0C11582E5D80708F5E6
:100DC000C11591E5D90708F07DC0CE0174E0969574
:100DD00087957A95E1F783709C2F937021E030E03E
:100DE00002C0220F331F9A95E2F73C68382BCF7070
:100DF000C695C69580E2C89FE0011124C22BD32B73
:100E000091C09E01237033278C2F86958695C1153E
:100E1000D34508F05CC0C1E0D0E002C0CC0FDD1FBC
:100E20002A95E2F720E2829FC0011124C82BD92B1A
:100E3000DC6878C0C11529E5D207A0F4C11588E5A2
:100E4000D80708F058C0C11596E5D90708F068C062
:100E50008C2F0E942A088F71C82FD0E0DC2FCC275E
:100E6000D06260C0C1152AE5D20708F449C0CE019E
:100E700090568115904208F053C08D2F8F710E94BB
:100E80002A08DD27D0628F71D82B4CC0C55AD0E01C
:100E9000C55CDE4FC881D0E0D06444C0CE01805C28
:100EA00091090E947C06EC013DC0CE019927D3FF39
:100EB00003C0EC01D86C36C0EC01D06C33C0DF70DD
:100EC000D06A30C0DC2FCC27C16FD06A2BC0C1E004
:100ED000D0E002C0CC0FDD1F2A95E2F720E2829F0E
:100EE000C0011124C82BD92BDA681CC0DC2FCC27F9
:100EF000C46FD06A17C0DC2FCC27C06FD06A12C075
:100F00008C2F8F700E942A0894E0D695C7959A95E9
:100F1000E1F7CF70D0E0DC2FCC27D069C82B02C01E
:100F2000C0E0D0E0CE01DF91CF91089582389105E5
:100F300069F1B0F48133910509F46DC048F4893248
:100F4000910509F463C08A32910509F469C00895D6
:100F50008533910509F455C089339105B9F0089599
:100F6000833E910569F138F4803E9105B1F0823EEF
:100F7000910509F10895863E9105A9F1873E9105F5
:100F8000B9F1843E910509F064C023C020912F027D
:100F900020FD4FC021FD4DC0089580912F0280FD9E
:100FA00044C08091300280FF44C080912F0284FDB4
:100FB00042C083EE4DC080912F0282FF38C0F5CF32
:100FC00080912F0282FD33C08091300280FD31C0BC
:100FD000ECCF8091300281FF32C080912F0284FDDE
:100FE0002AC087EE35C080912F0283FF26C0F5CF3F
:100FF00080912F0283FD21C08091300281FD1FC0AE
:10100000ECCF80912F0285FD1CC01DC080912F0266
:1010100085FD19C016C080912F0286FD16C017C02D
:1010200080912F0286FD13C010C089E311C082EEAB
:101030000FC080EE0DC080E00BC086EE09C084EECC
:1010400007C089E205C085E303C08AE201C081E3ED
:1010500090E0089590912F0292FF0DC0282F2871E3
:10106000283019F4877F846006C0282F247124302B
:1010700011F48B7F886093FF0DC0282F28712831D1
:1010800019F4877E846106C0282F2471243111F45D
:101090008B7E88612091300220FF0DC0382F38717F
:1010A000383019F4877F816006C0382F31713130B4
:1010B00011F48E7F886021FF0DC0282F2871283100
:1010C00019F4877E816106C0282F2171213111F426
:1010D0008E7E886194FD877E0895E82FF0E0EE0F04
:1010E000FF1FED5DFD4F808191810895CF92DF92CA
:1010F000EF92FF920F931F93CF93DF938FE492E0D1
:101100000E94CC0483E2E82E82E0F82EC0E0D0E01A
:101110009AE4C92E92E0D92E01E412E0DF93CF9336
:10112000DF92CF920E94650587E492E00E94CC0492
:10113000F701819191917F010E9442069F938F93C5
:101140001F930F930E9465058FE392E00E94CC04E9
:1011500021968DB79EB708960FB6F8949EBF0FBE26
:101160008DBFC430D105D1F6DF91CF911F910F9182
:10117000FF90EF90DF90CF90089580EA8A95F1F785
:10118000089508950C94C1080C94C2080C94C108E9
:101190000C94C608F894E82FE295EF70F0E031A1C6
:1011A000282F2F7081E090E001C0880F2A95EAF780
:1011B000982F9095932391A392A1892B82A3789441
:1011C00008950F931F93CF93DF9384EF0E94CA0873
:1011D00085EF0E94CA0886EF0E94CA0887EF0E9426
:1011E000CA08CEE3D1E007E411E089910E94CA0861
:1011F0000C171D07D1F710921C0210921B021092BF
:1012000024021092230210921E0210921D021092CC
:101210002602109225021092200210921F021092B4
:10122000280210922702109222021092210210929C
:101230002A021092290284E00E94B009DF91CF9126
:101240001F910F910C94BE057F928F929F92AF9247
:10125000BF92CF92DF92EF92FF920F931F93CF93A3
:10126000DF93C7E4D1E08BE1A82E82E0B82E93E2B1
:10127000E92E92E0F92E712C01E010E06E018881D8
:10128000F894E82FE295EF70F0E021A18F70A801AB
:1012900002C0440F551F8A95E2F7CA01922F982B7E
:1012A00091A392A18095892382A378940E94BD087E
:1012B000EEE3F1E020E030E0812C912C4191A42F6D
:1012C000A295AF70B0E090968C9190E04F7002C004
:1012D000959587954A95E2F780FD08C0C801022ED2
:1012E00002C0880F991F0A94E2F702C080E090E0E4
:1012F000882A992A2F5F3F4F29303105F9F6219628
:10130000F60180810E94CA08F501808191818816CA
:10131000990621F09182808281E001C080E0782AE4
:10132000F2E0AF0EB11CEA14FB0409F0A7CF272DA1
:1013300044E063E272E08BE192E00E94B1090E9416
:10134000C605872DDF91CF911F910F91FF90EF90F0
:10135000DF90CF90BF90AF909F908F907F90089537
:101360000895FF920F931F93CF93DF93F82E092FC9
:10137000162FD72FC42F222349F081E080939001AC
:101380000E944E1C90938F0180938E01809190015A
:101390008823D9F080918E0190918F010E94661C64
:1013A000069798F0EF2DF02FA12FBD2F80E090E051
:1013B0004C2F50E08417950734F4219131912D93EF
:1013C0003D930196F7CF10929001DF91CF911F913D
:1013D0000F91FF900895CF93C82F1F928F938CE6A3
:1013E00092E09F938F930E94650581E090E0A0E0DA
:1013F000B0E0BC01CD0104C0660F771F881F991FA4
:10140000CA95D2F70E943D180F900F900F900F9041
:10141000CF910C944714CF93DF938B3109F4EAC139
:1014200008F08BC18B3009F4AEC108F065C186307D
:1014300009F4ACC120F4853009F4BAC15DC287302B
:1014400009F4BDC1883009F057C28DE597E00E94CC
:10145000CC048EEA96E00E94CC040E94D81A1F9217
:101460008F938BEA96E09F938F930E94650589EA9C
:1014700096E00E94CC040E94D41AC82F86E996E018
:101480000E94CC041F92CF9381E996E09F938F93A3
:101490000E9465058FE896E00E94CC0485E896E0FE
:1014A0000E94CC048C2F81701F928F9382E896E06B
:1014B0009F938F930E94650580E896E00E94CC047C
:1014C00086E796E00E94CC04C1FB882780F91F9232
:1014D0008F9383E796E09F938F930E94650581E742
:1014E00096E00E94CC0485E696E00E94CC04C2FB04
:1014F000882780F91F928F9382E696E09F938F93BF
:101500000E94650580E696E00E94CC0487E596E09F
:101510000E94CC04C3FBCC27C0F91F92CF9384E573
:1015200096E09F938F930E94650582E596E00E9466
:10153000CC040E94DC1AEC018EE396E00E94CC04FD
:10154000DF93CF9389E396E09F938F930E94650585
:1015500087E396E00E94CC048EE196E00E94CC04E2
:101560008C2F81701F928F938BE196E09F938F93C6
:101570000E9465058DB79EB780960FB6F8949EBF02
:101580000FBE8DBF89E196E00E94CC0482E096E018
:101590000E94CC04C1FB882780F91F928F938FEFA4
:1015A00095E09F938F930E9465058DEF95E00E94D3
:1015B000CC048BEE95E00E94CC048D2F81701F929D
:1015C0008F9388EE95E09F938F930E94650586EE3A
:1015D00095E00E94CC0484ED95E00E94CC04D69561
:1015E000D1701F92DF9381ED95E09F938F930E94BE
:1015F00065058FEC95E00E94CC048DEB95E00E9490
:10160000CC04C2FB882780F91F928F938AEB95E068
:101610009F938F930E94650588EB95E00E94CC0410
:1016200086EA95E00E94CC04C3FB882780F91F92CC
:101630008F9383EA95E09F938F930E94650581EADB
:1016400095E00E94CC0487E995E00E94CC04C4FB9D
:10165000882780F91F928F9384E995E09F938F9359
:101660000E94650582E995E00E94CC0480E895E03F
:101670000E94CC04C5FB882780F91F928F938DE7C9
:1016800095E09F938F930E9465058BE795E00E94FC
:10169000CC048FE595E00E94CC04C6FB882780F936
:1016A0001F928F938CE595E09F938F930E94650521
:1016B0008DB79EB780960FB6F8949EBF0FBE8DBFB4
:1016C0008AE595E00E94CC0482E595E00E94CC0476
:1016D000C7FBCC27C0F91F92CF938FE495E09F936F
:1016E0008F930E9465058DE495E00E94CC040F90D5
:1016F0000F900F900F9045C0803109F4A5C020F4E1
:101700008E3009F48BC0F8C0863109F4B8C0893135
:1017100009F0F2C080E893E00E94CC0489E493E0F1
:101720000E94CC0482E393E00E94CC0485E093E025
:101730000E94CC048AED92E084C08A32E1F060F429
:10174000873209F4D5C028F48E3108F4D5C08D5104
:10175000D0C0893269F1D0C0833448F48A3308F0AC
:10176000C5C0853309F4C4C0883369F0C5C083346B
:1017700009F4BEC0C1C08CE497E00E94CC040E9472
:10178000701BC1E0BEC08AEA93E05BC080910C028E
:10179000817F8E7F80930C028FE893E00E94CC04BF
:1017A00088E497E00E94CC0481E080939101E9CF26
:1017B0008CE297E00E94CC040E94C905E2CF8091A0
:1017C0000C02C82FC095C170C0FB80F980930C0239
:1017D000CC2329F080E297E00E94CC0492C083E100
:1017E00097E00E94CC0480910C02897F877F8093D0
:1017F0000C02C7CF90910C0291FBCC27C0F981E07D
:10180000C827892FC0FB81F980930C02CC2319F0E3
:1018100086E097E029C088EF96E013C090910C0213
:1018200092FBCC27C0F981E0C827892FC0FB82F941
:1018300080930C02CC2319F089EE96E015C089ED57
:1018400096E00E94CC049DCF90910C0293FBCC2794
:10185000C0F981E0C827892FC0FB83F980930C026F
:10186000CC2351F08DEC96E00E94CC0480910C02C8
:10187000816080930C0245C080EC96E0E2CF8CEC56
:1018800092E00E94CC040E94F80E1F928F9382EB8C
:1018900092E09F938F930E94650580910C011F92A7
:1018A0008F938BE992E09F938F930E9465058091BF
:1018B0001A021F928F9388E892E09F938F930E9461
:1018C00065050E945A1C9F938F937F936F9381E7C6
:1018D00092E09F938F930E9465058DB79EB74296C5
:1018E0000FB6F8949EBF0FBE8DBF4BCF895301C07A
:1018F00080E00E94EB0945CF8EEB96E00E94CC047D
:10190000C0E08C2FDF91CF91089580E008950C9472
:10191000850CCF93C82F80919101882319F08130D5
:1019200031F038C00E94131A8232B1F504C00E940F
:10193000131A823261F48C2F0E94870C811104C02B
:101940008C2F0E940B0A24C081E090E021C08C2FD4
:101950000E94850C81111BC0C43189F018F4CB3072
:1019600029F010C0C93259F0C83361F48FE893E010
:101970000E94CC0488E692E00E94CC0408C0109239
:1019800091010CC086E692E00E94CC0407C081E081
:10199000817006C01092910180E002C080E0F8CF13
:1019A000CF9108950F931F93CF93DF93C42FD22F1E
:1019B000FC0182818823C9F0409394010E944E1C4F
:1019C000909393018093920180E28C0F883008F00D
:1019D00057C0C77081E001C0880FCA95EAF7DF9150
:1019E000CF911F910F910C94C611809194014813CF
:1019F00030C080919201909193010E94661C883CB6
:101A0000910538F510E21D0FCD17B9F080E28C0F6B
:101A1000883040F4C77081E001C0880FCA95EAF7AA
:101A20000E94CD11183028F581E09D2F977001C0DC
:101A3000880F9A95EAF70E94C611802F0E94B31171
:101A40001830F0F4D77081E001C0880FDA95EAF71A
:101A50000AC080E28C0F883098F4C77081E001C022
:101A6000880FCA95EAF7DF91CF911F910F910C94DF
:101A7000CD11802FDF91CF911F910F910C94B31155
:101A8000DF91CF911F910F9108950F939C01CB018E
:101A9000243F4CE5340731F188F4293DFCE53F074C
:101AA000D9F02A3D4CE5340779F1283D3C45A9F5AC
:101AB00006E221EE41EE68ED7CE52BC0263FFCE519
:101AC0003F07E1F0A8F0273F3C4539F507E225EE56
:101AD00046EE67EF7CE51DC007E225EE45EE69EDB9
:101AE0007CE517C006E221EE40EE64EF7CE511C014
:101AF00007E225EE44EE65EF7CE50BC006E221EE41
:101B000042EE66EF7CE505C008E221E045EE6AEDB5
:101B10007CE50E94D20C80E008C0FC018281882311
:101B200019F01092940101C081E00F910895CF93B4
:101B3000DF93EC01FB018281882309F41FC1C230CD
:101B4000FCE5DF0708F41BC1C6319CE5D90738F076
:101B50009E012B5F3C452930310508F010C10E94E1
:101B6000DC1A9093300280932F02C031ECE5DE073F
:101B700009F4C3C008F041C0C8308CE5D80709F4A7
:101B80009AC0F0F4C430ECE5DE0709F487C068F4CD
:101B9000C2308CE5D80709F477C0C330DC4509F0C2
:101BA000E3C080912F02826076C0C630ECE5DE078C
:101BB00009F46EC008F07BC080912F0288606BC072
:101BC000CC308CE5D80709F485C068F4CA30ECE560
:101BD000DE0709F474C008F079C00E9447148091B0
:101BE0002F02806858C0CE308CE5D80709F476C043
:101BF00008F07FC080912F028BC0CC3FECE5DE0760
:101C000009F44FC018F5C3318CE5D80709F47DC03D
:101C100078F4C131ECE5DE0709F473C0C231DC456C
:101C200009F0A2C00E94471480912F028F7733C021
:101C3000C5318CE5D80709F472C008F486C0CB3FE3
:101C4000DC4509F091C0809130023EC0C115FDE530
:101C5000DF0709F45FC058F4CE3F9CE5D90709F4CB
:101C600044C008F43FC08091300282602DC0C23071
:101C7000FDE5DF0709F475C008F45DC0C330DD453C
:101C800009F072C080E06EC080912F02816003C0B5
:101C900080912F02806180932F0266C080912F0275
:101CA00011C0809130028260809330025DC08091CB
:101CB0002F028062F0CF80912F028064ECCF809160
:101CC0002F0288608460E7CF8160EECF80912F0281
:101CD0008E7FE1CF80912F028D7FDDCF80912F020B
:101CE000877FD9CF8091300218C0809130028D7FDC
:101CF000DBCF80912F028F7ECECF80912F028F7D00
:101D0000CACF80912F028F7BC6CF80912F02877F11
:101D10008B7FC1CF809130028D7F8E7FC5CF809128
:101D20002F0282FB222720F991E0922790FB82F973
:101D300090FB83F9B0CF80913002982F90959170ED
:101D40008E7F892B90FB81F9AFCF0E944714809141
:101D50002F0287FB222720F991E0922790FB87F939
:101D60009ACF81E00E94721B80912F0290913002E5
:101D70000E94ED1A0E94471480E001C081E0DF91CB
:101D8000CF910895CF93DF9386319C4541F5EB01C8
:101D90000E94131A982F8A8120910001309101012D
:101DA000882379F09A7A81E009F480E080939501A4
:101DB000911102C069E201C065E3C9010E94B91B2B
:101DC0000AC080919501811102C069E201C065E3FA
:101DD000C9010E94BB1B0E94611A80E001C081E022
:101DE000DF91CF91089590939B0180939A0108957C
:101DF000E0919A01F0919B01309721F00190F081E0
:101E0000E02D099480E00895EF92FF920F931F93C5
:101E1000CF93DF93E0919A01F0919B013097B1F15C
:101E20008C010280F381E02D099580910C0282FFE4
:101E30002DC080FF04C080E797E00E94CC04E80139
:101E400018E08AE6E82E87E0F82E80910C0280FFE9
:101E50000BC088811F928F93FF92EF920E946505BD
:101E60000F900F900F900F90115021961111EDCF00
:101E700080910C0280FF0AC088E697E0DF91CF9145
:101E80001F910F91FF90EF900C94CC04DF91CF91B4
:101E90001F910F91FF90EF9008952091980130913C
:101EA00099012817390771F090939901809398014F
:101EB000E0919A01F0919B01309721F00680F78123
:101EC000E02D0994089520919601309197012817EB
:101ED000390771F09093970180939601E0919A01F0
:101EE000F0919B01309721F00084F185E02D099459
:101EF000089585B7806885BF85B7806885BF0895D8
:101F000081E008950C94800F08950C94840F0C9434
:101F1000840F0C94870F0C94840F0C948B0F0C94EB
:101F2000840F0E94790F0E948F0F0C948D0F0E94D6
:101F3000451C0E94E1080E94AC1C0C94890FCF93B1
:101F4000C82F80910C0282FF1EC080FF04C089E868
:101F500097E00E94CC0480910C0280FF0CC01F927D
:101F6000CF9384E897E09F938F930E9465050F902D
:101F70000F900F900F9080910C0280FF04C082E8B8
:101F800097E00E94CC048C2FCF910C945C067F923A
:101F90008F929F92AF92BF92CF92DF92EF92FF9279
:101FA0000F931F93CF93DF93CDB7DEB72A970FB66A
:101FB000F894DEBF0FBECDBF0E94850F0E94840F34
:101FC0000E9424090E94820F811111C08FEF898322
:101FD0008A831B820E944E1C8160782F9D838C8394
:101FE00049815A816B818D810E9479104FC04DE9E2
:101FF000A42E41E0B42E00E010E0702E802F0E944D
:102000006D086C01F501819091905F0188269926F9
:102010008114910431F40F5F1F4F0430110569F7EB
:10202000D5CF80910C0281FD0E94760880E0EE24DD
:10203000E394F12C94012E213F21232B09F18E836F
:102040007F82CE20DF2081E0CD2809F480E08887E0
:102050000E944E1C8160782F9A8789874E815F810C
:1020600068858A850E947910000F111FF801E356D8
:10207000FE4F80819181E826F926F182E08206C038
:102080008F5FEE0CFF1C8930A9F6C5CF0E94F80EB9
:1020900090919C018917C9F00E94F80E80939C01D1
:1020A0002A960FB6F894DEBF0FBECDBFDF91CF9159
:1020B0001F910F91FF90EF90DF90CF90BF90AF9066
:1020C0009F908F907F900C949F0F2A960FB6F89454
:1020D000DEBF0FBECDBFDF91CF911F910F91FF905B
:1020E000EF90DF90CF90BF90AF909F908F907F90B8
:1020F0000895CF93DF93CDB7DEB72B970FB6F89443
:10210000DEBF0FBECDBF4F83588769877A878B8725
:10211000DE01119686E0FD0111928A95E9F785E0CE
:10212000FE01379601900D928A95E1F749815A8117
:102130006B817C818D819E810E9400172B960FB64A
:10214000F894DEBF0FBECDBFDF91CF910895FC01A3
:10215000808191810E94D4190895CF93882309F436
:10216000A1C0C82F8238C1F40E94F80E81FD9AC028
:1021700069E380910001909101010E94B91B0E94C6
:10218000611A2FEF81EE94E0215080409040E1F7FA
:1021900000C0000069E319C0833801F50E94F80E01
:1021A00080FD80C063E580910001909101010E9453
:1021B000B91B0E94611A2FEF81EE94E021508040FC
:1021C0009040E1F700C0000063E58091000190912C
:1021D00001010E94BB1BCF910C94611A8438C1F499
:1021E0000E94F80E82FD5EC067E48091000190912C
:1021F00001010E94B91B0E94611A2FEF81EE94E049
:10220000215080409040E1F700C0000067E4DDCF3E
:102210008CEF8C0F813AF8F48C2F0E94890C81117D
:1022200041C06C2F80910001909101010E94831B9D
:10223000882349F06C2F80910001909101010E9448
:10224000BB1B0E94611A6C2F8091000190910101CB
:102250000E94B91BC0CF80E28C0F883048F4C77051
:1022600081E001C0880FCA95EAF70E94161AB3CF21
:10227000EBE5EC0FE33040F4F0E0E758FE4F8081EF
:1022800090E0CF910C944D0FC85AC73158F4EC2F01
:10229000F0E0EE0FFF1FE55BFE4F80819181CF9153
:1022A0000C94630FCF910895882309F45BC0682FC5
:1022B000823879F40E94F80E81FF54C069E380915E
:1022C0000001909101010E94B91B0E94611A69E30B
:1022D00010C08338B1F40E94F80E80FF43C063E55C
:1022E00080910001909101010E94B91B0E94611A26
:1022F00063E580910001909101010E94BB1B0C9449
:10230000611A843879F40E94F80E82FF2BC067E4CA
:1023100080910001909101010E94B91B0E94611AF5
:1023200067E4E7CF8CEF860F813A18F380E2860FDF
:10233000883048F4677081E001C0880F6A95EAF739
:102340000E941C1ADCCF8BE5860F833020F480E0DE
:1023500090E00C944D0F685A673120F480E090E0D3
:102360000C94630F0895CF93C82F0E94AD10C9330A
:1023700049F42FEF87EE93E0215080409040E1F741
:1023800000C000008C2FCF910C945411882321F0B1
:102390000E94161A0C94611A0895882321F00E9455
:1023A0001C1A0C94611A0895CF92DF92EF92FF925B
:1023B0000F931F93CF93DF937C01062FC72FFC0150
:1023C000158112951F70D281D1110E94331A0E947B
:1023D0000C1A882399F0DD2389F08C2F807F8034BC
:1023E00021F080E2800F883048F082E00E94AB1A32
:1023F0000E940C1A91E0D82ED92601C0D12CCC2EE7
:10240000C2948FE0C8228C2D90E0FC01EA5AFF4F65
:102410000C9436248C2F807FCF70882311F0C295C6
:10242000C07FDD2399F0CC2309F482C180E2800FC4
:10243000883010F0011104C08C2F0E94161A03C0BE
:102440008C2F0E94261A0E94611A72C1802F0E944E
:102450005411CC2309F491C180E2800F883010F030
:10246000011104C08C2F0E941C1A03C08C2F0E94E3
:102470002C1A0E94611A81C18C2F807FCF7080320C
:1024800011F0C295C07F002319F00130C9F022C0BD
:10249000DD2371F0112341F0113031F40E94461A0E
:1024A0008C2B0E944E1A69C10E94461A8C2B1DC0AB
:1024B000112319F0113009F460C10E94571A25C088
:1024C000DD2321F0163008F058C10EC0153008F099
:1024D00054C11BC0DD2361F0112331F0F701858168
:1024E00080FF26C18F7085838C2F0E94C61145C145
:1024F000112359F0093309F02CC1FFEF27EE83E0D7
:10250000F15020408040E1F722C18C2F0E94CD1174
:1025100034C18C2F86958695837019F0813061F0D7
:102520002CC1DD2321F0802F9C2F937002C080E00E
:1025300090E00E944D0F29C1DD2321F0802F9C2FB8
:10254000937002C080E090E00E94630F1EC18C2F48
:10255000837009F045C0D11114C1402F42954695B2
:102560004770440F440F602F6F70862F90E0A0E0FB
:10257000B0E0042E04C0880F991FAA1FBB1F0A9445
:10258000D2F704FF10C00FE010E020E030E004C0FC
:10259000000F111F221F331F4A95D2F70095109587
:1025A0002095309503C000E010E09801C695C695CF
:1025B000C370BC01CD01602B712B822B932BC230D9
:1025C00049F058F4C13019F00E945118DAC00E9445
:1025D0003F18D7C00E946318D4C00E943D18D1C0D4
:1025E000DD2319F08C2F817001C08695882309F4B2
:1025F000C8C0402F429546954770440F440F602F46
:102600006F70862F90E0A0E0B0E0042E04C0880F29
:10261000991FAA1FBB1F0A94D2F704FF10C00FE036
:1026200010E020E030E004C0000F111F221F331F14
:102630004A95D2F7009510952095309503C000E09B
:1026400010E09801C695C695C370BC01CD01602B02
:10265000712B822B932BC23049F058F4C13019F002
:102660000E9416198EC00E9404198BC00E9428195E
:1026700088C00E94771885C0CF70DD2339F08C2F79
:102680000E949D18802F0E94C6117BC0802F0E943F
:10269000CD118C2F0E94BE1874C0023F01F128F4A6
:1026A000003F41F0013FA1F03FC0033FF9F0043F7C
:1026B00039F13AC0DD2341F0153008F05EC08C2FAF
:1026C0008F710E94E31859C0163008F056C0F7CF3A
:1026D000DD2339F08C2F8F710E949D184EC0DD23B1
:1026E000C9F38C2F8F710E94BE1847C0DD2329F0DB
:1026F0008C2F8F710E94881840C00E9483183DC0A3
:10270000DD2349F0CF718C2F0E949D1863E08C2F40
:102710000E94961A32C081E00E94AB1A123068F112
:1027200082E00E94AB1A29C0DD2331F0112391F21F
:10273000802F0E94AD1021C0112399F2093349F472
:102740009FEFE7EEF3E09150E040F040E1F700C08A
:102750000000802F0E94541110C04C2F4F70602F2A
:10276000C7010E9465060E94AE170FC04C2F4F7024
:10277000602FC7010E94680608C088EF8C0D843066
:1027800020F40E94F80E0E945C06DD20C9F00E9431
:10279000081A80FD15C0F70112820E94021A0E94D9
:1027A0009D18C7010E9401140E94021ADF91CF9167
:1027B0001F910F91FF90EF90DF90CF900C94BE1877
:1027C000DF91CF911F910F91FF90EF90DF90CF900D
:1027D00008950F931F93CF93DF93EC016881798164
:1027E0008A810E94DF198C010E943A190E942B18DD
:1027F000B801CE010E94D411DF91CF911F910F91AA
:102800000895CF93DF93EC01988189812B813C81DE
:10281000232B31F08F3F31F481E09F3F19F403C047
:1028200081E001C080E080FD19C0CE010E94D80582
:1028300081110CC00E940C1A882381F08A818823A0
:1028400069F082E0DF91CF910C94AB1ACE010E9427
:10285000E913CE01DF91CF910C94B305DF91CF91B5
:1028600008950E94331A0E94431A0E94611A80E060
:1028700090E00E944D0F80E090E00C94630F8091F7
:102880000001909101010E94BD1B0C9431140E9423
:10289000231A0C943F14E92FE295EF704E2F50E06D
:1028A000FA013297EE30F105B0F4EA59FF4F0C947B
:1028B0003624803F91F018F4883E68F40EC0843FBF
:1028C00051F40BC0883E48F0813F29F406C093FBC9
:1028D000882780F9089580E0089581E008950E9496
:1028E000D4190E944B140895CF93DF9300D000D0E9
:1028F0001F92CDB7DEB70F900F900F900F900F90F3
:10290000DF91CF910895CF93DF9300D000D000D016
:10291000CDB7DEB726960FB6F894DEBF0FBECDBF9B
:10292000DF91CF9108951F93CF93DF93C091A601BC
:1029300016E08091A701C81799F0D0E01C9FF00124
:102940001D9FF00D1124E855FE4F40815181628199
:102950007381848195810E9483142196C770E9CF89
:10296000DF91CF911F9108954091D8015091D901E5
:102970006091DA017091DB018091DC019091DD01C1
:102980000C9483140F931F93CF93DF938091DD01F9
:1029900082958F7009F05DC08091DA01882309F477
:1029A00058C08091A6011091A7016091D801709143
:1029B000D901C091DB01D091DC0191E06F3F09F0BA
:1029C00090E0292F06E0811709F443C0209721F0F9
:1029D0007F3F21F030E003C031E001C0322F90E0B2
:1029E00030FD34C0089FF001099FF00D1124DF0174
:1029F000A855BE4F11963C911197371327C03C91B3
:102A0000361324C012963C91129731111FC01396B1
:102A10004D915C9114974C1B5D0B483C5105B0F4F3
:102A20008091DD018F7080618093DD01E355FE4F61
:102A300080818F708061808388ED91E00E94011415
:102A4000DF91CF911F910F910C9493140196877091
:102A5000BACFDF91CF911F910F9108959F92AF92BE
:102A6000BF92CF92DF92EF92FF920F931F93CF937B
:102A7000DF93CDB7DEB761970FB6F894DEBF0FBE18
:102A8000CDBF8C0185E0F801DE011D9601900D920D
:102A90008A95E1F7F80140815181E2809091D80157
:102AA0006091D9012091DB013091DC0121153105C4
:102AB00031F06F3F31F481E09F3F19F403C081E0B2
:102AC00001C080E0F82FF1709F2E80FD46C1F80113
:102AD000A380B48088EDC82E81E0D82EF090DA0172
:102AE000F501E21BF30BFF2009F4DFC08091DD014B
:102AF000E83CF10508F09BC0282F207F09F052C068
:102B0000561313C0491311C0FE2CE1100EC08F7074
:102B100080618093DD010E94B414C6010E940114FB
:102B20008091DD01F801858358C1AB2831F05F3F0A
:102B300031F481E04F3F19F403C081E001C080E02F
:102B400080FD03C081E08E2502C080E090E0F82F78
:102B5000F170FF2E80FF1CC08091A6012091A7017B
:102B600036E0821709F417C190E0389FF001399FD1
:102B7000F00D1124E855FE4F6181561306C06081A7
:102B8000461303C06281E61203C001968770E9CF45
:102B9000FE2CEE2009F421C18091DD01816080933B
:102BA000DD015AC0561306C0491304C0E11002C02B
:102BB000F8019FC04D875E878D859E850E946F14AA
:102BC000882379F1EE2069F12091DD01822F829531
:102BD0008F7090E0029774F08091D8019091D901A4
:102BE00098878F831986BB86AA862C87CE01079685
:102BF0000E94011486E0F801A8EDB1E001900D9269
:102C00008A95E1F70E94C2140E94B4140DC05617B1
:102C100029F14D875E878D859E850E946F148111F5
:102C20002CC0C8010E940114FF24F394D6C0282FA1
:102C3000207F69F77A2DB98AA88A6E2D89890E942A
:102C4000741488ED91E00E94011486E0F60111925F
:102C50008A95E9F70E94B414F12CBFC04913D9CF6B
:102C6000E110D7CFF8018583C8010E94011486E0E6
:102C7000F60111928A95E9F7B0C0EE2091F2209109
:102C8000DD01822F82958F7090E002970CF4B2CF15
:102C90008091D8019091D9019A8389831B82BD824A
:102CA000AC822E83CE010196A3CFE83CF10508F05B
:102CB00047C0FE2CEE2009F4B4CF561330C04913A0
:102CC0002EC02091DD0120FD21C0822F82958F70C2
:102CD000482F50E041155105C9F0F80125834F30C8
:102CE000510541F08F5F982F9295907F822F8F70C2
:102CF000892B8583C8010E94011486E0F801A8EDA4
:102D0000B1E001900D928A95E1F742C086E0F801AA
:102D1000A8EDB1E001900D928A95E1F75EC04D8774
:102D20005E878D859E850E946F14811163CF80918F
:102D3000DD0181608093DD01C8010E9401144DC056
:102D40007A2DB98AA88A6E2D89890E94741486E02A
:102D5000F60111928A95E9F71BC0EE2009F461CFC4
:102D60004D875E878D859E850E946F14F82E88237F
:102D700009F457CF86E0F801A8EDB1E001900D927B
:102D80008A95E1F788ED91E00E94A7100E94C21495
:102D90000E94B41422C04D875E878D859E850E9457
:102DA000D419292F22952F70223028F49F7039F0E2
:102DB000811105C00BC0243028F49F7049F4805E57
:102DC000883020F0C8010E9401149F2CF92C05C006
:102DD000F8019581907F99F7F9CF8F2D61960FB605
:102DE000F894DEBF0FBECDBFDF91CF911F910F9141
:102DF000FF90EF90DF90CF90BF90AF909F9008959D
:102E00001F93CF93DF93CDB7DEB72C970FB6F8940F
:102E1000DEBF0FBECDBF4F83588769877A878B8708
:102E20009C87CE0107960E942E158823D1F09F81A2
:102E300088852A853B85232B31F08F3F31F481E053
:102E40009F3F19F403C081E001C080E080FD47C0CE
:102E50004F81588569857A858B859C850E9483146E
:102E60003EC086E0FE013796DE01119601900D927C
:102E70008A95E1F7FF81E8856A857B856115710593
:102E800031F0EF3F31F481E0FF3F19F403C081E0FE
:102E900001C080E080FD23C02091A70130E0C9017E
:102EA0000196877099274091A60150E084179507F5
:102EB000F1F1F983EA837D836C8396E0929FD001E0
:102EC000939FB00D1124A855BE4FFE01319601907D
:102ED0000D929A95E1F78093A7010E94931416E052
:102EE0008091A6019091A701891771F1189FC001E7
:102EF000112488559E4F0E942E15882329F1E091B8
:102F0000A6011E9FF0011124E855FE4F408151811A
:102F100062817381848195810E9483148091A601CE
:102F200090E00196877099278093A601D9CF0E94DF
:102F300047141092A7011092A601E8EDF1E086E097
:102F4000DF011D928A95E9F72C960FB6F894DEBF43
:102F50000FBECDBFDF91CF911F910895EF92FF92E9
:102F60000F931F93CF93DF938C01892B09F46CC0CF
:102F7000F12CEE24E394E8012196F8018491843742
:102F800040F4843008F051C0813081F0823019F172
:102F90005BC0853709F444C0A8F19CE7980F9037CF
:102FA00008F052C08F770E94541141C00E5F1F4F2E
:102FB000FE01849190E2980F983050F48770FE2DB6
:102FC00001C0FF0F8A95EAF78F2F0E94361A14C0AE
:102FD0000E94AD102DC00E5F1F4FFE01849190E244
:102FE000980F983060F48770FE2D01C0FF0F8A950E
:102FF000EAF78F2F0E943C1A0E94611A19C00E94A2
:10300000541116C00E5F1F4FFE01C491CC2381F0F6
:103010008FE99FE00197F1F700C00000C150F6CFA3
:103020000E5F1F4FFE01F49003C00E94AD108E0191
:103030008F2D882309F49FCFEFE9FFE03197F1F757
:1030400000C000008150F5CFDF91CF911F910F910B
:10305000FF90EF900895089508950C942C180C9407
:103060002D180E942F186093FB017093FC01809330
:10307000FD019093FE010C9431140C9431180F93C0
:103080001F930091FB011091FC012091FD013091F3
:10309000FE01602B712B822B932B1F910F910C94AF
:1030A00031180F931F930091FB011091FC012091A7
:1030B000FD013091FE0160237123822393231F9130
:1030C0000F910C9431180F931F930091FB011091F5
:1030D000FC012091FD013091FE01602771278227BC
:1030E00093271F910F910C9431180C942C180E9467
:1030F00075186093F7017093F8018093F90190932C
:10310000FA010C94311460E070E0CB010C94771854
:103110000F931F9341E050E060E070E08A019B0153
:1031200004C0000F111F221F331F8A95D2F7C90157
:10313000B8011F910F910C9477180F931F9341E0E2
:1031400050E060E070E004C0440F551F661F771F19
:103150008A95D2F78091F7019091F801A091F90139
:10316000B091FA018A019B01082B192B2A2B3B2BCA
:10317000C901B8011F910F910C9477180F931F93F9
:1031800041E050E060E070E004C0440F551F661F4E
:10319000771F8A95D2F740955095609570958091EC
:1031A000F7019091F801A091F901B091FA018A011B
:1031B0009B01082319232A233B23C901B8011F912E
:1031C0000F910C9477180F931F9341E050E060E04B
:1031D00070E004C0440F551F661F771F8A95D2F711
:1031E0008091F7019091F801A091F901B091FA0155
:1031F0008A019B01082719272A273B27C901B80103
:103200001F910F910C9477180F931F930091F70162
:103210001091F8012091F9013091FA01602B712B86
:10322000822B932B1F910F910C9477180F931F9360
:103230000091F7011091F8012091F9013091FA0104
:1032400060237123822393231F910F910C9477188D
:103250000F931F930091F7011091F8012091F9014C
:103260003091FA0160277127822793271F910F91D0
:103270000C947718089529E0929F800D1124E82F6F
:10328000E695E695E695877051E001C0550F8A9561
:10329000EAF785E0E89FF0011124E252FE4F20E0BA
:1032A00030E070E04081CB01022E02C096958795F8
:1032B0000A94E2F78170819584278523842781937E
:1032C0002F5F3F4F2530310569F7089529E0929F20
:1032D000800D1124682F669566956695982F9770D6
:1032E00085E0689FB001112440E050E080E0FB01E0
:1032F000E40FF51FE252FE4F208130E0092E02C09C
:10330000369527950A94E2F721703327042E01C0E1
:10331000220F0A94EAF7822B4F5F5F4F4530510529
:1033200031F70895BF92CF92DF92EF92FF920F9301
:103330001F93CF93DF938C01C090F701D090F801D9
:10334000E090F901F090FA018091FB019091FC016D
:10335000A091FD01B091FE01C82AD92AEA2AFB2AD0
:10336000CFE1D0E0D701C6010C2E04C0B695A795D9
:10337000979587950A94D2F780FD04C0219790F71E
:10338000B12C07C0BC2EB8018C2F0E948406019777
:10339000A9F38B2DDF91CF911F910F91FF90EF90AB
:1033A000DF90CF90BF900895CF93DF93EC010E9400
:1033B0009219BE010E948406DF91CF9108951F9358
:1033C000CF93DF93EB019091A501992321F0CB01DD
:1033D0000E94D41913C0882349F0CB010E9492198E
:1033E000182F682FCE010E943B1904C0CB010E9408
:1033F0006619182FBE01812F0E948406DF91CF919C
:103400001F9108958091FF01859585958595089573
:103410008091FF01877008959091FF01977081E07E
:1034200009F480E0089580910B02089590910B02B9
:10343000892B80930B020895809590910B0289232C
:1034400080930B02089510920B02089590910A0246
:10345000892B80930A020895809590910A0289230E
:1034600080930A02089510920A0208959091090229
:10347000892B8093090208958095909109028923F0
:103480008093090208951092090208958091000224
:10349000089508950C94491A0C944A1A90910002C8
:1034A000981721F0809300020C944C1A0895809193
:1034B0000002882329F01092000280E00C944C1A3C
:1034C0000895E0910001F091010180910B02808349
:1034D000E0910001F0910101908180910A02892B15
:1034E0008083E0910001F0910101908180910902B7
:1034F000892B808380910002882381F0E091000174
:10350000F09101019081892B80838091000190913D
:1035100001010E94771B81110E94571A80910001BE
:10352000909101010C94040F0C94491A98E0899F22
:1035300090011124262B2093FF010E949D18809159
:10354000FF018595859585950C94941A1092FF013D
:1035500080E00C94941A2091FF018095822380933F
:10356000FF01982F977079F430E0482F082E000C57
:10357000550B2417350739F08595859585950E945B
:10358000BE180C94A61A089590938D0180938C0117
:10359000089580E090E00E94442421E08C3E9E4FFC
:1035A00009F020E0822F089582E090E00C943C2402
:1035B00083E090E00C943C24CF9384E090E00E9460
:1035C0003C24C82F81E290E00E943C242C2F30E064
:1035D000A901582BCA01CF910895CF93C92F682F05
:1035E00084E090E00E944A246C2F81E290E0CF9129
:1035F0000C944A24AB01BC018FE090E00C945C2455
:10360000AB01BC0183E190E00C945C2460E070E0CD
:10361000CB010C94001B60E070E0CB010E94FA1A11
:103620000C94061B6CEE7EEF80E090E00E94682414
:1036300060E082E090E00E944A2460E083E090E055
:103640000E944A241092FB011092FC011092FD018D
:103650001092FE0160E084E090E00E944A2460E065
:1036600081E290E00E944A2460E085E090E00E94C0
:103670004A2460E086E090E00E944A246FEF87E0F1
:1036800090E00E944A2440E050E0BA0188E090E0D7
:103690000E945C2460E08DE090E00E944A2440E0BB
:1036A00050E0BA0188E190E00E945C2460E087E18C
:1036B00090E00E944A2440E050E0BA018CE190E0A2
:1036C0000E945C2460E080E290E00E944A2440E096
:1036D00050E0BA0188E190E00E945C240C940B1B3E
:1036E0000C94121B682F8EE090E00C944A24FC018D
:1036F000329697E080E0915029F021912223D9F36E
:103700008F5FF9CF0895662349F0FC013296089641
:103710002191621729F0E817F907D1F780E00895A1
:1037200081E008959C01FC0132969FEF80E0419179
:10373000461789F09F3F19F4411101C0982F8F5F00
:103740008630A9F79F3F39F0F901E90FF11D97FD88
:10375000FA956283089508959C012A5F3F4FFC010A
:103760004281461301C01282019682179307B9F76E
:1037700008950C94921B0C94AC1B029626E0FC015D
:1037800011922A95E9F7089508950C94C41B0C949E
:10379000C41BCF930E94C71B0E9424090E94C51B13
:1037A000C0E08C2F0E946D08892B29F4CF5FC430B4
:1037B000C1F780E001C081E0CF9108950C94C41B53
:1037C0000C94DE1B0E94E01B80913502843049F18D
:1037D00010920D0220E488E190E00FB6F894A895CD
:1037E000809360000FBE2093600080E00E945C0622
:1037F0000E94E01B83B7817F846083BF83B78160B1
:1038000083BF7894889583B78E7F83BF0FB6F89473
:10381000A89580916000886180936000109260009C
:103820000FBE08950C94C41B0E9447140E94F80E0A
:103830000E945C060C94121C1F920F920FB60F92FE
:1038400011248F939F93AF93BF9380910D028111A9
:1038500013C080912B0290912C02A0912D02B09167
:103860002E024196A11DB11D80932B0290932C0234
:10387000A0932D02B0932E02BF91AF919F918F9193
:103880000F900FBE0F901F90189582E084BD93E0BB
:1038900095BD9AEF97BD80936E0008952FB7F89469
:1038A00080912B0290912C02A0912D02B0912E02BA
:1038B0002FBF08952FB7F89460912B0270912C02BE
:1038C00080912D0290912E022FBF08959C014FB739
:1038D000F89480912B0290912C02A0912D02B0912E
:1038E0002E024FBF821B930B089578941F920F9264
:1038F0000FB60F9211248F939F93AF93BF93809134
:103900002B0290912C02A0912D02B0912E020196D3
:10391000A11DB11D80932B0290932C02A0932D0228
:10392000B0932E02BF91AF919F918F910F900FBED8
:103930000F901F90189587E797E790930108809361
:1039400000089AE088E10FB6F894A895809360008B
:103950000FBE90936000FFCF0E94C91A811102C070
:103960000E94701B0E94D41A80930C020E94DC1AE1
:103970009093300280932F020E94D81A682F70E033
:1039800080E090E00E943D186091F7017091F8018D
:103990008091F9019091FA010C94751880911902A7
:1039A000089508959FB7F894109210029FBF9091C8
:1039B0003502943009F057C09091E9009F70309122
:1039C000EC00232F217030FD20E8922B23E0209380
:1039D000E9002091EB0020FF43C02091EE0027FF7B
:1039E0003FC020910E02222321F02091E80025FF04
:1039F00037C010920E0226E03091E80035FD15C068
:103A000030913502343061F53091EB0035FD28C03E
:103A1000215021F481E080930E0222C0EFE9FFE003
:103A20003197F1F700C00000E7CF8093F10080915B
:103A3000E80085FD0AC08091E80080FFFCCF8091FE
:103A4000E8008E778093E80006C08FB7F89421E0F5
:103A5000209310028FBF9F709093E90080E008953B
:103A60009F709093E9008FEF0895CF93DF9300D07C
:103A70001F92CDB7DEB790913502943019F5898346
:103A80007B836A8382E08093E9008FEF9091E80066
:103A9000815095FD06C095ED9A95F1F700008111D2
:103AA000F5CF8091E80085FF0DC040E050E063E075
:103AB00070E0CE0101960E948D1F8091E8008E7704
:103AC0008093E8000F900F900F90DF91CF910895B1
:103AD000BC0184E00C94351DBC0183E00C94351DC1
:103AE000CF93DF9321E02093E9002FEF3091E8009E
:103AF000215035FD06C035ED3A95F1F70000211152
:103B0000F5CF2091E80025FF14C0EC0140E050E023
:103B100068E070E00E948D1F8091E8008E778093AE
:103B2000E80088E0FE01A1E1B2E001900D928A95E3
:103B3000E1F7DF91CF91089581EC97E00E94CC04EA
:103B400080913402811109C00E941E210E947B21B4
:103B50008091E20084608093E20008958DEB97E00D
:103B60000E94CC0410923402089589EB97E00C94E3
:103B7000CC0485EB97E00C94CC0481EB97E00E9499
:103B8000CC040C94141C20910F022F5F822F62E34F
:103B90000E942A24992319F020930F02089510926D
:103BA0000F0280911002882371F1809135028430D8
:103BB00041F58091E9008F702091EC00922F917077
:103BC00020FD90E8892B93E09093E9009091EB0021
:103BD00090FF14C09091EE0097FF10C09091E80004
:103BE00095FF03C01092F100F9CF9091E80090FF8B
:103BF00005C09091E8009E779093E8008F708093C5
:103C0000E90010921002089542E061EC81E00E9408
:103C1000972042E261EC82E00E94972042E261EC50
:103C200083E00C94972080913702833009F460C0C0
:103C300030F4813071F0823009F499C008958A30EF
:103C400009F485C08B3009F46BC0893009F0A7C036
:103C500020C080913602813A09F0A1C08091E8002D
:103C6000877F8093E80080913A0290913B02892BF4
:103C700021F468E081E192E003C060E080E090E040
:103C800070E00E94D81F8091E8008B778093E80055
:103C9000089580913602813209F081C080913A0204
:103CA00090913B02029708F07AC08091E800877FEC
:103CB0008093E8008091E80082FD05C08091350284
:103CC0008111F8CF6CC02091F3008091F20090E058
:103CD000922B029729F48091F1008B7F813021F49F
:103CE0008091F100809319028091E8008B7753C096
:103CF00080913602813A09F052C080913A02909147
:103D00003B02892B09F04BC08091E800877F8093AC
:103D1000E8008091E80080FFFCCF80910C0136C064
:103D2000809136028132D9F580913A0290913B021E
:103D3000892BA9F58091E800877F8093E8000E9495
:103D4000CC208091380280930C010C944714809110
:103D50003602813221F58091E800877F8093E80068
:103D60000E94CC208091390280931A02089580919C
:103D70003602813AA1F48091E800877F8093E800C1
:103D80008091E80080FFFCCF80911A028093F100BF
:103D90008091E8008E778093E8000C94CC20089501
:103DA00084B7877F84BF0FB6F894A8958091600090
:103DB000886180936000109260000FBE90E080E800
:103DC0000FB6F89480936100909361000FBE0E943B
:103DD000910F0E941E210E947B218091E20084604D
:103DE0008093E20082ED9CE10E94C41A78940E94C4
:103DF0000F240E94970F82E091E00E94F30E80EA68
:103E000097E00E94CC0480913502853089F48CE9DA
:103E100097E00E94CC040E94E21B80913302882329
:103E200091F30E94C91B882371F30E94771FEBCF87
:103E30000E94C70F0E94850F0E94840FE4CF0C944C
:103E4000211F292F332723303105C9F060F4213099
:103E5000310581F02230310509F041C08BE590E059
:103E60002DEE37E040C021323105E1F0223231053C
:103E700031F135C082E190E028E438E034C0992780
:103E80008130910549F028F0029749F5E5ECF7E01B
:103E900005C0E9EEF7E002C0EBEDF7E0849190E0B9
:103EA0009F0121C063307105D0F4660F771FFB01BD
:103EB000EB57FE4F2081318189E090E014C06330E0
:103EC000710568F4FB01EE0FFF1FE158FE4F2081E2
:103ED0003181FB01E458FE4F808190E004C080E016
:103EE00090E020E030E0FA0131832083089580E102
:103EF00089BD82E189BD09B400FEFDCF8091D80063
:103F00008F7D8093D8008091E00082608093E000F4
:103F10008091E00081FDFCCF0895CF92DF92EF9277
:103F2000FF920F931F93CF93DF93EC018B017A01E4
:103F30000E94EB20811133C0E114F10439F0F70144
:103F400080819181081B190BC80FD91FC12CD12C5E
:103F50000115110519F18091E80085FD16C08091C9
:103F6000E8008E778093E800E114F10449F0F7014E
:103F700080819181C80ED91ED182C08285E00FC098
:103F80000E94EB20882321F30AC089918093F100DD
:103F900001501109FFEFCF1ADF0ADACF80E0DF917D
:103FA000CF911F910F91FF90EF90DF90CF900895E8
:103FB00020913C0230913D022617370748F06115E9
:103FC000710539F42091E8002E772093E80001C0B4
:103FD000B901FC0120E06115710579F1809135028C
:103FE0008823F1F18530F1F18091E80083FD3CC038
:103FF0008091E80082FD2EC08091E80080FFEBCF29
:104000002091F3008091F20090E0922B61157105F0
:1040100051F08830910538F421912093F1006150DE
:1040200071090196F3CF21E0089709F020E0809113
:10403000E8008E778093E800CECF2111CFCF0AC061
:1040400080913502882361F0853061F08091E8002D
:1040500083FD0AC08091E80082FFF2CF80E00895DE
:1040600082E0089583E0089581E0089520913C0264
:1040700030913D022617370748F06115710539F474
:104080002091E8002E772093E80001C0B901FC01DF
:1040900020E06115710591F180913502882309F4C2
:1040A00040C0853009F43FC08091E80083FD3DC0E9
:1040B0008091E80082FD2FC08091E80080FFE9CF69
:1040C0002091F3008091F20090E0922B6115710530
:1040D00059F08830910540F424912093F1003196F5
:1040E000615071090196F2CF21E0089709F020E0B4
:1040F0008091E8008E778093E800CBCF2111CCCF60
:104100000AC080913502882361F0853061F080918A
:10411000E80083FD0AC08091E80082FFF2CF80E0D2
:10412000089582E0089583E0089581E00895982F2E
:10413000973068F59093E900981739F07091EC008A
:104140002091ED005091F00003C0242F762F50E015
:1041500021FD02C09F5FECCF3091EB003E7F30939A
:10416000EB003091ED003D7F3093ED003091EB009E
:1041700031603093EB007093EC002093ED0050938E
:10418000F0002091EE0027FDE5CF80E008958F70CC
:104190008093E90081E008958091360287FF11C085
:1041A0008091E80082FD05C0809135028111F8CF31
:1041B00011C08091E8008B770BC080913502882375
:1041C00049F08091E80080FFF8CF8091E8008E7779
:1041D0008093E80008952091E4003091E50095E691
:1041E0004091EC00842F817040FF23C08091E80053
:1041F00080FD1DC080913502882399F0853099F0AB
:104200008091EB0085FD11C04091E4005091E500E4
:104210002417350729F3915011F09A01E1CF84E07A
:10422000089582E0089583E0089581E0089580E094
:1042300008954091E80042FFDDCF08950E948C214F
:104240000E949421E0EEF0E0808181608083E8EDBF
:10425000F0E080818F77808319BCA7EDB0E08C916E
:104260008E7F8C9380818F7E80831092340208959C
:104270000F931F93CF93DF930E948C210E94942170
:10428000C8EDD0E088818F778883888180688883B3
:1042900088818F7D888319BC10923502109231027B
:1042A000109233021092320200EE10E0F801808189
:1042B0008B7F808388818160888342E060E080E03A
:1042C0000E949720E1EEF0E080818E7F8083E2EE15
:1042D000F0E0808181608083808188608083F80144
:1042E00080818E7F8083888180618883DF91CF91F8
:1042F0001F910F910895E8EDF0E080818F7E80831B
:10430000E7EDF0E080818160808384E082BF81E01E
:10431000809334020C943821E8EDF0E080818E7FA8
:1043200080831092E20008951092DA001092E1006A
:1043300008951F920F920FB60F9211242F933F935F
:104340004F935F936F937F938F939F93AF93BF939D
:10435000EF93FF938091E10082FF0BC08091E20018
:1043600082FF07C08091E1008B7F8093E1000E9473
:10437000C31D8091DA0080FF1FC08091D80080FFAC
:104380001BC08091DA008E7F8093DA008091D90083
:1043900080FF0DC080E189BD82E189BD09B400FEC6
:1043A000FDCF81E0809335020E949C1D05C019BCA1
:1043B000109235020E94AE1D8091E10080FF19C06D
:1043C0008091E20080FF15C08091E2008E7F809393
:1043D000E2008091E20080618093E2008091D80049
:1043E00080628093D80019BC85E0809335020E94DA
:1043F000B91D8091E10084FF30C08091E20084FF0C
:104400002CC080E189BD82E189BD09B400FEFDCFE9
:104410008091D8008F7D8093D8008091E1008F7EBD
:104420008093E1008091E2008F7E8093E200809192
:10443000E20081608093E20080913102882311F0D4
:1044400084E007C08091E30087FD02C081E001C0E5
:1044500083E0809335020E94BD1D8091E10083FFBF
:1044600029C08091E20083FF25C08091E100877F11
:104470008093E10082E080933502109231028091B6
:10448000E1008E7F8093E1008091E2008E7F809337
:10449000E2008091E20080618093E20042E060E00F
:1044A00080E00E9497208091F00088608093F00067
:1044B0000E94B51DFF91EF91BF91AF919F918F9198
:1044C0007F916F915F914F913F912F910F900FBE10
:1044D0000F901F9018951F920F920FB60F921124F4
:1044E0002F933F934F935F936F937F938F939F93FC
:1044F000AF93BF93CF93DF93EF93FF93C091E90006
:10450000CF708091EC00D82FD17080FDD0E8109250
:10451000E9008091F000877F8093F00078940E94FA
:10452000AF221092E9008091F00088608093F00043
:10453000CD2BCF70C093E900FF91EF91DF91CF9128
:10454000BF91AF919F918F917F916F915F914F91AB
:104550003F912F910F900FBE0F901F9018951F93B2
:10456000CF93DF93CDB7DEB7AA970FB6F894DEBF2F
:104570000FBECDBFE6E3F2E08091F100819322E02F
:10458000EE33F207C9F70E94131E8091E80083FF03
:104590002EC18091360290913702492F50E04A3067
:1045A000510508F024C1FA01EC58FF4F0C94362451
:1045B000803821F0823809F01AC108C08091320297
:1045C00090913302992389F082600FC080913A0262
:1045D0008F70873008F00BC18093E9008091EB0069
:1045E00085FB882780F91092E9009091E800977F79
:1045F0009093E8008093F1001092F100D1C0282F31
:104600002D7F09F0F4C0882319F0823061F0EFC0EB
:1046100080913802813009F0EAC0933009F080E0DF
:10462000809333022EC08091380281112AC080917C
:104630003A028F702FEF280F263008F0D8C08093F1
:10464000E9002091EB0020FF1CC0933021F4809101
:10465000EB00806214C09091EB0090619093EB00AE
:1046600021E030E0A90102C0440F551F8A95E2F70E
:104670004093EA001092EA008091EB0088608093FA
:10468000EB001092E9008091E800877F8093E800BA
:104690000E94CC20ACC08111AAC0109138021F77B3
:1046A0008091E3008078812B8093E3008091E80083
:1046B000877F8093E8000E94CC208091E80080FFF3
:1046C000FCCF8091E30080688093E300111102C069
:1046D00082E001C083E08093350289C08058823037
:1046E00008F085C080913802909139028C3D53E0EA
:1046F000950779F583E08A838AE289834FB7F89436
:10470000DE01139620E03EE051E2E32FF0E050930B
:104710005700E49120FF03C0E295EF703F5FEF7018
:104720008E2F90E0EA3010F0C79601C0C0968D93AE
:104730009D932F5F243149F74FBF8091E800877F19
:104740008093E8006AE270E0CE0101960E94D81FD3
:1047500016C060913A0270913B02AE014F5F5F4F0D
:104760000E941F1FBC01892B09F441C09091E800F1
:10477000977F9093E80089819A810E9436208091EA
:10478000E8008B778093E80032C0803881F5809113
:10479000E800877F8093E800809131028093F100E8
:1047A0008091E8008E7772CF811121C0809138020C
:1047B0009091390299270297D4F48091E800877F7D
:1047C0008093E80080913802809331020E94CC20CF
:1047D00080913102811106C08091E30087FD02C003
:1047E00081E001C084E0809335020E94041E809124
:1047F000E80083FF0AC08091E800877F8093E8008B
:104800008091EB0080628093EB00AA960FB6F8943B
:10481000DEBF0FBECDBFDF91CF911F910895CF9323
:10482000809135028823A1F0C091E900CF7090916A
:10483000EC00892F817090FD80E8C82B1092E90070
:104840008091E80083FD0E94AF22CF70C093E90001
:10485000CF910895991B79E004C0991F961708F02D
:10486000961B881F7A95C9F780950895EE0FFF1F54
:104870000590F491E02D0994F999FECF92BD81BD88
:10488000F89A992780B50895A8E1B0E042E050E099
:104890000C947024262FF999FECF92BD81BDF89A11
:1048A000019700B4021639F01FBA20BD0FB6F89474
:1048B000FA9AF99A0FBE08950396272F0E944B2467
:1048C0000E944A24252F0E944B24242F0C944B2411
:1048D0000196272F0E944B240C944A24DC01CB0123
:1048E000FC01F999FECF06C0F2BDE1BDF89A319600
:1048F00000B40D9241505040B8F70895F894FFCF9E
:104900000102CE1C701DD11C6C1D681D01E200E966
:1049100000EA00B500B600B700CD008301CC008AE4
:10492000019201940121022302240225022602277A
:10493000022A02B300B4006F007000818283946683
:1049400097C63431333236F4F5F6F7E200E900EA7F
:1049500000B500B600B700CD008301CC008A0192FB
:104960000194012102230224022502260227022AA1
:1049700002B300B4006F007000818283403222AE27
:0C498000087C085A08FF071808310800DE
:00000001FF
