:100000000C947F050C94C6050C94C6050C94C6058B
:100010000C94C6050C94C6050C94C6050C94C60534
:100020000C94C6050C94C6050C94252F0C94F72F40
:100030000C943E260C94C6050C94C6050C94C6057B
:100040000C94C6050C94C6050C94C6050C94C60504
:100050000C94C6050C948B260C94C6050C94C6050E
:100060000C94C6050C94C6050C94C6050C94C605E4
:100070000C94C6050C94C6050C94C6050C94C605D4
:100080000C94C6050C94C6050C94C6050C94C605C4
:100090000C94C6050C94C6050C94C6050C94C605B4
:1000A0000C94C6050C94C6050C94C6057D138013EC
:1000B00088138D13921397139C13A113A613AB13DC
:1000C000B013B513B713BA13BD13C013C313C613BC
:1000D000C813CD13571B571B891B891BD61BF41B39
:1000E000151D151DFF1B941CA51CA51C051D151D0C
:1000F000151D0E1DB51DB51DC71DC71DBE1DC71D78
:10010000C71DC71DB51DB51DC31DC71DC71DC31DFB
:1001100064308B3083318B308331D730FA30833188
:10012000513160312B0014001A000800150017002F
:100130001C0018000C00120013002A002900040003
:100140001600070009000A000B000D000E000F004A
:1001500033003400E1001D001B00060019000500FB
:10016000110010003600370052002800E000035153
:10017000E200E30001512C00000002513800500061
:1001800051004F0035001E021F02200221022202F0
:10019000230224022502260227024C002900F20035
:1001A000F100F000F300F400000050005100520094
:1001B0004F000000E100FB00FA00F900FC00F50030
:1001C0000000FB00FA00F900FC002800E00001003C
:1001D000E200E30001000100000001000100010055
:1001E0000100010035001E001F0020002100220038
:1001F000230024002500260027004C0029003A0097
:100200003B003C003D003E003F002D002E002F0033
:1002100030003400E100400041004200430044004F
:100220004500310031004B004E002800E000010085
:10023000E200E30001000100000001005000510055
:1002400052004F00C35CC45CC65CC85CCA5CCC5C3A
:100250000000F400F50000000000A9000000C55CEB
:10026000C75CC95CCB5CCD5C0000FB00FA00F90008
:10027000FC00AA0000007C007D00000000000000DF
:100280000000F200F100F000F300A80000000100FF
:1002900000000000010000000000000050005100BC
:1002A00052004F0044454255473A206469736162E9
:1002B0006C65642E0A0044454255473A20656E61DC
:1002C000626C65642E0A000A002530313662003AFD
:1002D000200025303258000A722F6320303132332B
:1002E0003435363738394142434445460A0072674F
:1002F000626C696768742074696D657220646973E3
:1003000061626C652E0A007267626C6967687420AE
:1003100074696D657220656E61626C65642E0A0099
:100320007267626C6967687420736574206873769D
:10033000205B4E4F454550524F4D5D3A2025752C60
:1003400025752C25750A007267626C6967687420D0
:1003500073657420687376205B454550524F4D5D40
:100360003A2025752C25752C25750A007267626C5C
:1003700069676874207261696E626F772073657453
:10038000206873763A2025642C25642C25642C255E
:10039000750A007267626C696768742064697361CA
:1003A000626C65205B454550524F4D5D3A20726747
:1003B000626C696768745F636F6E6669672E656EED
:1003C00061626C65203D2025750A007267626C6968
:1003D00067687420656E61626C65205B45455052AC
:1003E0004F4D5D3A207267626C696768745F636F36
:1003F0006E6669672E656E61626C65203D202575AD
:100400000A007267626C6967687420746F67676C52
:1004100065205B454550524F4D5D3A207267626CD6
:10042000696768745F636F6E6669672E656E616287
:100430006C65203D2025750A007267626C696768EB
:1004400074206D6F6465205B4E4F454550524F4D93
:100450005D3A2025750A007267626C6967687420CE
:100460006D6F6465205B454550524F4D5D3A2025C8
:10047000750A007267626C696768745F696E697497
:10048000207267626C696768745F636F6E66696724
:100490002E6D6F6465203D20302E20577269746583
:1004A0002064656661756C742076616C7565732077
:1004B000746F20454550524F4D2E0A007267626C92
:1004C000696768745F696E6974206565636F6E66DD
:1004D0006967206973206E6F7420656E61626C6558
:1004E000642E0A007267626C696768745F696E697E
:1004F00074207374617274210A007267626C696798
:1005000068745F696E69742063616C6C65642E0A3F
:10051000007267626C696768745F636F6E666967B3
:100520002E7370656564203D2025640A0072676241
:100530006C696768745F636F6E6669672E76616C5D
:10054000203D2025640A007267626C696768745FE9
:10055000636F6E6669672E736174203D2025640A9F
:10056000007267626C696768745F636F6E66696763
:100570002E687565203D2025640A007267686C69E5
:100580006768745F636F6E6669672E6D6F64652060
:100590003D2025640A007267626C696768745F6356
:1005A0006F6E6669672E656E61626C65203D202501
:1005B000640A007267626C696768745F636F6E6675
:1005C000696720454550524F4D3A0A0032190A00DA
:1005D000047F3F1F643214643214783C1E1E140AD8
:1005E000052223252628292A2C2D2F303233353673
:1005F000383A3B3D3E4042434547494A4C4E5051B4
:10060000535557595A5C5E6062646668696B6D6FDA
:1006100071737577797B7D7F81838587898A8C8EDD
:1006200090929496989A9C9E9FA1A3A5A7A8AAACE5
:10063000AEAFB1B3B4B6B8B9BBBCBEBFC1C2C3C51F
:10064000C6C7C9CACBCCCDCED0D1D2D2D3D4D5D6C1
:10065000D7D7D8D9D9DADADBDBDBDCDCDCDCDCDDF4
:10066000DDDDDDDCDCDCDCDCDBDBDBDADAD9D9D8D8
:10067000D7D7D6D5D4D3D2D2D1D0CECDCCCBCAC970
:10068000C7C6C5C3C2C1BFBEBCBBB9B8B6B4B3B19F
:10069000AFAEACAAA8A7A5A3A19F9E9C9A9896943A
:1006A00092908E8C8A89878583817F7D7B7977750F
:1006B00073716F6D6B6968666462605E5C5A5957EE
:1006C000555351504E4C4A4947454342403E3D3BAD
:1006D0003A3836353332302F2D2C2A292826252337
:1006E00022FFAA7F55406261636B6C696768742062
:1006F000737465703A2025750A006261636B6C69DA
:100700006768742064697361626C650A0062616382
:100710006B6C6967687420656E61626C650A006263
:1007200061636B6C6967687420746F67676C653AA6
:100730002025750A006261636B6C696768742064C8
:10074000656372656173653A2025750A00626163AD
:100750006B6C6967687420696E6372656173653A72
:100760002025750A000001010101010101010102BA
:100770000202020202020202030303030303030351
:10078000040404040404040505050505060606061C
:1007900006070707070708080808090909090A0AD8
:1007A0000A0B0B0B0C0C0C0D0D0D0E0E0E0F0F0F7C
:1007B0001010111111121213131414151516161707
:1007C00017181819191A1A1B1B1C1D1D1E1E1F2075
:1007D00020212222232424252626272829292A2BC2
:1007E0002C2D2D2E2F3031323233343536373839E7
:1007F0003A3B3C3D3E3F40414243444546474849E1
:100800004A4C4D4E4F50515354555658595A5B5DB2
:100810005E5F616264656668696B6C6D6F70727350
:100820007577787A7B7D7E8082838587888A8C8EB7
:100830008F91939596989A9C9EA0A2A3A5A7A9ABE9
:10084000ADAFB1B3B5B7BABCBEC0C2C4C6C9CBCDDB
:10085000CFD1D4D6D8DBDDDFE2E4E7E9EBEEF0F38D
:10086000F5F8FAFDFF0A002530325820006B657953
:10087000626F6172645F7265706F72743A20000A11
:100880000025303258006B6579626F6172645F7366
:1008900065745F6C65643A200064656C5F6B6579B4
:1008A0005F6269743A2063616E27742064656C3AF4
:1008B00020253032580A006164645F6B65795F629D
:1008C00069743A2063616E2774206164643A20255C
:1008D0003032580A00290A002575002F00257500BE
:1008E0005D280025640020002564002000256400A8
:1008F00020002564007C0025303258006D6F757330
:10090000656B6579205B62746E7C78207920762037
:10091000685D287265702F61636C293A205B005B0B
:10092000735D004B6579626F6172642073746172EC
:10093000742E0A005B575D005B535D005B525D00E7
:100940005B445D005B435D0012034E0049005500AF
:1009500020004D0069006E006900000010034B008C
:1009600042004400460061006E0073000000040372
:10097000090409025B00030100A0FA090400000158
:100980000301010009211101000122400007058136
:100990000308000A090401000103000000092111F5
:1009A00001000122BC000705820320000A0904029D
:1009B00000020300000009211101000122220007AA
:1009C0000583032000010705030320000112011025
:1009D00001000000086D6E01000100010200010627
:1009E00031FF0974A1010975150026FF00952075D6
:1009F0000881020976150026FF00952075089102EE
:100A0000C005010902A10185020901A1000509191A
:100A100001290515002501950575018102950175CE
:100A20000381010501093009311581257F95027582
:100A300008810609381581257F950175088106050D
:100A40000C0A38021581257F950175088106C0C002
:100A500005010980A101850319012AB700150126A6
:100A6000B700950175108100C0050C0901A1018531
:100A70000419012AA002150126A002950175108112
:100A800000C005010906A1018505050719E029E750
:100A9000150025019508750181020507190029EF48
:100AA0001500250195F07501810205081901290538
:100AB000950575019102950175039101C005010924
:100AC00006A101050719E029E7150025019508751C
:100AD0000181029501750881010507190029FF159B
:100AE0000026FF00950675088100050819012905F3
:100AF000950575019102950175039101C0001124BE
:100B00001FBECFEFDAE0DEBFCDBF04B603FE27C0C5
:100B100080914D0390914E03A0914F03B0915003EB
:100B20008730904BA740B04BD1F410924D031092F8
:100B30004E0310924F031092500314BE84B7877F68
:100B400084BF0FB6F894A895809160008861809367
:100B50006000109260000FBEE0E0F8E3099511E03C
:100B6000A0E0B1E0E6E6F6E602C005900D92A83DF1
:100B7000B107D9F723E0A8EDB1E001C01D92AD3473
:100B8000B207E1F70E945C2C0C9431330C94000006
:100B9000FF93EF93E091D801F091D901309709F0DC
:100BA0000995EF91FF910895FC018591803011F036
:100BB000EFDFFBCF0895FF27E0E230E247FF0CC0F4
:100BC000419597FF09C0EDE26095709580959095ED
:100BD000611D711D811D911D27FF02C0219530E30C
:100BE00050E2AA27660F771F881F991FAA1FA41714
:100BF00010F0A41B63955A95A9F7AA3008F0A95FD5
:100C0000A05DAF93F395611571058105910541F7DD
:100C1000ED3211F4EF93F395F21718F43F93F39537
:100C2000FBCF8F91B5DFFA95E1F70895E991F9913E
:100C30008591803021F0853219F0AADFF9CF08952F
:100C400020E0E89455915532C1F3503311F4689483
:100C500055915A3348F4505390F3220F022E220F2D
:100C6000220F200D250FF4CF0EF421958991999133
:100C7000533619F3533729F1533559F1BC018827FD
:100C80009927E8945C3621F489919991689455915B
:100C9000543639F446EF7EF077FF0DC08FEF9FEFAB
:100CA0000AC055374AE039F0583540E121F0523654
:100CB00042E009F00895FF93EF937DDFEF91FF91FC
:100CC000B7CFFF93EF93FC0181918030B9F360DFE0
:100CD000FBCFFF93EF9368DFF1CFDF93CF93CDB7D7
:100CE000DEB72596A3DFCF91DF9108956E9A769AAD
:100CF0000C94C30981E0089581E008950C947C066A
:100D000008950C9480061F93CF93DF9300D000D0FA
:100D10001F92CDB7DEB749835A836B83309142026D
:100D200089819A81311114C0662359F0222349F038
:100D30000E94EE22182F682F89819A810E949722A3
:100D400003C00E94C222182F69817A81812F04C0BA
:100D50000E94EE2269817A810F900F900F900F9080
:100D60000F90DF91CF911F910C946007FC01262F0B
:100D7000408151816281738184810C948306CF9379
:100D8000DF93EC0160E00E94B606BE01DF91CF91D7
:100D90000C9481060E944A24811102C00E94FA2408
:100DA0000E94B4150C9476060C94C10908950E9413
:100DB000A31D0E94D6062FEF84E39CE021508040C3
:100DC0009040E1F700C000000C94B1260F931F93F0
:100DD000CF93DF93EC0161E00E94B6068C01BE0167
:100DE0000E947E06882309F450C0BE01C8010E94FB
:100DF0001D15882309F449C0BE01C8010E9462166E
:100E0000882309F442C0BE01C8010E94B416882399
:100E1000E1F1BE01C8010E94DF178823B1F1BE01D4
:100E2000C8010E946613882381F18A81882331F1E9
:100E300001308CE5180751F00F3D8CE51807D9F00B
:100E400001151C45D9F40E94D7061FC08091C60227
:100E5000C82FC095C170C0FB80F98093C602CC2317
:100E600029F086EB92E00E94D4050FC084EA92E05C
:100E70000E94D4050BC00E94FA2407C0CE01DF9166
:100E8000CF911F910F910C947A06C0E08C2FDF91C7
:100E9000CF911F910F91089508950C944C0781E014
:100EA00008950C944F07CF93C82F0E944D078C2FA5
:100EB0000E945107CF91089580E090E00895089531
:100EC00020E3829FC0011124FC012CE0729FE00D01
:100ED000F11D1124E60FF11DEE0FFF1FEC5DFE4F1B
:100EE000859194910895880F991FFC01E953FD4F56
:100EF000859194910895CF93DF930E9460070E949B
:100F00009308EC018115904508F041C0C11580E4BB
:100F1000D80708F0D1C0C83ED10510F5C03ED105B4
:100F200008F0FDC0C83AD10578F4C53AD10508F0FB
:100F3000A2C0C130D10509F4F2C008F4EEC0C4303B
:100F4000D10508F0ECC0E9C0CF3BD10508F49BC047
:100F5000C03CD10508F4E1C0CE01805C91099EC07F
:100F6000C11590E2D90758F4C11521E0D20708F065
:100F7000D6C0C03FD10508F4D0C0D065D0C0C115DF
:100F800080E3D80708F08EC0CE019F7087C0C115DE
:100F900095E5D90708F043C0C11524E5D20708F04C
:100FA000A2C0C11582E5D80708F5C11591E5D9079A
:100FB00008F085C0CE0174E0969587957A95E1F7A3
:100FC00083709C2F937021E030E002C0220F331F0A
:100FD0009A95E2F73C68382BCF70C695C69580E2AB
:100FE000C89FE0011124C22BD32B99C09E0123700E
:100FF00033278C2F86958695C115D34508F064C09C
:10100000C1E0D0E002C0CC0FDD1F2A95E2F720E25C
:10101000829FC0011124C82BD92BDC6880C0C11568
:1010200029E5D207A0F4C11588E5D80708F060C00B
:10103000C11596E5D90708F070C08C2F0E942709CA
:101040008F71C82FD0E0DC2FCC27D06268C0C115CB
:101050002AE5D20708F451C0CE019056811590427E
:1010600008F05BC08D2F8F710E942709DD27D062A9
:101070008F71D82B54C0C55AD0E0C65ADE4FC881F4
:10108000D0E0D0644CC0C85AD0E0CC0FDD1FC45DA6
:10109000DE4F0990D881C02DD46441C00E947307EF
:1010A000EC013DC0CE019927D3FF03C0EC01D86C01
:1010B00036C0EC01D06C33C0DF70D06A30C0DC2F9A
:1010C000CC27C16FD06A2BC0C1E0D0E002C0CC0FEA
:1010D000DD1F2A95E2F720E2829FC0011124C82B70
:1010E000D92BDA681CC0DC2FCC27C46FD06A17C09C
:1010F000DC2FCC27C06FD06A12C08C2F8F700E945B
:10110000270994E0D695C7959A95E1F7CF70D0E07E
:10111000DC2FCC27D069C82B02C0C0E0D0E0CE01C4
:10112000DF91CF9108958238910569F1B0F4813350
:10113000910509F46DC048F48932910509F463C042
:101140008A32910509F469C008958533910509F43F
:1011500055C089339105B9F00895833E910569F131
:1011600038F4803E9105B1F0823E910509F1089571
:10117000863E9105A9F1873E9105B9F1843E91051E
:1011800009F064C023C020913E0320FD4FC021FD23
:101190004DC0089580913E0380FD44C080913F037F
:1011A00080FF44C080913E0384FD42C083EE4DC069
:1011B00080913E0382FF38C0F5CF80913E0382FDCF
:1011C00033C080913F0380FD31C0ECCF80913F035D
:1011D00081FF32C080913E0384FD2AC087EE35C076
:1011E00080913E0383FF26C0F5CF80913E0383FDAF
:1011F00021C080913F0381FD1FC0ECCF80913E0351
:1012000085FD1CC01DC080913E0385FD19C016C020
:1012100080913E0386FD16C017C080913E0386FD77
:1012200013C010C089E311C082EE0FC080EE0DC064
:1012300080E00BC086EE09C084EE07C089E205C0DD
:1012400085E303C08AE201C081E390E008959091B4
:101250003E0392FF0DC0282F2871283019F4877F94
:10126000846006C0282F2471243011F48B7F88609D
:1012700093FF0DC0282F2871283119F4877E8461CF
:1012800006C0282F2471243111F48B7E88612091AF
:101290003F0320FF0DC0382F3871383019F4877F95
:1012A000816006C0382F3171313011F48E7F886033
:1012B00021FF0DC0282F2871283119F4877E816104
:1012C00006C0282F2171213111F48E7E886194FD92
:1012D000877E0895E82FF0E0EE0FFF1FEE5FFC4FD2
:1012E000808191810895CF92DF92EF92FF920F93C8
:1012F0001F93CF93DF9387ED92E00E94D40582E0A5
:10130000E82E83E0F82EC0E0D0E092EDC92E92E006
:10131000D92E09EC12E0DF93CF93DF92CF920E9497
:101320006D068FEC92E00E94D405F70181919191B6
:101330007F010E9437249F938F931F930F930E94E6
:101340006D0687EC92E00E94D40521968DB79EB77A
:1013500008960FB6F8949EBF0FBE8DBFC430D1055E
:10136000D1F6DF91CF911F910F91FF90EF90DF9019
:10137000CF90089580EA8A95F1F7089508950C9426
:10138000BE090C94BF090C94BE09F894E82FE295AD
:10139000EF70F0E031A1282F2F7081E090E001C0C4
:1013A000880F2A95EAF7982F9095932391A392A1FD
:1013B000892B82A3789408950F931F93CF93DF9383
:1013C00080E90E94C50981E90E94C50982E90E945D
:1013D000C50983E90E94C509CDE5D1E009E611E020
:1013E00089910E94C5090C171D07D1F71092FB02C5
:1013F0001092FA0210920303109202031092FD025F
:101400001092FC0210920503109204031092FF0246
:101410001092FE021092070310920603109201032D
:1014200010920003109209031092080384E00E94B6
:10143000AB0ADF91CF911F910F910C94CA067F9256
:101440008F929F92AF92BF92CF92DF92EF92FF92D4
:101450000F931F93CF93DF93C9E6D1E08AEFA82EB5
:1014600082E0B82E92E0E92E93E0F92E712C01E093
:1014700010E06E018881F894E82FE295EF70F0E0BB
:1014800021A18F70A80102C0440F551F8A95E2F771
:10149000CA01922F982B91A392A18095892382A3B0
:1014A00078940E94BA09EDE5F1E020E030E0812C6B
:1014B000912C4191A42FA295AF70B0E090968C91A1
:1014C00090E04F7002C0959587954A95E2F780FDB0
:1014D00008C0C801022E02C0880F991F0A94E2F7C3
:1014E00002C080E090E0882A992A2F5F3F4F2C307D
:1014F0003105F9F62196F60180810E94C509F501B2
:10150000808191818816990621F09182808281E004
:1015100001C080E0782AF2E0AF0EB11CEA14FB04AF
:1015200009F0A7CF272D44E062E073E08AEF92E054
:101530000E94AC0A0E94D406872DDF91CF911F91A3
:101540000F91FF90EF90DF90CF90BF90AF909F9062
:101550008F907F9008950895FF920F931F93CF93DC
:10156000DF93F82E092F162FD72FC42F222349F0EF
:1015700081E08093DC010E9470269093DB018093D0
:10158000DA018091DC018823D9F08091DA01909111
:10159000DB010E947C26069798F0EF2DF02FA12FFB
:1015A000BD2F80E090E04C2F50E08417950734F475
:1015B000219131912D933D930196F7CF1092DC014B
:1015C000DF91CF911F910F91FF900895EF92FF92BD
:1015D0000F931F93CF93DF938B01682F11110AC0D4
:1015E000442329F0E82FF0E0EB59F84F6491762F6F
:1015F000862F75C0212F30E0E82FF0E0442321F042
:10160000EB59F84FE491F0E046E0049FC00111244B
:10161000CFEFD0E0BE010E94E0314BEA4603C001AB
:10162000479F900D1124800F911D800F911D982FC1
:10163000990F890FAE01421B530B4E9FD0014F9F54
:10164000B00D5E9FB00D11249B2F189FA001112497
:10165000452F55278E01041B150B0E9FA0010F9FD0
:10166000500D1E9F500D11247E01E81AF108E29ED4
:101670008001E39E100DF29E100D1124212F3327BF
:10168000C21BD30BCE9F9001CF9F300DDE9F300D3C
:10169000112462307105A9F048F46115710569F0F3
:1016A00061307105C9F48B2F752F0DC06430710541
:1016B00081F058F06630710579F47E2F8B2F932FCF
:1016C0000DC0832F7B2F9E2F09C08E2F7B2F952F30
:1016D00005C08E2F732F02C07E2F852F692FDF91BB
:1016E000CF911F910F91FF90EF90089541E00E94DC
:1016F000E60A089508950E94760B0895CF93DF932C
:10170000762FE901682F842F0E947B0B79836883F1
:101710008A83DF91CF91089580910A03282F26951F
:1017200030E02115310519F48170826005C02B323B
:10173000310524F08170846580930A03089588E060
:1017400090E00C94D232CF92DF92EF92FF926B0135
:101750007C010E948C0BB701A60188E090E0FF900D
:10176000EF90DF90CF900C94F032EAE0F3E083E06A
:10177000808311828FEF82838383148260817181E1
:10178000828193810C94A30B8091C60280FF08C0D4
:1017900083EB95E09F938F930E946D060F900F90BF
:1017A0008091C60280FF0FC080910A0381701F9252
:1017B0008F9386E995E09F938F930E946D060F901B
:1017C0000F900F900F908091C60280FF0FC0809104
:1017D0000A0386951F928F938BE795E09F938F93D3
:1017E0000E946D060F900F900F900F908091C6028F
:1017F00080FF0EC080910B031F928F9381E695E0CE
:101800009F938F930E946D060F900F900F900F90F3
:101810008091C60280FF0EC080910C031F928F93AF
:1018200087E495E09F938F930E946D060F900F9031
:101830000F900F908091C60280FF0EC080910D0323
:101840001F928F938DE295E09F938F930E946D0678
:101850000F900F900F900F908091C60280FF0EC0E6
:1018600080910E031F928F9381E195E09F938F9358
:101870000E946D060F900F900F900F900895809129
:101880000A0380FF02C08695089580E00895909134
:101890000E03933018F49F5F90930E03882351F04A
:1018A00060910A0370910B0380910C0390910D03DA
:1018B0000C94A30B089581E00C94470C90910E03B7
:1018C000992319F0915090930E03882351F0609161
:1018D0000A0370910B0380910C0390910D030C94FB
:1018E000A30B089581E00C945E0C70E00C94C41579
:1018F0006091080180910A0380FF0AC0809107016E
:1019000023E0829FC0011124815F9C4F0C94750CD1
:101910008091090190910A01891780F7E82FF0E082
:101920009F01220F331FE20FF31FE15FFC4F118273
:10193000108212828F5FF0CF90910A0390FF16C041
:101940009091090120910A01921770F4E92FF0E0BB
:10195000DF01AA0FBB1FEA0FFB1FE15FFC4F818372
:10196000608342839F5FF0CF0C94780C0895CF93EF
:10197000DF9300D01F92CDB7DEB790910A0390FF9E
:101980000AC09E012F5F3F4F0E947E0B4B816981F1
:101990008A810E949C0C0F900F900F90DF91CF9145
:1019A0000895CF93DF93EC01EC81F0E0EF51FA4F13
:1019B0004491EAE0F3E0628181810E94B70C8C815E
:1019C0008F5F8C83DF91CF910895CF93DF93EC01EC
:1019D000EAE0F3E0438162818C810E94B70C8C8144
:1019E0008F5F8C83DF91CF9108950F931F93CF93D7
:1019F000DF9300D01F92CDB7DEB78C018091DD015F
:101A000081110AC09E012F5F3F4F4FEF6FEF0E9481
:101A10007E0B8A818093DD01F8018481813051F051
:101A200028F0823061F44091DD010AC08091DD012F
:101A300040E007C06091DD0140E080E003C040E08D
:101A400080E060E00E949C0CF801848190E00196A7
:101A500063E070E00E94F43184830F900F900F9048
:101A6000DF91CF911F910F9108954F925F926F92E6
:101A70007F928F929F92AF92BF92CF92DF92EF921E
:101A8000FF920F931F93CF93DF9300D01F92CDB798
:101A9000DEB7F82EB62EE42E622E90910A0390FF48
:101AA000B4C0E92FE695AE2FB0E0A359BE4F8C919C
:101AB00080932D029E7F923061F49E012F5F3F4FF5
:101AC0008F2D0E947E0B4B8169818A810E949C0C24
:101AD00062C0823019F4E0900D035DC0863019F4C5
:101AE000F0900B0358C08930D9F3893109F053C005
:101AF000E9518E2F8170782E81E0A72CA826E695DB
:101B0000F0E0EF51F94FC590D490412CDD249CE6D4
:101B1000892E93E0992E60910B014616D0F5042D85
:101B200010E00C9DC0010D9D900D1C9D900D112489
:101B300070E00E94E0315F2C711002C0560E01C0AF
:101B4000561A8091C60280FF11C0DF92CF921F9279
:101B5000AF921F925F921F924F929F928F920E941C
:101B60006D060FB6F894DEBF0FBECDBF80910901A0
:101B7000080F111D9801220F331F020F131F980128
:101B8000215F3C4F4E2D6B2D852D0E947E0B439483
:101B9000C2CF0E94780CF0920B03B0920C03E0923B
:101BA0000D036620E9F060910A0370910B038091A8
:101BB0000C0390910D030E94A30B8091C60280FF3D
:101BC00024C080910D031F928F9380910C031F926C
:101BD0008F9380910B031F928F9387E493E00CC047
:101BE0008091C60280FF11C01F92EF921F92BF9298
:101BF0001F92FF9280E293E09F938F930E946D0665
:101C00000FB6F894DEBF0FBECDBF0F900F900F90B0
:101C1000DF91CF911F910F91FF90EF90DF90CF90C8
:101C2000BF90AF909F908F907F906F905F904F90FC
:101C30000895EAE0F3E09181282F4381628188E0F2
:101C4000890F0C94350D81E00C94190EEAE0F3E055
:101C50009181282F4381628188EF890F0C94350D83
:101C600081E00C94260EEAE0F3E0628128E0620F46
:101C700008F46FEF282F438181810C94350D81E0AA
:101C80000C94330EEAE0F3E0628128E0621B08F472
:101C900060E0282F438181810C94350D81E00C9404
:101CA000420EEAE0F3E0438128E0420F08F44FEFF0
:101CB000282F628181810C94350D81E00C94510EA6
:101CC000EAE0F3E0438128E0421B08F440E0282FDB
:101CD000628181810C94350D81E00C94600E20E0CE
:101CE0000C94350DFF920F931F93CF93DF93EC016C
:101CF000F12C0FEF10E060910B01F616F0F48091DB
:101D000009012F2D30E0280F311DC901880F991FBF
:101D1000280F391F215F3C4F70E0C8010E94F43149
:101D2000962F8C8140910D0360910C03F99E800DDC
:101D300011240E947E0BF394DECF0E94780C9A81CE
:101D40008C8190FF02C08F5F01C081508C83DF9136
:101D5000CF911F910F91FF900895AF92BF92CF92B4
:101D6000DF92EF92FF920F931F93CF93DF93FC01CB
:101D7000828180FF02C00FEF01C001E010E04EE061
:101D8000A42E80910B01181708F043C0809109011F
:101D9000C12ED12CE601C80FD11DCE01880F991F8D
:101DA000C80FD91FC15FDC4F198218821A8234E034
:101DB000E32EF12CB12C8091DF018B0D8F302CF0B4
:101DC0006A2D0E94D231892F05C087FF03C09091F0
:101DD0000B01890F082E000C990BC816D90691F437
:101DE00080910D038E9DA0018F9D500D112455955E
:101DF0004795559547959E0160910C0380910B0383
:101E00000E947E0BB00EF1E0EF1AF108A1F61F5F01
:101E1000B8CF0E94780C8091DF01013031F481113C
:101E200002C080910B01815007C090E00196609143
:101E30000B0170E00E94F4318093DF01DF91CF91BC
:101E40001F910F91FF90EF90DF90CF90BF90AF90D8
:101E50000895CF938091090190910A01891770F438
:101E6000E82FF0E09F01220F331FE20FF31FE15F25
:101E7000FC4F1182108212828F5FF0CFC0E0609120
:101E80000B01C617C0F5EC2FF0E070E0CF010E9407
:101E9000F43120910901820F2091DE01022E000C05
:101EA000330B90E0E217F307CCF020910601022EED
:101EB000000C330B2E173F078CF09C01220F331FB1
:101EC000820F931F9C01215F3C4F40910D03609155
:101ED0000C0380910B030E947E0B0BC0FC01EE0FE4
:101EE000FF1F8E0F9F1FFC01E15FFC4F11821082CC
:101EF0001282CF5FC4CF0E94780C2091050180919F
:101F0000DE01820F8093DE0190910601920F909383
:101F1000060119165CF4082E000C990B40910B0178
:101F200050E041505109841795071CF021952093EA
:101F30000501CF9108958F929F92AF92BF92CF9259
:101F4000DF92EF92FF920F931F93CF93DF938C0159
:101F5000FC014481C42FD0E09E01DE010E94383292
:101F60009B01AC010E944E326B017C01E0E2F0E08B
:101F7000EC1BFD0BA5E5B0E09B01AC010E944E32CD
:101F80004B015C019F01DF010E9430329B01AC01DB
:101F90000E9459329B01AC012C0D3D1D4E1D5F1D51
:101FA000C501B4010E940832C22FD22F2A3228F470
:101FB000F3E02F9F900111240DC025E530E02C1B8C
:101FC0003109C901880F991F280F391F37FF02C037
:101FD0002F5F3F4F35952795C22FC095F12C85E592
:101FE000E82EED1A80910B01F816C8F4F1FC02C03E
:101FF0008E2D01C08D2F909109012F2D30E0290FDA
:10200000311DA901440F551F240F351F215F3C4F7F
:102010004C2F60910C030E947E0BF394E3CF0E943F
:10202000780CF8018481811102C091E003C08032F4
:1020300019F49FEF9093040190910401890FF80126
:102040008483DF91CF911F910F91FF90EF90DF90EC
:10205000CF90BF90AF909F908F9008950F931F9354
:10206000CF93DF93EC0100E010E080910B01282F6B
:1020700030E00217130724F5909109019801290F08
:10208000311DA901440F551F240F351F215F3C4FFF
:10209000869590E04C81081719071CF4442331F011
:1020A00002C0411103C040910D0301C040E06091A6
:1020B0000C0380910B030E947E0B0F5F1F4FD5CF47
:1020C0000E94780C8C8190E00196817099278C8316
:1020D000DF91CF911F910F9108958F929F92AF92B0
:1020E000BF92CF92DF92EF92FF920F931F93CF9305
:1020F000DF93FC01B280948081E0848300E015E0EE
:102100005BE4A52E88248394EE24EA94F12C7BE4EE
:10211000C72ED12C80910B01081708F08FC0C02F5B
:10212000D0E01C9FF0011D9FF00D1124E052FE4FE6
:10213000911003C01382128267C02381222389F188
:10214000215023833481332319F09A2D921B01C02F
:10215000922F80910D031C9FF0011D9FF00D112403
:10216000E052FE4F899FC0011124B6010E94E03168
:102170006283211104C0332311F01482A38222E070
:102180002B1508F441C01C9FF0011D9FF00D112478
:10219000E052FE4F80910B03808380910C0381837A
:1021A00033C00E94AD328230914074F582E08B15CD
:1021B00030F40E94AD32B7010E94F43102C0809128
:1021C0000B031C9FF0011D9FF00D1124E052FE4FE8
:1021D000808322E02B1558F40E94AD3220910C032D
:1021E0002695622F70E00E94F431820F02C0809128
:1021F0000C031C9FF0011D9FF00D1124E052FE4FB7
:1022000081831282A3828482809109019E01280F1A
:10221000311DC901880F991F280F391F215F3C4FBD
:102220001C9FF0011D9FF00D1124E052FE4F4281D2
:10223000618180810E947E0B0F5F6CCFDF91CF9117
:102240001F910F91FF90EF90DF90CF90BF90AF90D4
:102250009F908F900C94780C60910A03669570E0C3
:102260004BE050E08CE091E00E94BD32892B19F4E4
:1022700081E080932E020E94702690932702809323
:1022800026028091C60280FF08C087E093E09F93FA
:102290008F930E946D060F900F90089510922E025A
:1022A0008091C60280FF08C08EEE92E09F938F93CC
:1022B0000E946D060F900F90089590910A0390FF71
:1022C00054C09170811102C0926006C08B3210F030
:1022D000946502C0880F982B90930A036623B1F08F
:1022E00060910A0370910B0380910C0390910D0390
:1022F0000E94A30B8091C60280FF1BC080910A033D
:1023000086951F928F9387E594E00BC08091C6025B
:1023100080FF0FC080910A0386951F928F9389E3F7
:1023200094E09F938F930E946D060F900F900F90F3
:102330000F9060910A03669570E04BE050E08CE0EE
:1023400091E00E94BD32892B19F00E944E1102C00B
:102350000E942C1181E08093290240910D0360912D
:102360000C0380910B030C946F0E0895682F9091CD
:102370000A03969581E0890F8B3208F081E00C9476
:102380005D1181E00C94B611682F90910A03969527
:102390008FEF890F09F48AE20C945D1181E00C94AF
:1023A000C41161E00C945D1180910A0381608093F7
:1023B0000A038091C60280FF0DC01F9281E08F93B7
:1023C0008BEC93E09F938F930E946D060F900F907C
:1023D0000F900F9080910A0386950C94D11160E0C4
:1023E0000C945D1180912C02811160C08091C60215
:1023F00080FF08C08AEF94E09F938F930E946D0640
:102400000F900F908091C60280FF08C084EE94E088
:102410009F938F930E946D060F900F900E944A2405
:10242000811110C08091C60280FF08C08CEB94E03F
:102430009F938F930E946D060F900F900E94FA2435
:102440000E94B50B0E949F0B60930A0370930B03CD
:1024500080930C0390930D036E7FC1F48091C602AC
:1024600080FF08C083E794E09F938F930E946D06DE
:102470000F900F900E94B50B0E949F0B60930A0370
:1024800070930B0380930C0390930D030E948C0BAD
:102490000E94C40B10922E0280910A0380FF03C099
:1024A00086950E94EF1181E080932C02089580911F
:1024B0000A038E7F80930A0360910A0370910B03D5
:1024C00080910C0390910D030E94A30B8091C60292
:1024D00080FF0FC080910A0381701F928F9383E960
:1024E00093E09F938F930E946D060F900F900F9033
:1024F0000F900E944E112FEF80E792E02150804014
:102500009040E1F700C000000C94780C8091C60266
:1025100080FF10C080910A03809581701F928F9375
:1025200082E094E09F938F930E946D060F900F902E
:102530000F900F9080910A0380FD0C9457120C9419
:10254000D4110F931F93CF93DF9380912E02882392
:1025500009F49CC080912D02E0910A03E695E81BE6
:10256000E0932802823049F4F0E0E352FA4FE4911C
:10257000CE2FD0E001ED1CE059C0863049F4F0E0E8
:10258000E652FA4FE491CE2FD0E005EE1CE04EC0AB
:10259000893051F4E695F0E0E952FA4FE491CE2FFC
:1025A000D0E002E71EE042C08F3051F4E695F0E043
:1025B000EC52FA4FE491CE2FD0E00DEA1EE036C087
:1025C000853149F4F0E0EF52FA4FE491CE2FD0E09C
:1025D00009E21FE02BC08831D9F0833239F4EFECE7
:1025E000F5E0C591D49105EF1CE020C08432A9F03C
:1025F0008532C1F48E2F63E00E94C631E92FF0E0EE
:10260000E453FA4FE491CE2FD0E00DE610E10EC076
:10261000C8E2D0E00BE91FE009C0C4EFD1E00EE250
:1026200010E104C0C0EDD7E00AE71BE08091290269
:10263000882389F0109229020E9470269E0120951D
:102640003095820F931F9093270280932602109259
:102650002B0210922A0280912602909127020E945A
:102660007C268C179D0790F0E0912602F0912702BE
:10267000CE0FDF1FD0932702C093260286E292E09E
:10268000F801DF91CF911F910F910994DF91CF91C4
:102690001F910F910895882311F0FA0101C0FB01E9
:1026A0000994CF93DF93C82FD62F0E943F0C8C172D
:1026B00040F00E943F0C8D1720F4DF91CF910C94D5
:1026C000C1118C2FDF91CF910C94D1110F931F93D7
:1026D000CF93FB01C281CC2309F463C08C010E941B
:1026E0006F238272F801E35CFC45E431F10508F0E8
:1026F00059C0EA5AFF4F0C942A320E94861206C033
:102700004EEC51E161EC71E10E944B13C0E04AC014
:1027100041EC51E16EEC71E1F7CF40E35EE063E242
:102720007EE0F2CF43E25EE060E37EE0EDCF4EE498
:102730005EE06FE37EE0E8CF4FE35EE06EE47EE0D4
:10274000E3CF4CE65EE06DE57EE0DECF4DE55EE09A
:102750006CE67EE0D9CF42E75CE06BE57CE0D4CF6D
:102760004BE55CE062E77CE0CFCF81E017C065E03D
:1027700082E010C068E086E00DC06EE089E00AC02B
:1027800064E18FE007C067E185E104C088E106C02D
:1027900062E289E10E945113B9CF83E20E94D11114
:1027A000B5CFC1E08C2FCF911F910F9108950E945A
:1027B0004A24811102C00E94FA240E947B24809343
:1027C0003903282F26952695269530E025303105AA
:1027D00024F087708062809339038091390380FFF1
:1027E00004C086958695869501C080E00C945215AC
:1027F00020913903822F869586958695482F50E043
:102800004430510554F48F5F982F990F990F990F09
:10281000822F8770892B80933903809139038160DF
:10282000809339030E947F248091C60280FF11C0EB
:10283000809139038695869586951F928F938DE4B6
:1028400097E09F938F930E946D060F900F900F90CB
:102850000F90809139038695869586950C94521534
:1028600080913903982F969596959695A1F0915E53
:10287000990F990F990F8770892B80933903887F5F
:1028800091E009F490E08091390390FB80F9809306
:1028900039030E947F248091C60280FF11C080917D
:1028A00039038695869586951F928F9385E397E0E9
:1028B0009F938F930E946D060F900F900F900F9033
:1028C000809139038695869586950C945215809152
:1028D000390380FD1FC0816080933903813019F472
:1028E00089E080933903809139030E947F2480918D
:1028F000C60280FF08C08DE097E09F938F930E94EF
:102900006D060F900F908091390386958695869578
:102910000C94521508958091390380FF14C08E7F66
:10292000809339030E947F248091C60280FF08C0F3
:102930008AEF96E09F938F930E946D060F900F9001
:1029400080E00C9452150895CF93C0913903C17063
:102950008091C60280FF0CC01F92CF938FE197E059
:102960009F938F930E946D060F900F900F900F9082
:10297000CC2319F0CF910C948B14CF910C94671445
:1029800090913903892F8695869586958F5F8F71F3
:102990009770853038F4880F880F880F892B8093C3
:1029A000390302C09093390380913903887F91E005
:1029B00009F490E08091390390FB80F9809339030A
:1029C0000E947F248091C60280FF11C0809139034C
:1029D0008695869586951F928F9386EE96E09F93B7
:1029E0008F930E946D060F900F900F900F90809123
:1029F00039038695869586950C945215853008F096
:102A000084E0909139039770282F220F220F220F14
:102A1000922B90933903987F21E009F420E0909164
:102A2000390320FB90F9909339030C9452150E94BE
:102A3000FE14809139030C947F249C01FB01828158
:102A4000882349F12E3BFCE53F07C9F040F42C3BBD
:102A5000ECE53E0769F02D3B3C4561F00895203CD4
:102A60009CE5390791F070F0213C3C4589F00895D0
:102A700084E001C080E00E94171580E008950E9464
:102A80003014FBCF0E94F813F8CF0E94A414F5CFA6
:102A90000E94C014F2CF81E00895269A2E980895DE
:102AA0002E980895CF92DF92EF92FF92CF93C82F86
:102AB000853050F4811109C0809180008F7D809312
:102AC00080000E94501506C0C4E0809180008062A2
:102AD000809380002C2F30E0AFEFBFEF0E943832A0
:102AE000DC01CB0142E0B695A795979587954A956D
:102AF000D1F78C3744E1940728F469E070E00E9434
:102B0000E03127C08A50974DAF4FBF4F6627782FCF
:102B1000892F9A2F25EF38E241E050E00E940832D9
:102B200069017A01CA01B9010E94B6319B01AC0169
:102B3000C701B6010E94B631BB27A92F982F872F56
:102B4000009721E0A207B10511F0BC0102C06FEFB0
:102B50007FEF70938B0060938A00CF91FF90EF908E
:102B6000DF90CF90089508950E944D1582E28093E2
:102B7000800089E1809381008FEF9FEF9093870021
:102B8000809386000C94D7136A9A2EB12B7F3EB1A6
:102B900034604FB7F894FC01CB01880F991F680F80
:102BA000791F6E0F7F1FE617F70789F0819198E074
:102BB0003EB9000000C087FF2EB9880F000000C09A
:102BC00000C000C02EB900C09A9591F7ECCF4FBF5E
:102BD0008FE594E00197F1F700C0000008950F938E
:102BE0001F93CF93DF93C42FD22FFC0182818823C0
:102BF000C9F0409331020E94702690933002809376
:102C00002F0280E28C0F883008F057C0C77081E037
:102C100001C0880FCA95EAF7DF91CF911F910F91FC
:102C20000C94131B80913102481330C080912F0205
:102C3000909130020E947C26883C910538F510E284
:102C40001D0FCD17B9F080E28C0F883040F4C770AB
:102C500081E001C0880FCA95EAF70E941A1B18305C
:102C600028F581E09D2F977001C0880F9A95EAF7AB
:102C70000E94131B802F0E94001B1830F0F4D770A5
:102C800081E001C0880FDA95EAF70AC080E28C0F74
:102C9000883098F4C77081E001C0880FCA95EAF7C0
:102CA000DF91CF911F910F910C941A1B802FDF9110
:102CB000CF911F910F910C94001BDF91CF911F9129
:102CC0000F9108950F939C01CB01243F4CE53407ED
:102CD00031F188F4293DFCE53F07D9F02A3D4CE568
:102CE000340779F1283D3C45A9F506E221EE41EE95
:102CF00068ED7CE52BC0263FFCE53F07E1F0A8F03E
:102D0000273F3C4539F507E225EE46EE67EF7CE5C7
:102D10001DC007E225EE45EE69ED7CE517C006E231
:102D200021EE40EE64EF7CE511C007E225EE44EEB3
:102D300065EF7CE50BC006E221EE42EE66EF7CE536
:102D400005C008E221E045EE6AED7CE50E94EF1542
:102D500080E008C0FC018281882319F010923102C2
:102D600001C081E00F910895CF93DF93EC01FB0147
:102D70008281882309F41FC1C230FCE5DF0708F413
:102D80001BC1C6319CE5D90738F09E012B5F3C453D
:102D90002930310508F010C10E945D2490933F0353
:102DA00080933E03C031ECE5DE0709F4C3C008F0B0
:102DB00041C0C8308CE5D80709F49AC0F0F4C4309B
:102DC000ECE5DE0709F487C068F4C2308CE5D8076B
:102DD00009F477C0C330DC4509F0E3C080913E03BD
:102DE000826076C0C630ECE5DE0709F46EC008F0FC
:102DF0007BC080913E0388606BC0CC308CE5D807E7
:102E000009F485C068F4CA30ECE5DE0709F474C043
:102E100008F079C00E94A31D80913E03806858C0CD
:102E2000CE308CE5D80709F476C008F07FC08091D9
:102E30003E038BC0CC3FECE5DE0709F44FC018F52C
:102E4000C3318CE5D80709F47DC078F4C131ECE5D5
:102E5000DE0709F473C0C231DC4509F0A2C00E944C
:102E6000A31D80913E038F7733C0C5318CE5D80711
:102E700009F472C008F486C0CB3FDC4509F091C06C
:102E800080913F033EC0C115FDE5DF0709F45FC037
:102E900058F4CE3F9CE5D90709F444C008F43FC07C
:102EA00080913F0382602DC0C230FDE5DF0709F449
:102EB00075C008F45DC0C330DD4509F072C080E024
:102EC0006EC080913E03816003C080913E038061AB
:102ED00080933E0366C080913E0311C080913F0302
:102EE000826080933F035DC080913E038062F0CF9B
:102EF00080913E038064ECCF80913E0388608460C3
:102F0000E7CF8160EECF80913E038E7FE1CF80914D
:102F10003E038D7FDDCF80913E03877FD9CF8091A7
:102F20003F0318C080913F038D7FDBCF80913E032C
:102F30008F7ECECF80913E038F7DCACF80913E039E
:102F40008F7BC6CF80913E03877F8B7FC1CF8091DF
:102F50003F038D7F8E7FC5CF80913E0382FB22276A
:102F600020F991E0922790FB82F990FB83F9B0CF92
:102F700080913F03982F909591708E7F892B90FBC5
:102F800081F9AFCF0E94A31D80913E0387FB2227CA
:102F900020F991E0922790FB87F99ACF81E00E9477
:102FA000FC2480913E0390913F030E946E240E9476
:102FB000A31D80E001C081E0DF91CF910895CF9300
:102FC000DF9386319C4541F5EB010E946F23982FDA
:102FD0008A812091170130911801882379F09A7A1B
:102FE00081E009F480E080933202911102C069E22D
:102FF00001C065E3C9010E94B9250AC0809132026F
:10300000811102C069E201C065E3C9010E94C425C3
:103010000E94BD2380E001C081E0DF91CF9108953F
:1030200090933802809337020895E0913702F0912F
:103030003802309721F00190F081E02D099480E072
:103040000895EF92FF921F93CF93DF93FC01A0911D
:103050003702B0913802109709F442C080912B01D9
:10306000882341F080913E0387FF04C080818183E3
:1030700085E08083EF011296ED91FC911397CE01CC
:1030800009958091C60282FF2BC080FF04C08DE6A7
:1030900098E00E94D40518E087E6E82E88E0F82E34
:1030A0008091C60280FF0BC088811F928F93FF9290
:1030B000EF920E946D060F900F900F900F9011509D
:1030C00021961111EDCF8091C60280FF09C085E6DF
:1030D00098E0DF91CF911F91FF90EF900C94D40571
:1030E000DF91CF911F91FF90EF900895E09137020B
:1030F000F0913802309739F022E0DC012C93048003
:10310000F581E02D09940895209135023091360221
:103110002817390771F09093360280933502E091B9
:103120003702F0913802309721F00680F781E02DC8
:1031300009940895209133023091340228173907F9
:1031400071F09093340280933302E0913702F09152
:103150003802309721F00084F185E02D099408951C
:1031600085B7806885BF85B7806885BF089581E091
:1031700008950C94B71808950C94BB180C94BB18C0
:103180000C94BE180C94BB180C94C2180C94BB1869
:103190000E94B0180E94C6180C94C4180E9467269A
:1031A0000E94DC090E94D5260E94D7130E94F211CA
:1031B0000C94C018CF93C82F8091C60282FF1EC006
:1031C00080FF04C086E898E00E94D4058091C60282
:1031D00080FF0CC01F92CF9381E898E09F938F935C
:1031E0000E946D060F900F900F900F908091C60275
:1031F00080FF04C08FE798E00E94D4058C2FCF9108
:103200000C9453077F928F929F92AF92BF92CF926E
:10321000DF92EF92FF920F931F93CF93DF93CDB77F
:10322000DEB72A970FB6F894DEBF0FBECDBF0E945F
:10323000BC180E94BB180E941F0A0E94B918811175
:1032400011C08FEF89838A831B820E947026816060
:10325000782F9D838C8349815A816B818D810E9457
:10326000BA194FC04AE3A42E42E0B42E00E010E0A9
:10327000702E802F0E946A096C01F5018190919057
:103280005F01882699268114910431F40F5F1F4F46
:103290000430110569F7D5CF8091C60281FD0E94E7
:1032A000730980E0EE24E394F12C94012E213F2158
:1032B000232B09F18E837F82CE20DF2081E0CD2871
:1032C00009F480E088870E9470268160782F9A87B1
:1032D00089874E815F8168858A850E94BA19000FAF
:1032E000111FF801E65CFD4F80819181E826F926E7
:1032F000F182E08206C08F5FEE0CFF1C8C30A9F6D5
:10330000C5CF0E94A1120E94B3150E9406290E94F7
:103310001518909139028917C9F00E9415188093E9
:1033200039022A960FB6F894DEBF0FBECDBFDF91EB
:10333000CF911F910F91FF90EF90DF90CF90BF90B2
:10334000AF909F908F907F900C94DA182A960FB6CA
:10335000F894DEBF0FBECDBFDF91CF911F910F91CB
:10336000FF90EF90DF90CF90BF90AF909F908F90A5
:103370007F900895CF93DF93CDB7DEB72B970FB62D
:10338000F894DEBF0FBECDBF4F83588769877A8719
:103390008B87DE01119686E0FD0111928A95E9F78F
:1033A00085E0FE01379601900D928A95E1F74981FB
:1033B0005A816B817C818D819E810E945C202B963D
:1033C0000FB6F894DEBF0FBECDBFDF91CF91089549
:1033D000FC01808191810E9430230895CF9388233E
:1033E00009F4A4C0C82F8238C1F40E94151881FDC9
:1033F0009DC069E380911701909118010E94B92541
:103400000E94BD232FEF81EE94E021508040904038
:10341000E1F700C0000069E319C0833801F50E949C
:10342000151880FD83C063E5809117019091180104
:103430000E94B9250E94BD232FEF81EE94E0215018
:1034400080409040E1F700C0000063E580911701E3
:10345000909118010E94C425CF910C94BD2384380B
:10346000C1F40E94151882FD61C067E480911701C4
:10347000909118010E94B9250E94BD232FEF81EE83
:1034800094E0215080409040E1F700C0000067E4E4
:10349000DDCF8CEF8C0F813AD0F46C2F8091170127
:1034A000909118010E941725882349F06C2F809174
:1034B0001701909118010E94C4250E94BD236C2F12
:1034C00080911701909118010E94B925C5CF80E223
:1034D0008C0F883048F4C77081E001C0880FCA950E
:1034E000EAF70E947223B8CFEBE5EC0FE33040F42B
:1034F000F0E0EA53FE4F808190E0CF910C94841865
:10350000E8E5EC0FE73150F4F0E0EE0FFF1FE8566E
:10351000FE4F80819181CF910C949A18C03F30F07A
:103520008C2F0E947927CF910C946628CF91089513
:10353000882309F464C0823879F40E94151881FF49
:103540005EC069E380911701909118010E94B9252E
:103550000E94BD2369E310C08338B1F40E9415189E
:1035600080FF4DC063E580911701909118010E9482
:10357000B9250E94BD2363E5809117019091180140
:103580000E94C4250C94BD23843879F40E94151838
:1035900082FF35C067E480911701909118010E9465
:1035A000B9250E94BD2367E4E7CF9CEF980F913ABD
:1035B00010F4682FE1CF90E2980F983050F48770A4
:1035C00091E001C0990F8A95EAF7892F0E9478232C
:1035D000D9CF9BE5980F933020F480E090E00C94D5
:1035E000841898E5980F973120F480E090E00C94CF
:1035F0009A18803F20F00E94E1270C9466280895D5
:10360000CF93C82F0E94EE19C93349F42FEF87EEEC
:1036100093E0215080409040E1F700C000008C2FE3
:10362000CF910C94981A882321F00E9472230C9455
:10363000BD230895882321F00E9478230C94BD2394
:103640000895CF92DF92EF92FF920F931F93CF9343
:10365000DF937C01062FC72FFC01158112951F7087
:10366000D281D1110E948F230E946823882399F070
:10367000DD2389F08C2F807F803421F080E2800F61
:10368000883048F082E00E9407240E94682391E07D
:10369000D82ED92601C0D12CCC2EC2948FE0C822BE
:1036A0008C2D90E0FC01E659FF4F0C942A328C2FB0
:1036B000807FCF70882311F0C295C07FDD2399F001
:1036C000CC2309F48DC180E2800F883010F0011105
:1036D00004C08C2F0E94722303C08C2F0E9482236F
:1036E0000E94BD237DC1802F0E94981ACC2309F42B
:1036F0009CC180E2800F883010F0011104C08C2F33
:103700000E94782303C08C2F0E9488230E94BD232F
:103710008CC18C2F807FCF70803211F0C295C07F1A
:10372000002319F00130C9F022C0DD2371F011230C
:1037300041F0113031F40E94A2238C2B0E94AA2365
:1037400074C10E94A2238C2B1DC0112319F01130CB
:1037500009F46BC10E94B32325C0DD2321F016308C
:1037600008F063C10EC0153008F05FC11BC0DD2337
:1037700061F0112331F0F701858180FF31C18F7035
:1037800085838C2F0E94131B50C1112359F00933DC
:1037900009F037C1FFEF27EE83E0F1502040804071
:1037A000E1F72DC18C2F0E941A1B3FC18C2F8695EB
:1037B0008695837019F0813061F037C1DD2321F0E7
:1037C000802F9C2F937002C080E090E00E948418AC
:1037D00034C1DD2321F0802F9C2F937002C080E044
:1037E00090E00E949A1829C1802FDD2319F00E94D1
:1037F000792702C00E94E1270E9466281EC18C2FF3
:10380000837009F045C0D11114C1402F42954695EF
:103810004770440F440F602F6F70862F90E0A0E038
:10382000B0E0042E04C0880F991FAA1FBB1F0A9482
:10383000D2F704FF10C00FE010E020E030E004C039
:10384000000F111F221F331F4A95D2F700951095C4
:103850002095309503C000E010E09801C695C6950C
:10386000C370BC01CD01602B712B822B932BC23016
:1038700049F058F4C13019F00E94AD21DAC00E941D
:103880009B21D7C00E94BF21D4C00E949921D1C0E2
:10389000DD2319F08C2F817001C08695882309F4EF
:1038A000C8C0402F429546954770440F440F602F83
:1038B0006F70862F90E0A0E0B0E0042E04C0880F67
:1038C000991FAA1FBB1F0A94D2F704FF10C00FE074
:1038D00010E020E030E004C0000F111F221F331F52
:1038E0004A95D2F7009510952095309503C000E0D9
:1038F00010E09801C695C695C370BC01CD01602B40
:10390000712B822B932BC23049F058F4C13019F03F
:103910000E9472228EC00E9460228BC00E9484226C
:1039200088C00E94D32185C0CF70DD2339F08C2F51
:103930000E94F921802F0E94131B7BC0802F0E94C0
:103940001A1B8C2F0E941A2274C0023F01F128F426
:10395000003F41F0013FA1F03FC0033FF9F0043FB9
:1039600039F13AC0DD2341F0153008F05EC08C2FEC
:103970008F710E943F2259C0163008F056C0F7CF11
:10398000DD2339F08C2F8F710E94F9214EC0DD2389
:10399000C9F38C2F8F710E941A2247C0DD2329F0B2
:1039A0008C2F8F710E94E42140C00E94DF213DC016
:1039B000DD2349F0CF718C2F0E94F92163E08C2F19
:1039C0000E94F22332C081E00E940724123068F185
:1039D00082E00E94072429C0DD2331F0112391F2F7
:1039E000802F0E94EE1921C0112399F2093349F466
:1039F0009FEFE7EEF3E09150E040F040E1F700C0C8
:103A00000000802F0E94981A10C04C2F4F70602F1A
:103A1000C7010E945C070E940A210FC04C2F4F7003
:103A2000602FC7010E945F0708C088EF8C0D8430AB
:103A300020F40E9415180E945307DD20C9F00E944F
:103A4000642380FD15C0F70112820E945E230E944C
:103A5000F921C7010E94591D0E945E23DF91CF9179
:103A60001F910F91FF90EF90DF90CF900C941A224E
:103A7000DF91CF911F910F91FF90EF90DF90CF904A
:103A800008950F931F93CF93DF93EC0168817981A1
:103A90008A810E943B238C010E9496220E948721EA
:103AA000B801CE010E94211BDF91CF911F910F9190
:103AB0000895CF93DF93EC01988189812B813C811C
:103AC000232B31F08F3F31F481E09F3F19F403C085
:103AD00081E001C080E080FD19C0CE010E94E606B1
:103AE00081110CC00E946823882381F08A81882379
:103AF00069F082E0DF91CF910C940724CE010E94FF
:103B0000411DCE01DF91CF910C94BF06DF91CF9183
:103B100008950E948F230E949F230E94BD230E942C
:103B2000192A0E94662880E090E00E94841880E0B4
:103B300090E00C949A1880911701909118010E94BE
:103B4000CF250C94891D0E947F230C949B1DE92F87
:103B5000E295EF704E2F50E0FA013297EE30F1050A
:103B6000B0F4E658FF4F0C942A32803F91F018F4DD
:103B7000883E68F40EC0843F51F40BC0883E48F084
:103B8000813F29F406C093FB882780F9089580E0DF
:103B9000089581E008950E9430230E94A71D089592
:103BA000CF93DF9300D000D01F92CDB7DEB70F9038
:103BB0000F900F900F900F90DF91CF910895CF93BA
:103BC000DF9300D000D000D0CDB7DEB726960FB679
:103BD000F894DEBF0FBECDBFDF91CF9108951F9344
:103BE000CF93DF93C091430216E080914402C8173F
:103BF00099F0D0E01C9FF0011D9FF00D1124EB5BAC
:103C0000FD4F4081518162817381848195810E9441
:103C1000DF1D2196C770E9CFDF91CF911F910895E5
:103C2000409175025091760260917702709178020E
:103C30008091790290917A020C94DF1D0F931F936B
:103C4000CF93DF9380917A0282958F7009F05DC0E7
:103C500080917702882309F458C080914302109123
:103C600044026091750270917602C0917802D09101
:103C7000790291E06F3F09F090E0292F06E081176B
:103C800009F443C0209721F07F3F21F030E003C0CA
:103C900031E001C0322F90E030FD34C0089FF001C8
:103CA000099FF00D1124DF01AB5BBD4F11963C91D4
:103CB0001197371327C03C91361324C012963C91BC
:103CC000129731111FC013964D915C9114974C1BA4
:103CD0005D0B483C5105B0F480917A028F70806191
:103CE00080937A02E65BFD4F80818F7080618083D4
:103CF00085E792E00E94591DDF91CF911F910F91AE
:103D00000C94EF1D01968770BACFDF91CF911F9170
:103D10000F9108959F92AF92BF92CF92DF92EF9250
:103D2000FF920F931F93CF93DF93CDB7DEB76197C9
:103D30000FB6F894DEBF0FBECDBF8C0185E0F80151
:103D4000DE011D9601900D928A95E1F7F801408100
:103D50005181E28090917502609176022091780203
:103D6000309179022115310531F06F3F31F481E056
:103D70009F3F19F403C081E001C080E0F82FF1708B
:103D80009F2E80FD46C1F801A380B48085E7C82E30
:103D900082E0D82EF0907702F501E21BF30BFF20B2
:103DA00009F4DFC080917A02E83CF10508F09BC07D
:103DB000282F207F09F052C0561313C0491311C099
:103DC000FE2CE1100EC08F70806180937A020E94F9
:103DD000101EC6010E94591D80917A02F801858348
:103DE00058C1AB2831F05F3F31F481E04F3F19F407
:103DF00003C081E001C080E080FD03C081E08E252A
:103E000002C080E090E0F82FF170FF2E80FF1CC010
:103E1000809143022091440236E0821709F417C1D1
:103E200090E0389FF001399FF00D1124EB5BFD4FBE
:103E30006181561306C06081461303C06281E61299
:103E400003C001968770E9CFFE2CEE2009F421C152
:103E500080917A02816080937A025AC0561306C01C
:103E6000491304C0E11002C0F8019FC04D875E876E
:103E70008D859E850E94CB1D882379F1EE2069F106
:103E800020917A02822F82958F7090E0029774F0D1
:103E9000809175029091760298878F831986BB86F0
:103EA000AA862C87CE0107960E94591D86E0F8014C
:103EB000A5E7B2E001900D928A95E1F70E941E1EDF
:103EC0000E94101E0DC0561729F14D875E878D8503
:103ED0009E850E94CB1D81112CC0C8010E94591DD6
:103EE000FF24F394D6C0282F207F69F77A2DB98A52
:103EF000A88A6E2D89890E94D01D85E792E00E94D4
:103F0000591D86E0F60111928A95E9F70E94101E6C
:103F1000F12CBFC04913D9CFE110D7CFF801858369
:103F2000C8010E94591D86E0F60111928A95E9F7B1
:103F3000B0C0EE2091F220917A02822F82958F708C
:103F400090E002970CF4B2CF8091750290917602C6
:103F50009A8389831B82BD82AC822E83CE01019617
:103F6000A3CFE83CF10508F047C0FE2CEE2009F491
:103F7000B4CF561330C049132EC020917A0220FDD1
:103F800021C0822F82958F70482F50E04115510536
:103F9000C9F0F80125834F30510541F08F5F982F0C
:103FA0009295907F822F8F70892B8583C8010E9404
:103FB000591D86E0F801A5E7B2E001900D928A95BF
:103FC000E1F742C086E0F801A5E7B2E001900D926A
:103FD0008A95E1F75EC04D875E878D859E850E943C
:103FE000CB1D811163CF80917A02816080937A0228
:103FF000C8010E94591D4DC07A2DB98AA88A6E2D1C
:1040000089890E94D01D86E0F60111928A95E9F710
:104010001BC0EE2009F461CF4D875E878D859E859C
:104020000E94CB1DF82E882309F457CF86E0F801B3
:10403000A5E7B2E001900D928A95E1F785E792E05D
:104040000E94E8190E941E1E0E94101E22C04D8769
:104050005E878D859E850E943023292F22952F70A3
:10406000223028F49F7039F0811105C00BC0243034
:1040700028F49F7049F4805E883020F0C8010E94C7
:10408000591D9F2CF92C05C0F8019581907F99F757
:10409000F9CF8F2D61960FB6F894DEBF0FBECDBF5E
:1040A000DF91CF911F910F91FF90EF90DF90CF9014
:1040B000BF90AF909F9008951F93CF93DF93CDB79C
:1040C000DEB72C970FB6F894DEBF0FBECDBF4F837F
:1040D000588769877A878B879C87CE0107960E94CD
:1040E0008A1E8823D1F09F8188852A853B85232BD2
:1040F00031F08F3F31F481E09F3F19F403C081E03C
:1041000001C080E080FD47C04F81588569857A8570
:104110008B859C850E94DF1D3EC086E0FE013796A0
:10412000DE01119601900D928A95E1F7FF81E885F5
:104130006A857B856115710531F0EF3F31F481E0CF
:10414000FF3F19F403C081E001C080E080FD23C07F
:104150002091440230E0C90101968770992740916F
:10416000430250E084179507F1F1F983EA837D83D8
:104170006C8396E0929FD001939FB00D1124AB5BAE
:10418000BD4FFE01319601900D929A95E1F7809313
:1041900044020E94EF1D16E0809143029091440278
:1041A000891771F1189FC00111248B5B9D4F0E94EC
:1041B0008A1E882329F1E09143021E9FF0011124F9
:1041C000EB5BFD4F408151816281738184819581D8
:1041D0000E94DF1D8091430290E00196877099272D
:1041E00080934302D9CF0E94A31D109244021092E3
:1041F0004302E5E7F2E086E0DF011D928A95E9F7E8
:104200002C960FB6F894DEBF0FBECDBFDF91CF91D5
:104210001F910895EF92FF920F931F93CF93DF9317
:104220008C01892B09F46CC0F12CEE24E394E80195
:104230002196F8018491843740F4843008F051C00D
:10424000813081F0823019F15BC0853709F444C0B8
:10425000A8F19CE7980F903708F052C08F770E9422
:10426000981A41C00E5F1F4FFE01849190E2980F93
:10427000983050F48770FE2D01C0FF0F8A95EAF741
:104280008F2F0E94922314C00E94EE192DC00E5F42
:104290001F4FFE01849190E2980F983060F4877070
:1042A000FE2D01C0FF0F8A95EAF78F2F0E949823F9
:1042B0000E94BD2319C00E94981A16C00E5F1F4F9E
:1042C000FE01C491CC2381F08FE99FE00197F1F7C3
:1042D00000C00000C150F6CF0E5F1F4FFE01F490EA
:1042E00003C00E94EE198E018F2D882309F49FCF01
:1042F000EFE9FFE03197F1F700C000008150F5CF02
:10430000DF91CF911F910F91FF90EF900895089545
:1043100008950C9488210C9489210E948B2160932C
:104320009D0270939E0280939F029093A0020C9432
:10433000891D0C948D210F931F9300919D02109164
:104340009E0220919F023091A002602B712B822B44
:10435000932B1F910F910C948D210F931F9300911C
:104360009D0210919E0220919F023091A002602335
:104370007123822393231F910F910C948D210F930E
:104380001F9300919D0210919E0220919F023091F7
:10439000A00260277127822793271F910F910C9409
:1043A0008D210C9488210E94D121609399027093F1
:1043B0009A0280939B0290939C020C94891D60E06A
:1043C00070E0CB010C94D3210F931F9341E050E098
:1043D00060E070E08A019B0104C0000F111F221FE2
:1043E000331F8A95D2F7C901B8011F910F910C9420
:1043F000D3210F931F9341E050E060E070E004C0D0
:10440000440F551F661F771F8A95D2F78091990236
:1044100090919A02A0919B02B0919C028A019B010B
:10442000082B192B2A2B3B2BC901B8011F910F9187
:104430000C94D3210F931F9341E050E060E070E0B3
:1044400004C0440F551F661F771F8A95D2F7409509
:104450005095609570958091990290919A02A091E3
:104460009B02B0919C028A019B01082319232A23F5
:104470003B23C901B8011F910F910C94D3210F93D5
:104480001F9341E050E060E070E004C0440F551F0E
:10449000661F771F8A95D2F78091990290919A02B0
:1044A000A0919B02B0919C028A019B0108271927C9
:1044B0002A273B27C901B8011F910F910C94D321E2
:1044C0000F931F930091990210919A0220919B02E1
:1044D00030919C02602B712B822B932B1F910F919B
:1044E0000C94D3210F931F930091990210919A027B
:1044F00020919B0230919C0260237123822393239D
:104500001F910F910C94D3210F931F930091990247
:1045100010919A0220919B0230919C026027712792
:10452000822793271F910F910C94D32108952CE09B
:10453000929F800D1124E82FE695E695E695877009
:1045400051E001C0550F8A95EAF785E0E89FF00138
:104550001124E558FD4F20E030E070E04081CB01B0
:10456000022E02C0969587950A94E2F78170819594
:1045700084278523842781932F5F3F4F2530310582
:1045800069F708952CE0929F800D1124682F66959D
:1045900066956695982F977085E0689FB001112405
:1045A00040E050E080E0FB01E40FF51FE558FD4FCF
:1045B000208130E0092E02C0369527950A94E2F753
:1045C00021703327042E01C0220F0A94EAF7822BB0
:1045D0004F5F5F4F4530510531F70895BF92CF923D
:1045E000DF92EF92FF920F931F93CF93DF938C0193
:1045F000C0909902D0909A02E0909B02F0909C02A9
:1046000080919D0290919E02A0919F02B091A00284
:10461000C82AD92AEA2AFB2ACFE1D0E0D701C6016D
:104620000C2E04C0B695A795979587950A94D2F756
:1046300080FD04C0219790F7B12C07C0BC2EB801B3
:104640008C2F0E947B070197A9F38B2DDF91CF91CF
:104650001F910F91FF90EF90DF90CF90BF90089542
:10466000CF93DF93EC010E94EE22BE010E947B07F4
:10467000DF91CF9108951F93CF93DF93EB0190913A
:104680004202992321F0CB010E94302313C08823DA
:1046900049F0CB010E94EE22182F682FCE010E9414
:1046A000972204C0CB010E94C222182FBE01812F85
:1046B0000E947B07DF91CF911F9108958091A10205
:1046C00085958595859508958091A10287700895B7
:1046D0009091A102977081E009F480E008958091A3
:1046E000C50208959091C502892B8093C502089553
:1046F00080959091C50289238093C50208951092F8
:10470000C50208959091C402892B8093C402089534
:1047100080959091C40289238093C40208951092D9
:10472000C40208959091C302892B8093C302089517
:1047300080959091C30289238093C30208951092BB
:10474000C30208958091A202089508950C94A523B0
:104750000C94A6239091A202981721F08093A202B4
:104760000C94A82308958091A202882329F0109226
:10477000A20280E00C94A8230895E0911701F09123
:1047800018018091C5028083E0911701F091180112
:1047900090818091C402892B8083E0911701F09170
:1047A000180190818091C302892B80838091A2029D
:1047B000882381F0E0911701F09118019081892BF5
:1047C000808380911701909118010E940125811129
:1047D0000E94B32380911701909118010C94211825
:1047E0000C94A52398E0899F90011124262B2093F7
:1047F000A1020E94F9218091A10285958595859558
:104800000C94F0231092A10280E00C94F0232091EC
:10481000A102809582238093A102982F977079F44A
:1048200030E0482F082E000C550B2417350739F0BF
:104830008595859585950E941A220C9402240895E9
:104840009093D9018093D80108958295982F9373FE
:1048500044E0949F900111248C7C86958695282BAA
:10486000822F8575880F2A7A2695822B0895CF93FB
:10487000DF93D92F0E942524C82F8D2F0E94252435
:104880002C2F30E0322F2227A901482BCA01DF91BB
:10489000CF91089580E090E00E94D83221E08C3ED4
:1048A0009E4F09F020E0822F089582E090E00C9462
:1048B000CA3283E090E00C94CA32CF9384E090E057
:1048C0000E94CA32C82F81E290E00E94CA322C2F87
:1048D00030E0A901582BCA01CF910895CF93C92F79
:1048E000682F84E090E00E94DE326C2F81E290E03D
:1048F000CF910C94DE3286E090E00C94CA32682F9F
:1049000086E090E00C94DE32AB01BC018FE090E0D9
:104910000C94F032AB01BC0183E190E00C94F032D6
:1049200060E070E0CB010C948A2460E070E0CB0181
:104930000E9484240C9490246CEE7EEF80E090E042
:104940000E94FC3260E082E090E00E94DE3260E093
:1049500083E090E00E94DE3210929D0210929E024F
:1049600010929F021092A00260E084E090E00E940A
:10497000DE3260E081E290E00E94DE3260E085E0BD
:1049800090E00E94DE3260E086E090E00E94DE323D
:104990006FEF87E090E00E94DE3240E050E0BA0125
:1049A00088E090E00E94F03260E08DE090E00E94AC
:1049B000DE3240E050E0BA0188E190E00E94F0323F
:1049C00060E087E190E00E94DE3240E050E0BA0112
:1049D0008CE190E00E94F03260E080E290E00E9482
:1049E000DE3240E050E0BA0188E190E00E94F0320F
:1049F0000C9495240C949C24682F8EE090E00C94E9
:104A0000DE32FC01329680912B01882331F08091B7
:104A10003E0387FF02C09EE101C096E080E0915016
:104A200028F021912223D9F38F5FF9CF08956623CF
:104A300051F120912B012223E9F020913E0327FF21
:104A400019C0462F4695469546954E31E0F467705D
:104A500021E030E002C0220F331F6A95E2F7FC012B
:104A6000E40FF11D828190E02823392381E0232B7C
:104A700069F409C0FC01329608962191621729F069
:104A8000E817F907D1F780E0089581E008959C01C7
:104A9000FC0132969FEF80E04191461789F09F3FDD
:104AA00019F4411101C0982F8F5F8630A9F79F3FFD
:104AB00039F0F901E90FF11D97FDFA956283089528
:104AC00008959C012A5F3F4FFC014281461301C0BB
:104AD0001282019682179307B9F70895262F26951B
:104AE000269526952E3170F4FC01E20FF11D6770BA
:104AF00021E030E001C0220F6A95EAF78281282B7D
:104B0000228308958091C60280FF0CC01F926F938C
:104B100087EB98E09F938F930E946D060F900F9004
:104B20000F900F900895262F2695269526952E31C5
:104B300078F4FC01E20FF11D677021E030E001C064
:104B4000220F6A95EAF7209582812823228308950F
:104B50008091C60280FF0CC01F926F9389E998E094
:104B60009F938F930E946D060F900F900F900F9060
:104B7000089520912B01222329F020913E0327FD47
:104B80000C946E250C94472520912B01222329F0AB
:104B900020913E0327FD0C9493250C9461252091D0
:104BA0002B01FC013296222331F080913E0387FFD6
:104BB00002C08EE101C086E0DF011D928A95E9F70F
:104BC000089508950C94E1250C94E125CF930E945B
:104BD000E4250E941F0A0E94E225C0E08C2F0E945B
:104BE0006A09892B29F4CF5FC430C1F780E001C086
:104BF00081E0CF9108950C94E1250C94FB250E944F
:104C0000FD2580914403843061F11092C70220E4B5
:104C100088E190E00FB6F894A895809360000FBEED
:104C20002093600080E00E94521580E00E945307AC
:104C30000E94FD2583B7817F846083BF83B7816035
:104C400083BF7894889583B78E7F83BF0FB6F8941F
:104C5000A895809160008861809360001092600048
:104C60000FBE08950C94E1250E94A31D0E94D71346
:104C70000E9415180E9453070C9432261F920F921F
:104C80000FB60F9211248F939F93AF93BF93809190
:104C9000C702811113C080913A0390913B03A09108
:104CA0003C03B0913D034196A11DB11D80933A0391
:104CB00090933B03A0933C03B0933D03BF91AF910E
:104CC0009F918F910F900FBE0F901F90189582E0CB
:104CD00084BD93E095BD9AEF97BD80936E000895D3
:104CE0002FB7F89480913A0390913B03A0913C0335
:104CF000B0913D032FBF08959C014FB7F894809168
:104D00003A0390913B03A0913C03B0913D034FBF08
:104D1000821B930B089578941F920F920FB60F92F7
:104D200011248F939F93AF93BF9380913A039091F7
:104D30003B03A0913C03B0913D030196A11DB11D21
:104D400080933A0390933B03A0933C03B0933D03BD
:104D5000BF91AF919F918F910F900FBE0F901F90B9
:104D6000189581E08093E00080E28093D800109253
:104D7000C9008FE19EE40197F1F700C0000087E0D1
:104D800090EBDC0180934D0390934E03A0934F036F
:104D9000B09350039CE088E10FB6F894A8958093F7
:104DA00060000FBE90936000FFCF0E944A248111E3
:104DB00002C00E94FA240E9455248093C6020E94D9
:104DC0005D2490933F0380933E030E945924682FF3
:104DD00070E080E090E00E949921609199027091CA
:104DE0009A0280919B0290919C020C94D121809117
:104DF000CE0280FF0BC060911E0185E0689FB0016C
:104E0000112475956795759567952BC081FF09C02D
:104E100060911E0185E0689FB0011124759567952A
:104E200020C082FF07C060911E0185E0689FB0012D
:104E3000112417C09091CD029923D1F060911D01EA
:104E4000961788F720911E0185E0289F9001112474
:104E5000929FA001939F500D112470E0CA010E94FF
:104E6000F4316038710540F46115710519F406C01C
:104E700065E070E0862F08958FE7089581E008953A
:104E80008091CE0280FF08C060911A0170E0759594
:104E900067957595679521C081FF06C060911A01DD
:104EA00070E07595679519C082FF04C060911A0182
:104EB00070E010C09091CC02992399F06091190193
:104EC0009617A0F780911A01899FC001112470E004
:104ED0000E94F4316038710540F46115710519F4D0
:104EE00006C061E070E0862F08958FE7089581E0A5
:104EF0000895803F21F40E94F726819504C0813FE8
:104F000029F40E94F7268093D2020895823F21F46B
:104F10000E94F726819504C0833F29F40E94F7265A
:104F20008093D1020895893F19F40E94402705C05B
:104F30008A3F31F40E94402781958093D3020895DF
:104F40008B3F21F40E944027819504C08C3F29F4B7
:104F50000E9440278093D4020895843F21F48091D9
:104F6000D002816017C0853F21F48091D002826019
:104F700011C0863F21F48091D00284600BC0873F2E
:104F800021F48091D002886005C0883F31F480917F
:104F9000D00280618093D00208958D3F21F48091EA
:104FA000CE0281600BC08E3F21F48091CE028260E0
:104FB00005C08F3F29F48091CE0284608093CE0299
:104FC0000895803F39F48091D20287FF6AC0109221
:104FD000D20267C0813F29F48091D2021816BCF337
:104FE00060C09091D102823F29F497FF5AC010927D
:104FF000D10257C0833F19F41916CCF352C09091D7
:10500000D302893F31F419160CF04BC01092D30231
:1050100048C08A3F19F497FF44C0F8CF8B3F39F45A
:105020008091D40287FF3DC01092D4023AC08C3FD9
:1050300029F48091D4021816BCF333C0843F21F4C4
:105040008091D0028E7F17C0853F21F48091D002DD
:105050008D7F11C0863F21F48091D0028B7F0BC0E1
:10506000873F21F48091D002877F05C0883F31F4CB
:105070008091D0028F7E8093D00213C08D3F21F4A7
:105080008091CE028E7F0BC08E3F21F48091CE02A4
:105090008D7F05C08F3F29F48091CE028B7F809356
:1050A000CE028091D102811106C08091D20281117D
:1050B00002C01092CD028091D302811106C080916E
:1050C000D402811102C01092CC0208958091C602D0
:1050D00083FF7EC08CEF98E00E94D4058091D002BF
:1050E0001F928F9387EF98E09F938F930E946D0696
:1050F00085EF98E00E94D4058091D102282F082ED8
:10510000000C330B3F938F9382EF98E09F938F9324
:105110000E946D0680EF98E00E94D4058091D20233
:10512000282F082E000C330B3F938F938DEE98E0C1
:105130009F938F930E946D068BEE98E00E94D4059A
:105140008091D302282F082E000C330B3F938F93AE
:1051500088EE98E09F938F930E946D0686EE98E00C
:105160000E94D4058091D402282F082E000C330B06
:105170003F938F9383EE98E09F938F930E946D06E9
:1051800080EE98E00E94D4058091CD021F928F930B
:105190008DED98E09F938F930E946D068BED98E0C4
:1051A0000E94D4058091CE021F928F9388ED98E0E3
:1051B0009F938F930E946D0685ED98E00E94D40521
:1051C0008DB79EB74C960FB6F8949EBF0FBE8DBF9D
:1051D0000E9470262091D102211104C02091D20298
:1051E000222321F09093CB028093CA022091D30214
:1051F000211104C02091D402222321F09093C902EE
:105200008093C8028FEC92E00C947618EF92FF9294
:105210000F931F93CF93DF9300D000D000D0CDB772
:10522000DEB786E0EFECF2E0DE01119601900D9220
:105230008A95E1F7E090D102F090D2020091D3027A
:105240001091D4021092D1021092D2021092D30285
:105250001092D402E11003C0FF2009F45DC08091D8
:10526000CA029091CB020E947C26AC019091CD02A3
:10527000992339F020911F0130E02417350758F0A9
:105280004BC0209120018AE0289F9001112424170F
:10529000350718F041C09F3F19F09F5F9093CD02F2
:1052A000EE2061F00E94F7261E1414F09FEF01C05B
:1052B00091E0989F902D11249093D102FF2061F0EE
:1052C0000E94F7261F1414F09FEF01C091E0989FF1
:1052D000902D11249093D2023091D1023323E1F02A
:1052E0002091D2022223C1F045EB3403C0011124E6
:1052F000992319F09093D10203C081E08093D102E9
:1053000035EB2303C0011124992319F09093D202A5
:1053100003C081E08093D202011103C0112309F47C
:105320005DC08091C8029091C9020E947C26AC01A8
:105330009091CC02992339F020911B0130E0241781
:10534000350758F04BC020911C018AE0289F90013E
:1053500011242417350718F041C09F3F19F09F5FB3
:105360009093CC02002361F00E944027101614F0A5
:105370009FEF01C091E0989F902D11249093D3024C
:10538000112361F00E944027111614F09FEF01C015
:1053900091E0989F902D11249093D4023091D302E4
:1053A0003323E1F02091D4022223C1F045EB3403F2
:1053B000C0011124992319F09093D30203C081E016
:1053C0008093D30235EB2303C0011124992319F0F4
:1053D0009093D40203C081E08093D4028091D102E3
:1053E00081110BC08091D202811107C08091D3023C
:1053F000811103C08091D40281110E946628EB8242
:10540000FC820D831E8386E0FE013196AFECB2E094
:1054100001900D928A95E1F726960FB6F894DEBFBB
:105420000FBECDBFDF91CF911F910F91FF90EF90F5
:105430000895EFECF2E086E0DF011D928A95E9F72E
:105440001092CD021092CC021092CE02089580915B
:10545000F80208959FB7F8941092D7029FBF9091D9
:105460004403943009F057C09091E9009F70309147
:10547000EC00232F217030FD20E8922B23E02093B5
:10548000E9002091EB0020FF43C02091EE0027FFB0
:105490003FC02091D502222321F02091E80025FF72
:1054A00037C01092D50226E03091E80035FD15C0D6
:1054B00030914403343061F53091EB0035FD28C064
:1054C000215021F481E08093D50222C0EFE9FFE072
:1054D0003197F1F700C00000E7CF8093F100809191
:1054E000E80085FD0AC08091E80080FFFCCF809134
:1054F000E8008E778093E80006C08FB7F89421E02B
:105500002093D7028FBF9F709093E90080E00895A9
:105510009F709093E9008FEF0895CF93DF9300D0B1
:105520001F92CDB7DEB790914403943019F589836B
:105530007B836A8382E08093E9008FEF9091E8009B
:10554000815095FD06C095ED9A95F1F70000811107
:10555000F5CF8091E80085FF0DC040E050E063E0AA
:1055600070E0CE0101960E94192D8091E8008E779F
:105570008093E8000F900F900F90DF91CF910895E6
:10558000BC0184E00C948D2ABC0183E00C948D2A2C
:1055900022E02093E9002FEF3091E800215035FD03
:1055A00006C035ED3A95F1F700002111F5CF2091B5
:1055B000E80025FF0BC040E050E066E070E00E948C
:1055C000192D8091E8008E778093E8000895CF939D
:1055D000DF9320912B01222339F020913E0327FFF6
:1055E00003C060E222E002C068E021E02093E9000D
:1055F0002FEF3091E800215035FD06C035ED3A958A
:10560000F1F700002111F5CF2091E80025FF1DC022
:10561000EC0180912B01811105C040E050E068E071
:1056200070E003C070E040E050E0CE010E94192D10
:105630008091E8008E778093E80080E2FE01A8ED7B
:10564000B2E001900D928A95E1F7DF91CF91089534
:1056500084E499E00E94D40580914303811109C03C
:105660000E94AA2E0E94072F8091E20084608093FE
:10567000E200089580E499E00E94D405109243036B
:1056800008958CE399E00C94D40588E399E00C9498
:10569000D40584E399E00E94D4050C94342620912B
:1056A000D6022F5F822F62E30E94C631992319F040
:1056B0002093D60208951092D6028091D7028823B3
:1056C00071F180914403843041F58091E9008F703D
:1056D0002091EC00922F917020FD90E8892B93E0AF
:1056E0009093E9009091EB0090FF14C09091EE0030
:1056F00097FF10C09091E80095FF03C01092F10051
:10570000F9CF9091E80090FF05C09091E8009E7756
:105710009093E8008F708093E9001092D70208956B
:1057200042E061EC81E00E94232E42E261EC82E0E3
:105730000E94232E42E261EC83E00C94232E8091A0
:105740004603833009F460C030F4813071F0823058
:1057500009F499C008958A3009F485C08B3009F4A2
:105760006BC0893009F0A7C020C080914503813A01
:1057700009F0A1C08091E800877F8093E8008091C4
:10578000490390914A03892B21F460E288ED92E06D
:1057900003C060E080E090E070E00E94642D8091A2
:1057A000E8008B778093E80008958091450381326B
:1057B00009F081C08091490390914A03029708F053
:1057C0007AC08091E800877F8093E8008091E800AC
:1057D00082FD05C0809144038111F8CF6CC02091F7
:1057E000F3008091F20090E0922B029729F48091CF
:1057F000F1008B7F813021F48091F1008093F802D9
:105800008091E8008B7753C080914503813A09F07D
:1058100052C08091490390914A03892B09F04BC0F3
:105820008091E800877F8093E8008091E80080FF06
:10583000FCCF80912B0136C0809145038132D9F590
:105840008091490390914A03892BA9F58091E80042
:10585000877F8093E8000E94582E809147038093B1
:105860002B010C94A31D80914503813221F5809179
:10587000E800877F8093E8000E94582E80914803BB
:105880008093F902089580914503813AA1F48091B3
:10589000E800877F8093E8008091E80080FFFCCFDC
:1058A0008091F9028093F1008091E8008E778093D7
:1058B000E8000C94582E089584B7877F84BF0FB6F4
:1058C000F894A895809160008861809360001092A0
:1058D00060000FBE90E080E80FB6F89480936100FE
:1058E000909361000FBE0E94C8180E94AA2E0E94C9
:1058F000072F8091E20084608093E2008AE29AE2BE
:105900000E94202478940E949B310E94CE1881E24C
:1059100091E00E94101883E299E00E94D4058091E2
:105920004403853089F48FE199E00E94D4050E94F8
:10593000FF2580914203882391F30E94E625882366
:1059400071F30E94032DEBCF0E9402190E94BC1834
:105950000E94BB18E4CF0C94AD2C292F33272330A1
:105960003105C9F060F42130310581F02230310574
:1059700009F041C08BE590E022E739E040C02132D8
:105980003105E1F02232310531F135C082E190E09C
:105990002DEC39E034C099278130910549F028F089
:1059A000029749F5E8E4F9E005C0EEE6F9E002C047
:1059B000ECE5F9E0849190E09F0121C0633071052E
:1059C000D0F4660F771FFB01EE52FE4F208131812C
:1059D00089E090E014C06330710568F4FB01EE0FBC
:1059E000FF1FE453FE4F20813181FB01E753FE4F3F
:1059F000808190E004C080E090E020E030E0FA0197
:105A000031832083089580E189BD82E189BD09B495
:105A100000FEFDCF8091D8008F7D8093D8008091CB
:105A2000E00082608093E0008091E00081FDFCCF87
:105A30000895CF92DF92EF92FF920F931F93CF932F
:105A4000DF93EC018B017A010E94772E811133C024
:105A5000E114F10439F0F70180819181081B190BE1
:105A6000C80FD91FC12CD12C0115110519F1809136
:105A7000E80085FD16C08091E8008E778093E800ED
:105A8000E114F10449F0F70180819181C80ED91E1B
:105A9000D182C08285E00FC00E94772E882321F337
:105AA0000AC089918093F10001501109FFEFCF1ACC
:105AB000DF0ADACF80E0DF91CF911F910F91FF9045
:105AC000EF90DF90CF90089520914B0330914C03DD
:105AD0002617370748F06115710539F42091E80061
