:100000000C94D7020C941B030C9436030C941B0322
:100010000C941B030C941B030C941B030C941B03E8
:100020000C941B030C947A060C94CA140C941B03B6
:100030000C941B030C941B030C941B030C941B03C8
:100040000C941B030C941B030C941B030C941B03B8
:100050000C941B03DD0EEF0EFD0E0E0F2B0F430F46
:10006000620F39115E11631168116D1172117711F0
:100070007C11811186118B119211951198119B1190
:100080009E11A111A411A711AC112F122F126912E8
:100090006912BC125F145F145F14D812B613C71331
:1000A000C7136E196E198119811977198119811970
:1000B00081196E196E197C19811981197C19000139
:1000C0000101010101010101020202020202020218
:1000D00002030303030303030304040404040404EA
:1000E00005050505050606060606070707070708AE
:1000F000080808090909090A0A0A0B0B0B0C0C0C61
:100100000D0D0D0E0E0E0F0F0F10101111111212FA
:1001100013131414151516161717181819191A1A77
:100120001B1B1C1D1D1E1E1F2020212222232424D8
:10013000252626272829292A2B2C2D2D2E2F303114
:100140003232333435363738393A3B3C3D3E3F4026
:100150004142434445464748494A4C4D4E4F505111
:100160005354555658595A5B5D5E5F6162646566CB
:1001700068696B6C6D6F7072737577787A7B7D7E52
:100180008082838587888A8C8E8F91939596989AA2
:100190009C9EA0A2A3A5A7A9ABADAFB1B3B5B7BABA
:1001A000BCBEC0C2C4C6C9CBCDCFD1D4D6D8DBDD8E
:1001B000DFE2E4E7E9EBEEF0F3F5F8FAFDFFFFAA82
:1001C0007F55402223252628292A2C2D2F303233F3
:1001D0003536383A3B3D3E4042434547494A4C4E0E
:1001E0005051535557595A5C5E6062646668696B3A
:1001F0006D6F71737577797B7D7F81838587898A40
:100200008C8E90929496989A9C9E9FA1A3A5A7A845
:10021000AAACAEAFB1B3B4B6B8B9BBBCBEBFC1C275
:10022000C3C5C6C7C9CACBCCCDCED0D1D2D2D3D408
:10023000D5D6D7D7D8D9D9DADADBDBDBDCDCDCDC26
:10024000DCDDDDDDDDDCDCDCDCDCDBDBDBDADAD9F4
:10025000D9D8D7D7D6D5D4D3D2D2D1D0CECDCCCB76
:10026000CAC9C7C6C5C3C2C1BFBEBCBBB9B8B6B494
:10027000B3B1AFAEACAAA8A7A5A3A19F9E9C9A9824
:10028000969492908E8C8A89878583817F7D7B79F5
:10029000777573716F6D6B6968666462605E5C5AD6
:1002A0005957555351504E4C4A4947454342403E99
:1002B0003D3B3A3836353332302F2D2C2A2928262B
:1002C00025232200000000000000000000000101C2
:1002D0000203040506080A0C0F1114181C20242917
:1002E0002E33393F464C535B626A7179818A929A08
:1002F000A2AAB2B9C1C8CFD5DCE1E7EBF0F4F7FAB6
:10030000FCFDFEFFFEFDFCFAF7F4F0EBE7E1DCD5C7
:10031000CFC8C1B9B2AAA29A928A8179716A625B86
:10032000534C463F39332E2924201C1814110F0C2E
:100330000A08060504030201010000000000000095
:100340000000004C00130012000C00150017001CE8
:1003500000180008001A0014002B00340033000FAE
:10036000000E0009000A000B000D00070016000433
:100370000029002A00270026002500210022002352
:1003800000240020001F001E003500280052003706
:10039000003600190005001100100006001B001DAA
:1003A00000E1004F0051005000380001512A002C9C
:1003B000000251E300E200E000E000000000000065
:1003C000000000000000000000000000000000002D
:1003D000000000310030002F002E0000000000005F
:1003E000002D0000000000000000000000000000E0
:1003F00000000000000000000000000000000000FD
:1004000000000000004B004E00A9000000000000AA
:1004100000AA000000000000000000000000000032
:1004200000000001000000000000000000000000CB
:1004300000000000000000000000000000000000BC
:10044000000000C95CCB5CC35CC55C00004F00527F
:100450000051000000000000005000CA5CCC5CC4E9
:100460005CC65C45004400430042003E003F004043
:100470000041003D003C003B003A000000F300F06A
:1004800000F100000000000000F200000000000089
:1004900000C25C280000000000000000002A002CC0
:1004A000000100E300E200E000E00032190A00046D
:1004B0007F3F1F643214643214783C1E1E140A05F8
:1004C00005010980A101850319012AB7001501263C
:1004D000B700950175108100C0050C0901A10185C7
:1004E0000419012AA002150126A0029501751081A8
:1004F00000C005010906A101050719E029E715005B
:10050000250195087501810295017508810305078C
:10051000190029FF150026FF0095067508810005C2
:100520000819012905950575019102950175039139
:1005300003C00403300000000A034A004A003500EB
:100540003000000016034B00500072006500700080
:10055000750062006C006900630000000403090478
:1005600009023B00020100A0FA0904000001030196
:100570000100092101010001224000070581030853
:10058000000109040100010300000009210101002C
:100590000122320007058303080001120110010047
:1005A000000008504B50000002010203010011241A
:1005B0001FBECFE5D8E0DEBFCDBF04B603FE24C02A
:1005C0008091EC029091ED02A091EE02B091EF02C9
:1005D0008730904BA740B04BB9F41092EC021092C8
:1005E000ED021092EE021092EF0214BE84B7877FE4
:1005F00084BF0FB6F894A89581B5886181BD11BC00
:100600000FBEE0E0F8E3099510E0A0E6B0E0E8E214
:10061000F2E402C005900D92AC3EB107D9F722E09A
:10062000ACEEB0E001C01D92AC3EB207E1F70E9413
:10063000A9150C9412210C940000A82FB92F80E06A
:1006400090E041E050EA609530E009C02D918227AA
:100650009795879510F084279527305EC8F36F5FD4
:10066000A8F30895EADF8D939D930895CF93CFB7B4
:10067000CF93C395839BE9F7839B0EC0839B0CC0EC
:10068000839B0AC0839B08C0839B06C0C091A102C4
:10069000C395C093A102A6C0DF93C091C702DD2716
:1006A000C653DD4F839B02C0DF91E6CF2F930F939C
:1006B0001F9300B32FEF03FB20F94F933F9310B329
:1006C0004FEF012703FB21F93BE031C04E7F012FA3
:1006D00010B3216028C0102F4D7F2260000000B3AE
:1006E00029C04B7F2460012F000010B32BC010B332
:1006F000477F28602AC04F7E00B320612CC04F7D09
:1007000010B320622FC04F7B00B3206432C0422759
:1007100000B349934FEF0000102713FB20F910B3EB
:100720001C70C9F1297F91F2012703FB21F900B365
:10073000237F89F2315058F1102713FB22F910B3AF
:10074000277E79F2012703FB23F92F7C81F200B386
:10075000102713FB24F92F7971F200C010B3012781
:1007600003FB25F92F7359F200C000B3102713FBC8
:1007700026F9223040F200C010B3012703FB27F90D
:10078000243028F64F77206810B30000F9CF10E826
:100790001ABF00271CC03B503195C31BD04010E846
:1007A0001ABF0881033C11F10B3401F12091C502FD
:1007B0001981110F1213EDCF4A81441F093669F1D7
:1007C0000D3211F0013E29F74F7009F0042F00930C
:1007D000A0023F914F911F910F912F91DF91CAB7C6
:1007E000C7FD47CFCF91CFBFCF9118952091A002E1
:1007F000222379F31091C802112309F044C0343048
:100800000AF443C03093C8022093C6021091C70275
:100810003BE0311B3093C70238C00091C802013061
:1008200094F50AE54F7049F430917D0034FD2FC0F6
:1008300000937D00C2EAD2E02EC0433059F044302C
:1008400091F03091AD0234FD22C00093AD02CEEAAA
:10085000D2E021C03091E00234FD19C00093E002E3
:10086000C1EED2E018C03091B90234FD10C000933F
:10087000B902CAEBD2E00FC02795A8F45150A9F4F1
:10088000220F0000F9CF4AE503C042ED01C0432F1B
:10089000C4E1D0E032E011B31C60939A11BB02B303
:1008A00020E41CE05F93012756E002BB279520F46B
:1008B000515021F4220FF9CF012756E000003B5A96
:1008C00002BBD0F2279528F4515029F4220F0000E2
:1008D000F9CF012756E0279502BB20F4515021F4AF
:1008E000220FF9CF012756E02991332302BB21F6CD
:1008F000037F1091C902110FC651D04002BB11F005
:100900001093C50210E81ABF086011B3137F402F7F
:10091000437F5F9100C000C002BB11BB42BB59CFF7
:10092000CF92DF92EF92FF928C3724E1920728F466
:1009300069E070E00E94C82029C0A0E0B0E08A50C1
:10094000974DAF4FBF4F6627782F892F9A2F25EFEE
:1009500038E241E050E00E946D2069017A01CA014D
:10096000B9010E949E209B01AC01C701B6010E9403
:100970009E20BB27A92F982F872F009721E0A20741
:10098000B10511F0BC0102C06FEF7FEFCB01FF900A
:10099000EF90DF90CF9008950895AF92BF92CF92DD
:1009A000DF92EF92FF920F931F93CF93DF93E82E86
:1009B000F62EE901E42FF0E0611106C0E254FF4F8A
:1009C000E4914E2F2E2F71C0062F10E0E254FF4FFE
:1009D0004491F42FC42ED12C26E0829FC001112413
:1009E0002FEF30E0B9010E94C8205BEA5603C00136
:1009F000579F900D11248E0D911D8E0D911D582F16
:100A0000550F580FD901A01BB10BAC9DC001AD9D76
:100A1000900DBC9D900D1124E92FF59ED00111245D
:100A2000AB2FBB277901EA1AFB0AEC9CD001ED9CA5
:100A3000B00DFC9CB00D11245901A51AB108A09E5F
:100A40007001A19EF00CB09EF00C1124EF2CFF243D
:100A50002E193F092C9D80012D9D100D3C9D100DE0
:100A60001124212F6230710591F048F46115710550
:100A7000E1F061307105B9F4242F4B2F16C06430BA
:100A8000710569F040F06630710579F00CC0242FD3
:100A9000492FE12F0AC0492FEF2F2B2F06C0292FF6
:100AA000E42F412F02C0292FEB2F49832883EA83AB
:100AB000DF91CF911F910F91FF90EF90DF90CF903A
:100AC000BF90AF9008959091AC0192FF0DC0282F78
:100AD0002871283019F4877F846006C0282F24717C
:100AE000243011F48B7F886093FF0DC0282F28716C
:100AF000283119F4877E846106C0282F247124319F
:100B000011F48B7E88612091AD0120FF0DC0382F3C
:100B10003871383019F4877F816006C0382F317101
:100B2000313011F48E7F886021FF0DC0282F28718D
:100B3000283119F4877E816106C0282F2171213167
:100B400011F48E7E886194FD877E08951F93CF9364
:100B5000DF93CDB7DEB767970FB6F894DEBF0FBE51
:100B6000CDBF4B8B5C8B6D8B7E8B8F8B86E09E011C
:100B7000235F3F4FD901E82F1D92EA95E9F795E0F1
:100B8000FE017396D90101900D929A95E1F7F90152
:100B9000DE01179601900D928A95E1F7CE01079636
:100BA0000E941D1A81113EC086E0FE013796DE01CB
:100BB000119601900D928A95E1F7FF81E8856A858B
:100BC0007B856115710531F0EF3F31F481E0FF3F26
:100BD00019F403C081E001C080E080FD23C02091B2
:100BE000D80130E0C9010196877099274091090228
:100BF00050E08417950779F1F983EA837D836C834C
:100C000096E0929FD001939FB00D1124A752BE4F42
:100C1000FE01319601900D929A95E1F78093D801EB
:100C20000E94A71916E0809109029091D8018917B6
:100C3000F9F0189FC001112487529E4F0E941D1A7F
:100C40008823B1F08091090290E00196877099277E
:100C500080930902E8CF0E94CC1B1092D801109219
:100C60000902E2EDF1E086E0DF011D928A95E9F7E5
:100C700067960FB6F894DEBF0FBECDBFDF91CF9160
:100C80001F91089520915701309158012817390775
:100C900071F09093580180935701E0919801F09181
:100CA0009901309721F00084F185E02D0994089591
:100CB00020915501309156012817390771F0909312
:100CC000560180935501E0919801F0919901309778
:100CD00021F00680F781E02D09940895E0919801B4
:100CE000F0919901309721F00190F081E02D099465
:100CF00080E008951F920F920FB60F9211242F9348
:100D00003F934F935F936F937F938F939F93AF9393
:100D1000BF93EF93FF9380919C0190919D01019669
:100D200068EB75E00E94C82090939D0180939C0120
:100D30006BE070E00E94C8206F7780919B01823049
:100D400019F4603441F404C0813029F46F3719F488
:100D500089B78B7F89BFE62FF0E0ED53FD4FE4911B
:100D600021E031E0E29FC001E39F900D11246CE08F
:100D700070E00E94C82080919A018695869586959C
:100D8000282F269FC001279F900D11240E949004B8
:100D900099BD88BDFF91EF91BF91AF919F918F91C8
:100DA0007F916F915F914F913F912F910F900FBE67
:100DB0000F901F9018958D3038F4811106C09FB5A3
:100DC0009F7D9FBD949804C08CE09FB590629FBDAD
:100DD000282F30E0AFEFBFEF0E948F202CE030E0F3
:100DE00040E050E00E946D20C9010E94900499BD2E
:100DF00088BD08950E943B15811102C00E944615CE
:100E000086E090E00E94E71F80939A01282F2695A4
:100E10002695269530E02D30310524F087708066C8
:100E200080939A0180919A0180FF04C086958695EF
:100E3000869501C080E00C94DB06882311F0FA014E
:100E400001C0FB0109948091B50180FF0AC0809127
:100E5000EF00811111C00E94DB1E81E08093EF0042
:100E60000BC0E3EFF0E0118210821282339681E032
:100E7000E731F807C1F7EBCF24E630E044E250E079
:100E800063EF70E080EB0C94651F8F929F92AF929E
:100E9000BF92CF92DF92EF92FF920F931F93CF9367
:100EA000DF93FC01B280948081E08483C7E1D1E0CC
:100EB00003EF10E08BE4A82E88248394EE24EA94B8
:100EC000F12C2BE4C22ED12C911003C01B821A826C
:100ED0004AC02B81222311F121502B833C813323E3
:100EE00019F09A2D921B01C0922F8091B801899F11
:100EF000C0011124B6010E94C8206A83211104C0D8
:100F0000332311F01C82AB8222E02B1560F180911B
:100F1000B60188838091B701898325C00E94D71FBD
:100F20008230914004F582E08B1530F40E94D71F87
:100F3000B7010E94DC2002C08091B601888322E0C4
:100F40002B1558F40E94D71F2091B7012695622FC8
:100F500070E00E94DC20820F02C08091B70189837B
:100F60001A82AB828C8298014A81698188810E94B1
:100F7000CD0425960D5F1F4F81E0C335D80709F0DA
:100F8000A3CFDF91CF911F910F91FF90EF90DF9052
:100F9000CF90BF90AF909F908F900C942307EF92CB
:100FA000FF920F931F93CF93DF938C01C3EFD0E099
:100FB000E12CF12CF8018481F6E0EF16F1041CF429
:100FC000882339F002C0811104C09E014091B8010C
:100FD00002C09E0140E06091B7018091B6010E947D
:100FE000CD048FEFE81AF80A23969CE0E916F10485
:100FF00009F70E942307F801848190E0019681702F
:1010000099278483DF91CF911F910F91FF90EF90EB
:1010100008958F929F92AF92BF92CF92DF92EF92FC
:10102000FF920F931F93CF93DF93EC014C81042F1A
:1010300010E09801D8010E948F209B01AC010E9412
:101040005A206B017C01E0E2F0E0E01BF10BA5E52A
:10105000B0E09B01AC010E945A204B015C019F0152
:10106000DF010E94F6209B01AC010E9465209B01DC
:10107000AC012C0D3D1D4E1D5F1DC501B4010E942C
:101080006D20822FF22E99E2921728F093E0299F8B
:10109000900111240DC025E530E0281B3109C9015C
:1010A000880F991F280F391F37FF02C02F5F3F4F4E
:1010B00035952795122F109593EFC92E90E0D92ED4
:1010C00000E085E5E82EEF1801FD02C08E2D01C07D
:1010D0008F2D9601412F6091B7010E94CD040F5FC3
:1010E00083E0C80ED11C0C3079F70E9423078C8155
:1010F000811102C091E003C0803219F49FEF9093F8
:10110000710090917100890F8C83DF91CF911F91B5
:101110000F91FF90EF90DF90CF90BF90AF909F9096
:101120008F9008950F931F93CF93DF93C3EFD0E079
:10113000FE01118210821282339681E0E731F807B6
:10114000C1F700E010E08091F100082E000C990B2F
:101150000817190794F080917000082E000C990B65
:101160008017910754F09E014091B8016091B7013A
:101170008091B6010E94CD0403C0198218821A82A0
:101180000F5F1F4F23960C301105E9F60E942307CD
:1011900080916F009091F100980F9093F100209151
:1011A0007000280F20937000121614F49B301CF06E
:1011B000819580936F00DF91CF911F910F910895DA
:1011C000BF92CF92DF92EF92FF920F931F93CF9334
:1011D000DF93FC01828180FF03C0DD24DA9402C02A
:1011E000DD24D39403EF10E0C0E0D0E02CE0B22E79
:1011F000F80111821082128294E0E92EF12CC12CA8
:101200008091F0008C0D8D302CF06B2D0E94BA2057
:10121000892F02C087FD845F082E000C990BC81728
:10122000D90791F48091B8018E9DA0018F9D500D3A
:101230001124559547955595479598016091B701AB
:101240008091B6010E94CD04CD0CF1E0EF1AF108B7
:10125000B9F621960D5F1F4FCC30D10549F60E949B
:1012600023078091F00091E0D91206C0811102C0DD
:101270008BE007C0815005C090E00196BE010E943E
:10128000DC208093F000DF91CF911F910F91FF90B0
:10129000EF90DF90CF90BF900895EF92FF921F9351
:1012A000CF93DF93EC0183EFE82E80E0F82E10E07F
:1012B0008C8197014091B8016091B701810F0E9424
:1012C000CD041B5E83E0E80EF11C1C3F89F70E94F1
:1012D00023079A818C8190FF02C08F5F01C08150EB
:1012E0008C83DF91CF911F91FF90EF9008959091A3
:1012F000B50190FF0CC0E3EFF0E08183608342838F
:10130000339691E0E731F907C1F70C94230708956C
:101310000F931F93CF93DF9300D01F92CDB7DEB70B
:101320008C018091F20081110AC09E012F5F3F4F16
:101330004FEF6FEF0E94CD048A818093F200F80195
:101340008481813051F028F0823061F44091F200C4
:101350000AC08091F20040E007C06091F20040E0D6
:1013600080E003C040E080E060E00E947709F8017F
:10137000848190E0019663E070E00E94DC20848329
:101380000F900F900F90DF91CF911F910F910895C3
:10139000CF93DF9300D01F92CDB7DEB79091B50108
:1013A00090FF0AC09E012F5F3F4F0E94CD044B81EA
:1013B00069818A810E9477090F900F900F90DF91C9
:1013C000CF910895CF93DF93EC01E5EBF1E04381FA
:1013D00062818C810E94C8098C818F5F8C83DF9130
:1013E000CF910895CF93DF93EC01EC81F0E0ED53C2
:1013F000FE4F4491E5EBF1E0628181810E94C809D2
:101400008C818F5F8C83DF91CF9108958091B5019E
:10141000282F269530E02115310519F4817082605E
:1014200005C02B32310524F0817084658093B501AD
:101430000895CF92DF92EF92FF926B017C010E94A0
:10144000060AB701A60188E090E0FF90EF90DF90D8
:10145000CF900C940C205F926F927F928F929F920C
:10146000AF92BF92CF92DF92EF92FF920F931F93B2
:10147000CF93DF9300D01F92CDB7DEB7182F762E13
:10148000042F622E9091B50190FF6DC0E92FE69573
:10149000AE2FB0E0A258BF4F8C918093BA019E7FCF
:1014A000923061F49E012F5F3F4F812F0E94CD0447
:1014B0004B8169818A810E94770943C0823019F487
:1014C0000091B8013EC0863019F41091B60139C0C0
:1014D0008930D9F38931A9F5E9518E2F8170582EC1
:1014E000E695F0E0E254FE4FA590B49083EFC82E4D
:1014F00080E0D82EE12CF12CBB249CE0892E912C8D
:10150000AE9CC001AF9C900DBE9C900D1124B40107
:101510000E94C820812F511002C0860F01C0861B77
:101520009601402F672D0E94CD048FEFE81AF80A2C
:1015300083E0C80ED11C8CE0E816F10409F70E9484
:1015400023071093B6017092B7010093B80166208B
:1015500051F06091B5017091B6018091B701909101
:10156000B8010E94190A0F900F900F90DF91CF9150
:101570001F910F91FF90EF90DF90CF90BF90AF90B1
:101580009F908F907F906F905F900895E5EBF1E0D2
:10159000438122E1421B08F440E021E06281818125
:1015A0000C942B0AE5EBF1E0438122E1420F08F4B1
:1015B0004FEF21E0628181810C942B0AE5EBF1E091
:1015C00062812FE0621B08F460E021E043818181A9
:1015D0000C942B0AE5EBF1E062812FE0620F08F436
:1015E0006FEF21E0438181810C942B0AE5EBF1E060
:1015F000818121E0438162818C500C942B0AE5EBC0
:10160000F1E0818121E043816281845F0C942B0AA7
:101610008091B901882319F081508093B9016091BC
:10162000B5017091B6018091B7019091B8010C9409
:10163000190A8091B901833018F48F5F8093B90142
:101640006091B5017091B6018091B7019091B80198
:101650000C94190AE5EBF1E083E0808311828FEFAF
:1016600082838383148260817181828193810C944F
:10167000190ACF93DF932CE3829FC0011124FC0150
:101680004CE0749FE00DF11D1124E60FF11DEE0FEB
:10169000FF1FED5BFC4FC591D491CE01C238D1053F
:1016A00069F1B0F4C133D10509F475C048F4C93209
:1016B000D10509F469C0CA32D10509F473C085C0E7
:1016C000C533D10509F459C0C933D105B9F07DC07E
:1016D000C33ED10571F138F4C03ED105B1F0C23E30
:1016E000D10511F172C0C63ED105B9F1C73ED10591
:1016F000C9F1C43ED10509F068C024C02091AC01F5
:1017000020FD5DC021FD5BC060C02091AC0120FDCB
:1017100050C02091AD0120FF42C18091AC0184FDF9
:101720003CC183EE90E03BC12091AC0122FF37C168
:10173000F4CF8091AC0182FD3FC08091AD0180FD6E
:101740003EC0EBCF2091AD0121FF29C18091AC01BA
:1017500084FD23C187EE90E022C12091AC0123FFDC
:101760001EC1F4CF8091AC0183FD2CC08091AD01EE
:1017700081FFECCF84EE90E012C12091AC0125FFF7
:101780000EC189E290E00BC12091AC0125FF07C199
:1017900085E390E004C12091AC0126FF00C18AE2FC
:1017A00090E0FDC02091AC0126FFF9C081E390E0FC
:1017B000F6C089E390E0F3C082EE90E0F0C080EEE6
:1017C00090E0EDC086EE90E0EAC0C11552E5D50785
:1017D00008F06BC0C11521E5D20728F09C2F88279F
:1017E000816F906ADCC0C83ED10570F5C03ED1055E
:1017F00008F0D5C0C83AD105B8F4C53AD10550F0C3
:101800008C2F855AC82FD0E0C654DF4F888190E0D6
:101810009064C5C0C130D10509F4C1C008F4BDC091
:10182000249708F4BAC0BBC0CF3BD10508F0B5C0BF
:101830008C2F885AC82FD0E0CC0FDD1FC354DF4F48
:10184000888199819464ABC0C11540E5D407F0F05C
:10185000CE01F4E096958795FA95E1F7282F23704D
:101860003C2F337081E090E002C0880F991F3A95B9
:10187000E2F79C68922B2C2F2F702695269550E22C
:10188000259F90011124822B932B89C0C11550E410
:10189000D50720F0CE019F70906A81C09E013A95D5
:1018A00021153F4108F47BC078C0C11556E5D50726
:1018B00008F03FC0C11585E5D80748F08C2F0E947D
:1018C00063058F7190E0982F8827906268C0C115DA
:1018D00024E5D20728F09C2F8827846F906A5FC088
:1018E0009E01237033279C2F96959695C115D3455D
:1018F00080F441E050E002C0440F551F2A95E2F702
:1019000080E2989F90011124CA01822B932B9C683E
:1019100046C041E050E002C0440F551F2A95E2F74F
:1019200080E2989F90011124CA01822B932B9A6820
:1019300036C0C1155AE5D507B0F4C11589E5D807F9
:1019400018F18C2F8F700E9463059E0194E03695EC
:1019500027959A95E1F72F7030E0322F22273069D2
:10196000A901482B0FC0CE01905681159042A8F4D2
:101970008D2F8F710E9463059E01332730628F7116
:10198000A901582BCA010BC0C11528E5D20728F0C0
:101990009C2F8827806F906A02C080E090E0DF91E2
:1019A000CF9108950F931F93CF93DF93C42FD22F1E
:1019B000FC0182818823C9F0409359010E94FF14E1
:1019C000909354018093530180E28C0F883008F08B
:1019D0005EC0C77081E001C0880FCA95EAF7DF9149
:1019E000CF911F910F910C94E21B809159014813E4
:1019F0003EC080915301909154010E94F014883CA4
:101A00009105A8F510E21D0FCD17B9F080E28C0FFB
:101A1000883040F4C77081E001C0880FCA95EAF7AA
:101A20000E94D71B183048F481E09D2F977001C0A9
:101A3000880F9A95EAF70E94E21B802F0E94241CCF
:101A4000093349F4FFEF2DEE82E0F1502040804051
:101A5000E1F700C00000802F0E94EC1B1830B8F4A2
:101A6000D77081E001C0880FDA95EAF70AC080E2FA
:101A70008C0F883060F4C77081E001C0880FCA9570
:101A8000EAF7DF91CF911F910F910C94D71BDF9153
:101A9000CF911F910F9108959091B50190FF3DC096
:101AA0009170811102C0926006C08B3210F0946573
:101AB00002C0880F982B9093B501662351F0609176
:101AC000B5017091B6018091B7019091B8010E9463
:101AD000190A6091B501669570E04BE050E084E62C
:101AE00090E00E940521892B19F01092BB0109C0DA
:101AF00081E08093BB010E94FF149093B00180931A
:101B0000AF0181E08093B20120E04091B801609183
:101B1000B7018091B6010C942B0A08958091B5010C
:101B20008695815009F48AE261E00C944C0D809115
:101B3000B50186958F5F8B3208F081E061E00C94EF
:101B40004C0D9091B50190FF04C09695981740F008
:101B500003C0811105C090E0961710F40C94970D06
:101B600061E00C944C0D7F928F929F92AF92BF9246
:101B7000CF92DF92EF92FF920F931F93CF93DF9359
:101B800009EA10E0AEE9B1E028EAA22E21E0B22E87
:101B9000812CEE24E394F12CE80189918E01E82F49
:101BA000E295EF70F0E021A98F70A70102C0440F09
:101BB000551F8A95E2F7CA01242B21AB22A9742E66
:101BC0007094272122AB58E75A95F1F79EEAC92E67
:101BD00090E0D92E60E070E040E050E0E60199909E
:101BE0006E01292D22952F7030E0E90128A930E0FF
:101BF000D92DDF7002C035952795DA95E2F720FDE3
:101C000008C09701062E02C0220F331F0A94E2F784
:101C100002C020E030E0422B532B6F5F7F4F6C30CF
:101C20007105E1F691A9D72DD923D1AB92A9892BC2
:101C300082AB8D919C9111974817590729F0119605
:101C40005C934E9381E001C080E0882A1296AA1628
:101C5000BB0609F0A1CF882049F081E08093EE0017
:101C60000E94FF149093ED008093EC008091EE00B1
:101C7000882391F18091EC009091ED000E94F01486
:101C8000069750F180919E0190919F019093C90118
:101C90008093C8018091A0019091A1019093CB0104
:101CA0008093CA018091A2019091A3019093CD01EC
:101CB0008093CC018091A4019091A5019093CF01D4
:101CC0008093CE018091A6019091A7019093D101BC
:101CD0008093D0011092EE00882DDF91CF911F915B
:101CE0000F91FF90EF90DF90CF90BF90AF909F90BB
:101CF0008F907F9008958F929F92AF92BF92CF92D4
:101D0000DF92EF92FF920F931F93CF93DF93CDB7A4
:101D1000DEB72A970FB6F894DEBF0FBECDBFFC0129
:101D20000081D18083819481892B39F01FEFD112FA
:101D300006C091E00F3F19F403C091E001C090E0AC
:101D400090FDFCC57F0185E0DE01169601900D92A5
:101D50008A95E1F7F70122818E819F81222349F044
:101D60000E945918182F682F8E819F810E94D218C7
:101D700003C00E94A618182F2CE3129FF001112413
:101D80003CE0D39EE00DF11D1124E00FF11DEE0F9C
:101D9000FF1FED5BFC4F05911491F7019281992390
:101DA00009F4B1C0F801EB5BFC45E730F10508F040
:101DB000AAC0E65DFF4F0C94F02080919A018770D5
:101DC000806680939A01887F91E009F490E0809189
:101DD0009A0190FB80F980939A018CE007C0809172
:101DE0009A0187708E7F80939A0180E00E94DB06C3
:101DF00080919A010E942515CBC280919A01982F5B
:101E000096959695969509F469C0915E990F990FEC
:101E1000990F8770892B80939A014BC020919A016A
:101E2000822F869586958695482F50E04C30510537
:101E300054F48F5F982F990F990F990F822F877005
:101E4000892B80939A0180919A01816080939A01F5
:101E50000E94251543C080919A0180FF09C08E7FA2
:101E600080939A010E94251580E00E94DB0690C2B3
:101E7000816080939A01813019F489E080939A01FE
:101E800080919A01E5CF90919A01892F8695869548
:101E900086958F5F8F7197708D3038F4880F880F1B
:101EA000880F892B80939A0102C090939A018091A8
:101EB0009A01887F91E009F490E080919A0190FB6B
:101EC00080F9C4CF80919A0181FF0EC08D7F8093ED
:101ED0009A010E94251589B78B7F89BF80919A014D
:101EE000869586958695C1CF826080939A010E94DF
:101EF000251510929D0110929C0110929B0189B7AB
:101F0000846089BF45C2033F2CE5120799F406E2BD
:101F100021EE40EE63EF7CE509C0073DFCE51F07BD
:101F200011F506E221EE41EE67ED7CE5C7010E9466
:101F3000D20C2EC2043F3CE5130708F040C1083D17
:101F40008CE5180731F407E225EE45EE68ED7CE5F7
:101F5000EDCF093DECE51E0701F708E221E045EE73
:101F600069ED7CE5E3CF992309F45EC11092590134
:101F70000230FCE51F0708F441C106312CE51207C9
:101F800038F098012A5F3C452930310508F036C108
:101F90000E942A159093AD018093AC0100313CE57D
:101FA000130709F4C3C008F041C008309CE51907C5
:101FB00009F49AC0F0F40430FCE51F0709F487C067
:101FC00068F402303CE5130709F477C003301C4580
:101FD00009F0E5C08091AC01826076C006309CE5D6
:101FE000190709F46EC008F07BC08091AC018860CD
:101FF0006BC00C30FCE51F0709F485C068F40A309B
:102000003CE5130709F474C008F079C00E94CC1BAA
:102010008091AC01806858C00E309CE5190709F426
:1020200076C008F07FC08091AC018BC00B3FFCE50F
:102030001F0709F44FC018F503313CE5130709F4F5
:102040007DC078F401319CE5190709F473C00231B1
:102050001C4509F0A4C00E94CC1B8091AC018F7775
:1020600033C00531FCE51F0709F472C008F486C0CF
:102070000A3F1C4509F093C08091AD013EC00F3F5F
:102080008CE5180709F45FC058F40D3FECE51E0716
:1020900009F444C008F43FC08091AD0182602DC0B6
:1020A00001302DE5120709F475C008F45DC0023057
:1020B0001D4509F074C060E06EC08091AC01816084
:1020C00003C08091AC0180618093AC0168C08091B5
:1020D000AC0111C08091AD0182608093AD015FC001
:1020E0008091AC018062F0CF8091AC018064ECCF34
:1020F0008091AC0188608460E7CF8160EECF8091F1
:10210000AC018E7FE1CF8091AC018D7FDDCF8091DE
:10211000AC01877FD9CF8091AD0118C08091AD010E
:102120008D7FDBCF8091AC018F7ECECF8091AC01D3
:102130008F7DCACF8091AC018F7BC6CF8091AC01DF
:10214000877F8B7FC1CF8091AD018D7F8E7FC5CF83
:102150008091AC0182FB222720F991E0922790FB2D
:1021600082F990FB83F9B0CF8091AD01982F9095C3
:1021700091708E7F892B90FB81F9AFCF0E94CC1B91
:102180008091AC0187FB222720F991E0922790FBF8
:1021900087F99ACF61E08EE090E00E94FB1F60918A
:1021A000AC011091AD0184E090E00E94FB1F612F13
:1021B00081E290E00E94FB1F0E94CC1BE9C0053F1A
:1021C0002CE5120731F406E221EE42EE65EF7CE5E4
:1021D000ADCE053F3CE5130730F407E225EE44EEB3
:1021E00064EF7CE5A3CE063F8CE5180709F0BBCE73
:1021F00007E225EE46EE66EF7CE598CE80918E01F3
:102200000631ECE51E0749F58A7A91E009F490E081
:1022100090935A01882311F065E301C069E28BE5D0
:1022200091E00E940B1516C006311C4509F0CFC085
:1022300080915A01882309F47FC385E3EBE5F1E03F
:1022400021E631E09281891301C0128231962E1766
:102250003F07C1F70E942C189BC08272F801E25C14
:10226000FC45E431F10508F07CC0EF5CFF4F0C94B5
:10227000F0208091B50180FF1BC08E7F8093B50157
:102280006091B5017091B6018091B7019091B8014C
:102290000E94190A1092BB019FEBE4EDF1E091500E
:1022A000E040F040E1F700C000000E94230770C04A
:1022B00081608093B50161E0869550C04EE85DE095
:1022C00067E97DE02CC047E95DE06EE87DE027C06E
:1022D00046EF5AE06FEF7AE022C04FEF5AE066EF28
:1022E0007AE01DC04EED5AE06AEE7AE018C04AEE80
:1022F0005AE06EED7AE013C046EC5AE062ED7AE007
:102300000EC042ED5AE066EC7AE009C048E05BE0BE
:1023100069E17BE004C049E15BE068E07BE00E94AA
:102320001D0736C061E081E019C065E082E011C0A0
:1023300068E086E00EC06EE089E00BC064E18FE0EB
:1023400008C067E185E105C061E088E107C062E29D
:1023500089E10E94A10D1CC061E083E20E944C0D46
:1023600017C001152CE5120731F00E3D1C4579F51B
:102370000E9446150DC00E94CC1B8FEB97E2E9E04E
:1023800081509040E040E1F700C000000E94B1148D
:1023900080918B01877009F4D1C2F7018281882373
:1023A00009F4CCC282E02A960FB6F894DEBF0FBEC5
:1023B000CDBFDF91CF911F910F91FF90EF90DF90F4
:1023C000CF90BF90AF909F908F900C942219F701FF
:1023D00000811181992349F0C8010E945918D82E13
:1023E000682FC8010E94D21804C0C8010E94A61814
:1023F000D82EB8018D2D0E94390B8C01982EF70133
:10240000A580A2942FE0A222D280D11010928D013B
:1024100080918B01877099F0DD2089F0812F807F7A
:10242000803421F080E2800F883048F082E00E9402
:10243000221980918B018770CC24C3948111C12C07
:10244000B12EB2949FE0B9228B2D90E08C30910593
:1024500008F035C2FC01EB5BFF4F0C94F020812F9C
:10246000807F1F70882311F01295107FDD20B9F056
:10247000112309F40FC280E2800F883010F0911010
:1024800006C080918E01182B10938E0105C080919B
:102490008D01182B10938D010E942C18FBC1802FE9
:1024A0000E94EC1B112309F40AC2005E109508304B
:1024B00010F0911006C080918E01182310938E01A8
:1024C00005C080918D01182310938D010E942C1856
:1024D000F6C1812F807F1F70803211F01295107F1E
:1024E000992021F0F1E09F16E1F02AC0DD2081F073
:1024F00080918F01AA2051F001E0A01207C0182B93
:10250000181709F4DCC110938F01D9C1812B10C0B9
:10251000AA2021F021E0A21609F4D1C10E942618B8
:1025200027C0DD2041F035E03A1508F4C8C1812FFD
:102530000E94E21BC4C184E08A1508F4C0C118C01F
:10254000DD2049F0AA2099F3F701858180FFA2C11F
:102550008F708583ECCFAA2059F0093309F0ACC104
:10256000FFEF1DEE22E0F15010402040E1F7A2C144
:10257000812F0E94D71BA3C1812F869586958370DA
:1025800019F0813059F09BC1DD2019F0C80193701A
:1025900002C080E090E00E94580697C1DD2019F04B
:1025A000C801937002C080E090E00E9442068DC195
:1025B000812F837009F069C0D11085C1902F929549
:1025C00096959770990F990F802F8F70882E912C68
:1025D000A12CB12C092E04C0880C991CAA1CBB1C70
:1025E0000A94D2F704FF12C04FE050E060E070E0C0
:1025F00004C0440F551F661F771F9A95D2F7DB0161
:10260000CA0180959095A095B09503C080E090E0B8
:10261000DC0116951695412F4370423019F1C8F42C
:1026200000919001109191012091920130919301BC
:10263000413059F088299929AA29BB29BC01CD012B
:1026400060237123822393230AC0802A912AA22A1D
:10265000B32ABC01CD01682979298A299B290E94C6
:102660009D1931C188299929AA29BB290091900176
:10267000109191012091920130919301BC01CD0103
:102680006027712782279327EACFDD2019F0812F59
:10269000817001C08695882309F415C1902F929509
:1026A00096959770990F990F802F8F70882E912C87
:1026B000A12CB12C092E04C0880C991CAA1CBB1C8F
:1026C0000A94D2F704FF12C04FE050E060E070E0DF
:1026D00004C0440F551F661F771F9A95D2F7DB0180
:1026E000CA0180959095A095B09503C080E090E0D8
:1026F000DC0116951695412F43704230D9F068F5EC
:102700000091A8011091A9012091AA013091AB017B
:10271000413059F088299929AA29BB29BC01CD014A
:1027200060237123822393231EC0802A912AA22A28
:10273000B32A13C088299929AA29BB290091A80185
:102740001091A9012091AA013091AB01BC01CD01EA
:10275000602771278227932706C0BC01CD01682915
:1027600079298A299B290E949319ADC01F70DD2009
:1027700039F0812F0E943B19802F0E94E21BA3C0D9
:10278000802F0E94D71B812F0E94FD189CC0802F94
:1027900032EF931609F440C0391538F090EF9916CE
:1027A00061F0E1EF9E1699F170C0F3EF9F16D9F139
:1027B00024EF921609F44EC068C0DD2019F134E010
:1027C0003A1508F47CC01F7181E090E0A0E0B0E011
:1027D000AC01BD0104C0440F551F661F771F1A9539
:1027E000D2F78091A8019091A901A091AA01B0917E
:1027F000AB018A019B01082719272A273B27C9011A
:10280000B80125C025E02A1508F459C0DCCFDD2029
:1028100029F0812F8F712CC0DD20D9F3812F8F718A
:102820000E94FD184CC0DD2079F01F7181E090E01E
:10283000A0E0B0E0BC01CD0104C0660F771F881F87
:10284000991F1A95D2F703C060E070E0CB010E9497
:10285000931935C0DD2079F01F71812F0E943B193B
:1028600038E0139FC0011124836080938B01812F76
:102870000E943B1924C081E00E94221981E08A1540
:10288000F0F482E00E9422191AC0DD2039F0AA205B
:1028900009F4BFCF802F0E94241C11C0AA2009F484
:1028A000BDCF893349F49FEFEDEEF2E09150E04067
:1028B000F040E1F700C00000802F0E94EC1B88EF81
:1028C0008B0D843010F40E946E06CC20A9F080910C
:1028D0008B0180FD11C0F701128285958595859544
:1028E0000E943B19C7010E947B0E80918B01859548
:1028F000859585950E94FD1885E0F701DE0111960A
:1029000001900D928A95E1F789819A810E94A6181B
:102910009A810CE3809FF00111241CE0919FE00D4F
:10292000F11D11248981E80FF11DEE0FFF1FED5BF2
:10293000FC4F8591949102C089E280CC2A960FB613
:10294000F894DEBF0FBECDBFDF91CF911F910F91E5
:10295000FF90EF90DF90CF90BF90AF909F908F90BF
:10296000089560E081E090E00E941E2087E090EBF7
:10297000DC018093EC029093ED02A093EE02B09301
:10298000EF029CE088E10FB6F894A89581BD0FBED8
:1029900091BDFFCF78941F920F920FB60F92112422
:1029A0008F939F93AF93BF938091940190919501E2
:1029B000A0919601B09197010196A11DB11D809340
:1029C000940190939501A0939601B0939701BF91C4
:1029D000AF919F918F910F900FBE0F901F90189500
:1029E0009C014FB7F8948091940190919501A0912A
:1029F0009601B09197014FBF821B930B08952FB79B
:102A0000F8948091940190919501A0919601B091D4
:102A100097012FBF08959C01FC0132969FEF80E043
:102A20004191461789F09F3F19F4411101C0982F39
:102A30008F5F8630A9F79F3F39F0F901E90FF11D4B
:102A400097FDFA95628308950895682F86E090E0D7
:102A50000C94FB1FCF9384E090E00E94E71FC82FE7
:102A600081E290E00E94E71F2C2F30E0A901582B53
:102A7000CA01CF91089580E090E00E94F51F21E007
:102A80008C3E9E4F09F020E0822F08956CEE7EEF81
:102A900080E090E00E94182060E082E090E00E94D8
:102AA000FB1F60E083E090E00E94FB1F109290010A
:102AB00010929101109292011092930160E084E0D3
:102AC00090E00E94FB1F60E081E290E00E94FB1F0B
:102AD00060E085E090E00E94FB1F60E086E090E00F
:102AE0000E94FB1F6FEF87E090E00E94FB1F40E019
:102AF00050E0BA0188E090E00E940C2060E08DE098
:102B000090E00E94FB1F40E050E0BA0188E190E0B5
:102B10000E940C2060E087E190E00E94FB1F40E0F3
:102B200050E0BA018CE190E00E940C2060E080E26D
:102B300090E00E94FB1F40E050E0BA018FE090E07F
:102B40000E940C2040E050E0BA0183E190E00C9438
:102B50000C20CF93DF93CDB7DEB72A970FB6F8944A
:102B6000DEBF0FBECDBF0E94FF147C0184B780681A
:102B700084BF84B7806884BF82E790E09093990116
:102B80008093980185B7886085BF8BB780688BBFBD
:102B90008BE48093AE028093E1028093BA028AE5CF
:102BA0008093AD028093E0028093B9028B9A80E01B
:102BB000815041F0A895E7EBFBE03197F1F700C0B9
:102BC0000000F6CF8B987894FFEB04ED11E0F15004
:102BD00000401040E1F700C000008BE083BF8BEBAA
:102BE0008CBF82E089BFA9EAB0E04EEA50E061E024
:102BF00070E08D91E82FE295EF70F0E021A98F70E1
:102C00008B0102C0000F111F8A95E2F7C801902FB7
:102C10009095922391AB92A9892B82AB4A175B07BF
:102C200041F7AEEAB0E041E050E08D91E82FE29547
:102C3000EF70F0E021A98F70BA0102C0660F771F14
:102C40008A95E2F7CB01962F9095922391AB92A9AA
:102C5000892B82AB70E0AA3BB70739F7EEE9F1E0C8
:102C600088EA91E0A8ECB1E0119211921D921D92B8
:102C70008E179F07C9F70E94B30D8FE399E1E1E03A
:102C800081509040E040E1F700C000000E94B30D89
:102C90008091C80180FF08C06FEF7FEF80E090E077
:102CA0000E9418200E94B1140E943B15811102C09D
:102CB0000E9446158C9A949882E28FBD89E18EBD60
:102CC0008FEF9FEF97BD86BD0E94FA0680919A0113
:102CD00081FF09C010929D0110929C0110929B01EE
:102CE00089B7846089BF0E943B15811102C00E9490
:102CF000461582E090E00E94E71F8093BD010E948C
:102D00002A159093AD018093AC0183E090E00E947E
:102D1000E71F682F70E080E090E00E949D190E94FC
:102D2000FA068091AE01811133C00E943B158111DA
:102D300004C00E9446150E942A0B88E090E00E9481
:102D4000EF1F6093B5017093B6018093B701909324
:102D5000B8016E7F71F40E942A0B88E090E00E9417
:102D6000EF1F6093B5017093B6018093B701909304
:102D7000B8010E94060A1092BB018091B50180FF44
:102D800004C060E086950E944C0D81E08093AE0106
:102D900010E07EEAC72E74E0D72E8091A10288232E
:102DA00031F01092A1020E94FF147C0108C0C701FB
:102DB0000E94F014069708F021C111111FC10E9452
:102DC000421D80919802882309F414C18091AD02BC
:102DD00084FF10C10E94B30DEEEBF1E0A8ECB1E06E
:102DE00000E010E0902F4D915D91219131912427C9
:102DF00035272115310579F180E0AA24A394B12C5F
:102E0000B50162237323672B09F189839A834A21D1
:102E10005B2181E0452B09F480E08B830E94FF1445
:102E20008160782F9D838C8349815A816B818D814C
:102E30000E94A605000F111FF801E254FE4F808189
:102E40009181A826B926B182A0821AC08F5FAA0CF0
:102E5000BB1C8C30A9F60F5F1F4F0530110511F612
:102E60008FEF8E838F8318860E94FF148160782FE6
:102E70009A8789874E815F8168858A850E94A60529
:102E80008091BB01882309F4ABC08091BA01E09125
:102E9000B501E695E81BE093B101823059F4F0E00A
:102EA000E454FB4FE4910E2F10E0F2EFAF2EF9E067
:102EB000BF2E6AC0863059F4F0E0E754FB4FE4912E
:102EC0000E2F10E0E2EEAE2EE9E0BE2E5DC089309E
:102ED00061F4E695F0E0EA54FB4FE4910E2F10E028
:102EE0007DE4A72E79E0B72E4FC08F3061F4E695D0
:102EF000F0E0ED54FB4FE4910E2F10E060EEA62EB3
:102F000068E0B62E41C0853159F4F0E0E055FB4F42
:102F1000E4910E2F10E052E9A52E58E0B52E34C0F2
:102F20008831F1F0833241F4F6010591149148E8BB
:102F3000A42E49E0B42E28C08432C9F08532F1F4C1
:102F40008E2F63E00E94AE20E92FF0E0E555FB4FA5
:102F5000E4910E2F10E035E4A32E37E0B32E14C019
:102F600008E210E029E0A22E28E0B22E0DC004EF06
:102F700011E09FECA92E97E0B92E06C000ED17E0F6
:102F80008CECA82E84E0B82E8091B201882389F0C1
:102F90001092B2010E94FF14980120953095820F83
:102FA000931F9093B0018093AF011092B4011092DF
:102FB000B3018091AF019091B0010E94F01480178D
:102FC000910770F0E091AF01F091B0010E0F1F1F5B
:102FD0001093B0010093AF018FEA91E0F5010995DC
:102FE0000E946E069091BC01891721F00E946E0626
:102FF0008093BC010E94801E10E0CFCE0E94B30DD2
:10300000E8ECF1E081919191892B29F401E0E23D16
:10301000F007C1F719C0F89421B3939A822F8C60FE
:1030200081BB92B38CE0982792BB1FE53AEE40E05B
:10303000115030404040E1F700C0000092B38927B2
:1030400082BB21BB9398789411E0A7CE80918F0129
:10305000811110928F01089590918E0180918D01C0
:10306000892B20918C01982F922B90935B0180915A
:103070008F01882389F0892B80935B01EDE5F1E0D6
:1030800097E080E0915029F021912223D9F38F5FBE
:10309000F9CF81110E942618E0919801F0919901D1
:1030A000309731F00280F381E02D8BE591E00994B7
:1030B0000895BF92CF92DF92EF92FF920F931F93EA
:1030C000CF93DF938C01C090A801D090A901E0902C
:1030D000AA01F090AB018091900190919101A09193
:1030E0009201B0919301C82AD92AEA2AFB2ACFE19A
:1030F000D0E0D701C6010C2E04C0B695A7959795D0
:1031000087950A94D2F780FD04C0219790F7B12CDF
:1031100007C0BC2EB8018C2F0E94390B0197A9F370
:103120008B2DDF91CF911F910F91FF90EF90DF904A
:10313000CF90BF900895CF93DF93EC010E94591870
:10314000BE010E94390BDF91CF9108952CE0929F30
:10315000800D1124682F669566956695982F977057
:1031600085E0689FB001112440E050E080E0FB0161
:10317000E40FF51FED59FE4F208130E0092E02C00B
:10318000369527950A94E2F721703327042E01C063
:10319000220F0A94EAF7822B4F5F5F4F45305105AB
:1031A00031F708952CE0929F800D1124E82FE695C9
:1031B000E695E695877051E001C0550F8A95EAF7CC
:1031C00085E0E89FF0011124ED59FE4F20E030E04A
:1031D00070E04081CB01022E02C0969587950A943B
:1031E000E2F78170819584278523842781932F5F5F
:1031F0003F4F2530310569F708950F931F9341E044
:1032000050E060E070E004C0440F551F661F771F58
:103210008A95D2F740955095609570958091A80158
:103220009091A901A091AA01B091AB018A019B01E3
:10323000082319232A233B23C901B8011F910F91A9
:103240000C94931920918B018095822380938B019C
:10325000982F977079F430E0482F082E000C550B0A
:103260002417350739F08595859585950E94FD18B9
:1032700010928B0108950F931F9341E050E060E09E
:1032800070E004C0440F551F661F771F8A95D2F760
:103290008091A8019091A901A091AA01B091AB01E0
:1032A0008A019B01082B192B2A2B3B2BC901B80142
:1032B0001F910F910C9493190E949B18292F2F7026
:1032C000E92FE295EF704E2F50E0FA013297EE3081
:1032D000F105B8F4EF5AFF4F0C94F020803F99F0BD
:1032E00018F4883E70F40FC0843F59F40CC0883E37
:1032F00050F0813F31F407C0822F869586958695E0
:10330000089580E0089581E0089510928D01109253
:103310008C010E942C1880E090E00E94580680E00A
:1033200090E00C9442066093A8017093A9018093E9
:10333000AA019093AB010C9485196093900170934E
:10334000910180939201909393010C94851980913F
:1033500009029091D801891719F08F5F8770FBCF10
:1033600008950F931F93CF93DF938091D701829598
:103370008F7009F05DC08091D401882309F458C092
:10338000809109021091D8016091D2017091D3010E
:10339000C091D501D091D60191E06F3F09F090E046
:1033A000292F06E0811709F443C0209721F07F3FC1
:1033B00021F030E003C031E001C0322F90E030FD59
:1033C00034C0089FF001099FF00D1124DF01A752BE
:1033D000BE4F11963C911197371327C03C9136137D
:1033E00024C012963C91129731111FC013964D9133
:1033F0005C9114974C1B5D0B483C5105B0F48091D7
:10340000D7018F7080618093D701E252FE4F808197
:103410008F708061808382ED91E00E947B0EDF914E
:10342000CF911F910F910C94A71901968770BACF75
:10343000DF91CF911F910F9108959F92AF92BF920C
:10344000CF92DF92EF92FF920F931F93CF93DF9370
:10345000CDB7DEB761970FB6F894DEBF0FBECDBF14
:103460008C0185E0F801DE011D9601900D928A9590
:10347000E1F7F80190818181E2803091D201609181
:10348000D3014091D5015091D6014115510531F03C
:103490006F3F31F421E03F3F19F403C021E001C048
:1034A00020E0F22FF1709F2E20FD23C1F801C38090
:1034B000D48022EDA22E21E0B22EF090D401F601AC
:1034C000E41BF50BFF2009F4CEC02091D701E83CA6
:1034D000F10508F099C0422F407F09F051C06813F0
:1034E00011C039130FC0FE2CE1100CC02F702061E9
:1034F0002093D701C5010E947B0E8091D701F8016E
:10350000858337C1CD2831F08F3F31F421E09F3FD3
:1035100019F403C021E001C020E020FD03C021E038
:103520002E2502C020E030E0F22FF170FF2E20FFA8
:103530001DC0209109024091D80156E0241709F4DA
:10354000F6C030E0529FF001539FF00D1124E75276
:10355000FE4F6181861306C06081961303C06281AD
:10356000E61204C02F5F3F4F2770E8CFFE2CEE20FD
:1035700009F4FFC08091D70181608093D70150C0CA
:10358000681307C0391305C0E11003C0F801258393
:103590008DC09D878E878D859E850E945C198823AE
:1035A00069F1EE2059F12091D701822F82958F7019
:1035B00090E0029774F08091D2019091D3019887A6
:1035C0008F831986DB86CA862C87CE0107960E94D8
:1035D0007B0E86E0F801A2EDB1E001900D928A9594
:1035E000E1F70E94B1190DC06817E1F09D878E8741
:1035F0008D859E850E945C1981111EC0C8010E94A4
:103600007B0EFF24F394B5C0422F407F69F782ED13
:1036100091E00E947B0E86E0F50111928A95E9F710
:10362000F12CA7C03913E2CFE110E0CFF8012583D8
:10363000C8010E947B0E57C0EE2001F32091D701F4
:10364000822F82958F7090E002971CF28091D201B8
:103650009091D3019A8389831B82DD82CC822E8351
:10366000CE010196B4CFE83CF105E8F5FE2CEE2042
:1036700029F2681327C0391325C02091D70120FDF6
:1036800018C0822F82958F70482F50E04115510548
:1036900081F0F80125834F30510541F08F5F982F5D
:1036A0009295907F822F8F70892B8583C8010E940D
:1036B0007B0E86E0F801A2EDB1E001900D928A95B3
:1036C000E1F757C09D878E878D859E850E945C1986
:1036D00081117FCF8091D70181608093D701C8018C
:1036E0000E947B0E46C086E0F50111928A95E9F7AB
:1036F00040C0EE2009F482CF9D878E878D859E8500
:103700000E945C19F82E882309F478CF86E0F8012E
:10371000A2EDB1E001900D928A95E1F78091D2017E
:103720009091D3010E949B180E94B11922C09D87DD
:103730008E878D859E850E949B18292F22952F703C
:10374000223028F49F7039F0811105C00BC024305D
:1037500028F49F7049F4805E883020F0C8010E94F0
:103760007B0E9F2CF92C05C0F8019581907F99F76D
:10377000F9CF8F2D61960FB6F894DEBF0FBECDBF87
:10378000DF91CF911F910F91FF90EF90DF90CF903D
:10379000BF90AF909F90089510928E0186E0EDE566
:1037A000F1E0DF011D928A95E9F70C9485198823D1
:1037B00041F0809590918E01892380938E010C9425
:1037C0002C180895882339F090918E01892B8093CD
:1037D0008E010C942C1808958823A9F19CEF980F62
:1037E000913A60F4EBE5F1E09281891301C0128215
:1037F000319641E0E136F407B9F714C090E2980F32
:10380000983090F4877021E030E0A90102C0440FA5
:10381000551F8A95E2F7CA01809590918E01892300
:1038200080938E010C942C189BE5980F933020F414
:1038300080E090E00C945806885A873120F480E0AC
:1038400090E00C9442060895CF93882309F453C066
:103850009CEF980F913AF8F4C82FEDE5F1E083E67C
:1038600091E02191C21721F08E179F07D1F70DC06B
:10387000EBE5F1E08281C81301C01282319641E08C
:10388000E136F407B9F70E942C186C2F8BE591E014
:103890000E940B1513C090E2980F983090F4877037
:1038A00021E030E0A90102C0440F551F8A95E2F7DC
:1038B000CA0190918E01892B80938E01CF910C9437
:1038C0002C18EBE5E80FE33040F4F0E0E654FF4F4E
:1038D000808190E0CF910C945806885A873158F433
:1038E000E82FF0E0EE0FFF1FE354FF4F808191813E
:1038F000CF910C944206CF910895FC0193819330AF
:10390000D9F068F4913081F0923009F060C080E61F
:1039100095E090939F0280939E028BE308959132ED
:1039200081F19232F1F153C08BE995E090939F02BF
:1039300080939E0282E108958281813061F040F09F
:10394000823089F0833009F042C082E395E013C0F1
:103950008CE595E010C084E495E090939F028093FD
:103960009E0286E1089588E395E090939F028093FC
:103970009E028AE0089590939F0280939E0284E0C5
:1039800008958281882329F0813009F58BE895E03C
:1039900002C082E795E090939F0280939E0289E0A7
:1039A000089584819581009751F0019781F480EC0E
:1039B00094E090939F0280939E0282E3089582EFA9
:1039C00094E090939F0280939E0280E4089580E0AB
:1039D000089508958091990208951F93CF93DF93DE
:1039E000162FEA01288124FF05C0398128E8232702
:1039F000298302C02AE52883212FFC01CE010296EB
:103A0000DC0131913D9321501216DCF3612F0E94AD
:103A100032031C5F1883DF91CF911F910895CF93DC
:103A2000DF9300D01F92CDB7DEB790918E0298132E
:103A300007C020918C0230918D0226173707A1F024
:103A400080938E0270938D0260938C0289837B83B6
:103A50006A838091E00284FF07C040EE52E063E099
:103A6000CE0101960E94ED1C0F900F900F90DF91F8
:103A7000CF910895BC0184E00C940F1DBC0183E03C
:103A80000C940F1DCF93DF938091C802835087FD64
:103A9000CBC09091C702CCE0D0E0C91BD109C6537E
:103AA000DD4F9091C602903108F4BCC09D3209F000
:103AB000A0C0883009F0B6C083EC8093A2028AE5EA
:103AC00080937D0010929D0288818076D9F18032AA
:103AD00009F084C08981813069F48C819D81892BB2
:103AE00009F07CC080E992E090939F0280939E024F
:103AF00088E075C0823041F48FE892E090939F0295
:103B000080939E0281E06BC08A3021F48B81809388
:103B10008F0264C0893009F061C08A819B81811560
:103B2000924009F0DCC08C819D81892B09F0D7C0BF
:103B300081E080939C028E819F8190939B02809371
:103B40009A02CDC09A811092AB028981811106C080
:103B50001092AC022BEA32E082E03BC0853019F4CF
:103B60009093C90233C08630B9F48B81813041F023
:103B7000823031F0833021F0813211F0823221F431
:103B8000CE010E947D1C01C080E090E490939D02D4
:103B90008F3F09F4A4C023C0883089F0893019F41C
:103BA0009093980213C08A3069F08B3079F48BE4DB
:103BB0008093AE028093E1028093BA0207C028E9A5
:103BC00032E002C02BEA32E081E003C02BEA32E0AF
:103BD00080E030939F0220939E0201C080E09F818D
:103BE000911104C09E81981708F4892F80937C005E
:103BF00019C080919D0287FF15C080919A02909113
:103C00009B02892B09F475C080919C02813009F0D8
:103C100070C088818093990210929B0210929A0240
:103C200010927C001092C80280917D0084FF4CC0ED
:103C300080917C008F3F09F447C0C82F893008F07D
:103C4000C8E08C1B80937C009091A20288E88927B1
:103C50008093A202CC2359F180919E0290919F0201
:103C600020919D0226FF12C0A2EAB2E02C2FAC01E7
:103C7000425A5240FA01EA0FFB1FE4911196EC936D
:103C80001197215011962111F5CF08C0E3EAF2E017
:103C9000DC012C2F3D9131932150E1F701962FEF5C
:103CA0002C0F820F911D90939F0280939E026C2F88
:103CB00083EA92E00E943203CC5FCC3019F08FEFA0
:103CC00080937C00C0937D0084E190B39C70A9F444
:103CD0008150D9F71092C9021092C5020EC0888196
:103CE00087FF05C08E8190E890939D027FCF8FEF74
:103CF000FACF8EE180937D0095CFDF91CF9108952B
:103D0000CF93DF93CAE0D0E08091AD0284FF1AC068
:103D100080918A0290918B029817F1F028E0829F9F
:103D2000C00111244DEA52E068E0865F9D4F0E9479
:103D3000ED1C80918A0290E001968F709927809304
:103D40008A020AC00E94421D87EB9BE00197F1F7AF
:103D500000C000002197C1F6DF91CF910895CF9365
:103D6000DF93EC01A0918B02B0E0CD0101968F7042
:103D7000992720918A02281779F093E0AA0FBB1F98
:103D80009A95E1F7A65FBD4F98E0FE0101900D9274
:103D90009A95E1F780938B020E94421D0E94801E3B
:103DA00088E0FE01A0E9B2E001900D928A95E1F76A
:103DB000DF91CF91089511B887E080B985B3836012
:103DC00085BB86B7846086BF86B7816086BF86B7AD
:103DD000806486BF0895EF92FF920F931F93CF9355
:103DE000DF93182FEB0116BE84EA86BF0E94FF14F2
:103DF0007C0106B607FC0EC0CF3F8FEFD807C9F392
:103E00000E94FF148E199F098C179D0790F38EEF67
:103E10009FEF28C081B1887F883039F081B1887FD9
:103E2000803119F08FEF9FEF1DC013B984E886BF72
:103E30000E94FF148C0106B607FC0CC0CF3F8FEF29
:103E4000D807C9F30E94FF14801B910B8C179D07A4
:103E500090F3DDCF81B1887F883111F0803411F784
:103E600080E090E0DF91CF911F910F91FF90EF9054
:103E700008950F931F93CF93DF93EB0183B984E8E9
:103E800086BF0E94FF148C0106B607FC0EC0CF3F10
:103E90008FEFD807C9F30E94FF14801B910B8C177A
:103EA0009D0790F38EEF9FEF0BC021B1287F81E03B
:103EB00090E0283211F480E090E09195819591098D
:103EC000DF91CF911F910F910895CF92DF92EF92E2
:103ED000FF920F931F93CF93DF936B018A017901B8
:103EE000B9010E94EB1EE6010C0D1D1DC017D10784
:103EF00059F424E926BFDF91CF911F910F91FF90D4
:103F0000EF90DF90CF90089597FDF3CFB70189919F
:103F10000E94391FEBCF8F929F92AF92BF92CF92A8
:103F2000DF92EF92FF92CF93DF93EC01688179816A
:103F30008A819B81611571058105910521F464E2F7
:103F400079ED8BE597E02DE133EF41E050E00E9401
:103F50003B2049015A019B01AC01A7EAB1E40E9450
:103F60005A206B017C01ACEEB4EFA50194010E94D4
:103F70006820DC01CB018C0D9D1DAE1DBF1DB7FF60
:103F800003C00197A109B04888839983AA83BB83A2
:103F90009F77DF91CF91FF90EF90DF90CF90BF9010
:103FA000AF909F908F9008950E948B1F089580E698
:103FB00090E00E948B1F0895A0E0B0E08093600025
:103FC00090936100A0936200B09363000895E1991B
:103FD000FECF9FBB8EBBE09A99278DB30895A6E1D3
:103FE000B0E044E050E00C942D20A8E1B0E042E0C5
:103FF00050E00C942D20262FE199FECF9FBB8EBB65
:10400000E09A01970DB2021631F02DBB0FB6F8946D
:10401000E29AE19A0FBE08950396272F0E94FC1F93
:104020000E94FB1F252F0E94FC1F242F0C94FC1FB5
:104030000196272F0E94FC1F0C94FB1F262FE1994D
:10404000FECF9FBB8EBB2DBB0FB6F894E29AE19AD0
:104050000FBE01960895DC01CB01FC01E199FECF72
:1040600006C0FFBBEEBBE09A31960DB20D924150F7
:104070005040B8F70895052E97FB1EF400940E9457
:10408000522057FD07D00E946D2007FC03D04EF44C
:104090000C94522050954095309521953F4F4F4FAD
:1040A0005F4F089590958095709561957F4F8F4FE4
:1040B0009F4F08950E948F20A59F900DB49F900D53
:1040C000A49F800D911D11240895B7FF0C945A20D0
:1040D0000E945A20821B930B0895A1E21A2EAA1B5C
:1040E000BB1BFD010DC0AA1FBB1FEE1FFF1FA217A8
:1040F000B307E407F50720F0A21BB30BE40BF50BA5
:10410000661F771F881F991F1A9469F7609570952D
:10411000809590959B01AC01BD01CF010895A29FB0
:10412000B001B39FC001A39F700D811D1124911D8B
:10413000B29F700D811D1124911D0895DB018F9395
:104140009F930E945A20BF91AF91A29F800D911D15
:10415000A39F900DB29F900D11240895991B79E0B3
:1041600004C0991F961708F0961B881F7A95C9F707
:104170008095089587FB082E062687FD819567FDAB
:1041800061950E94AE200EF4919507FC81950895EB
:10419000AA1BBB1B51E107C0AA1FBB1FA617B7076D
:1041A00010F0A61BB70B881F991F5A95A9F7809589
:1041B0009095BC01CD01089597FB072E16F400944D
:1041C00007D077FD09D00E94C82007FC05D03EF437
:1041D000909581959F4F0895709561957F4F0895B3
:1041E000EE0FFF1F0590F491E02D09940E948F209F
:1041F000332312F48A1B9B0B0C9400210E948F2006
:10420000B7FF0895821B930B0895FC014150504065
:1042100030F001900616D1F73197CF010895882725
:0842200099270895F894FFCFDF
:104228000100000001191A1B1C1D1E1F202122015C
:104238000201EA1CAF1EE91C3E1D3A1DFF5A00018F
:10424800020202020606060909090909090F0F0FE9
:104258000F0F0F15151518191919191919191919F1
:1042680019232425252525252560616263649091FD
:1042780092939495969737363534818283E200E994
:1042880000EA00B500B600B700CD008301CC008A73
:104298000192019401210223022402250226022709
:0C42A800022A02B300B4006F0070000096
:00000001FF
