:100000000C9499010C94E8080C94E0010C94E00124
:100010000C94E0010C94E0010C94E0010C94E001DC
:100020000C94E0010C94E0010C94E61A0C94B81BBB
:100030000C9426160C94E0010C94E0010C94E00161
:100040000C94E0010C94E0010C94E0010C94E001AC
:100050000C94E0010C9473160C94E0010C94E001F4
:100060000C94E0010C94E0010C94E0010C94E0018C
:100070000C94E0010C94E0010C94E0010C94E0017C
:100080000C94E0010C94E0010C94E0010C94E0016C
:100090000C94E0010C94E0010C94E0010C94E0015C
:1000A0000C94E0010C94E0010C94E001180C180C85
:1000B0004A0C4A0C970CCB0DCB0DCB0DB50C4A0D51
:1000C0005B0D5B0DBB0DCB0DCB0DC40D670E670E2D
:1000D000790E790E700E790E790E790E670E670E15
:1000E000750E790E790E750E251C4C1C441D4C1C8A
:1000F000441D981CBB1C441D121D211D14001A0018
:1001000008001500170004001600070009000A0087
:100110001D001B00060019000500E3000151E0006E
:10012000000000001C0018000C00120013000B005F
:100130000D000E000F0033001100100036003700D4
:1001400038002C0002512A00000000001E021F028D
:100150002002210222022B00F200F100F000F30045
:10016000E000350000000000F400E30001000100A1
:10017000000000002302240225022602270250006C
:10018000510052004F004C00000000004B004E0098
:100190002800010003510100000000001E001F00A4
:1001A0002000210022002B000000000000000000C1
:1001B00000000000000000000000010003510100E9
:1001C00000000000230024002500260027002D0049
:1001D0002E002F002F003000330034004B004E0063
:1001E0003500010001000100000000003A003B0062
:1001F0003C003D003E00F200F100F000F300F4008E
:10020000E0000100010001000100E3000100010025
:10021000000000003F00400041004200A9005000E3
:10022000510052004F00AA00FB00FA00F900FC0048
:10023000A8000100010001000000000010034D00B3
:1002400069006E00690041007800650000001E032F
:1002500045004E0044004F0020004B006100740038
:10026000730075006800690072006F0000000403ED
:10027000090409023B00020100A0FA090400000180
:10028000030101000921110100012240000705813D
:100290000308000A090401000103000000092111FC
:1002A0000100012232000705820320000A1201101A
:1002B0000100000008EDFE393901000102000105CE
:1002C000010980A101850319012AB700150126B78C
:1002D00000950175108100C0050C0901A10185047C
:1002E00019012AA002150126A002950175108100AE
:1002F000C005010906A101050719E029E715002538
:10030000019508750181029501750881010507199C
:100310000029FF150026FF009506750881000508D5
:100320001901290595057501910295017503910142
:10033000C00011241FBECFEFDAE0DEBFCDBF04B690
:1003400003FE27C08091570290915802A091590254
:10035000B0915A028730904BA740B04BD1F4109225
:100360005702109258021092590210925A0214BE6B
:1003700084B7877F84BF0FB6F894A89580916000FA
:10038000886180936000109260000FBEE0E0F8E3A7
:10039000099511E0A0E0B1E0E4E8FBE302C00590BC
:1003A0000D92A03AB107D9F722E0A0EAB1E001C06E
:1003B0001D92A735B207E1F70E9426180C94C01DC4
:1003C0000C9400000C94AF040C94AD040C94EC015C
:1003D0000C948F0281E0089581E0089508950C94B3
:1003E000EE011F93CF93DF9300D000D01F92CDB7C3
:1003F000DEB749835A836B833091BF0189819A812B
:10040000311114C0662359F0222349F00E94A2132F
:10041000182F682F89819A810E94491303C00E9476
:100420007513182F69817A81812F04C00E94A2134D
:1004300069817A810F900F900F900F900F90DF914C
:10044000CF911F910C94A102FC01262F4081518174
:100450006281738184810C94F101CF93DF93EC016D
:1004600060E00E942402BE01DF91CF910C94EF0165
:100470000E94D414811102C00E947B150C94E201E9
:100480000C94E40108950E94550E0E9442022FEF41
:1004900084E39CE0215080409040E1F700C00000E0
:1004A0000C9499160F931F93CF93DF93EC0161E0A7
:1004B0000E9424028C01BE010E94E601882349F1BA
:1004C000BE01C8010E949106882319F1BE01C8012E
:1004D0000E94E3068823E9F0BE01C8010E940E08CD
:1004E0008823B9F08A81882369F001158CE5180703
:1004F00031F00F3D1C4531F40E947B150AC00E946B
:10050000430207C0CE01DF91CF911F910F910C9450
:10051000EA0180E0DF91CF911F910F910895089536
:1005200081E008950C949002CF93C82F0E94E801B7
:100530008C2F0E949202CF91089580E090E0089560
:10054000089528E2829FC0011124FC0125E0729FDA
:10055000E00DF11D1124E60FF11DEE0FFF1FE45019
:10056000FF4F859194910895880F991FFC01E45CD9
:10057000FD4F859194910895CF93DF930E94A1023E
:100580000E94CE03EC018115904508F043C0C115CF
:1005900080E4D80708F0CBC0C03ED10528F5C03CA8
:1005A000D10508F0B3C0C83AD10578F4C53AD105F1
:1005B00008F0A4C0C130D10509F4ECC008F4E8C0CB
:1005C000C430D10508F0E6C0E3C0CF3BD10508F048
:1005D000DFC0C85AD0E0CC0FDD1FCA5EDE4F0990E5
:1005E000D881C02DD464D6C0C11590E2D90750F48B
:1005F000C11521E0D20708F0CDC0C83ED10508F4EE
:10060000C9C0C6C0C11580E3D80708F086C0CE01B6
:100610009F707FC0C11595E5D90708F043C0C1158B
:1006200024E5D20708F09AC0C11582E5D80708F57D
:10063000C11591E5D90708F07DC0CE0174E096950B
:1006400087957A95E1F783709C2F937021E030E0D5
:1006500002C0220F331F9A95E2F73C68382BCF7007
:10066000C695C69580E2C89FE0011124C22BD32B0A
:1006700091C09E01237033278C2F86958695C115D6
:10068000D34508F05CC0C1E0D0E002C0CC0FDD1F54
:100690002A95E2F720E2829FC0011124C82BD92BB2
:1006A000DC6878C0C11529E5D207A0F4C11588E53A
:1006B000D80708F058C0C11596E5D90708F068C0FA
:1006C0008C2F0E9462048F71C82FD0E0DC2FCC27C2
:1006D000D06260C0C1152AE5D20708F449C0CE0136
:1006E00090568115904208F053C08D2F8F710E9453
:1006F0006204DD27D0628F71D82B4CC0C55AD0E080
:10070000CC5BDE4FC881D0E0D06444C0CE01805CB9
:1007100091090E94B402EC013DC0CE019927D3FF9C
:1007200003C0EC01D86C36C0EC01D06C33C0DF7074
:10073000D06A30C0DC2FCC27C16FD06A2BC0C1E09B
:10074000D0E002C0CC0FDD1F2A95E2F720E2829FA5
:10075000C0011124C82BD92BDA681CC0DC2FCC2790
:10076000C46FD06A17C0DC2FCC27C06FD06A12C00C
:100770008C2F8F700E94620494E0D695C7959A954D
:10078000E1F7CF70D0E0DC2FCC27D069C82B02C0B6
:10079000C0E0D0E0CE01DF91CF910895823891057D
:1007A00069F1B0F48133910509F46DC048F48932E0
:1007B000910509F463C08A32910509F469C008956E
:1007C0008533910509F455C089339105B9F0089531
:1007D000833E910569F138F4803E9105B1F0823E87
:1007E000910509F10895863E9105A9F1873E91058D
:1007F000B9F1843E910509F064C023C020914802FC
:1008000020FD4FC021FD4DC008958091480280FD1C
:1008100044C08091490280FF44C08091480284FD19
:1008200042C083EE4DC08091480282FF38C0F5CFB0
:100830008091480282FD33C08091490280FD31C021
:10084000ECCF8091490281FF32C08091480284FD43
:100850002AC087EE35C08091480283FF26C0F5CFBD
:100860008091480283FD21C08091490281FD1FC013
:10087000ECCF8091480285FD1CC01DC080914802CC
:1008800085FD19C016C08091480286FD16C017C0AC
:100890008091480286FD13C010C089E311C082EE2A
:1008A0000FC080EE0DC080E00BC086EE09C084EE64
:1008B00007C089E205C085E303C08AE201C081E385
:1008C00090E008959091480292FF0DC0282F287162
:1008D000283019F4877F846006C0282F24712430C3
:1008E00011F48B7F886093FF0DC0282F2871283169
:1008F00019F4877E846106C0282F2471243111F4F5
:100900008B7E88612091490220FF0DC0382F3871FD
:10091000383019F4877F816006C0382F317131304B
:1009200011F48E7F886021FF0DC0282F2871283197
:1009300019F4877E816106C0282F2171213111F4BD
:100940008E7E886194FD877E0895E82FF0E0E65C56
:10095000FD4F80810895089508950C94AC040C9483
:10096000AC040895CF93DF930E94D70580910001D6
:1009700080910001811102C094E001C090E0909349
:10098000430284E0891B8093420247E451E0A1E0E6
:10099000B0E020E030E0FA01E20FF31F80818F3FEA
:1009A000A1F0E82FE295EF70F0E061A18F70ED010A
:1009B00002C0CC0FDD1F8A95E2F7CE019C2F9095E7
:1009C000962391A392A1892B82A32F5F3F4F2530BD
:1009D000310509F74B5F5F4FD1E04F365D07C9F630
:1009E000E2E3F2E0AAE3B2E011921D9282E0EA3380
:1009F000F807D1F784E00E9481050E943802DF9158
:100A0000CF910C94E1050E94B8058823F1F0809104
:100A1000420290E0865C9D4F0E94F405811111C056
:100A20008091A0018F5F8093A001863060F0E091FB
:100A30004202F0E0E65CFD4F1082118212821382C6
:100A400002C01092A0010C9440028091430290E0F9
:100A5000865C9D4F0E940F060C94B1040F931F9368
:100A6000CF93DF93E2E3F2E067E471E0C0E001E0FE
:100A700010E080E090E050E0DB01A80FB91F4C913E
:100A80004F3FC9F0A42FA295AF70B0E090962C9183
:100A900030E04F7002C0359527954A95E2F720FD6A
:100AA00007C09801082E01C0220F0A94EAF702C07D
:100AB00020E030E0522B019685309105E9F68081E7
:100AC000851719F0508381E001C080E0C82B319672
:100AD0006B5F7F4F81E06B35780759F66091430279
:100AE00070E0665C7D4F2C2F44E082E392E00E9430
:100AF00082050E9403058C2FDF91CF911F910F91EA
:100B000008950895FF920F931F93CF93DF938C0165
:100B1000F62ED72FC42F222349F081E08093A30122
:100B20000E9458169093A2018093A1018091A30185
:100B30008823C1F08091A1019091A2010E946416C6
:100B4000069780F0EF2DFD2FD8014C2F50E0CD01FE
:100B5000801B910B841795071CF48D918193F7CF1F
:100B60001092A301DF91CF911F910F91FF900895F3
:100B70008091A401811112C08091D800806180937E
:100B8000D8008AE18A95F1F700C08091D90080FDF4
:100B900002C082E001C081E08093A40181E09091D5
:100BA000A401913009F080E008950C94B8050E94EA
:100BB000D505809300010E94B80581110C94E805C9
:100BC00008950E94B805811102C00C94EE050895A5
:100BD00061E070E081E091E00C949A0861E070E0DF
:100BE00081E091E00C94A108CF93DF93D82FC92F17
:100BF0000E943909892B79F4ED2FFC2F80E090E0D9
:100C0000DC01AA55BE4F2C912193019684309105A9
:100C1000B9F781E001C080E0DF91CF91089520E035
:100C200030E0FC014191CF01F901EA55FE4F4083CC
:100C30002F5F3F4F24303105A1F708950F931F9385
:100C4000CF93DF93C42FD22FFC0182818823C9F078
:100C50004093AC010E9458169093AB018093AA0177
:100C600080E28C0F883008F057C0C77081E001C067
:100C7000880FCA95EAF7DF91CF911F910F910C94DD
:100C8000D40B8091AC01481330C08091AA0190919F
:100C9000AB010E946416883C910538F510E21D0FE7
:100CA000CD17B9F080E28C0F883040F4C77081E036
:100CB00001C0880FCA95EAF70E94DB0B183028F5AF
:100CC00081E09D2F977001C0880F9A95EAF70E94E6
:100CD000D40B802F0E94C10B1830F0F4D77081E044
:100CE00001C0880FDA95EAF70AC080E28C0F8830DD
:100CF00098F4C77081E001C0880FCA95EAF7DF91C8
:100D0000CF911F910F910C94DB0B802FDF91CF912E
:100D10001F910F910C94C10BDF91CF911F910F91F7
:100D200008950F939C01CB01243F4CE5340731F12A
:100D300088F4293DFCE53F07D9F02A3D4CE534070E
:100D400079F1283D3C45A9F506E221EE41EE68ED3A
:100D50007CE52BC0263FFCE53F07E1F0A8F0273FEC
:100D60003C4539F507E225EE46EE67EF7CE51DC010
:100D700007E225EE45EE69ED7CE517C006E221EEBF
:100D800040EE64EF7CE511C007E225EE44EE65EF2E
:100D90007CE50BC006E221EE42EE66EF7CE505C085
:100DA00008E221E045EE6AED7CE50E941E0680E047
:100DB00008C0FC018281882319F01092AC0101C0A7
:100DC00081E00F910895CF93DF93EC01FB018281C5
:100DD000882309F41FC1C230FCE5DF0708F41BC1FA
:100DE000C6319CE5D90738F09E012B5F3C45293080
:100DF000310508F010C10E94E714909349028093D6
:100E00004802C031ECE5DE0709F4C3C008F041C078
:100E1000C8308CE5D80709F49AC0F0F4C430ECE58A
:100E2000DE0709F487C068F4C2308CE5D80709F4FE
:100E300077C0C330DC4509F0E3C08091480282608E
:100E400076C0C630ECE5DE0709F46EC008F07BC062
:100E50008091480288606BC0CC308CE5D80709F4DB
:100E600085C068F4CA30ECE5DE0709F474C008F008
:100E700079C00E94550E80914802806858C0CE30DB
:100E80008CE5D80709F476C008F07FC0809148024D
:100E90008BC0CC3FECE5DE0709F44FC018F5C33139
:100EA0008CE5D80709F47DC078F4C131ECE5DE07A4
:100EB00009F473C0C231DC4509F0A2C00E94550E8E
:100EC000809148028F7733C0C5318CE5D80709F48B
:100ED00072C008F486C0CB3FDC4509F091C0809118
:100EE00049023EC0C115FDE5DF0709F45FC058F4B3
:100EF000CE3F9CE5D90709F444C008F43FC0809177
:100F0000490282602DC0C230FDE5DF0709F475C0DB
:100F100008F45DC0C330DD4509F072C080E06EC0EA
:100F200080914802816003C0809148028061809373
:100F3000480266C08091480211C0809149028260D7
:100F4000809349025DC0809148028062F0CF809119
:100F500048028064ECCF8091480288608460E7CFCB
:100F60008160EECF809148028E7FE1CF8091480270
:100F70008D7FDDCF80914802877FD9CF8091490254
:100F800018C0809149028D7FDBCF809148028F7E0F
:100F9000CECF809148028F7DCACF809148028F7B4F
:100FA000C6CF80914802877F8B7FC1CF8091490255
:100FB0008D7F8E7FC5CF8091480282FB222720F94A
:100FC00091E0922790FB82F990FB83F9B0CF80915A
:100FD0004902982F909591708E7F892B90FB81F913
:100FE000AFCF0E94550E8091480287FB222720F93F
:100FF00091E0922790FB87F99ACF81E00E947D15BE
:1010000080914802909149020E94F8140E94550E66
:1010100080E001C081E0DF91CF910895CF93DF930D
:1010200086319C4541F5EB010E942314982F8A815B
:101030002091090130910A01882379F09A7A81E0A0
:1010400009F480E08093AD01911102C069E201C012
:1010500065E3C9010E94C4150AC08091AD018111E8
:1010600002C069E201C065E3C9010E94C6150E9481
:10107000711480E001C081E0DF91CF9108958EE18D
:10108000489B02C08150E1F7489BFECF08955898D5
:1010900080E28A95F1F7589A0895FC012AE02A9592
:1010A000F1F728E090E080E031E040E14A95F1F787
:1010B000880F489B02C08160932700C0000040E178
:1010C0004A95F1F7215089F720E12A95F1F729B1E6
:1010D00000C0000030E13A95F1F72170922720819D
:1010E000920F90830895EF92FF920F931F93CF93E7
:1010F000DF931F92CDB7DEB719828C017C01E60E1B
:10110000F11C0E151F0551F00E943F08CE010196FB
:101110000E944D08F80181938F01F3CF81E09981FE
:10112000911180E00F90DF91CF911F910F91FF906F
:10113000EF9008959093AF018093AE01509A589A22
:1011400008959093AF018093AE015098589AE89A11
:10115000E9E6F0E080818C7F80830895615091E022
:1011600001C0990F6A95EAF720E031E0992361F018
:10117000492F482319F0589A232701C0589840E274
:101180004A95F1F79695F2CF222311F0589A01C0B3
:10119000589880E28A95F1F758980895FF920F9336
:1011A0001F93CF93DF93EC018C01060F111DC01725
:1011B000D10741F0F9900E94470868E08F2D0E9406
:1011C000AE08F5CFDF91CF911F910F91FF90089559
:1011D0001F920F920FB60F9211242F933F934F93AC
:1011E0005F936F937F938F939F93AF93BF93CF93AF
:1011F000DF93EF93FF935898509AC091AE01D0912E
:10120000AF016D81662321F08E819F810E94CE08FF
:101210000E94470880E18A95F1F758985098589AAB
:1012200080E18A95F1F76A81662351F08B819C8178
:101230000E947308E881F981811104C082E003C033
:10124000E881F98188E080830E943F08FF91EF9157
:10125000DF91CF91BF91AF919F918F917F916F91CE
:101260005F914F913F912F910F900FBE0F901F9064
:101270001895CF93DF93C091AE01D091AF01F89450
:10128000509A589885E08A95F1F700005098589A3E
:1012900080E28A95F1F7489B0AC0509A589AE881F3
:1012A000F98181E08083789481E090E02CC06D81A9
:1012B000662381F08E819F810E94730881110AC08C
:1012C000509A589AE881F98182E08083789482E08C
:1012D00090E019C00E943F0880E28A95F1F7589883
:1012E000509A80E18A95F1F76A81662321F08B811B
:1012F0009C810E94CE080E944708E881F9811082F3
:10130000789480E090E0DF91CF9108959093B501BB
:101310008093B4010895E091B401F091B501309744
:1013200021F00190F081E02D099480E00895E09192
:10133000B401F091B501309721F00280F381E02DE6
:10134000099408952091B2013091B301281739070B
:1013500071F09093B3018093B201E091B401F091E8
:10136000B501309721F00680F781E02D09940895AA
:101370002091B0013091B1012817390771F0909395
:10138000B1018093B001E091B401F091B5013097C3
:1013900021F00084F185E02D0994089585B78068D7
:1013A00085BF85B7806885BF08950C94B8050895FA
:1013B0000C94D7090C94D7090C94DA090C94D7092A
:1013C0000C94DE090C94D7090E94CE090E94E20910
:1013D0000C94E0090E944F160E94B2040E94BD16B0
:1013E0000C94DC09AF92BF92CF92DF92EF92FF9202
:1013F0000F931F93CF93DF93CDB7DEB72A970FB626
:10140000F894DEBF0FBECDBF0E94D8090E94D70955
:101410000E942E050E94D509811111C08FEF89838A
:101420008A831B820E9458168160782F9D838C834B
:1014300049815A816B818D810E948C0A40C087EB63
:10144000A82E81E0B82E00E010E0C02E802F0E9470
:10145000A504E82EF501D1905F01D82631F40F5F85
:101460001F4F0830110589F7D9CF8091260281FDE1
:101470000E94AB0480E0FF24F3949D2D9F21D1F0C6
:101480008E83CF82EF2081E009F480E088870E947C
:1014900058168160782F9A8789874E815F81688589
:1014A0008A850E948C0AF801E954FE4F8081F82653
:1014B000F08205C08F5FFF0C8530F9F6D0CF0E9417
:1014C0008B099091B6018917B1F00E948B09809326
:1014D000B6012A960FB6F894DEBF0FBECDBFDF91DE
:1014E000CF911F910F91FF90EF90DF90CF90BF9021
:1014F000AF900C9494022A960FB6F894DEBF0FBEFC
:10150000CDBFDF91CF911F910F91FF90EF90DF90B2
:10151000CF90BF90AF900895CF93DF93CDB7DEB754
:101520002B970FB6F894DEBF0FBECDBF4F83588701
:1015300069877A878B87DE01119686E0FD0111921B
:101540008A95E9F785E0FE01379601900D928A951C
:10155000E1F749815A816B817C818D819E810E9456
:101560000E112B960FB6F894DEBF0FBECDBFDF91E4
:10157000CF910895FC01808191810E94E413089528
:10158000CF93882309F49CC0C82F8238C1F40E94ED
:101590008B0981FD95C069E38091090190910A0151
:1015A0000E94C4150E9471142FEF81EE94E0215027
:1015B00080409040E1F700C0000069E319C0833823
:1015C00001F50E948B0980FD7BC063E580910901D4
:1015D00090910A010E94C4150E9471142FEF81EEB0
:1015E00094E0215080409040E1F700C0000063E5A6
:1015F0008091090190910A010E94C615CF910C9427
:1016000071148438C1F40E948B0982FD59C067E4CB
:101610008091090190910A010E94C4150E947114E1
:101620002FEF81EE94E0215080409040E1F700C020
:10163000000067E4DDCF8CEF8C0F813AD0F46C2F83
:101640008091090190910A010E948E15882349F02A
:101650006C2F8091090190910A010E94C6150E9489
:1016600071146C2F8091090190910A010E94C41598
:10167000C5CF80E28C0F883048F4C77081E001C08C
:10168000880FCA95EAF70E942614B8CFEBE5EC0F55
:10169000E33040F4F0E0E356FE4F808190E0CF91DC
:1016A0000C94A209C85AC73158F4EC2FF0E0EE0FA1
:1016B000FF1FE159FE4F80819181CF910C94B809B1
:1016C000CF910895882309F45BC0682F823879F49C
:1016D0000E948B0981FF54C069E3809109019091B8
:1016E0000A010E94C4150E94711469E310C0833876
:1016F000B1F40E948B0980FF43C063E5809109012A
:1017000090910A010E94C4150E94711463E58091B2
:10171000090190910A010E94C6150C947114843835
:1017200079F40E948B0982FF2BC067E48091090144
:1017300090910A010E94C4150E94711467E4E7CFDA
:101740008CEF860F813A18F380E2860F883048F4D8
:10175000677081E001C0880F6A95EAF70E942C1437
:10176000DCCF8BE5860F833020F480E090E00C9492
:10177000A209685A673120F480E090E00C94B8091F
:101780000895CF93C82F0E94C00AC93349F42FEFA0
:1017900087EE93E0215080409040E1F700C00000C8
:1017A0008C2FCF910C94620B882321F00E94261479
:1017B0000C9471140895882321F00E942C140C9429
:1017C00071140895CF92DF92EF92FF920F931F93BF
:1017D000CF93DF937C01062FC72FFC011581129553
:1017E0001F70D281D1110E9443140E941C148823BF
:1017F00099F0DD2389F08C2F807F803421F080E206
:10180000800F883048F082E00E94BB140E941C14B4
:1018100091E0D82ED92601C0D12CCC2EC2948FE0D5
:10182000C8228C2D90E0FC01EA5AFF4F0C94781DE1
:101830008C2F807FCF70882311F0C295C07FDD236D
:1018400099F0CC2309F482C180E2800F883010F037
:10185000011104C08C2F0E94261403C08C2F0E94FB
:1018600036140E94711472C1802F0E94620BCC2327
:1018700009F491C180E2800F883010F0011104C09A
:101880008C2F0E942C1403C08C2F0E943C140E94A9
:10189000711481C18C2F807FCF70803211F0C2957E
:1018A000C07F002319F00130C9F022C0DD2371F0A0
:1018B000112341F0113031F40E9456148C2B0E94F8
:1018C0005E1469C10E9456148C2B1DC0112319F09F
:1018D000113009F460C10E94671425C0DD2321F096
:1018E000163008F058C10EC0153008F054C11BC0A6
:1018F000DD2361F0112331F0F701858180FF26C1DE
:101900008F7085838C2F0E94D40B45C1112359F011
:10191000093309F02CC1FFEF27EE83E0F15020409E
:101920008040E1F722C18C2F0E94DB0B34C18C2F49
:1019300086958695837019F0813061F02CC1DD2386
:1019400021F0802F9C2F937002C080E090E00E94D5
:10195000A20929C1DD2321F0802F9C2F937002C0A2
:1019600080E090E00E94B8091EC18C2F837009F0BE
:1019700045C0D11114C1402F429546954770440F80
:10198000440F602F6F70862F90E0A0E0B0E0042E2F
:1019900004C0880F991FAA1FBB1F0A94D2F704FF27
:1019A00010C00FE010E020E030E004C0000F111F75
:1019B000221F331F4A95D2F7009510952095309538
:1019C00003C000E010E09801C695C695C370BC0145
:1019D000CD01602B712B822B932BC23049F058F430
:1019E000C13019F00E945F12DAC00E944D12D7C0B8
:1019F0000E947112D4C00E944B12D1C0DD2319F095
:101A00008C2F817001C08695882309F4C8C0402FAF
:101A1000429546954770440F440F602F6F70862F94
:101A200090E0A0E0B0E0042E04C0880F991FAA1F28
:101A3000BB1F0A94D2F704FF10C00FE010E020E0B3
:101A400030E004C0000F111F221F331F4A95D2F748
:101A5000009510952095309503C000E010E09801A6
:101A6000C695C695C370BC01CD01602B712B822B2E
:101A7000932BC23049F058F4C13019F00E9424135E
:101A80008EC00E9412138BC00E94361388C00E9421
:101A9000851285C0CF70DD2339F08C2F0E94AB12E8
:101AA000802F0E94D40B7BC0802F0E94DB0B8C2FD9
:101AB0000E94CC1274C0023F01F128F4003F41F0B3
:101AC000013FA1F03FC0033FF9F0043F39F13AC0B4
:101AD000DD2341F0153008F05EC08C2F8F710E941D
:101AE000F11259C0163008F056C0F7CFDD2339F097
:101AF0008C2F8F710E94AB124EC0DD23C9F38C2F47
:101B00008F710E94CC1247C0DD2329F08C2F8F717A
:101B10000E94961240C00E9491123DC0DD2349F000
:101B2000CF718C2F0E94AB1263E08C2F0E94A61401
:101B300032C081E00E94BB14123068F182E00E9442
:101B4000BB1429C0DD2331F0112391F2802F0E94B4
:101B5000C00A21C0112399F2093349F49FEFE7EE3F
:101B6000F3E09150E040F040E1F700C00000802F2A
:101B70000E94620B10C04C2F4F70602FC7010E9453
:101B80009D020E94BC110FC04C2F4F70602FC701E7
:101B90000E94A00208C088EF8C0D843020F40E94BF
:101BA0008B090E949402DD20C9F00E94181480FD68
:101BB00015C0F70112820E9412140E94AB12C701D5
:101BC0000E940F0E0E941214DF91CF911F910F916E
:101BD000FF90EF90DF90CF900C94CC12DF91CF91DB
:101BE0001F910F91FF90EF90DF90CF9008950F938A
:101BF0001F93CF93DF93EC01688179818A810E94E2
:101C0000EF138C010E9448130E943912B801CE01D3
:101C10000E94E20BDF91CF911F910F910895CF9316
:101C2000DF93EC01988189812B813C81232B31F05A
:101C30008F3F31F481E09F3F19F403C081E001C080
:101C400080E080FD19C0CE010E94520281110CC0BB
:101C50000E941C14882381F08A81882369F082E025
:101C6000DF91CF910C94BB14CE010E94F70DCE01F1
:101C7000DF91CF910C942D02DF91CF9108950E94B6
:101C800043140E9453140E94711480E090E00E945B
:101C9000A20980E090E00C94B8098091090190912C
:101CA0000A010E94C8150C943F0E0E9433140C9434
:101CB0004D0EE92FE295EF704E2F50E0FA0132976A
:101CC000EE30F105B0F4EA59FF4F0C94781D803FD7
:101CD00091F018F4883E68F40EC0843F51F40BC0B4
:101CE000883E48F0813F29F406C093FB882780F99D
:101CF000089580E0089581E008950E94E4130E9411
:101D0000590E0895CF93DF9300D000D01F92CDB726
:101D1000DEB70F900F900F900F900F90DF91CF9143
:101D20000895CF93DF9300D000D000D0CDB7DEB7B9
:101D300026960FB6F894DEBF0FBECDBFDF91CF91D0
:101D400008951F93CF93DF93C091C00116E0809157
:101D5000C101C81799F0D0E01C9FF0011D9FF00D44
:101D60001124EE53FE4F4081518162817381848141
:101D700095810E94910E2196C770E9CFDF91CF9196
:101D80001F9108954091F2015091F3016091F40187
:101D90007091F5018091F6019091F7010C94910EEC
:101DA0000F931F93CF93DF938091F70182958F70EC
:101DB00009F05DC08091F401882309F458C0809136
:101DC000C0011091C1016091F2017091F301C091C5
:101DD000F501D091F60191E06F3F09F090E0292FD5
:101DE00006E0811709F443C0209721F07F3F21F0DE
:101DF00030E003C031E001C0322F90E030FD34C04C
:101E0000089FF001099FF00D1124DF01AE53BE4F72
:101E100011963C911197371327C03C91361324C07B
:101E200012963C91129731111FC013964D915C91FF
:101E300014974C1B5D0B483C5105B0F48091F701A1
:101E40008F7080618093F701E953FE4F80818F701E
:101E50008061808382EF91E00E940F0EDF91CF912D
:101E60001F910F910C94A10E01968770BACFDF914C
:101E7000CF911F910F9108959F92AF92BF92CF92F1
:101E8000DF92EF92FF920F931F93CF93DF93CDB723
:101E9000DEB761970FB6F894DEBF0FBECDBF8C01E1
:101EA00085E0F801DE011D9601900D928A95E1F71B
:101EB000F80140815181E2809091F2016091F3013B
:101EC0002091F5013091F6012115310531F06F3F78
:101ED00031F481E09F3F19F403C081E001C080E04C
:101EE000F82FF1709F2E80FD46C1F801A380B480C9
:101EF00082EFC82E81E0D82EF090F401F501E21BAC
:101F0000F30BFF2009F4DFC08091F701E83CF105F5
:101F100008F09BC0282F207F09F052C0561313C031
:101F2000491311C0FE2CE1100EC08F7080618093A8
:101F3000F7010E94C20EC6010E940F0E8091F701A8
:101F4000F801858358C1AB2831F05F3F31F481E05F
:101F50004F3F19F403C081E001C080E080FD03C061
:101F600081E08E2502C080E090E0F82FF170FF2E16
:101F700080FF1CC08091C0012091C10136E0821712
:101F800009F417C190E0389FF001399FF00D11243A
:101F9000EE53FE4F6181561306C06081461303C0A5
:101FA0006281E61203C001968770E9CFFE2CEE2015
:101FB00009F421C18091F70181608093F7015AC033
:101FC000561306C0491304C0E11002C0F8019FC0B7
:101FD0004D875E878D859E850E947D0E882379F1D1
:101FE000EE2069F12091F701822F82958F7090E0A9
:101FF000029774F08091F2019091F30198878F839A
:102000001986BB86AA862C87CE0107960E940F0EE2
:1020100086E0F801A2EFB1E001900D928A95E1F718
:102020000E94D00E0E94C20E0DC0561729F14D8796
:102030005E878D859E850E947D0E81112CC0C80112
:102040000E940F0EFF24F394D6C0282F207F69F73B
:102050007A2DB98AA88A6E2D89890E94820E82EF14
:1020600091E00E940F0E86E0F60111928A95E9F741
:102070000E94C20EF12CBFC04913D9CFE110D7CFB7
:10208000F8018583C8010E940F0E86E0F6011192C7
:102090008A95E9F7B0C0EE2091F22091F701822FE6
:1020A00082958F7090E002970CF4B2CF8091F2018C
:1020B0009091F3019A8389831B82BD82AC822E8327
:1020C000CE010196A3CFE83CF10508F047C0FE2CF5
:1020D000EE2009F4B4CF561330C049132EC020911E
:1020E000F70120FD21C0822F82958F70482F50E08C
:1020F00041155105C9F0F80125834F30510541F0D4
:102100008F5F982F9295907F822F8F70892B858378
:10211000C8010E940F0E86E0F801A2EFB1E0019025
:102120000D928A95E1F742C086E0F801A2EFB1E096
:1021300001900D928A95E1F75EC04D875E878D858F
:102140009E850E947D0E811163CF8091F701816091
:102150008093F701C8010E940F0E4DC07A2DB98AF5
:10216000A88A6E2D89890E94820E86E0F60111925E
:102170008A95E9F71BC0EE2009F461CF4D875E8791
:102180008D859E850E947D0EF82E882309F457CFF9
:1021900086E0F801A2EFB1E001900D928A95E1F797
:1021A00082EF91E00E94BA0A0E94D00E0E94C20EF5
:1021B00022C04D875E878D859E850E94E413292F5E
:1021C00022952F70223028F49F7039F0811105C0BC
:1021D0000BC0243028F49F7049F4805E883020F0D2
:1021E000C8010E940F0E9F2CF92C05C0F8019581A3
:1021F000907F99F7F9CF8F2D61960FB6F894DEBFD7
:102200000FBECDBFDF91CF911F910F91FF90EF9047
:10221000DF90CF90BF90AF909F9008951F93CF9382
:10222000DF93CDB7DEB72C970FB6F894DEBF0FBEA5
:10223000CDBF4F83588769877A878B879C87CE016C
:1022400007960E943C0F8823D1F09F8188852A85BC
:102250003B85232B31F08F3F31F481E09F3F19F410
:1022600003C081E001C080E080FD47C04F815885F8
:1022700069857A858B859C850E94910E3EC086E09B
:10228000FE013796DE01119601900D928A95E1F7D5
:10229000FF81E8856A857B856115710531F0EF3F27
:1022A00031F481E0FF3F19F403C081E001C080E018
:1022B00080FD23C02091C10130E0C90101968770E3
:1022C00099274091C00150E084179507F1F1F983F7
:1022D000EA837D836C8396E0929FD001939FB00D3B
:1022E0001124AE53BE4FFE01319601900D929A9586
:1022F000E1F78093C1010E94A10E16E08091C00118
:102300009091C101891771F1189FC00111248E535A
:102310009E4F0E943C0F882329F1E091C0011E9F2F
:10232000F0011124EE53FE4F40815181628173818F
:10233000848195810E94910E8091C00190E0019668
:10234000877099278093C001D9CF0E94550E1092B3
:10235000C1011092C001E2EFF1E086E0DF011D92C1
:102360008A95E9F72C960FB6F894DEBF0FBECDBF65
:10237000DF91CF911F910895EF92FF920F931F93DA
:10238000CF93DF938C01892B09F46CC0F12CEE24E0
:10239000E394E8012196F8018491843740F4843075
:1023A00008F051C0813081F0823019F15BC085376F
:1023B00009F444C0A8F19CE7980F903708F052C088
:1023C0008F770E94620B41C00E5F1F4FFE01849108
:1023D00090E2980F983050F48770FE2D01C0FF0FE7
:1023E0008A95EAF78F2F0E94461414C00E94C00AF3
:1023F0002DC00E5F1F4FFE01849190E2980F983020
:1024000060F48770FE2D01C0FF0F8A95EAF78F2FC9
:102410000E944C140E94711419C00E94620B16C0D5
:102420000E5F1F4FFE01C491CC2381F08FE99FE026
:102430000197F1F700C00000C150F6CF0E5F1F4FAB
:10244000FE01F49003C00E94C00A8E018F2D8823E4
:1024500009F49FCFEFE9FFE03197F1F700C00000EA
:102460008150F5CFDF91CF911F910F91FF90EF90A9
:102470000895089508950C943A120C943B120E940A
:102480003D12609315027093160280931702909389
:1024900018020C943F0E0C943F120F931F9300915F
:1024A0001502109116022091170230911802602B2C
:1024B000712B822B932B1F910F910C943F120F9332
:1024C0001F9300911502109116022091170230916E
:1024D000180260237123822393231F910F910C9480
:1024E0003F120F931F930091150210911602209135
:1024F00017023091180260277127822793271F91B6
:102500000F910C943F120C943A120E948312609324
:1025100011027093120280931302909314020C9490
:102520003F0E60E070E0CB010C9485120F931F9377
:1025300041E050E060E070E08A019B0104C0000FC0
:10254000111F221F331F8A95D2F7C901B8011F91AD
:102550000F910C9485120F931F9341E050E060E0BF
:1025600070E004C0440F551F661F771F8A95D2F78D
:102570008091110290911202A0911302B091140265
:102580008A019B01082B192B2A2B3B2BC901B8016F
:102590001F910F910C9485120F931F9341E050E00F
:1025A00060E070E004C0440F551F661F771F8A95D6
:1025B000D2F7409550956095709580911102909159
:1025C0001202A0911302B09114028A019B01082308
:1025D00019232A233B23C901B8011F910F910C94A1
:1025E00085120F931F9341E050E060E070E004C05B
:1025F000440F551F661F771F8A95D2F780911102ED
:1026000090911202A0911302B09114028A019B01D1
:10261000082719272A273B27C901B8011F910F91C5
:102620000C9485120F931F930091110210911202C6
:102630002091130230911402602B712B822B932B6B
:102640001F910F910C9485120F931F93009111020B
:102650001091120220911302309114026023712311
:10266000822393231F910F910C9485120F931F9334
:102670000091110210911202209113023091140264
:1026800060277127822793271F910F910C94851241
:10269000089524E0929F900D1124890FE82FE6956C
:1026A000E695E695877051E001C0550F8A95EAF7E7
:1026B00085E0E89FF0011124E850FE4F20E030E073
:1026C00070E04081CB01022E02C0969587950A9456
:1026D000E2F78170819584278523842781932F5F7A
:1026E0003F4F2530310569F7089524E0929F900D02
:1026F0001124890F682F669566956695982F9770B7
:1027000085E0689FB001112440E050E080E0FB01CB
:10271000E40FF51FE850FE4F208130E0092E02C083
:10272000369527950A94E2F721703327042E01C0CD
:10273000220F0A94EAF7822B4F5F5F4F4530510515
:1027400031F70895BF92CF92DF92EF92FF920F93ED
:102750001F93CF93DF938C01C0901102D09012028F
:10276000E0901302F09014028091150290911602ED
:10277000A0911702B0911802C82AD92AEA2AFB2A86
:10278000CFE1D0E0D701C6010C2E04C0B695A795C5
:10279000979587950A94D2F780FD04C0219790F70A
:1027A000B12C07C0BC2EB8018C2F0E94BC0201972F
:1027B000A9F38B2DDF91CF911F910F91FF90EF9097
:1027C000DF90CF90BF900895CF93DF93EC010E94EC
:1027D000A213BE010E94BC02DF91CF9108951F9306
:1027E000CF93DF93EB019091BF01992321F0CB01AF
:1027F0000E94E41313C0882349F0CB010E94A21366
:10280000182F682FCE010E94491304C0CB010E94EB
:102810007513182FBE01812F0E94BC02DF91CF914A
:102820001F91089580911902859585958595089544
:10283000809119028770089590911902977081E034
:1028400009F480E008958091250208959091250271
:10285000892B8093250208958095909125028923E4
:1028600080932502089510922502089590912402E4
:10287000892B8093240208958095909124028923C6
:1028800080932402089510922402089590912302C7
:10289000892B8093230208958095909123028923A8
:1028A00080932302089510922302089580911A02C2
:1028B000089508950C9459140C945A1490911A0286
:1028C000981721F080931A020C945C14089580915B
:1028D0001A02882329F010921A0280E00C945C14EA
:1028E0000895E0910901F0910A0180912502808309
:1028F000E0910901F0910A01908180912402892BD5
:102900008083E0910901F0910A0190818091230276
:10291000892B808380911A02882381F0E09109013C
:10292000F0910A019081892B808380910901909117
:102930000A010E94821581110E9467148091090189
:1029400090910A010C9497090C94591498E0899F6E
:1029500090011124262B209319020E94AB12809122
:1029600019028595859585950C94A41410921902E9
:1029700080E00C94A4142091190280958223809306
:102980001902982F977079F430E0482F082E000C28
:10299000550B2417350739F08595859585950E9447
:1029A000CC120C94B614089580E090E00E94861D2D
:1029B00021E08C3E9E4F09F020E0822F089582E0B6
:1029C00090E00C947E1D83E090E00C947E1DCF93EC
:1029D00084E090E00E947E1DC82F81E290E00E947A
:1029E0007E1D2C2F30E0A901582BCA01CF910895EC
:1029F000CF93C92F682F84E090E00E948C1D6C2F2C
:102A000081E290E0CF910C948C1DAB01BC018FE072
:102A100090E00C949E1DAB01BC0183E190E00C940E
:102A20009E1D60E070E0CB010C940B1560E070E03F
:102A3000CB010E9405150C9411156CEE7EEF80E021
:102A400090E00E94AA1D60E082E090E00E948C1D50
:102A500060E083E090E00E948C1D109215021092BD
:102A60001602109217021092180260E084E090E0C3
:102A70000E948C1D60E081E290E00E948C1D60E06D
:102A800085E090E00E948C1D60E086E090E00E946E
:102A90008C1D6FEF87E090E00E948C1D40E050E0BD
:102AA000BA0188E090E00E949E1D60E08DE090E019
:102AB0000E948C1D40E050E0BA0188E190E00E9445
:102AC0009E1D60E087E190E00E948C1D40E050E098
:102AD000BA018CE190E00E949E1D60E080E290E0EF
:102AE0000E948C1D40E050E0BA0188E190E00E9415
:102AF0009E1D0C9416150C941D15682F8EE090E009
:102B00000C948C1DFC01329697E080E0915029F0E6
:102B100021912223D9F38F5FF9CF0895662349F0DD
:102B2000FC01329608962191621729F0E817F907FF
:102B3000D1F780E0089581E008959C01FC01329670
:102B40009FEF80E04191461789F09F3F19F44111B2
:102B500001C0982F8F5F8630A9F79F3F39F0F901A8
:102B6000E90FF11D97FDFA956283089508959C0180
:102B70002A5F3F4FFC014281461301C01282019639
:102B800082179307B9F708950C949D150C94B71507
:102B9000029626E0FC0111922A95E9F7089508951E
:102BA0000C94CF150C94CF15CF930E94D2150E9490
:102BB0002E050E94D015C0E08C2F0E94A504811123
:102BC00004C0CF5FC830C1F701C081E0CF91089544
:102BD0000C94CF150C94E8150E94EA1580914E02D2
:102BE000843049F11092270220E488E190E00FB68A
:102BF000F894A895809360000FBE2093600080E059
:102C00000E9494020E94EA1583B7817F846083BF8B
:102C100083B7816083BF7894889583B78E7F83BFA5
:102C20000FB6F894A8958091600088618093600049
:102C3000109260000FBE08950C94CF150E94550E9F
:102C40000E948B090E9494020C941C161F920F92F2
:102C50000FB60F9211248F939F93AF93BF938091E0
:102C60002702811113C08091440290914502A091E6
:102C70004602B09147024196A11DB11D80934402C6
:102C800090934502A0934602B0934702BF91AF9143
:102C90009F918F910F900FBE0F901F90189582E01B
:102CA00084BD93E095BD9AEF97BD80936E00089523
:102CB0002FB7F8948091440290914502A09146026A
:102CC000B09147022FBF08959C014FB7F8948091AF
:102CD000440290914502A0914602B09147024FBF35
:102CE000821B930B089578941F920F920FB60F9248
:102CF00011248F939F93AF93BF938091440290913F
:102D00004502A0914602B09147020196A11DB11D56
:102D10008093440290934502A0934602B0934702E9
:102D2000BF91AF919F918F910F900FBE0F901F9009
:102D3000189581E08093E00080E28093D8001092A3
:102D4000C9008FE19EE40197F1F700C0000087E021
:102D500090EBDC018093570290935802A0935902A4
:102D6000B0935A029CE088E10FB6F894A89580933E
:102D700060000FBE90936000FFCF0E94D4148111B9
:102D800002C00E947B150E94DF14809326020E94DD
:102D9000E71490934902809348020E94E314682F3D
:102DA00070E080E090E00E944B12609111027091FF
:102DB000120280911302909114020C94831280915C
:102DC000300208950895CF93DF9300D01F92CDB7BE
:102DD000DEB790914E02943019F589837B836A8324
:102DE00082E08093E9008FEF9091E800815095FD9B
:102DF00006C095ED9A95F1F700008111F5CF80910D
:102E0000E80085FF0DC040E050E063E070E0CE01D7
:102E100001960E94DA188091E8008E778093E8008E
:102E20000F900F900F90DF91CF910895BC0184E037
:102E30000C94E316BC0183E00C94E316CF93DF936C
:102E400021E02093E9002FEF3091E800215035FD7B
:102E500006C035ED3A95F1F700002111F5CF20912C
:102E6000E80025FF14C0EC0140E050E068E070E0AD
:102E70000E94DA188091E8008E778093E80088E05D
:102E8000FE01A8E2B2E001900D928A95E1F7DF9190
:102E9000CF91089580914D02811109C00E946B1A53
:102EA0000E94C81A8091E20084608093E200089535
:102EB00010924D020895089508950C941E1642E054
:102EC00061EC81E00E94E41942E261EC82E00C9442
:102ED000E41980915002833009F460C030F48130ED
:102EE00071F0823009F499C008958A3009F485C0E0
:102EF0008B3009F46BC0893009F0A7C020C08091E5
:102F00004F02813A09F0A1C08091E800877F809349
:102F1000E8008091530290915402892B21F468E0DB
:102F200088E292E003C060E080E090E070E00E9400
:102F300025198091E8008B778093E80008958091AF
:102F40004F02813209F081C0809153029091540266
:102F5000029708F07AC08091E800877F8093E800AC
:102F60008091E80082FD05C080914E028111F8CF6A
:102F70006CC02091F3008091F20090E0922B0297B8
:102F800029F48091F1008B7F813021F48091F10050
:102F9000809330028091E8008B7753C080914F027C
:102FA000813A09F052C08091530290915402892BCA
:102FB00009F04BC08091E800877F8093E800809102
:102FC000E80080FFFCCF8091150136C080914F0250
:102FD0008132D9F58091530290915402892BA9F541
:102FE0008091E800877F8093E8000E94191A809101
:102FF0005102809315010C94550E80914F0281323D
:1030000021F58091E800877F8093E8000E94191ADB
:103010008091520280933102089580914F02813A4B
:10302000A1F48091E800877F8093E8008091E80018
:1030300080FFFCCF809131028093F1008091E80005
:103040008E778093E8000C94191A089584B7877FCF
:1030500084BF0FB6F894A895809160008861809332
:103060006000109260000FBE90E080E80FB6F89408
:1030700080936100909361000FBE0E94E4090E945A
:103080006B1A0E94C81A8091E20084608093E2006B
:1030900078940E945D1D0E94EA098BE091E00E94F5
:1030A000860980914E02853069F40E94EC1580916A
:1030B0004C028823B1F30E94D415882391F30E9417
:1030C000C418EFCF0E94F2090E94D8090E94D709C4
:1030D000E8CF0C946B18292F332723303105C9F022
:1030E00060F42130310581F02230310509F044C00F
:1030F0008BE390E022E732E043C021323105E1F07A
:103100002232310549F138C082E190E02DEA32E007
:1031100037C099278130910549F028F0029761F571
:10312000ECE3F2E005C0EEE6F2E002C0EEE4F2E02D
:10313000849190E09F0124C06115710541F06130D8
:103140007105D1F489E090E02DE932E019C089E001
:1031500090E024E832E014C06115710541F061305F
:10316000710551F482E390E02FEB32E009C080E476
:1031700090E021EF32E004C080E090E020E030E019
:10318000FA0131832083089580E189BD82E189BD00
:1031900009B400FEFDCF8091D8008F7D8093D800C8
:1031A0008091E00082608093E0008091E00081FDEA
:1031B000FCCF0895CF92DF92EF92FF920F931F936F
:1031C000CF93DF93EC018B017A010E94381A8111B1
:1031D00033C0E114F10439F0F70180819181081BBB
:1031E000190BC80FD91FC12CD12C0115110519F1CC
:1031F0008091E80085FD16C08091E8008E7780936D
:10320000E800E114F10449F0F70180819181C80ED2
:10321000D91ED182C08285E00FC00E94381A88234F
:1032200021F30AC089918093F10001501109FFEF49
:10323000CF1ADF0ADACF80E0DF91CF911F910F9193
:10324000FF90EF90DF90CF9008952091550230913C
:1032500056022617370748F06115710539F4209199
:10326000E8002E772093E80001C0B901FC0120E0BE
:103270006115710579F180914E028823F1F1853055
:10328000F1F18091E80083FD3CC08091E80082FD6F
:103290002EC08091E80080FFEBCF2091F300809159
:1032A000F20090E0922B6115710551F08830910584
:1032B00038F421912093F100615071090196F3CF08
:1032C00021E0089709F020E08091E8008E77809354
:1032D000E800CECF2111CFCF0AC080914E028823C3
:1032E00061F0853061F08091E80083FD0AC0809133
:1032F000E80082FFF2CF80E0089582E0089583E045
:10330000089581E0089520915502309156022617C4
:10331000370748F06115710539F42091E8002E77E0
:103320002093E80001C0B901FC0120E0611571059E
:1033300091F180914E02882309F440C0853009F450
:103340003FC08091E80083FD3DC08091E80082FD90
:103350002FC08091E80080FFE9CF2091F300809199
:10336000F20090E0922B6115710559F088309105BB
:1033700040F424912093F100319661507109019637
:10338000F2CF21E0089709F020E08091E8008E77E5
:103390008093E800CBCF2111CCCF0AC080914E02A0
:1033A000882361F0853061F08091E80083FD0AC0D8
:1033B0008091E80082FFF2CF80E0089582E00895D6
:1033C00083E0089581E00895982F973068F59093F1
:1033D000E900981739F07091EC002091ED005091C0
:1033E000F00003C0242F762F50E021FD02C09F5F24
:1033F000ECCF3091EB003E7F3093EB003091ED004D
:103400003D7F3093ED003091EB0031603093EB0065
:103410007093EC002093ED005093F0002091EE00AB
:1034200027FDE5CF80E008958F708093E90081E06B
:10343000089580914F0287FF11C08091E80082FDBE
:1034400005C080914E028111F8CF11C08091E80033
:103450008B770BC080914E02882349F08091E80061
:1034600080FFF8CF8091E8008E778093E800089580
:103470002091E4003091E50095E64091EC00842F26
:10348000817040FF23C08091E80080FD1DC08091C5
:103490004E02882399F0853099F08091EB0085FDEC
:1034A00011C04091E4005091E5002417350729F33D
:1034B000915011F09A01E1CF84E0089582E00895DF
:1034C00083E0089581E0089580E008954091E80048
:1034D00042FFDDCF08950E94D91A0E94E11AE0EE62
:1034E000F0E0808181608083E8EDF0E080818F777B
:1034F000808319BCA7EDB0E08C918E7F8C93808186
:103500008F7E808310924D0208950F931F93CF9367
:10351000DF930E94D91A0E94E11AC8EDD0E0888199
:103520008F77888388818068888388818F7D88836E
:1035300019BC10924E0210924A0210924C02109244
:103540004B0200EE10E0F80180818B7F8083888140
:103550008160888342E060E080E00E94E419E1EE4F
:10356000F0E080818E7F8083E2EEF0E080818160F8
:103570008083808188608083F80180818E7F808352
:10358000888180618883DF91CF911F910F91089589
:10359000E8EDF0E080818F7E8083E7EDF0E08081D0
:1035A0008160808384E082BF81E080934D020C942F
:1035B000851AE8EDF0E080818E7F80831092E20032
:1035C00008951092DA001092E10008951F920F9270
:1035D0000FB60F9211242F933F934F935F936F93E6
:1035E0007F938F939F93AF93BF93EF93FF938091BC
:1035F000E10082FF0BC08091E20082FF07C0809152
:10360000E1008B7F8093E1000E945C1D8091DA00D5
:1036100080FF1FC08091D80080FF1BC08091DA001E
:103620008E7F8093DA008091D90080FF0DC080E109
:1036300089BD82E189BD09B400FEFDCF81E08093A0
:103640004E020E944A1705C019BC10924E020E94F9
:1036500058178091E10080FF19C08091E20080FF3F
:1036600015C08091E2008E7F8093E2008091E2009D
:1036700080618093E2008091D80080628093D800BE
:1036800019BC85E080934E020E945C178091E10096
:1036900084FF30C08091E20084FF2CC080E189BDAE
:1036A00082E189BD09B400FEFDCF8091D8008F7DF5
:1036B0008093D8008091E1008F7E8093E10080911B
:1036C000E2008F7E8093E2008091E200816080932F
:1036D000E20080914A02882311F084E007C08091C3
:1036E000E30087FD02C081E001C083E080934E02C9
:1036F0000E945D178091E10083FF29C08091E20064
:1037000083FF25C08091E100877F8093E10082E004
:1037100080934E0210924A028091E1008E7F809346
:10372000E1008091E2008E7F8093E2008091E200D0
:1037300080618093E20042E060E080E00E94E41952
:103740008091F00088608093F0000E945B17FF91E9
:10375000EF91BF91AF919F918F917F916F915F9109
:103760004F913F912F910F900FBE0F901F90189582
:103770001F920F920FB60F9211242F933F934F93E6
:103780005F936F937F938F939F93AF93BF93CF93E9
:10379000DF93EF93FF93C091E900CF708091EC002D
:1037A000D82FD17080FDD0E81092E9008091F00010
:1037B000877F8093F00078940E94FC1B1092E900B0
:1037C0008091F00088608093F000CD2BCF70C09383
:1037D000E900FF91EF91DF91CF91BF91AF919F9160
:1037E0008F917F916F915F914F913F912F910F90AA
:1037F0000FBE0F901F9018951F93CF93DF93CDB7F7
:10380000DEB7AA970FB6F894DEBF0FBECDBFEFE4C8
:10381000F2E08091F100819322E0E735F207C9F7E9
:103820000E9469178091E80083FF2EC180914F02AA
:1038300090915002492F50E04A30510508F024C1C0
:10384000FA01EC58FF4F0C94781D803821F0823833
:1038500009F01AC108C080914B0290914C02992343
:1038600089F082600FC0809153028F70873008F01A
:103870000BC18093E9008091EB0085FB882780F9DC
:103880001092E9009091E800977F9093E800809370
:10389000F1001092F100D1C0282F2D7F09F0F4C063
:1038A000882319F0823061F0EFC08091510281309D
:1038B00009F0EAC0933009F080E080934C022EC0FA
:1038C0008091510281112AC0809153028F702FEF95
:1038D000280F263008F0D8C08093E9002091EB0033
:1038E00020FF1CC0933021F48091EB00806214C053
:1038F0009091EB0090619093EB0021E030E0A90102
:1039000002C0440F551F8A95E2F74093EA001092D7
:10391000EA008091EB0088608093EB001092E90050
:103920008091E800877F8093E8000E94191AACC05C
:103930008111AAC0109151021F778091E300807815
:10394000812B8093E3008091E800877F8093E800DB
:103950000E94191A8091E80080FFFCCF8091E3005B
:1039600080688093E300111102C082E001C083E00F
:1039700080934E0289C08058823008F085C08091C3
:103980005102909152028C3D53E0950779F583E006
:103990008A838AE289834FB7F894DE01139620E088
:1039A0003EE051E2E32FF0E050935700E49120FF16
:1039B00003C0E295EF703F5FEF708E2F90E0EA302A
:1039C00010F0C79601C0C0968D939D932F5F243150
:1039D00049F74FBF8091E800877F8093E8006AE253
:1039E00070E0CE0101960E94251916C06091530225
:1039F00070915402AE014F5F5F4F0E946918BC0185
:103A0000892B09F441C09091E800977F9093E800DA
:103A100089819A810E9483198091E8008B77809335
:103A2000E80032C0803881F58091E800877F80937C
:103A3000E80080914A028093F1008091E8008E773F
:103A400072CF811121C08091510290915202992729
:103A50000297D4F48091E800877F8093E8008091FA
:103A6000510280934A020E94191A80914A028111E0
:103A700006C08091E30087FD02C081E001C084E0C0
:103A800080934E020E945F178091E80083FF0AC076
:103A90008091E800877F8093E8008091EB0080624E
:103AA0008093EB00AA960FB6F894DEBF0FBECDBF91
:103AB000DF91CF911F9108950895CF9380914E0289
:103AC0008823A1F0C091E900CF709091EC00892F7C
:103AD000817090FD80E8C82B1092E9008091E80089
:103AE00083FD0E94FC1BCF70C093E900CF91089525
:103AF000EE0FFF1F0590F491E02D0994F999FECF88
:103B000092BD81BDF89A992780B50895A8E1B0E0EB
:103B100042E050E00C94B21D262FF999FECF92BDE1
:103B200081BDF89A019700B4021639F01FBA20BD82
:103B30000FB6F894FA9AF99A0FBE08950396272FB4
:103B40000E948D1D0E948C1D252F0E948D1D242FEB
:103B50000C948D1D0196272F0E948D1D0C948C1D99
:103B6000DC01CB01FC01F999FECF06C0F2BDE1BD3D
:103B7000F89A319600B40D9241505040B8F708952C
:043B8000F894FFCFE7
:103B840001A50100A60104A6011B02DF161E17E20F
:103B9400161A17161701E200E900EA00B500B6008C
:103BA400B700CD008301CC008A0192019401210267
:103BB400230224022502260227022A02B300B400AB
:103BC4006F007000818283F1C6303233F5F03137F3
:103BD40092F6F7679593356636FFFF000000000004
:103BE400000000000000000000000000000000E2EF
:103BF40000E900EA00B500B600B700CD008301CCAF
:103C0400008A019201940121022302240225022642
:103C14000227022A02B300B4006F0070008182837D
:00000001FF
