:100000000C949A010C94E1010C94E1010C940E09FA
:100010000C94E1010C94E1010C94E1010C94E101D8
:100020000C94E1010C94E1010C948D1A0C945F1B6B
:100030000C9404160C94E1010C94E1010C94E10180
:100040000C94E1010C94E1010C94E1010C94E101A8
:100050000C94E1010C9451160C94E1010C94E10113
:100060000C94E1010C94E1010C94E1010C94E10188
:100070000C94E1010C94E1010C94E1010C94E10178
:100080000C94E1010C94E1010C94E1010C94E10168
:100090000C94E1010C94E1010C94E1010C94E10158
:1000A0000C94E1010C94E1010C94E101AB0BAB0B5E
:1000B000DD0BDD0B400D400D400D400D2A0CBF0C3B
:1000C000D00CD00C300D400D400D390DD40DD40D99
:1000D000E60DE60DDD0DE60DE60DE60DD40DD40DB5
:1000E000E20DE60DE60DE20DCC1BF31BEB1CF31B42
:1000F000EB1C3F1C621CEB1CB91CC81C14001A0032
:1001000008001500170004001600070009000A0087
:100110001D621B00060019000500E000E200E3007C
:1001200001512A00130012000C0018001C003400BA
:100130000F000E000D000B00387237003600100063
:10014000110028000351380002512C00165C1F02D8
:100150002002210222023A003B003C003D003E000A
:100160003F004000410042004300E000E200E300A5
:1001700001004C00270226022502240223024C0023
:100180004F00520051005000357200003100000055
:10019000000028000000000003512C001E001F007A
:1001A0002000210022003500F200F100F000F300F1
:1001B000E100FA00F900F500F400E000E200E300DD
:1001C00003514C00270026002500240023003400A2
:1001D00030002F002E002D0000004E004B000000CC
:1001E0000000280034002B0001002C00C35CC45C1C
:1001F000C65CC85CCA5C0000C55CC75CC95CCB5C03
:1002000000000000000000000000E000E200E30049
:1002100001000000A90000000000F500F400AA00A1
:10022000F300F000F100F200A80000000000000060
:10023000000028000100380001002C0016035200C5
:10024000680079006D006500730074006F006E0037
:100250006500000012036D00610072006B00730006
:1002600061007200640000000403090409023B00FD
:10027000020100A0FA0904000001030101000921A4
:10028000110100012240000705810308000A09044A
:1002900001000103000000092111010001223B00BF
:1002A0000705820320000A1201100100000008ED7A
:1002B000FEA1DF20000102000105010906A1018560
:1002C00005050719E029E715002501950875018145
:1002D000020507190029EF1500250195F075018128
:1002E0000205081901290595057501910295017509
:1002F000039101C005010906A101050719E029E7DD
:100300001500250195087501810295017508810187
:100310000507190029FF150026FF009506750881BD
:1003200000050819012905950575019102950175CA
:10033000039101C011241FBECFEFDAE0DEBFCDBFB5
:1003400004B603FE27C080910B0290910C02A0918D
:100350000D02B0910E028730904BA740B04BD1F404
:1003600010920B0210920C0210920D0210920E02CB
:1003700014BE84B7877F84BF0FB6F894A895809188
:100380006000886180936000109260000FBEE0E022
:10039000F8E3099511E0A0E0B1E0E2EDFAE302C074
:1003A00005900D92A432B107D9F722E0A4E2B1E0A2
:1003B00001C01D92AB30B207E1F70E94CD170C943B
:1003C000671D0C94000008950C94E30181E00895EA
:1003D00081E008950C94E80108950C94EC011F93BA
:1003E000CF93DF9300D000D01F92CDB7DEB7498303
:1003F0005A836B833091430189819A81311114C0F2
:10040000662359F0222349F00E940F13182F682FFA
:1004100089819A810E94B61203C00E94E212182FAD
:1004200069817A81812F04C00E940F1369817A81CA
:100430000F900F900F900F900F90DF91CF911F9121
:100440000C94A102FC01262F4081518162817381AD
:1004500084810C94EF01CF93DF93EC0160E00E9464
:100460002202BE01DF91CF910C94ED010E94411454
:10047000811102C00E94E8140C94E4010C949D04C4
:1004800008950E94C20D0E9440022FEF84E39CE079
:10049000215080409040E1F700C000000C94771696
:1004A0000F931F93CF93DF93EC0161E00E94220230
:1004B0008C01BE010E94EA01882349F1BE01C801F6
:1004C0000E94B506882319F1BE01C8010E940707E2
:1004D0008823E9F0BE01C8010E9432088823B9F0E0
:1004E0008A81882369F001158CE5180731F00F3DEA
:1004F0001C4531F40E94E8140AC00E94410207C062
:10050000CE01DF91CF911F910F910C94E60180E015
:10051000DF91CF911F910F91089508950C948D0252
:1005200081E008950C949002CF93C82F0E948E0210
:100530008C2F0E949202CF91089580E090E0089560
:10054000089528E2829FC0011124FC0125E0729FDA
:10055000E00DF11D1124E60FF11DEE0FFF1FE45019
:10056000FF4F859194910895880F991FFC01E45CD9
:10057000FD4F859194910895CF93DF930E94A1023E
:100580000E94B803EC01811521E59207A0F58115C1
:1005900040E5940708F086C0C11580E2D807F0F462
:1005A000C11521E0D20708F0DFC0C03ED10588F4B4
:1005B000C03CD10508F062C0C130D10509F4D4C0F7
:1005C00008F4D0C0CE010497813A910508F4CCC05C
:1005D000C9C0C83ED10508F4C7C0C4C0C11540E4B5
:1005E000D40708F05CC0C11580E3D80708F04DC0FF
:1005F000CE019F7046C0811525E59207A0F48115B4
:1006000044E5940708F095C0C11583E5D80708F0C4
:100610007AC0C11522E5D20708F05FC0DC2FCC27D5
:10062000C16FD06AA1C0811549E59407A0F4C11536
:1006300088E5D80708F082C0C11526E5D20708F082
:1006400091C08C2F0E944C048F71C82FD0E0DC2FFA
:10065000CC27D06289C081154AE5940708F473C09D
:1006600090568115904208F07DC08D2F8F710E94A9
:100670004C04DD27D0628F71D82B76C0CE01805C10
:1006800091090E94B402EC016FC0CE019927D3FFFB
:1006900003C0EC01D86C68C0EC01D06C65C0DF70A1
:1006A000D06A62C074E0969587957A95E1F7837079
:1006B0009C2F937021E030E002C0220F331F9A95E7
:1006C000E2F73C68382BCF70C695C69540E2C49FD0
:1006D000E0011124C22BD32B47C0CE018370992790
:1006E00021E030E002C0220F331F8A95E2F78C2F01
:1006F0008695869540E2849FC0011124E901C82BAC
:10070000D92BDC6831C0CE018370992721E030E01D
:1007100002C0220F331F8A95E2F78C2F86958695AB
:1007200040E2849FC0011124E901C82BD92BDA686B
:100730001BC0D82FCC27C46FD06A16C0DC2FCC27A3
:10074000C06FD06A11C08F700E944C0494E0D6959F
:10075000C7959A95E1F7CF70D0E0DC2FCC27D06910
:10076000C82B02C0C0E0D0E0CE01DF91CF91089548
:100770008238910569F1B0F48133910509F46DC0B7
:1007800048F48932910509F463C08A32910509F46D
:1007900069C008958533910509F455C089339105E1
:1007A000B9F00895833E910569F138F4803E9105D2
:1007B000B1F0823E910509F10895863E9105A9F1B7
:1007C000873E9105B9F1843E910509F064C023C0CC
:1007D0002091FC0120FD4FC021FD4DC00895809166
:1007E000FC0180FD44C08091FD0180FF44C08091E8
:1007F000FC0184FD42C083EE4DC08091FC0182FF6C
:1008000038C0F5CF8091FC0182FD33C08091FD019D
:1008100080FD31C0ECCF8091FD0181FF32C080911D
:10082000FC0184FD2AC087EE35C08091FC0183FF66
:1008300026C0F5CF8091FC0183FD21C08091FD0190
:1008400081FD1FC0ECCF8091FC0185FD1CC01DC047
:100850008091FC0185FD19C016C08091FC0186FDC8
:1008600016C017C08091FC0186FD13C010C089E33B
:1008700011C082EE0FC080EE0DC080E00BC086EE8E
:1008800009C084EE07C089E205C085E303C08AE29F
:1008900001C081E390E008959091FC0192FF0DC0AA
:1008A000282F2871283019F4877F846006C0282FEC
:1008B0002471243011F48B7F886093FF0DC0282FA2
:1008C0002871283119F4877E846106C0282F24718D
:1008D000243111F48B7E88612091FD0120FF0DC031
:1008E000382F3871383019F4877F816006C0382F6F
:1008F0003171313011F48E7F886021FF0DC0282FB7
:100900002871283119F4877E816106C0282F217152
:10091000213111F48E7E886194FD877E0895E82F41
:10092000F0E0E251FE4F80810895089580EA8A95B3
:10093000F1F7089508950C949A040C949B04F8948C
:10094000E82FE295EF70F0E031A1282F2F7081E0C1
:1009500090E001C0880F2A95EAF7982F909593238D
:1009600091A392A1892B82A37894089508950E945F
:10097000FB058091000180910001811102C094E08B
:1009800001C090E09093F70184E0891B8093F60109
:1009900084EF0E949F0485EF0E949F0486EF0E94CF
:1009A0009F0487EF0E949F0484E90E949F0486E6CB
:1009B0000E949F0487E90E949F0486EC0E949F0486
:1009C00084E30E949F04E6EEF1E0AEEEB1E0119206
:1009D0001D9281E0EE3EF807D1F784E00E94A50564
:1009E0000E9436020C9405060E94DC058823F1F073
:1009F0008091F60190E082519E4F0E94180681116D
:100A000011C0809124018F5F80932401863060F0B3
:100A1000E091F601F0E0E251FE4F10821182128265
:100A2000138202C0109224010C943E028091F701BF
:100A300090E082519E4F0E9433060C94B6048F9230
:100A40009F92AF92BF92CF92DF92EF92FF920F935D
:100A50001F93CF93DF938BE1A82E81E0B82EC6EED3
:100A6000D1E09FE1E92E91E0F92E912C01E010E018
:100A70006501F5018081F894E82FE295EF70F0E0D0
:100A800021A18F70A80102C0440F551F8A95E2F77B
:100A9000CA01922F982B91A392A18095892382A3BA
:100AA00078940E949604E6E1F1E020E030E0812CA9
:100AB0004191A42FA295AF70B0E090968C9190E0F8
:100AC0004F7002C0959587954A95E2F780FD07C063
:100AD000802F022E01C0880F0A94EAF701C080E03F
:100AE000882A2F5F3F4F2530310511F75FEFA51A98
:100AF000B50AF60180810E949F048881881619F04A
:100B0000888281E001C080E0982A2196EA14FB04E3
:100B100009F0AECF6091F70170E062517E4F292D50
:100B200044E086EE91E00E94A6050E94F404892D1F
:100B3000DF91CF911F910F91FF90EF90DF90CF90B9
:100B4000BF90AF909F908F9008950895FF920F935C
:100B50001F93CF93DF938C01F62ED72FC42F222320
:100B600049F081E0809327010E9436169093260178
:100B700080932501809127018823C1F08091250170
:100B8000909126010E944216069780F0EF2DFD2FCE
:100B9000D8014C2F50E0CD01801B910B8417950795
:100BA0001CF48D918193F7CF10922701DF91CF91A3
:100BB0001F910F91FF90089580912801811112C01B
:100BC0008091D80080618093D8008AE18A95F1F7FE
:100BD00000C08091D90080FD02C082E001C081E0A8
:100BE0008093280181E090912801913009F080E004
:100BF00008950C94DC050E94F905809300010E9481
:100C0000DC0581110C940C0608950E94DC0581110D
:100C100002C00C941206089561E070E081E091E05A
:100C20000C94C00861E070E081E091E00C94C7088A
:100C3000CF93DF93D82FC92F0E945F09892B79F4B6
:100C4000ED2FFC2F80E090E0DC01A65DBE4F2C91E3
:100C50002193019684309105B9F781E001C080E0CD
:100C6000DF91CF91089520E030E0FC014191CF0168
:100C7000F901E65DFE4F40832F5F3F4F2430310581
:100C8000A1F708950F931F93CF93DF93C42FD22F13
:100C9000FC0182818823C9F0409330010E943616FE
:100CA00090932F0180932E0180E28C0F883008F002
:100CB00057C0C77081E001C0880FCA95EAF7DF917D
:100CC000CF911F910F910C94670B809130014813C5
:100CD00030C080912E0190912F010E944216883CD5
:100CE000910538F510E21D0FCD17B9F080E28C0F99
:100CF000883040F4C77081E001C0880FCA95EAF7D8
:100D00000E946E0B183028F581E09D2F977001C06E
:100D1000880F9A95EAF70E94670B802F0E94540B68
:100D20001830F0F4D77081E001C0880FDA95EAF747
:100D30000AC080E28C0F883098F4C77081E001C04F
:100D4000880FCA95EAF7DF91CF911F910F910C940C
:100D50006E0B802FDF91CF911F910F910C94540B4C
:100D6000DF91CF911F910F9108950F939C01CB01BB
:100D7000243F4CE5340731F188F4293DFCE53F0779
:100D8000D9F02A3D4CE5340779F1283D3C45A9F5D9
:100D900006E221EE41EE68ED7CE52BC0263FFCE546
:100DA0003F07E1F0A8F0273F3C4539F507E225EE83
:100DB00046EE67EF7CE51DC007E225EE45EE69EDE6
:100DC0007CE517C006E221EE40EE64EF7CE511C041
:100DD00007E225EE44EE65EF7CE50BC006E221EE6E
:100DE00042EE66EF7CE505C008E221E045EE6AEDE3
:100DF0007CE50E94420680E008C0FC0182818823D5
:100E000019F01092300101C081E00F910895CF9345
:100E1000DF93EC01FB018281882309F41FC1C230FA
:100E2000FCE5DF0708F41BC1C6319CE5D90738F0A3
:100E30009E012B5F3C452930310508F010C10E940E
:100E400054149093FD018093FC01C031ECE5DE0762
:100E500009F4C3C008F041C0C8308CE5D80709F4D4
:100E60009AC0F0F4C430ECE5DE0709F487C068F4FA
:100E7000C2308CE5D80709F477C0C330DC4509F0EF
:100E8000E3C08091FC01826076C0C630ECE5DE07ED
:100E900009F46EC008F07BC08091FC0188606BC0D3
:100EA000CC308CE5D80709F485C068F4CA30ECE58D
:100EB000DE0709F474C008F079C00E94C20D809169
:100EC000FC01806858C0CE308CE5D80709F476C0A4
:100ED00008F07FC08091FC018BC0CC3FECE5DE07C1
:100EE00009F44FC018F5C3318CE5D80709F47DC06B
:100EF00078F4C131ECE5DE0709F473C0C231DC459A
:100F000009F0A2C00E94C20D8091FC018F7733C00E
:100F1000C5318CE5D80709F472C008F486C0CB3F10
:100F2000DC4509F091C08091FD013EC0C115FDE591
:100F3000DF0709F45FC058F4CE3F9CE5D90709F4F8
:100F400044C008F43FC08091FD0182602DC0C230D2
:100F5000FDE5DF0709F475C008F45DC0C330DD4569
:100F600009F072C080E06EC08091FC01816003C016
:100F70008091FC0180618093FC0166C08091FC013E
:100F800011C08091FD0182608093FD015DC0809160
:100F9000FC018062F0CF8091FC018064ECCF8091F5
:100FA000FC0188608460E7CF8160EECF8091FC0116
:100FB0008E7FE1CF8091FC018D7FDDCF8091FC01A0
:100FC000877FD9CF8091FD0118C08091FD018D7F71
:100FD000DBCF8091FC018F7ECECF8091FC018F7D95
:100FE000CACF8091FC018F7BC6CF8091FC01877FA7
:100FF0008B7FC1CF8091FD018D7F8E7FC5CF80918A
:10100000FC0182FB222720F991E0922790FB82F9D4
:1010100090FB83F9B0CF8091FD01982F909591704E
:101020008E7F892B90FB81F9AFCF0E94C20D8091FA
:10103000FC0187FB222720F991E0922790FB87F99A
:101040009ACF81E00E94EA148091FC019091FD0109
:101050000E9465140E94C20D80E001C081E0DF9112
:10106000CF910895CF93DF9386319C4541F5EB01F5
:101070000E949013982F8A812091090130910A01D2
:10108000882379F09A7A81E009F480E08093310135
:10109000911102C069E201C065E3C9010E94851592
:1010A0000AC080913101811102C069E201C065E38B
:1010B000C9010E9490150E94DE1380E001C081E00A
:1010C000DF91CF9108958EE14A9B02C08150E1F7F4
:1010D0004A9BFECF08955A9880E28A95F1F75A9A72
:1010E0000895FC012AE02A95F1F728E090E080E0DD
:1010F00031E040E14A95F1F7880F4A9B02C08160D8
:10110000932700C0000040E14A95F1F7215089F78C
:1011100020E12A95F1F729B100C0000030E13A95AD
:10112000F1F722FB222720F992272081920F90834A
:101130000895EF92FF920F931F93CF93DF931F9227
:10114000CDB7DEB719828C017C01E60EF11C0E15BD
:101150001F0551F00E946308CE0101960E9471089C
:10116000F80181938F01F3CF81E09981911180E0A3
:101170000F90DF91CF911F910F91FF90EF90089505
:101180009093330180933201529A5A9A0895909322
:1011900033018093320152985A9AEA9AE9E6F0E0D4
:1011A00080818F7C80830895615091E001C0990F08
:1011B0006A95EAF720E031E0992361F0492F48234E
:1011C00019F05A9A232701C05A9840E24A95F1F73C
:1011D0009695F2CF222311F05A9A01C05A9880E2D4
:1011E0008A95F1F75A980895FF920F931F93CF9322
:1011F000DF93EC018C01060F111DC017D10741F0E0
:10120000F9900E946B0868E08F2D0E94D408F5CFFA
:10121000DF91CF911F910F91FF9008951F920F9230
:101220000FB60F9211242F933F934F935F936F93B9
:101230007F938F939F93AF93BF93CF93DF93EF935E
:10124000FF935A98529AC0913201D09133016D8127
:10125000662321F08E819F810E94F4080E946B0812
:1012600080E18A95F1F75A9852985A9A80E18A95C6
:10127000F1F76A81662351F08B819C810E94990865
:10128000E881F981811104C082E003C0E881F9811D
:1012900088E080830E946308FF91EF91DF91CF91F6
:1012A000BF91AF919F918F917F916F915F914F917E
:1012B0003F912F910F900FBE0F901F901895CF93D5
:1012C000DF93C0913201D0913301F894529A5A9829
:1012D00085E08A95F1F7000052985A9A80E28A9543
:1012E000F1F74A9B0AC0529A5A9AE881F98181E043
:1012F0008083789481E090E02CC06D81662381F03A
:101300008E819F810E94990881110AC0529A5A9A2F
:10131000E881F98182E08083789482E090E019C0CE
:101320000E94630880E28A95F1F75A98529A80E108
:101330008A95F1F76A81662321F08B819C810E9456
:10134000F4080E946B08E881F9811082789480E0AB
:1013500090E0DF91CF910895909339018093380107
:101360000895E0913801F0913901309721F0019012
:10137000F081E02D099480E00895E0913801F0912A
:101380003901309799F020911501222359F02091CD
:10139000FC0127FF07C0DC012C9111962C931197BB
:1013A00025E02C930280F381E02D0994089520918B
:1013B0003601309137012817390771F090933701C2
:1013C00080933601E0913801F0913901309721F096
:1013D0000680F781E02D0994089520913401309121
:1013E00035012817390771F0909335018093340146
:1013F000E0913801F0913901309721F00084F185B6
:10140000E02D0994089585B7806885BF85B7806809
:1014100085BF08950C94DC0508950C940C0A0C9477
:101420000C0A0C940F0A0C940C0A0C94130A0C94DA
:101430000C0A0E94030A0E94170A0C94150A0E94C3
:101440002D160E94B7040E9488160C94110AAF92C0
:10145000BF92CF92DF92EF92FF920F931F93CF93A1
:10146000DF93CDB7DEB72A970FB6F894DEBF0FBE75
:10147000CDBF0E940D0A0E940C0A0E941F050E9407
:101480000A0A811111C08FEF89838A831B820E940F
:1014900036168160782F9D838C8349815A816B81B8
:1014A0008D810E94C10A40C08BE3A82E81E0B82E36
:1014B00000E010E0C02E802F0E948F04E82EF5017E
:1014C000D1905F01D82631F40F5F1F4F083011050E
:1014D00089F7D9CF8091C20181FD0E94950480E0F7
:1014E000FF24F3949D2D9F21D1F08E83CF82EF2096
:1014F00081E009F480E088870E9436168160782FA9
:101500009A8789874E815F8168858A850E94C10A92
:10151000F801E55CFE4F8081F826F08205C08F5F00
:10152000FF0C8530F9F6D0CF0E94B10990913A01B5
:101530008917B1F00E94B10980933A012A960FB63B
:10154000F894DEBF0FBECDBFDF91CF911F910F91F9
:10155000FF90EF90DF90CF90BF90AF900C949402EB
:101560002A960FB6F894DEBF0FBECDBFDF91CF91A4
:101570001F910F91FF90EF90DF90CF90BF90AF90B1
:101580000895CF93DF93CDB7DEB72B970FB6F894BE
:10159000DEBF0FBECDBF4F83588769877A878B87A1
:1015A000DE01119686E0FD0111928A95E9F785E04A
:1015B000FE01379601900D928A95E1F749815A8193
:1015C0006B817C818D819E810E947B102B960FB652
:1015D000F894DEBF0FBECDBFDF91CF910895FC011F
:1015E000808191810E9451130895CF93882371F1D6
:1015F000C82F8CEF8C0F813AD0F46C2F80910901A9
:1016000090910A010E940515882349F06C2F809162
:10161000090190910A010E9490150E94DE136C2F1F
:101620008091090190910A010E9485150CC080E209
:101630008C0F883058F4C77081E001C0880FCA95BC
:10164000EAF70E949313CF910C94DE13CF91089583
:10165000882349F1682F8CEF860F813A38F4809106
:10166000090190910A010E9490150CC080E2860F3A
:10167000883050F4677081E001C0880F6A95EAF7FE
:101680000E9499130C94DE138BE5860F833020F4AF
:1016900080E090E00C94D709685A673120F480E02C
:1016A00090E00C94ED090895CF93C82F0E94F50A9D
:1016B000C93349F42FEF87EE93E0215080409040EA
:1016C000E1F700C000008C2FCF910C94280B8823E9
:1016D00021F00E9493130C94DE130895882321F0C7
:1016E0000E9499130C94DE130895CF92DF92EF922B
:1016F000FF920F931F93CF93DF937C01062FC72F89
:10170000FC01D581D295DF70128111110E94B013B6
:101710000E948913882399F0112389F08C2F807FF0
:10172000803421F080E2800F883048F082E00E940F
:1017300028140E94891391E0D82ED92601C0D12CFB
:10174000CC2EC2948FE0C8228C2D90E0FC01EA5A86
:10175000FF4F0C941F1D8C2F807FCF70882311F0BA
:10176000C295C07F112399F0CC2309F464C180E2B3
:10177000800F883010F0011104C08C2F0E94931349
:1017800003C08C2F0E94A3130E94DE1354C1802F2C
:101790000E94280BCC2309F473C180E2800F8830AB
:1017A00010F0011104C08C2F0E94991303C08C2FDC
:1017B0000E94A9130E94DE1363C18C2F807FCF701B
:1017C000803211F0C295C07F002319F00130C9F0BA
:1017D00022C0112371F0DD2341F0D13031F40E9499
:1017E000C3138C2B0E94CB134BC10E94C3138C2BB1
:1017F0001DC0DD2319F0D13009F442C10E94D41379
:1018000025C0112321F0D63008F03AC10EC0D530E2
:1018100008F036C11BC0112361F0DD2331F0F70160
:10182000858180FF08C18F7085838C2F0E94670B94
:1018300027C1DD2359F0093309F00EC1FFEF27EE70
:1018400083E0F15020408040E1F704C18C2F0E94DA
:101850006E0B16C18C2F837009F045C0111114C195
:10186000402F429546954770440F440F602F6F708C
:10187000862F90E0A0E0B0E0042E04C0880F991FEE
:10188000AA1FBB1F0A94D2F704FF10C00FE010E09C
:1018900020E030E004C0000F111F221F331F4A95C3
:1018A000D2F7009510952095309503C000E010E028
:1018B0009801C695C695C370BC01CD01602B712BF4
:1018C000822B932BC23049F058F4C13019F00E949A
:1018D000CC11DAC00E94BA11D7C00E94DE11D4C068
:1018E0000E94B811D1C0112319F08C2F817001C052
:1018F0008695882309F4C8C0402F429546954770C5
:10190000440F440F602F6F70862F90E0A0E0B0E08E
:10191000042E04C0880F991FAA1FBB1F0A94D2F778
:1019200004FF10C00FE010E020E030E004C0000F22
:10193000111F221F331F4A95D2F70095109520954D
:10194000309503C000E010E09801C695C695C370BD
:10195000BC01CD01602B712B822B932BC23049F03F
:1019600058F4C13019F00E9491128EC00E947F126B
:101970008BC00E94A31288C00E94F21185C0CF7054
:10198000112339F08C2F0E941812802F0E94670BB0
:101990007BC0802F0E946E0B8C2F0E94391274C066
:1019A000023F01F128F4003F41F0013FA1F03FC0A8
:1019B000033FF9F0043F39F13AC0112341F0D5302B
:1019C00008F05EC08C2F8F710E945E1259C0D63015
:1019D00008F056C0F7CF112339F08C2F8F710E9479
:1019E00018124EC01123C9F38C2F8F710E94391227
:1019F00047C0112329F08C2F8F710E94031240C021
:101A00000E94FE113DC0112349F0CF718C2F0E941E
:101A1000181263E08C2F0E94131432C081E00E94E0
:101A20002814D23068F182E00E94281429C01123C2
:101A300031F0DD2391F2802F0E94F50A21C0DD23D1
:101A400099F2093349F49FEFE7EEF3E09150E0405B
:101A5000F040E1F700C00000802F0E94280B10C06A
:101A60004C2F4F70602FC7010E949D020E942911C8
:101A70000FC04C2F4F70602FC7010E94A00208C0FA
:101A800088EF8C0D843020F40E94B1090E949402EA
:101A9000DD20C9F00E94851380FD15C0F701128278
:101AA0000E947F130E941812C7010E94840D0E9499
:101AB0007F13DF91CF911F910F91FF90EF90DF90F7
:101AC000CF900C943912DF91CF911F910F91FF901D
:101AD000EF90DF90CF9008950F931F93CF93DF93F4
:101AE000EC01688179818A810E945C138C010E94DB
:101AF000B5120E94A611B801CE010E94750BDF91AC
:101B0000CF911F910F910895CF93DF93EC019881AE
:101B100089812B813C81232B31F08F3F31F481E08F
:101B20009F3F19F403C081E001C080E080FD19C02F
:101B3000CE010E94500281110CC00E94891388239B
:101B400081F08A81882369F082E0DF91CF910C9443
:101B50002814CE010E946C0DCE01DF91CF910C9420
:101B60002B02DF91CF9108950E94B0130E94C01301
:101B70000C94DE138091090190910A010E949B153B
:101B80000C94B40D0E94A0130C94BA0DE92FE295A9
:101B9000EF704E2F50E0FA013297EE30F105B0F4BD
:101BA000EA59FF4F0C941F1D803F91F018F4883EB6
:101BB00068F40EC0843F51F40BC0883E48F0813F6A
:101BC00029F406C093FB882780F9089580E00895E2
:101BD00081E008950E9451130E94C60D0895CF938D
:101BE000DF9300D000D01F92CDB7DEB70F900F90DB
:101BF0000F900F900F90DF91CF910895CF93DF93C7
:101C000000D000D000D0CDB7DEB726960FB6F8943E
:101C1000DEBF0FBECDBFDF91CF9108951F93CF934D
:101C2000DF93C091440116E080914501C81799F0F7
:101C3000D0E01C9FF0011D9FF00D1124EA5BFE4FC8
:101C40004081518162817381848195810E94FE0D62
:101C50002196C770E9CFDF91CF911F9108954091F0
:101C600076015091770160917801709179018091AE
:101C70007A0190917B010C94FE0D0F931F93CF93EB
:101C8000DF9380917B0182958F7009F05DC0809118
:101C90007801882309F458C08091440110914501CE
:101CA0006091760170917701C0917901D0917A01AC
:101CB00091E06F3F09F090E0292F06E0811709F4C9
:101CC00043C0209721F07F3F21F030E003C031E096
:101CD00001C0322F90E030FD34C0089FF001099F11
:101CE000F00D1124DF01AA5BBE4F11963C911197B4
:101CF000371327C03C91361324C012963C9112979B
:101D000031111FC013964D915C9114974C1B5D0BC4
:101D1000483C5105B0F480917B018F7080618093C5
:101D20007B01E55BFE4F80818F708061808386E759
:101D300091E00E94840DDF91CF911F910F910C943F
:101D40000E0E01968770BACFDF91CF911F910F9140
:101D500008959F92AF92BF92CF92DF92EF92FF923F
:101D60000F931F93CF93DF93CDB7DEB761970FB675
:101D7000F894DEBF0FBECDBF8C0185E0F801DE0117
:101D80001D9601900D928A95E1F7F80140815181ED
:101D9000E2809091760160917701209179013091F4
:101DA0007A012115310531F06F3F31F481E09F3F19
:101DB00019F403C081E001C080E0F82FF1709F2E7C
:101DC00080FD46C1F801A380B48086E7C82E81E07B
:101DD000D82EF0907801F501E21BF30BFF2009F4F7
:101DE000DFC080917B01E83CF10508F09BC0282F03
:101DF000207F09F052C0561313C0491311C0FE2CA6
:101E0000E1100EC08F70806180937B010E942F0EC5
:101E1000C6010E94840D80917B01F801858358C121
:101E2000AB2831F05F3F31F481E04F3F19F403C03C
:101E300081E001C080E080FD03C081E08E2502C00A
:101E400080E090E0F82FF170FF2E80FF1CC08091A1
:101E500044012091450136E0821709F417C190E052
:101E6000389FF001399FF00D1124EA5BFE4F61812C
:101E7000561306C06081461303C06281E61203C098
:101E800001968770E9CFFE2CEE2009F421C18091E4
:101E90007B01816080937B015AC0561306C04913B1
:101EA00004C0E11002C0F8019FC04D875E878D8598
:101EB0009E850E94EA0D882379F1EE2069F1209138
:101EC0007B01822F82958F7090E0029774F0809151
:101ED00076019091770198878F831986BB86AA86B1
:101EE0002C87CE0107960E94840D86E0F801A6E7B4
:101EF000B1E001900D928A95E1F70E943D0E0E949B
:101F00002F0E0DC0561729F14D875E878D859E8552
:101F10000E94EA0D81112CC0C8010E94840DFF248B
:101F2000F394D6C0282F207F69F77A2DB98AA88A22
:101F30006E2D89890E94EF0D86E791E00E94840D45
:101F400086E0F60111928A95E9F70E942F0EF12C96
:101F5000BFC04913D9CFE110D7CFF8018583C8019D
:101F60000E94840D86E0F60111928A95E9F7B0C0CF
:101F7000EE2091F220917B01822F82958F7090E06C
:101F800002970CF4B2CF80917601909177019A83F9
:101F900089831B82BD82AC822E83CE010196A3CFA2
:101FA000E83CF10508F047C0FE2CEE2009F4B4CF60
:101FB000561330C049132EC020917B0120FD21C053
:101FC000822F82958F70482F50E041155105C9F03E
:101FD000F80125834F30510541F08F5F982F92957E
:101FE000907F822F8F70892B8583C8010E94840D7A
:101FF00086E0F801A6E7B1E001900D928A95E1F73D
:1020000042C086E0F801A6E7B1E001900D928A9502
:10201000E1F75EC04D875E878D859E850E94EA0D43
:10202000811163CF80917B01816080937B01C80126
:102030000E94840D4DC07A2DB98AA88A6E2D898997
:102040000E94EF0D86E0F60111928A95E9F71BC018
:10205000EE2009F461CF4D875E878D859E850E94B5
:10206000EA0DF82E882309F457CF86E0F801A6E799
:10207000B1E001900D928A95E1F786E791E00E9428
:10208000EF0A0E943D0E0E942F0E22C04D875E87F0
:102090008D859E850E945113292F22952F70223005
:1020A00028F49F7039F0811105C00BC0243028F44A
:1020B0009F7049F4805E883020F0C8010E94840D32
:1020C0009F2CF92C05C0F8019581907F99F7F9CFE5
:1020D0008F2D61960FB6F894DEBF0FBECDBFDF9196
:1020E000CF911F910F91FF90EF90DF90CF90BF9015
:1020F000AF909F9008951F93CF93DF93CDB7DEB736
:102100002C970FB6F894DEBF0FBECDBF4F83588714
:1021100069877A878B879C87CE0107960E94A90ED4
:102120008823D1F09F8188852A853B85232B31F038
:102130008F3F31F481E09F3F19F403C081E001C07B
:1021400080E080FD47C04F81588569857A858B8501
:102150009C850E94FE0D3EC086E0FE013796DE01A2
:10216000119601900D928A95E1F7FF81E8856A85C5
:102170007B856115710531F0EF3F31F481E0FF3F60
:1021800019F403C081E001C080E080FD23C02091EC
:10219000450130E0C90101968770992740914401BB
:1021A00050E084179507F1F1F983EA837D836C830E
:1021B00096E0929FD001939FB00D1124AA5BBE4F71
:1021C000FE01319601900D929A95E1F780934501B9
:1021D0000E940E0E16E080914401909145018917EE
:1021E00071F1189FC00111248A5B9E4F0E94A90EB5
:1021F000882329F1E09144011E9FF0011124EA5B3C
:10220000FE4F4081518162817381848195810E945A
:10221000FE0D8091440190E001968770992780938C
:102220004401D9CF0E94C20D109245011092440181
:10223000E6E7F1E086E0DF011D928A95E9F72C964A
:102240000FB6F894DEBF0FBECDBFDF91CF911F91C7
:102250000895EF92FF920F931F93CF93DF938C011A
:10226000892B09F46CC0F12CEE24E394E80121964B
:10227000F8018491843740F4843008F051C08130F3
:1022800081F0823019F15BC0853709F444C0A8F1B0
:102290009CE7980F903708F052C08F770E94280B68
:1022A00041C00E5F1F4FFE01849190E2980F98305D
:1022B00050F48770FE2D01C0FF0F8A95EAF78F2F2B
:1022C0000E94B31314C00E94F50A2DC00E5F1F4F69
:1022D000FE01849190E2980F983060F48770FE2D93
:1022E00001C0FF0F8A95EAF78F2F0E94B9130E9451
:1022F000DE1319C00E94280B16C00E5F1F4FFE018F
:10230000C491CC2381F08FE99FE00197F1F700C0E1
:102310000000C150F6CF0E5F1F4FFE01F49003C0C6
:102320000E94F50A8E018F2D882309F49FCFEFE9D3
:10233000FFE03197F1F700C000008150F5CFDF9149
:10234000CF911F910F91FF90EF90089508950895F8
:102350000C94A7110C94A8110E94AA1160939901E2
:1023600070939A0180939B0190939C010C94B40DFF
:102370000C94AC110F931F930091990110919A0145
:1023800020919B0130919C01602B712B822B932B10
:102390001F910F910C94AC110F931F930091990111
:1023A00010919A0120919B0130919C01602371232F
:1023B000822393231F910F910C94AC110F931F93C1
:1023C0000091990110919A0120919B0130919C01FB
:1023D00060277127822793271F910F910C94AC11CE
:1023E0000C94A7110E94F0116093950170939601CF
:1023F00080939701909398010C94B40D60E070E085
:10240000CB010C94F2110F931F9341E050E060E078
:1024100070E08A019B0104C0000F111F221F331FAF
:102420008A95D2F7C901B8011F910F910C94F2114E
:102430000F931F9341E050E060E070E004C0440F50
:10244000551F661F771F8A95D2F78091950190914D
:102450009601A0919701B09198018A019B01082BE8
:10246000192B2A2B3B2BC901B8011F910F910C94FA
:10247000F2110F931F9341E050E060E070E004C060
:10248000440F551F661F771F8A95D2F740955095C8
:10249000609570958091950190919601A09197011A
:1024A000B09198018A019B01082319232A233B2319
:1024B000C901B8011F910F910C94F2110F931F9352
:1024C00041E050E060E070E004C0440F551F661F1B
:1024D000771F8A95D2F78091950190919601A091EE
:1024E0009701B09198018A019B01082719272A2793
:1024F0003B27C901B8011F910F910C94F2110F9362
:102500001F930091950110919601209197013091B0
:102510009801602B712B822B932B1F910F910C94A0
:10252000F2110F931F930091950110919601209144
:1025300097013091980160237123822393231F9187
:102540000F910C94F2110F931F930091950110912C
:102550009601209197013091980160277127822779
:1025600093271F910F910C94F211089524E0929FEC
:10257000900D1124890FE82FE695E695E695877072
:1025800051E001C0550F8A95EAF785E0E89FF00118
:102590001124E458FE4F20E030E070E04081CB0190
:1025A000022E02C0969587950A94E2F78170819574
:1025B00084278523842781932F5F3F4F2530310562
:1025C00069F7089524E0929F900D1124890F682FD8
:1025D000669566956695982F977085E0689FB0011F
:1025E000112440E050E080E0FB01E40FF51FE458C7
:1025F000FE4F208130E0092E02C0369527950A94BF
:10260000E2F721703327042E01C0220F0A94EAF763
:10261000822B4F5F5F4F4530510531F70895BF92D0
:10262000CF92DF92EF92FF920F931F93CF93DF939E
:102630008C01C0909501D0909601E0909701F090A8
:1026400098018091990190919A01A0919B01B0917C
:102650009C01C82AD92AEA2AFB2ACFE1D0E0D70177
:10266000C6010C2E04C0B695A795979587950A9438
:10267000D2F780FD04C0219790F7B12C07C0BC2E83
:10268000B8018C2F0E94BC020197A9F38B2DDF911A
:10269000CF911F910F91FF90EF90DF90CF90BF905F
:1026A0000895CF93DF93EC010E940F13BE010E94A7
:1026B000BC02DF91CF9108951F93CF93DF93EB017D
:1026C00090914301992321F0CB010E94511313C033
:1026D000882349F0CB010E940F13182F682FCE01D9
:1026E0000E94B61204C0CB010E94E212182FBE0154
:1026F000812F0E94BC02DF91CF911F91089580919C
:102700009D01859585958595089580919D0187709A
:10271000089590919D01977081E009F480E00895FB
:102720008091C10108959091C101892B8093C101CD
:10273000089580959091C10189238093C1010895E6
:102740001092C10108959091C001892B8093C0011E
:10275000089580959091C00189238093C0010895C8
:102760001092C00108959091BF01892B8093BF0101
:10277000089580959091BF0189238093BF010895AA
:102780001092BF01089580919E01089508950C94C0
:10279000C6130C94C71390919E01981721F0809353
:1027A0009E010C94C913089580919E01882329F0FD
:1027B00010929E0180E00C94C9130895E0910901E4
:1027C000F0910A018091C1018083E0910901F091AB
:1027D0000A0190818091C001892B8083E0910901D9
:1027E000F0910A0190818091BF01892B80838091B3
:1027F0009E01882381F0E0910901F0910A01908106
:10280000892B80838091090190910A010E94EF1425
:1028100081110E94D4138091090190910A010C94B6
:10282000BD090C94C61398E0899F90011124262BB2
:1028300020939D010E94181280919D018595859598
:1028400085950C94111410929D0180E00C94111444
:1028500020919D018095822380939D01982F9770F0
:1028600079F430E0482F082E000C550B241735075B
:1028700039F08595859585950E9439120C9423141D
:10288000089580E090E00E942D1D21E08C3E9E4F37
:1028900009F020E0822F089582E090E00C94251D3D
:1028A00083E090E00C94251DCF9384E090E00E949B
:1028B000251DC82F81E290E00E94251D2C2F30E0BD
:1028C000A901582BCA01CF910895CF93C92F682F22
:1028D00084E090E00E94331D6C2F81E290E0CF9164
:1028E0000C94331DAB01BC018FE090E00C94451DAE
:1028F000AB01BC0183E190E00C94451D60E070E009
:10290000CB010C94781460E070E0CB010E9472144B
:102910000C947E146CEE7EEF80E090E00E94511DDE
:1029200060E082E090E00E94331D60E083E090E090
:102930000E94331D1092990110929A0110929B01EE
:1029400010929C0160E084E090E00E94331D60E002
:1029500081E290E00E94331D60E085E090E00E94FB
:10296000331D60E086E090E00E94331D6FEF87E04A
:1029700090E00E94331D40E050E0BA0188E090E012
:102980000E94451D60E08DE090E00E94331D40E014
:1029900050E0BA0188E190E00E94451D60E087E1C7
:1029A00090E00E94331D40E050E0BA018CE190E0DD
:1029B0000E94451D60E080E290E00E94331D40E0EF
:1029C00050E0BA0188E190E00E94451D0C94831408
:1029D0000C948A14682F8EE090E00C94331DFC0157
:1029E000329680911501882331F08091FC0187FF98
:1029F00002C09EE101C096E080E0915028F0219154
:102A00002223D9F38F5FF9CF0895662351F12091E6
:102A100015012223E9F02091FC0127FF19C0462F60
:102A20004695469546954E31E0F4677021E030E0DA
:102A300002C0220F331F6A95E2F7FC01E40FF11D7B
:102A4000828190E02823392381E0232B69F409C097
:102A5000FC01329608962191621729F0E817F907D0
:102A6000D1F780E0089581E008959C01FC01329641
:102A70009FEF80E04191461789F09F3F19F4411183
:102A800001C0982F8F5F8630A9F79F3F39F0F90179
:102A9000E90FF11D97FDFA956283089508959C0151
:102AA0002A5F3F4FFC014281461301C0128201960A
:102AB00082179307B9F70895262F26952695269510
:102AC0002E3168F4FC01E20FF11D677021E030E067
:102AD00001C0220F6A95EAF78281282B228308958C
:102AE000262F2695269526952E3170F4FC01E20FAF
:102AF000F11D677021E030E001C0220F6A95EAF70E
:102B00002095828128232283089520911501222374
:102B100029F02091FC0127FD0C945C150C943515CF
:102B200020911501222329F02091FC0127FD0C940E
:102B300070150C944F1520911501FC01329622233B
:102B400031F08091FC0187FF02C08EE101C086E078
:102B5000DF011D928A95E9F7089508950C94AD154B
:102B60000C94AD15CF930E94B0150E941F050E94D2
:102B7000AE15C0E08C2F0E948F04811104C0CF5F7E
:102B8000C830C1F701C081E0CF9108950C94AD1514
:102B90000C94C6150E94C81580910202843049F138
:102BA0001092C30120E488E190E00FB6F894A89554
:102BB000809360000FBE2093600080E00E9494022A
:102BC0000E94C81583B7817F846083BF83B781600B
:102BD00083BF7894889583B78E7F83BF0FB6F894B0
:102BE000A8958091600088618093600010926000D9
:102BF0000FBE08950C94AD150E94C20D0E94B1093C
:102C00000E9494020C94FA151F920F920FB60F9225
:102C100011248F939F93AF93BF938091C301811130
:102C200013C08091F8019091F901A091FA01B0913F
:102C3000FB014196A11DB11D8093F8019093F9010C
:102C4000A093FA01B093FB01BF91AF919F918F9137
:102C50000F900FBE0F901F90189582E084BD93E0F7
:102C600095BD9AEF97BD80936E0008952FB7F894A5
:102C70008091F8019091F901A091FA01B091FB01C6
:102C80002FBF08959C014FB7F8948091F80190915F
:102C9000F901A091FA01B091FB014FBF821B930B88
:102CA000089578941F920F920FB60F9211248F936C
:102CB0009F93AF93BF938091F8019091F901A091F8
:102CC000FA01B091FB010196A11DB11D8093F8019D
:102CD0009093F901A093FA01B093FB01BF91AF91DA
:102CE0009F918F910F900FBE0F901F90189587E7BF
:102CF00097E790930108809300089AE088E10FB667
:102D0000F894A895809360000FBE90936000FFCF69
:102D10000E944114811102C00E94E8140E944C14C8
:102D20008093C2010E9454149093FD018093FC0192
:102D30000E945014682F70E080E090E00E94B8116B
:102D40006091950170919601809197019091980101
:102D50000C94F0118091E401089508950895CF93A3
:102D6000DF9320911501222339F02091FC0127FFE8
:102D700003C060E222E002C068E021E02093E900A5
:102D80002FEF3091E800215035FD06C035ED3A9522
:102D9000F1F700002111F5CF2091E80025FF1DC0BB
:102DA000EC0180911501811105C040E050E068E020
:102DB00070E003C070E040E050E0CE010E94811856
:102DC0008091E8008E778093E80080E2FE01A4EC19
:102DD000B1E001900D928A95E1F7DF91CF910895CE
:102DE000089580910102811109C00E94121A0E9467
:102DF0006F1A8091E20084608093E200089510923F
:102E000001020895089508950C94FC1542E061ECC8
:102E100081E00E948B1942E261EC82E00C948B19F4
:102E200080910402833009F460C030F4813071F085
:102E3000823009F499C008958A3009F485C08B3036
:102E400009F46BC0893009F0A7C020C0809103024B
:102E5000813A09F0A1C08091E800877F8093E80063
:102E60008091070290910802892B21F460E284ECA2
:102E700091E003C060E080E090E070E00E94CC1838
:102E80008091E8008B778093E80008958091030299
:102E9000813209F081C08091070290910802029767
:102EA00008F07AC08091E800877F8093E8008091E5
:102EB000E80082FD05C0809102028111F8CF6CC04C
:102EC0002091F3008091F20090E0922B029729F478
:102ED0008091F1008B7F813021F48091F10080930B
:102EE000E4018091E8008B7753C080910302813A1E
:102EF00009F052C08091070290910802892B09F0D5
:102F00004BC08091E800877F8093E8008091E800C3
:102F100080FFFCCF8091150136C080910302813281
:102F2000D9F58091070290910802892BA9F580912B
:102F3000E800877F8093E8000E94C0198091050215
:102F4000809315010C94C20D80910302813221F50A
:102F50008091E800877F8093E8000E94C0198091EB
:102F600006028093E501089580910302813AA1F45D
:102F70008091E800877F8093E8008091E80080FFDF
:102F8000FCCF8091E5018093F1008091E8008E777D
:102F90008093E8000C94C019089584B7877F84BF9C
:102FA0000FB6F894A89580916000886180936000C6
:102FB000109260000FBE90E080E80FB6F894809306
:102FC0006100909361000FBE0E94190A0E94121ABC
:102FD0000E946F1A8091E20084608093E2007894EE
:102FE0000E94041D0E941F0A8BE091E00E94AC0920
:102FF00080910202853069F40E94CA158091000216
:103000008823B1F30E94B215882391F30E946B18B4
:10301000EFCF0E94270A0E940D0A0E940C0AE8CFF7
:103020000C941218292F332723303105C9F060F48E
:103030002130310581F02230310509F044C08BE3A5
:1030400090E02CE632E043C021323105E1F022323B
:10305000310549F138C082E190E027EA32E037C01B
:1030600099278130910549F028F0029761F5ECE34A
:10307000F2E005C0E8E6F2E002C0E4E5F2E08491A7
:1030800090E09F0124C06115710541F06130710528
:10309000D1F489E090E027E932E019C089E090E0BE
:1030A0002EE732E014C06115710541F06130710501
:1030B00051F48BE390E029EB32E009C080E490E02A
:1030C00024EF32E004C080E090E020E030E0FA013C
:1030D00031832083089580E189BD82E189BD09B4EF
:1030E00000FEFDCF8091D8008F7D8093D800809125
:1030F000E00082608093E0008091E00081FDFCCFE1
:103100000895CF92DF92EF92FF920F931F93CF9388
:10311000DF93EC018B017A010E94DF19811133C02A
:10312000E114F10439F0F70180819181081B190B3A
:10313000C80FD91FC12CD12C0115110519F180918F
:10314000E80085FD16C08091E8008E778093E80046
:10315000E114F10449F0F70180819181C80ED91E74
:10316000D182C08285E00FC00E94DF19882321F33D
:103170000AC089918093F10001501109FFEFCF1A25
:10318000DF0ADACF80E0DF91CF911F910F91FF909E
:10319000EF90DF90CF9008952091090230910A02BC
:1031A0002617370748F06115710539F42091E800BA
:1031B0002E772093E80001C0B901FC0120E06115E1
:1031C000710579F1809102028823F1F18530F1F1E6
:1031D0008091E80083FD3CC08091E80082FD2EC014
:1031E0008091E80080FFEBCF2091F3008091F20006
:1031F00090E0922B6115710551F08830910538F4FB
:1032000021912093F100615071090196F3CF21E0E3
:10321000089709F020E08091E8008E778093E8001D
:10322000CECF2111CFCF0AC080910202882361F056
:10323000853061F08091E80083FD0AC08091E8004C
:1032400082FFF2CF80E0089582E0089583E0089540
:1032500081E008952091090230910A02261737076C
:1032600048F06115710539F42091E8002E7720931C
:10327000E80001C0B901FC0120E06115710591F180
:1032800080910202882309F440C0853009F43FC0D0
:103290008091E80083FD3DC08091E80082FD2FC051
:1032A0008091E80080FFE9CF2091F3008091F20047
:1032B00090E0922B6115710559F08830910540F42A
:1032C00024912093F1003196615071090196F2CF5B
:1032D00021E0089709F020E08091E8008E77809344
:1032E000E800CBCF2111CCCF0AC080910202882305
:1032F00061F0853061F08091E80083FD0AC0809123
:10330000E80082FFF2CF80E0089582E0089583E034
:10331000089581E00895982F973068F59093E9001B
:10332000981739F07091EC002091ED005091F00069
:1033300003C0242F762F50E021FD02C09F5FECCF09
:103340003091EB003E7F3093EB003091ED003D7FFC
:103350003093ED003091EB0031603093EB007093CF
:10336000EC002093ED005093F0002091EE0027FD3B
:10337000E5CF80E008958F708093E90081E00895A3
:103380008091030287FF11C08091E80082FD05C093
:10339000809102028111F8CF11C08091E8008B77F3
:1033A0000BC080910202882349F08091E80080FFE1
:1033B000F8CF8091E8008E778093E80008952091FF
:1033C000E4003091E50095E64091EC00842F817097
:1033D00040FF23C08091E80080FD1DC08091020263
:1033E000882399F0853099F08091EB0085FD11C01C
:1033F0004091E4005091E5002417350729F39150DE
:1034000011F09A01E1CF84E0089582E0089583E00D
:10341000089581E0089580E008954091E80042FF1A
:10342000DDCF08950E94801A0E94881AE0EEF0E035
:10343000808181608083E8EDF0E080818F778083F8
:1034400019BCA7EDB0E08C918E7F8C9380818F7E2C
:1034500080831092010208950F931F93CF93DF93FF
:103460000E94801A0E94881AC8EDD0E088818F7768
:10347000888388818068888388818F7D888319BC50
:10348000109202021092FE01109200021092FF01AF
:1034900000EE10E0F80180818B7F8083888181605D
:1034A000888342E060E080E00E948B19E1EEF0E06A
:1034B00080818E7F8083E2EEF0E080818160808376
:1034C000808188608083F80180818E7F80838881FD
:1034D00080618883DF91CF911F910F910895E8ED6E
:1034E000F0E080818F7E8083E7EDF0E08081816075
:1034F000808384E082BF81E0809301020C942C1AC7
:10350000E8EDF0E080818E7F80831092E2000895E4
:103510001092DA001092E10008951F920F920FB6F8
:103520000F9211242F933F934F935F936F937F9349
:103530008F939F93AF93BF93EF93FF938091E1009D
:1035400082FF0BC08091E20082FF07C08091E10002
:103550008B7F8093E1000E94031D8091DA0080FF41
:103560001FC08091D80080FF1BC08091DA008E7F41
:103570008093DA008091D90080FF0DC080E189BD81
:1035800082E189BD09B400FEFDCF81E08093020293
:103590000E94F11605C019BC109202020E94FF168B
:1035A0008091E10080FF19C08091E20080FF15C08A
:1035B0008091E2008E7F8093E2008091E200806142
:1035C0008093E2008091D80080628093D80019BC7B
:1035D00085E0809302020E9403178091E10084FF3E
:1035E00030C08091E20084FF2CC080E189BD82E17F
:1035F00089BD09B400FEFDCF8091D8008F7D8093F6
:10360000D8008091E1008F7E8093E1008091E200FC
:103610008F7E8093E2008091E20081608093E200DF
:103620008091FE01882311F084E007C08091E300BF
:1036300087FD02C081E001C083E0809302020E9406
:1036400004178091E10083FF29C08091E20083FF8D
:1036500025C08091E100877F8093E10082E0809324
:1036600002021092FE018091E1008E7F8093E100C2
:103670008091E2008E7F8093E2008091E200806181
:103680008093E20042E060E080E00E948B1980912C
:10369000F00088608093F0000E940217FF91EF9184
:1036A000BF91AF919F918F917F916F915F914F915A
:1036B0003F912F910F900FBE0F901F9018951F9262
:1036C0000F920FB60F9211242F933F934F935F9356
:1036D0006F937F938F939F93AF93BF93CF93DF931A
:1036E000EF93FF93C091E900CF708091EC00D82F49
:1036F000D17080FDD0E81092E9008091F000877FC2
:103700008093F00078940E94A31B1092E9008091AE
:10371000F00088608093F000CD2BCF70C093E9005B
:10372000FF91EF91DF91CF91BF91AF919F918F91D9
:103730007F916F915F914F913F912F910F900FBEAD
:103740000F901F9018951F93CF93DF93CDB7DEB7DF
:10375000AA970FB6F894DEBF0FBECDBFE3E0F2E04C
:103760008091F100819322E0EB30F207C9F70E94CB
:1037700010178091E80083FF2EC180910302909181
:103780000402492F50E04A30510508F024C1FA01E3
:10379000EC58FF4F0C941F1D803821F0823809F03F
:1037A0001AC108C08091FF0190910002992389F00D
:1037B00082600FC0809107028F70873008F00BC1C4
:1037C0008093E9008091EB0085FB882780F91092B7
:1037D000E9009091E800977F9093E8008093F100D2
:1037E0001092F100D1C0282F2D7F09F0F4C088235A
:1037F00019F0823061F0EFC080910502813009F04C
:10380000EAC0933009F080E0809300022EC08091DE
:10381000050281112AC0809107028F702FEF280FB7
:10382000263008F0D8C08093E9002091EB0020FFFB
:103830001CC0933021F48091EB00806214C0909101
:10384000EB0090619093EB0021E030E0A90102C011
:10385000440F551F8A95E2F74093EA001092EA0060
:103860008091EB0088608093EB001092E9008091DA
:10387000E800877F8093E8000E94C019ACC08111E6
:10388000AAC0109105021F778091E3008078812BF8
:103890008093E3008091E800877F8093E8000E9496
:1038A000C0198091E80080FFFCCF8091E300806820
:1038B0008093E300111102C082E001C083E0809395
:1038C000020289C08058823008F085C080910502CC
:1038D000909106028C3D53E0950779F583E08A8349
:1038E0008AE289834FB7F894DE01139620E03EE028
:1038F00051E2E32FF0E050935700E49120FF03C022
:10390000E295EF703F5FEF708E2F90E0EA3010F09D
:10391000C79601C0C0968D939D932F5F243149F7C0
:103920004FBF8091E800877F8093E8006AE270E0F3
:10393000CE0101960E94CC1816C0609107027091CA
:103940000802AE014F5F5F4F0E941018BC01892B27
:1039500009F441C09091E800977F9093E800898135
:103960009A810E942A198091E8008B778093E80061
:1039700032C0803881F58091E800877F8093E8002D
:103980008091FE018093F1008091E8008E7772CFE4
:10399000811121C08091050290910602992702971A
:1039A000D4F48091E800877F8093E800809105023D
:1039B0008093FE010E94C0198091FE01811106C012
:1039C0008091E30087FD02C081E001C084E0809324
:1039D00002020E9406178091E80083FF0AC08091CE
:1039E000E800877F8093E8008091EB0080628093FD
:1039F000EB00AA960FB6F894DEBF0FBECDBFDF91E5
:103A0000CF911F9108950895CF938091020288234A
:103A1000A1F0C091E900CF709091EC00892F8170E6
:103A200090FD80E8C82B1092E9008091E80083FDAA
:103A30000E94A31BCF70C093E900CF910895EE0FB1
:103A4000FF1F0590F491E02D0994F999FECF92BDE6
:103A500081BDF89A992780B50895A8E1B0E042E0C9
:103A600050E00C94591D262FF999FECF92BD81BDCF
:103A7000F89A019700B4021639F01FBA20BD0FB6AC
:103A8000F894FA9AF99A0FBE08950396272F0E9488
:103A9000341D0E94331D252F0E94341D242F0C94A9
:103AA000341D0196272F0E94341D0C94331DDC0118
:103AB000CB01FC01F999FECF06C0F2BDE1BDF89A39
:103AC000319600B40D9241505040B8F70895F894E3
:023AD000FFCF26
:103AD200012901002A01042A019F01AA16AF16AD8D
:103AE20016F016AE1601946697C634F4F5F6F70092
:043AF20000000000D0
:00000001FF
